:020000040800F2
:10000000882200201D5A0008B7020008B902000823
:10001000BD020008C1020008C5020008000000007F
:10002000000000000000000000000000C9020008FD
:10003000CB02000800000000038800088B82000843
:10004000375A0008375A0008375A0008375A00084C
:10005000375A0008375A0008375A0008375A00083C
:10006000375A0008375A0008375A0008375A00082C
:10007000375A0008C9590008375A0008375A00088B
:1000800081570008375A0008375A0008375A0008C5
:10009000375A0008375A0008375A0008375A0008FC
:1000A000375A0008375A0008375A0008375A0008EC
:1000B000375A0008375A0008375A0008375A0008DC
:1000C000375A0008375A0008375A0008375A0008CC
:1000D000375A0008375A0008215700088559000888
:1000E000375A0008375A0008375A0008375A0008AC
:1000F000375A0008375A0008375A0008375A00089C
:10010000375A0008375A0008375A0008375A00088B
:10011000375A0008375A0008D9090008375A00082A
:10012000375A0008375A0008375A0008375A00086B
:1001300000F002F800F0B0F80AA090E8000C824449
:100140008344AAF10107DA4501D100F0A5F8AFF226
:10015000090EBAE80F0013F0010F18BFFB1A43F0A5
:1001600001031847C8CC0000E8CC00000A444FF057
:10017000000C10F8013B13F0070408BF10F8014B06
:100180001D1108BF10F8015B641E05D010F8016B4B
:10019000641E01F8016BF9D113F0080F1EBF10F8AF
:1001A000014BAD1C0C1B09D16D1E58BF01F801CBD2
:1001B000FAD505E014F8016B01F8016B6D1EF9D555
:1001C0009142D6D37047000000230024002500266A
:1001D000103A28BF78C1FBD8520728BF30C148BFAA
:1001E0000B6070476E2908F03686702909F0B581DA
:1001F00066290CF0128465290CF00F8467290CF035
:100200000C846129AFF3008003681B0A28BF41F00A
:100210008001692908F0CC83642908F0C983752915
:1002200008F0C6836F2909F04381782909F081819C
:10023000E92909F0DD80E42909F0DA80F52909F0DF
:10024000D780EF2909F04081F82909F080810368FF
:10025000DB0928BF41F08001632909F04C80732934
:1002600009F05180E32909F06F82F32909F07482C3
:10027000002070471FB509F0CFF9040000200021CD
:100280000BF012FA401C6060002000210BF0F6F920
:10029000E0601FBD10B510BD09F016FB1146FFF759
:1002A000E9FF08F00AFA09F03DFB03B4FFF7F2FF9B
:1002B00003BC05F05BF9704700BFFEE700BFFEE737
:1002C00000BFFEE700BFFEE7704770470CB5002097
:1002D000019000906C48006840F480306A490860E2
:1002E00000BF6948006800F4003000900198401C8D
:1002F0000190009818B90198B0F5A06FF1D162484B
:10030000006800F4003010B10120009001E00020EE
:1003100000900098012843D15C48006840F010002C
:100320005A4908600846006820F003000860084643
:10033000006840F002000860534840685249486035
:100340000846406848600846406840F4806048605D
:100350000846406820F47C1048600846406840F435
:10036000E81048600846006840F08070086000BFF0
:100370004548006800F000700028F9D04248406805
:1003800020F00300404948600846406840F0020001
:10039000486000BF3C48406800F00C000828F9D1D4
:1003A0000CBD10B5FFF792FF10BD10B536480068C0
:1003B00040F001003449086008464068344908406C
:1003C0003149486008460068324908402E490860B3
:1003D0000846006820F4802008600846406820F441
:1003E000FE0048604FF41F008860FFF7DAFF4FF00F
:1003F00000602949086010BD10B5002100200022CE
:10040000214B5B6803F00C0121B1042906D00829B7
:1004100028D107E0214B224C236027E01F4B204CC2
:10042000236023E0184B5B6803F47010164B5B6885
:1004300003F48032022303EB904022B9194B43436B
:10044000174C23600DE0104B5B6803F4003323B1BD
:10045000144B4343124C236003E0104B4343104CB6
:10046000236003E00D4B0E4C236000BF00BF064B22
:100470005B68C3F303130C4CE15C094B1B68CB4076
:10048000074C236010BD0000001002400020024015
:100490000000FFF8FFFFF6FE08ED00E000127A0012
:1004A0000000002000093D000400002030B589B0A4
:1004B00005460C460121480305F05AFE0121112092
:1004C00005F056FE4FF47070ADF8200018208DF83E
:1004D000230003208DF8220008A9FE4805F08CFBBC
:1004E000ADF81850ADF814400020ADF81A00ADF882
:1004F000160005A9F84806F077F97020ADF8040059
:100500000120ADF806000020ADF80A00ADF80C009F
:1005100001A9F14806F0A5F901A9EF4806F0E3F9B1
:1005200001A9ED4806F02CFA01A9EB4806F073FA90
:100530000121E94806F0C0FC0821E74806F0E0FD8B
:100540000821E54806F0E5FD0821E34806F0EEFD48
:100550000821E14806F0F3FD0121DF4806F0A0FD87
:100560000121DD4806F09CFC0021DB4806F030FF4D
:100570000021D94806F02EFF0021D74806F02CFFB5
:100580000021D54806F02AFF09B030BD30B589B04A
:1005900005460C460121042005F0F7FD0121092044
:1005A00005F0E6FD4FF47070ADF8200018208DF8CE
:1005B000230003208DF8220008A9C84805F01CFB81
:1005C000ADF81850ADF814400020ADF81A00ADF8A1
:1005D000160005A9C24806F007F97020ADF804001E
:1005E0000120ADF806000020ADF80A00ADF80C00BF
:1005F00001A9BB4806F035F901A9B94806F073F91D
:1006000001A9B74806F0BCF901A9B54806F003FAFC
:100610000121B34806F050FC0821B14806F070FDF6
:100620000821AF4806F075FD0821AD4806F07EFDB3
:100630000821AB4806F083FD0121A94806F030FDF2
:100640000121A74806F02CFC0021A54806F0C0FEB9
:100650000021A34806F0BEFE0021A14806F0BCFE22
:1006600000219F4806F0BAFE09B030BD00B587B042
:100670000121084605F07CFD0121C80205F078FD46
:100680000121042005F074FD4FF44070ADF818000E
:1006900048208DF81B0003208DF81A0006A9914808
:1006A00005F0AAFA01224FF440718E4805F055FB7F
:1006B00044F62060ADF810000020ADF80C00ADF855
:1006C0001200ADF80E0003A9874806F08DF80A2342
:1006D0001A460321844806F096FC684606F0C3FBE0
:1006E0000820ADF8080069467F4806F010FB01219C
:1006F0007D4806F09BFE012211467B4806F0EBFB8D
:1007000000207949243108800121774806F0C8FB90
:1007100007B000BD00B587B00121744805F03DFB6E
:100720000121084605F024FD0121084605F02DFDB4
:100730000121042005F01CFD0121082005F018FD11
:1007400001216B4805F029FB4FF40040ADF818007B
:1007500004208DF81B0003208DF81A0006A96148BB
:1007600005F04AFA0122D1035E4805F0F6FA0820A6
:10077000ADF8180004208DF81B0003208DF81A0036
:1007800006A9564805F038FA01220821534805F019
:10079000E4FA4FF0804005F053FF03A94FF080408A
:1007A00006F022F844F62060ADF810000020ADF805
:1007B0000C00ADF81200ADF80E0003A94FF0804018
:1007C00006F012F800231A4603214FF0804006F08D
:1007D0001AFC684606F047FB0620ADF8080069469B
:1007E0004FF0804006F093FA0121880706F01EFEC4
:1007F00001221146900706F06EFB00204FF0804169
:1008000088840121880706F04BFB07B000BD00B5C6
:1008100087B00121084605F0ABFC0121022005F05C
:10082000B4FC0121042005F0A3FCC020ADF81800A1
:1008300048208DF81B0003208DF81A0006A92948CE
:1008400005F0DAF90122C021264805F086FA44F6BF
:100850002060ADF810000020ADF80C00ADF81200DB
:10086000ADF80E0003A9234805F0BEFF0A231A467F
:100870000321204806F0C7FB684606F0F4FA08207A
:10088000ADF8080069461B4806F041FA01211948F5
:1008900006F0CCFD01221146164806F01CFB002094
:1008A0001449243108800121124806F0F9FA07B0F2
:1008B00000BD00B587B00121084605F059FC0121B3
:1008C000082005F062FC0121042005F051FC032002
:1008D00012E000000010014000340140000C014013
:1008E0000008004000080140002C014000023000D8
:1008F0000003180000040040ADF8180048208DF8EF
:100900001B0003208DF81A0006A9454805F074F96C
:1009100001220321424805F020FA44F62060ADF898
:1009200010000020ADF80C00ADF81200ADF80E007C
:1009300003A93C4805F058FF0A231A460321394809
:1009400006F061FB684606F08EFA0820ADF8080054
:100950006946344806F0DBF90121324806F066FDAD
:10096000012211462F4806F0B6FA00202D49243105
:10097000088001212B4806F093FA07B000BD7FB52F
:1009800005460C460121102005F0FFFBADF808508C
:10099000ADF804400020ADF80A00ADF8060001A94A
:1009A000214805F021FF012211461F4806F093FA65
:1009B00036208DF8000000208DF8010003208DF80E
:1009C000020001208DF80300684605F04CF8012173
:1009D000154806F065FA7FBD10B50121124806F0F2
:1009E00028FD40B111480068401C104908600121F1
:1009F0000D4806F02FFD10BD10B5FFF737FEFFF7CD
:100A000089FEFFF704FF1D2140F2AF40FFF7BEFD56
:100A1000FFF74FFF1D2140F2AF40FFF747FD10BD2C
:100A200000080140000C00400010004014000020AD
:100A30002DE9F0470446002C08DBB4F5FA7F01DD10
:100A40004FF4FA740120FD49087008E06442B4F5DF
:100A5000FA7F01DD4FF4FA740020F849087020B2E3
:100A6000F649C88120460BF0FBFD8246F4490BF0A5
:100A700057FE81460BF048FC07460022F14B0AF076
:100A80005BFE05460BF06CF8EC494860BDE8F0876A
:100A90002DE9F0470446002C08DBB4F5FA7F01DDB0
:100AA0004FF4FA740120E849087008E06442B4F594
:100AB000FA7F01DD4FF4FA740020E349087020B298
:100AC000E149C88120460BF0CBFD8246DC490BF0A2
:100AD00027FE81460BF018FC07460022D94B0AF08E
:100AE0002BFE05460BF03CF8D7494860BDE8F0877F
:100AF0002DE9F0470446002C08DBB4F5FA7F01DD50
:100B00004FF4FA740120D149087008E06442B4F54A
:100B1000FA7F01DD4FF4FA740020CC49087020B24E
:100B2000CA49C88120460BF09BFD8246C4490BF0A0
:100B3000F7FD81460BF0E8FB07460022C14B0AF0A7
:100B4000FBFD05460BF00CF8C0494860BDE8F08796
:100B50002DE9F0470446002C08DBB4F5FA7F01DDEF
:100B60004FF4FA740120BA49087008E06442B4F501
:100B7000FA7F01DD4FF4FA740020B549087020B205
:100B8000B349C88120460BF06BFD8246AC490BF09F
:100B9000C7FD81460BF0B8FB07460022A94B0AF0BF
:100BA000CBFD05460AF0DCFFA9494860BDE8F087A7
:100BB00070B504460D465DB14FF49661A54806F048
:100BC0000BFCC4F5966081B2A24806F007FC0AE06F
:100BD000C4F5966081B29F4806F0FEFB4FF4966123
:100BE0009C4806F0FBFB70BD70B504460D465DB138
:100BF0004FF49661974806F0EBFBC4F5966081B21E
:100C0000944806F0E7FB0AE0C4F5966081B291488B
:100C100006F0DEFB4FF496618E4806F0DBFB70BDFC
:100C200070B504460D465DB14FF496618A4806F0F2
:100C3000D3FBC4F5966081B2874806F0CFFB0AE08B
:100C4000C4F5966081B2844806F0C6FB4FF4966105
:100C5000814806F0C3FB70BD70B504460D465DB11A
:100C60004FF496617C4806F0B3FBC4F5966081B200
:100C7000794806F0AFFB0AE0C4F5966081B2764889
:100C800006F0A6FB4FF49661734806F0A3FB70BD17
:100C90006A48806810F5966F02DA70486749886084
:100CA00066488068B0F5966F03DD4FF4966063493F
:100CB00088606548806810F5966F02DA6748624977
:100CC000886061488068B0F5966F03DD4FF49660E8
:100CD0005D4988605D48806810F5966F02DA5F486C
:100CE0005A49886059488068B0F5966F03DD4FF423
:100CF0009660564988605648806810F5966F02DA0B
:100D000056485349886052488068B0F5966F03DDB5
:100D10004FF496604E49886070472DE9F0470546CC
:100D20000C46601B0BF09CFC4D4908610A4611699A
:100D300050680BF0F5FC8046494A516910690BF088
:100D4000F7FD81464648016848460BF0E9FC074636
:100D500041460BF005FB06464148816930460BF0E1
:100D6000FFFA3F4988610846006948610CB90020D4
:100D700088613B4988693B490BF09EFD03D23948A5
:100D80003749886108E03649886900210BF094FCF6
:100D900002D2002032498861314988690BF044FC55
:100DA000BDE8F0870146002901DA002000E008468E
:100DB00070472DE9F04705460C46601B0BF050FCD0
:100DC000294908610A46116950680BF0A9FC804660
:100DD000254A516910690BF0ABFD81462248016834
:100DE00048460BF09DFC074641460BF0B9FA064613
:100DF0001D48816930460BF0B3FA1B4988610846EB
:100E0000006948610CB90020886117498869154953
:100E10000BF052FD03D213481349886108E01249D0
:100E2000886900210BF048FC02D200200E4988613D
:100E30000D4988690BF0F8FBBDE8F087300200200F
:100E400037BEEF3D0000E03F440200205802002082
:100E50006C020020000800400034014050FBFFFFFE
:100E6000E802002000009644CC0200202DE9F04763
:100E700005460C46601B0BF0F3FBFE4908610A4671
:100E8000116950680BF04CFC8046FA4A51691069B0
:100E90000BF04EFD8146F748016848460BF040FCD8
:100EA000074641460BF05CFA0646F2488169304637
:100EB0000BF056FAEF4988610846006948610CB9A1
:100EC00000208861EB498869EB490BF0F5FC03D2FF
:100ED000E948E849886108E0E649886900210BF0A3
:100EE000EBFB02D20020E3498861E24988690BF0FC
:100EF0009BFBBDE8F0872DE9F04705460C46601BDB
:100F00000BF0AEFBDD4908610A46116950680BF031
:100F100007FC8046D94A516910690BF009FD8146EA
:100F2000D648016848460BF0FBFB074641460BF0EC
:100F300017FA0646D148816930460BF011FACF49BD
:100F400088610846006948610CB900208861CB4976
:100F50008869C9490BF0B0FC03D2C748C74988610A
:100F600008E0C649886900210BF0A6FB02D20020E8
:100F7000C2498861C14988690BF056FBBDE8F0871A
:100F800070B50025BE48007C00F0010058B9BD488E
:100F9000C08948BBBC48C08930BBBC48C08918BBAD
:100FA000BB48C08900BB0021BA4806F011FA0021F5
:100FB000B84806F00FFA0021B64806F00DFA0021F5
:100FC000B44806F00BFA0021B34806F001FA0021FC
:100FD000B14806F0FFF90021AF4806F0FDF9002105
:100FE000AD4806F0FBF970BDAC48B0F90440A54A25
:100FF0005168002C01DB224600E062421046FFF7F8
:101000007AFF0646FFF7CEFE9E498860A348B0F9F6
:1010100000409D4A5168002C01DB224600E06242FC
:101020001046FFF723FF0646FFF7BCFE964988608F
:101030009A48B0F90840954A5168002C01DB2246D5
:1010400000E062421046FFF7B4FE0646FFF7AAFE34
:101050008E4988609148B0F902400A465168002CD8
:1010600001DB224600E062421046FFF756FE0646CC
:10107000FFF798FE86498860FFF70AFE814A1178DB
:101080009068FFF7E9FD804A11789068FFF7C8FD86
:101090007E4A11789068FFF7A7FD7D4A1178906825
:1010A000FFF786FD00BF9EE77D48744908607D48D4
:1010B00048607B486F4908607A48486078487A49B8
:1010C0000860784848607648784908607548486004
:1010D00070472DE9F04704460D46281B0BF0C0FA77
:1010E0007349086008460168724800680BF038F9D7
:1010F00070490860704801686D4800680BF018FC82
:1011000080466E48016840460BF00AFB0646694877
:1011100001686B4800680BF003FB80466448016877
:10112000684800680BF0FCFA814641460BF018F95C
:10113000074631460BF014F9634908605C480068C3
:101140005D490860604800680BF06EFABDE8F08702
:101150002DE9F0410446002120680BF0ADFA03D2DE
:10116000206880F000402060002160680BF0A4FA45
:1011700003D2606880F0004060600021A0680BF03E
:101180009BFA03D2A06880F00040A0600021E068D4
:101190000BF092FA03D2E06880F00040E060206932
:1011A000E0612169206A0BF0DBF820620021E06831
:1011B0000BF006FA13D0E168206A0BF07DFB02D237
:1011C000E06820620BE0E06880F000452846216A74
:1011D0000BF072FB03D2E06880F000402062A1694E
:1011E00020690BF0A5FB60622069A061616AA068BC
:1011F0000BF096FA0646216A60680BF091FA0746F2
:10120000E16920680BF08CFA804639460BF0A8F8AB
:10121000054631460BF0A4F86061BDE8F0812DE988
:10122000F04F93B004460D4616469946604204B20C
:101230007042642190FBF1F738460AF0EEFC234A35
:1012400003C20022224B214903C90AF04DFDCDE91A
:10125000100148460AF0E1FCCDE908010AF098F9CE
:1012600082468B4628460AF0D8FC074652465B4623
:1012700030E00000B00200200000964494020020FC
:10128000800200203002002044020020580200208A
:101290006C0200200034014000080040B803002028
:1012A0000000F04200004040CC020020E802002094
:1012B00038000020400000204400002034000020BE
:1012C000300000202C0000203C00002060000020A6
:1012D000007070400AF008FDCDE90C0148460AF0A4
:1012E0009CFCCDE9080109F029FC07468846204608
:1012F0000AF093FC82463A4643460AF0F5FCCDE9F3
:101300000A01DDE90C230AF017FACDE90E01DDE947
:1013100010230AF011FA974A03C20022964B97490C
:1013200003C90AF0E1FCCDE9100148460AF075FC5A
:10133000CDE9000109F002FC82468B4690489149B4
:101340000AF026F9074652465B460AF0CDFCCDE985
:10135000040148460AF061FC82460AF019F9074682
:1013600088468748874909F0E9FB81F000413A4601
:101370004346CDE900010AF0B7FCCDE90201DDE901
:1013800004230AF0D7FECDE9080128460AF045FCFF
:10139000CDE90601DDE908230AF0A6FCCDE90C0140
:1013A00048460AF03AFCCDE900010AF0F1F8074698
:1013B0008846734874490AF0EBF882463A46434639
:1013C0000AF092FCCDE9040148460AF026FCCDE97A
:1013D000000109F0B3FB074688466948694909F0EE
:1013E000ADFB81F0004182463A4643460AF07CFC60
:1013F000CDE90201DDE904230AF09EF9CDE90801F7
:1014000020460AF00AFCCDE90601DDE908230AF0CE
:101410006BFCCDE90A01DDE90C230AF08DF9CDE979
:101420000E01DDE910230AF087F9584A03C20022B1
:10143000514B524903C90AF057FCCDE91001484607
:101440000AF0EBFBCDE9000109F078FB82468B4600
:101450004B484D4909F072FB074652465B460AF07D
:1014600043FCCDE9040148460AF0D7FB07460AF0E1
:101470008FF882468B46424843490AF089F881F04A
:10148000004152465B46CDE900010AF02DFCCDE952
:101490000201DDE904230AF04FF9CDE908012846ED
:1014A0000AF0BBFBCDE90601DDE908230AF01CFCCC
:1014B000CDE90C0148460AF0B0FBCDE900010AF085
:1014C00067F882468B462E482F4909F037FB0746BE
:1014D00052465B460AF008FCCDE9040148460AF092
:1014E0009CFBCDE9000109F029FB0746884624480A
:1014F00025490AF04DF881F0004182463A464346BC
:101500000AF0F2FBCDE90201DDE904230AF014F947
:10151000CDE9080120460AF080FBCDE90601DDE9AE
:1015200008230AF0E1FBCDE90A01DDE90C230AF00A
:1015300003F9CDE90E01DDE910230AF0FDF8144AA4
:1015400003C20C4903C90AF00BFB0746FFF770FA08
:101550000E4903C90AF004FB0746FFF799FA0C4944
:1015600003C90AF0FDFA0746FFF7C2FA13B0BDE857
:10157000F08F0000480000200070704060000020E4
:10158000A138DB3752C1F03F52C1E03F500000208C
:101590005800002070B5002500244DF6ED60F74995
:1015A0000880F74880788870F5480079C870F4485A
:1015B0008088000A0871F248807A4871F048807982
:1015C000887100BF06E0EF48015DE01DEB4A115451
:1015D000601CC4B2EA488079A042F4DC002405E033
:1015E000E648005D284405B2601CC4B2E448807837
:1015F000801EA042F4DCE2488078801EDF4A155449
:10160000C5F30721DE488078401E1154DC488178FC
:10161000104603F0AEFF70BD2DE9FC5F57E1DA48DC
:10162000007820BB1D21D02001F0F8FC1F21D02024
:1016300001F0F4FC2121D02001F0F0FC3221A620A1
:1016400001F0FFFC3421A62001F0FBFC3621A6208E
:1016500001F0F7FC00211A2001F0F3FC02211A200E
:1016600001F0EFFC04211A2001F0EBFC2AE11D211E
:10167000D02001F0D3FC00B200900AF0F1FF0190FD
:101680000AF042FE8246C14AC14B0AF02DFB804659
:101690008946C049486A0AF037FE064642464B462C
:1016A0000AF04AF804460AF015F8BA4948621F21C0
:1016B000D02001F0B3FC00B200900AF0D1FF0190FD
:1016C0000AF022FE8046B14AB14B0AF00DFB0446F7
:1016D0000D46B049886A0AF017FE064622462B4698
:1016E0000AF02AF8824609F0F5FFAA49886221210A
:1016F000D02001F093FC00B200900AF0B1FF0190FD
:101700000AF002FE0646A14AA14B0AF0EDFA044691
:101710000D46A049C86A0AF0F7FD804622462B46CE
:101720000AF00AF8824609F0D5FF9A49C8623221C8
:10173000A62001F086FC00B200900AF091FF019013
:101740000AF0E2FD8046914A914B0AF0CDFA044638
:101750000D469049086B0AF0D7FD064622462B46F7
:1017600009F0EAFF824609F0B5FF8A49086334218F
:10177000A62001F066FC0FFA80FB58460AF070FFC5
:1017800082460AF0C1FD8046804A814B0AF0ACFADD
:1017900004460D467F49486B0AF0B6FD06462246D0
:1017A0002B4609F0C9FFCDE9000109F093FF794903
:1017B00048633621A62001F044FC0FFA80FB58460E
:1017C0000AF04EFF82460AF09FFD80466F4A704B3A
:1017D0000AF08AFA04460D466E49886B0AF094FDB9
:1017E000064622462B4609F0A7FFCDE9000109F085
:1017F00071FF6849886300211A2001F022FC00B2C1
:1018000000900AF02DFF01900AF07EFD80465F4AAD
:101810005F4B0AF069FA04460D465E49C86B0AF050
:1018200073FD064622462B4609F086FF824609F0E4
:1018300051FF5849C86302211A2001F002FC0FFA37
:1018400080FB58460AF00CFF82460AF05DFD064612
:101850004E4A4F4B0AF048FA04460D464D49086C73
:101860000AF052FD804622462B4609F065FFCDE97D
:10187000000109F02FFF4749086404211A2001F0F4
:10188000E0FB0FFA80FB58460AF0EAFE82460AF0B7
:101890003BFD80463D4A3E4B0AF026FA04460D4683
:1018A0003C49486C0AF030FD064622462B4609F0BA
:1018B00043FFCDE9000109F00DFF364948640520DA
:1018C00006F03DFE30480078401C2F4908702E4835
:1018D00000786528FFF6A3AEBDE8FC9F70B505460D
:1018E00000242D480078401C2B490870FFF794FE17
:1018F00029480078062875D2DFE800F0DB031F5284
:1019000075974DF6ED601D490880232088700020F2
:10191000C870F0200871002048711A2088711F4893
:101920004088184908801D48808848801B48C08826
:1019300088801A480089C880BCE01D21D02001F0B1
:101940006DFB00B20F4908811F21D02001F066FB1A
:1019500000B20C4948812121D02001F05FFB00B288
:1019600008498881084600890A4908800548408955
:1019700048800448808988809CE000008807002017
:101980000803002014030020680000207B14AE47E9
:10199000E17A843FEC0300206B000020B8030020B4
:1019A0003221A62001F04DFB00B2F349C881342159
:1019B000A62001F046FB00B2EF4908823621A6209E
:1019C00001F03FFB00B2EC4948820846C089EB4970
:1019D000C880E948018AE9480181E748418AE74827
:1019E000418167E065E000211A2001F02AFB00B286
:1019F000E149888202211A2001F023FB00B2DE496E
:101A0000C88204211A2001F01CFB00B2DA490883C5
:101A10000846808AD9498881D748C18AD748C18178
:101A2000D548018BD548018244E00020D449087094
:101A30000DE0D148D2490978415CD1480078C01DF9
:101A4000D04A1154CE480078401CCD490870CD488A
:101A50008079CB4909788842EBDC0020C8490870BE
:101A60000AE0C848C6490978405C204404B2C4482A
:101A70000078401CC2490870C2488078801EC04966
:101A800009788842EDDCBF488078801EBD4A145436
:101A9000C4F3072110468078401E11541DB1104632
:101AA000817803F066FD02F09BFB0020B6490870C8
:101AB00000E000BF00BF70BD10B50022B348B0F910
:101AC0000000B34B98427CD1B0488078B14B9870FD
:101AD000AE48C078AD4B1B7900EB0320AD4B98802E
:101AE000AA4840799872A9488079987118468079F7
:101AF0000A2853D2DFE800F052050A5216222E526D
:101B00003A46A248C079A44B188048E0002106E07C
:101B1000C81D9E4B185CA04B5854481CC1B20229EA
:101B2000F6DB3CE0002106E0C81D984B185C9A4BA0
:101B30005854481CC1B20429F6DB30E0002106E00D
:101B4000C81D924B185C944B5854481CC1B20529CF
:101B5000F6DB24E0002106E0C81D8C4B185C8E4BA0
:101B60005854481CC1B20629F6DB18E0002106E0F3
:101B7000C81D864B185C884B5854481CC1B20829B4
:101B8000F6DB0CE0002106E0C81D804B185C824BA0
:101B90005854481CC1B20929F6DB00E000BF00BF61
:101BA0007C488078801E794B1B5C7A488078401E88
:101BB000764C205C03EB002000B2764B18810021AC
:101BC00006E017E07148405C104482B2481CC1B284
:101BD00070488078801E8842F4DC6E48B0F90800B6
:101BE000904203D101206B4B187010BD0020694B4F
:101BF0001870FAE70020F8E72DE9F05F0024A3460B
:101C0000A146A2466549B1F90E10A1F180000AF083
:101C100004F807460022624B0AF066F8054609F010
:101C20009FFF0FFA80F95D49B1F90C10C1F17F00F7
:101C300009F0F3FF07460022594B0AF055F8054614
:101C400009F08EFF0FFA80FA5448408A803804B2B7
:101C50000023224651464846FFF7E1FABDE8F09FCF
:101C60002DE9F047FFF728FF08B9BDE8F08749489C
:101C700080880A2877D007DC76D2DFE800F01E22C1
:101C8000279FADB1B2B6C1FD48F20102811A904260
:101C90006BD009DC0B2869D00C2868D00D2867D0E0
:101CA000B0F5004F60D160E1012962D0022961D016
:101CB000032960D00429F5D1CAE143202E490880C8
:101CC00015E240F207102C49088010E23549B1F9BD
:101CD0000C10642201FB02F009F09FFF0646324A15
:101CE000324B09F0E5FD044609F03AFF00B2224903
:101CF00008802F49B1F90C10642201FB02F009F0B1
:101D00008CFF0646284A294B09F0D2FD044609F00B
:101D100027FF00B2184948802649B1F90C10642207
:101D200001FB02F009F079FF06461F4A1F4B09F03C
:101D3000BFFD044609F014FF00B20F4988801E4918
:101D4000B1F90C10642201FB02F009F066FF0646AF
:101D5000154A164B09F0ACFD044609F001FF00B22C
:101D60000549C880C3E1DDE0C0E14FE1DFE0E3E029
:101D7000E7E060E160E160E114030020EC03002093
:101D80006A000020880700206B000020EC0700207C
:101D9000EDDEFFFF08030020320300205003002087
:101DA0000000044058020020EC3EB61B934F6A40EE
:101DB0006C0200203002002044020020FD4880898F
:101DC000FD490880FD4880894880FD4880898880D9
:101DD000FC488089C8808AE13820F749088086E17C
:101DE00085E10B20F449088081E1F7488088F249B9
:101DF0000880F548C0884880F3480089888076E1EB
:101E0000F2488079062804D00C2818D012287DD1F9
:101E100042E01D21D02001F001F900B2E64908801E
:101E20001F21D02001F0FAF800B2E34948802121B7
:101E3000D02001F0F3F800B2DF4988806FE01D2167
:101E4000D02001F0EBF800B2DB4908801F21D02040
:101E500001F0E4F800B2D84948802121D02001F0F7
:101E6000DDF800B2D44988803221A62001F0D6F8EE
:101E700000B2D149C88000E053E03421A62001F02F
:101E8000CDF800B2CC4908813621A62001F0C6F871
:101E900000B2C949488142E01D21D02001F0BEF8BE
:101EA00000B2C54908801F21D02001F0B7F800B268
:101EB000C14948802121D02001F0B0F800B2BE49CC
:101EC00088803221A62001F0A9F800B2BA49C88062
:101ED0003421A62001F0A2F800B2B74908813621CA
:101EE000A62001F09BF800B2B349488100211A20D6
:101EF00001F0A7F800B2B049888102211A2001F050
:101F0000A0F800B2AC49C881042100E006E01A2024
:101F100001F097F800B2A849088200E000BF00BFB6
:101F2000E5E0E4E0AA48008AA3490880DFE04FF436
:101F30008070A1490880DAE0A548807C9E4908703D
:101F4000D5E043209C49088040F2071048803820A3
:101F500088800B20C8804FF4807008819C48807C6A
:101F60008872012099494870C1E09A48B0F9000090
:101F7000642190FBF1F9484609F04FFE0746964A66
:101F8000964B09F0B1FE054609F0EAFD0446FEF75E
:101F9000AFFD9048B0F90200642190FBF1F948468A
:101FA00009F03BFE07468C4A8C4B09F09DFE054626
:101FB00009F0D6FD0446FEF7CBFD8648B0F90400D3
:101FC000642190FBF1F9484609F027FE0746824A52
:101FD000824B09F089FE054609F0C2FD0446FEF772
:101FE00027FD7C48B0F90600642190FBF1F94846D2
:101FF00009F013FE0746784A784B09F075FE05464E
:1020000009F0AEFD0446FEF743FD70E07149B1F9F9
:102010000000FEF76DFD6F49B1F90200FEF798FD73
:102020006C49B1F90400FEF703FD6A49B1F90600F5
:10203000FEF72EFD5BE05AE059E0664BB3F9042051
:10204000B3F90210B3F900000023FFF7E8F84EE0FF
:1020500060480088624988815E484088C8815D4840
:10206000808808825B48C08848825A48007A401FAE
:102070000C2837D2DFE800F0060A0E12161A1E22CC
:10208000262A2E320120564908702BE0012054499F
:10209000487027E001205249887023E00120504910
:1020A000C8701FE001204E4908711BE001204C4917
:1020B000487117E001204A49887113E0012048491E
:1020C000C8710FE00120464908720BE00120444925
:1020D000487207E001204249887203E0012040492C
:1020E000C87200BF00BFFFF787FD00E0BDE500BF7D
:1020F0003648807A08B1FFF74DFA00BFB5E570B5F4
:1021000004460D46002213462046294609F0B0FD3C
:1021100003D285F00041204670BD20462946FBE7EA
:102120002DE9F0472F48D0E90C612F480CC8304604
:102130000AF000F88046FFF7E2FF044600222B4B2E
:1021400009F096FD60D22749D1E90A6128480CC8F8
:10215000304609F0EFFF0446FFF7D1FF804600222A
:10216000224B09F085FD4FD21E48224A224BD0E96E
:102170000A61304609F0B8FD044620480CC82046E4
:1021800009F0DAFA1D4A03C216481A4A1A4BD0E976
:102190000C61304609F0A8FD044619480CC82046D9
:1021A00009F0CAFA164A03C216480078401C1549BD
:1021B000087036E058020020140300206C02002052
:1021C0003002002044020020B80300200803002051
:1021D0008002002032030020EC3EB61B934F6A4081
:1021E00050030020680300207800002000002440F5
:1021F000700000209A9999999999A93F8000002030
:1022000088000020900000200021F74A11605160F2
:10221000F64A116051600020F54981F83800F5490F
:102220000870F4480078142810DDEF48D0E9001059
:10223000EF4AC2E91010ED4903C9C2E912010120B9
:10224000114681F838000020EA490870E848D0E9D2
:102250000C10E94AC2E90010E549D1E90A01E74A50
:1022600003C2BDE8F0872DE9FF5F9CB032ACF0CC33
:1022700022462B46DDE91C0109F05CFF00224FF0ED
:102280008043CDE9120109F02FFD80468946324690
:102290003B46DDE91E0109F04DFF00224FF080436F
:1022A000CDE9120109F020FD82468B4600224FF055
:1022B0008043DDE92A0108F08FFC00224FF08043C3
:1022C000CDE91201DDE9360108F086FC00224FF06D
:1022D0008043CDE90E013046394608F07DFC0022EE
:1022E0004FF08043CDE90A01DDE91E0108F074FCDE
:1022F00000224FF08043CDE906012046294608F030
:102300006BFC00224FF08043CDE90201DDE91C01A6
:1023100008F062FCCDE90001DDE9022309F00AFFC3
:10232000CDE90401DDE9062309F006FACDE908014B
:10233000DDE90A2309F0FEFECDE90C01DDE90E23FB
:1023400009F0FAF9CDE91001DDE9122309F0F2FEF6
:10235000CDE91A0122462B46DDE92C0109F0EAFEFF
:1023600000224FF08043CDE9120109F0BDFCCDE918
:10237000180132463B46DDE92E0109F0DBFE002262
:102380004FF08043CDE9120109F0AEFCCDE9160112
:1023900000224FF08043DDE9300108F01DFC0022EF
:1023A0004FF08043CDE91201DDE9360108F014FC5D
:1023B00000224FF08043CDE90E013046394608F047
:1023C0000BFC00224FF08043CDE90A01DDE92E012C
:1023D00008F002FC00224FF08043CDE906012046C0
:1023E000294608F0F9FB00224FF08043CDE90201B5
:1023F000DDE92C0108F0F0FBCDE90001DDE9022365
:1024000009F098FECDE90401DDE9062309F094F90D
:10241000CDE90801DDE90A2309F08CFECDE90C01C4
:10242000DDE90E2309F088F9CDE91001DDE9122379
:1024300009F080FECDE9140150465946DDE9182324
:1024400009F052FCCDE90C0140464946DDE916236E
:1024500009F04AFCCDE90A01DDE90C2309F06AFE26
:10246000CDE9100150465946DDE9142309F03CFC42
:10247000CDE90C01DDE91623DDE91A0109F034FC90
:10248000CDE90A01DDE90C2309F054FECDE90E0186
:10249000DDE9102309F00CFA0022594BCDE91201B5
:1024A00009F006FA524AC2E90A0150465946DDE9E6
:1024B000182309F019FCCDE90C0140464946DDE935
:1024C000162309F011FCCDE90A01DDE90C2309F01E
:1024D00031FECDE91001DDE91823DDE91A0109F02B
:1024E00003FCCDE90C0140464946DDE9142309F01F
:1024F000FBFBCDE90A01DDE90C2309F01BFECDE968
:102500000E01DDE9102309F0D3F900223C4BCDE99F
:10251000120109F0CDF9364AC2E90C01FFF700FEBD
:1025200020B0BDE8F09F2DE9F0479CB04FF0000AC5
:10253000D146002400BF21E1324810F80A006D287E
:1025400051D130490AF10100085C7228F8D10AF132
:102550000200085C2028F3D10AF10300085C30284F
:10256000EED10AF10400085C3728E9D14FF00009E8
:1025700021E01F48006800011D4908600AF10600BB
:10258000484420490C5C302C05DB392C03DCA4F1D9
:102590003000C4B206E0612C04DB662C02DCA4F13E
:1025A0005700C4B21248006820441149086009F17C
:1025B000010000F0FF09B9F1080FDADB4FF0000964
:1025C00032E00B4840680001094948600AF10F00F9
:1025D00048440C490C5C302C16DB392C14DCA4F17B
:1025E0003000C4B217E0C5E0800000208800002061
:1025F0006803002090000020780000207000002078
:102600000000244050080020612C04DB662C02DC12
:10261000A4F15700C4B25D48406820445B4948605B
:1026200009F1010000F0FF09B9F1080FC9DB4FF013
:10263000000921E0554880680001544988600AF18A
:102640001800484452490C5C302C05DB392C03DC63
:10265000A4F13000C4B206E0612C04DB662C02DC7D
:10266000A4F15700C4B249488068204447498860B3
:1026700009F1010000F0FF09B9F1080FDADB4FF0B2
:10268000000921E04148C06800014049C8600AF1E2
:10269000210048443E490C5C302C05DB392C03DC1E
:1026A000A4F13000C4B206E0612C04DB662C02DC2D
:1026B000A4F15700C4B23548C06820443349C8600B
:1026C00009F1010000F0FF09B9F1080FDADB2F4929
:1026D000886809F0B9FA05460E462C49486A09F09F
:1026E000B3FA074688462949086A09F0ADFACDE9E8
:1026F0001A012649486809F0A7FACDE918012349CB
:10270000C86909F0A1FACDE916012049886909F0E4
:102710009BFACDE914011D49086809F095FACDE945
:1027200012011A49486909F08FFACDE910011749D9
:10273000086909F089FACDE90A78CDE90C56CDE9A6
:102740000E01DDE91A01CDE90801DDE91801CDE945
:102750000601DDE91601CDE90401DDE91401CDE949
:102760000201DDE91201CDE900010EA80FC8FFF753
:102770007AFD07E00AF1010000F0FF0ABAF1C80F84
:10278000FFF6DAAE00BF1CB0BDE8F087680300209A
:102790005008002010B5E84A128812B2E74B5A815F
:1027A0001A46116AB2F90A30B2F9142040F27124C3
:1027B000624303EB4210421A12B2E04B1A8013E05C
:1027C000DE4A928A521E12B2DC4B9A821A46B2F943
:1027D0000A30B2F9142040F27124624303EB421034
:1027E000421A12B2D54B1A80D44AB2F9002042F2F2
:1027F00010739A42E4DC13E0D04A928A521C12B25F
:10280000CE4B9A821A46B2F90A30B2F9142040F23D
:102810007124624303EB4210421A12B2C74B1A8072
:10282000C64AB2F90020C64B9A42E5DBC34A1062A1
:1028300010BD10B54FF08042928C12B2BF4B9A81FE
:102840001A46516AB2F90C30B2F9162040F27124DE
:10285000624303EB4210421A12B2B84B5A8013E0A3
:10286000B64AD28A521E12B2B44BDA821A46B2F972
:102870000C30B2F9162040F27124624303EB42108F
:10288000421A12B2AD4B5A80AC4AB2F9022042F25F
:1028900010739A42E4DC13E0A84AD28A521C12B2A6
:1028A000A64BDA821A46B2F90C30B2F9162040F281
:1028B0007124624303EB4210421A12B29F4B5A80BA
:1028C0009E4AB2F902209E4B9A42E5DB9B4A506237
:1028D00010BD10B59B4A128812B2984BDA811A4685
:1028E000916AB2F90E30B2F9182040F271246243B5
:1028F00003EB4210421A12B2904B9A8013E08F4AB7
:10290000128B521E12B28D4B1A831A46B2F90E3038
:10291000B2F9182040F27124624303EB4210421ACC
:1029200012B2864B9A80854AB2F9042042F21073A3
:102930009A42E4DC13E0814A128B521C12B27F4BA4
:102940001A831A46B2F90E30B2F9182040F27124F7
:10295000624303EB4210421A12B2784B9A80774AD4
:10296000B2F90420764B9A42E5DB744A906210BDBE
:1029700010B5754A128812B2704B1A821A46D16A83
:10298000B2F91030B2F91A2040F27124624303EB1D
:102990004210421A12B2694BDA8013E0674A528B36
:1029A000521E12B2654B5A831A46B2F91030B2F970
:1029B0001A2040F27124624303EB4210421A12B211
:1029C0005E4BDA805D4AB2F9062042F210739A42F9
:1029D000E4DC13E0594A528B521C12B2574B5A8313
:1029E0001A46B2F91030B2F91A2040F2712462434B
:1029F00003EB4210421A12B2504BDA804F4AB2F93E
:102A000006204F4B9A42E5DB4C4AD06210BD10B510
:102A10004E4A128812B2494B5A821A46116BB2F9C9
:102A20001230B2F91C2040F27124624303EB4210D1
:102A3000421A12B2414B1A8113E0404A928B521E45
:102A400012B23E4B9A831A46B2F91230B2F91C20E8
:102A500040F27124624303EB4210421A12B2374B28
:102A60001A81364AB2F9082042F210739A42E4DC25
:102A700013E0324A928B521C12B2304B9A831A46A0
:102A8000B2F91230B2F91C2040F27124624303EB18
:102A90004210421A12B2294B1A81284AB2F9082070
:102AA000274B9A42E5DB254A106310BD70B5FFF74E
:102AB00071FEFFF7BEFEFFF70CFFFFF7A8FF1F49EF
:102AC000B1F9040009F0CCFD0546214909F0B6FC36
:102AD000044609F0A9FD00B21E4988811749B1F9E1
:102AE000000009F0BDFD0546194909F0A7FC0446A0
:102AF00009F09AFD00B2184988811049B1F908001F
:102B000009F0AEFD0546124909F098FC044609F0AB
:102B10008BFD00B2114988810849B1F9020009F022
:102B20009FFD05460A4909F089FC044609F07CFD31
:102B300000B20B49888170BD242C0140B8030020ED
:102B4000F0D8FFFF2404004024080040240C00407B
:102B500037BEEF3D30020020440200205802002022
:102B60006C02002008B50121082003F001FB2020A1
:102B7000ADF8000003208DF8020014208DF803004A
:102B80006946FE4803F038F80121FD4803F005F9D5
:102B90001020ADF8000003208DF8020014208DF8FD
:102BA00003006946F54803F027F808BD002100BF7F
:102BB00048E000BF00BF00BF00BF00BF00BF00BFB4
:102BC00000BF00BF00BF00BF00BF00BF00BF00BF0D
:102BD00000BF00BF00BF00BF00BF00BF00BF00BFFD
:102BE00000BF00BF00BF00BF00BF00BF00BF00BFED
:102BF00000BF00BF00BF00BF00BF00BF00BF00BFDD
:102C000000BF00BF00BF00BF00BF00BF00BF00BFCC
:102C100000BF00BF00BF00BF00BF00BF00BF00BFBC
:102C200000BF00BF00BF00BF00BF00BF00BF00BFAC
:102C300000BF00BF00BF00BF00BF00BF00BF00BF9C
:102C400000BF491C8142B4D3704700B52020CB4956
:102C500010310860102008600220FFF7A7FFC74866
:102C60000830006808B9012000E0002000F02000D2
:102C700008B1002000BD2020C049143108600220A6
:102C8000FFF794FFBD480830006800F0200008B14D
:102C90000020EFE72020B949143108600220FFF737
:102CA00085FF0120E6E700B51020B4491431086023
:102CB0000220FFF77BFF2020B0491431086002207A
:102CC000FFF774FF1020AD49103108600220FFF7B4
:102CD0006DFF2020A949103108600220FFF766FF30
:102CE00000BD00B51020A549143108600220FFF78F
:102CF0005DFF2020A149143108600220FFF756FF34
:102D000010209E49103108600220FFF74FFF10206D
:102D10009A49143108600220FFF748FF00BD00B552
:102D200010209649143108600220FFF73FFF202051
:102D30009249103108600220FFF738FF10208F49B8
:102D4000103108600220FFF731FF10208B49143149
:102D500008600220FFF72AFF00BD00B51020874958
:102D6000143108600220FFF721FF20208349103131
:102D700008600220FFF71AFF102080491031086018
:102D80000220FFF713FF7D480830006800F02000A4
:102D900040B110207949143108600220FFF706FF86
:102DA000002000BD10207549143108600220FFF793
:102DB000FDFE0120F5E710B5034608241EE01020B3
:102DC0006E49143108600220FFF7F0FE03F0800026
:102DD00020B1202069491031086003E020206749B4
:102DE000143108605806030E0220FFF7DFFE1020A2
:102DF0006249103108600220FFF7D8FE2000A4F1DC
:102E00000101CCB2DBD110205C491431086010BD47
:102E100010B508240023202058491031086017E01D
:102E20005806030E10205549143108600220FFF7A0
:102E3000BDFE10205149103108600220FFF7B6FE98
:102E40004E480830006800F0200008B143F001034C
:102E50002000A4F10101CCB2E2D110204749143185
:102E60000860184610BD70B506460C461546FFF7BB
:102E7000ECFE08B9002070BD3046FFF79CFFFFF75D
:102E80006CFF18B9FFF70FFF0020F4E72046FFF7AB
:102E900092FFFFF762FF2846FFF78DFFFFF75DFF08
:102EA000FFF701FF0120E6E770B504460D46FFF786
:102EB000CCFE08B9002070BD2046FFF77CFFFFF76D
:102EC0004CFF18B9FFF7EFFE0020F4E72846FFF7A4
:102ED00072FFFFF742FFFFF7B8FE611CC8B2FFF7B1
:102EE0006AFFFFF73AFFFFF793FF0646FFF717FF6A
:102EF000FFF7D9FE3046DEE7FCB505460E4617461D
:102F0000FFF7A3FEA620FFF756FFFFF726FF3220AC
:102F1000FFF751FFFFF721FFFFF797FEA720FFF70D
:102F20004AFFFFF71AFF002410E0052C06D1FFF737
:102F30006FFF0DF80400FFF7F2FE05E0FFF768FFF2
:102F40000DF80400FFF7CDFE601CC4B2062CECDBCC
:102F5000FFF7A9FE9DF800009DF8011000EB01208D
:102F600000B228809DF802009DF8031000EB0120BC
:102F700000B230809DF8040004E00000000C014025
:102F8000000230009DF8051000EB012000B23880EF
:102F9000FCBD10B5FFF7E6FD01220B211A20FFF75B
:102FA00062FF402220211A20FFF75DFF012221212C
:102FB0001A20FFF758FF0D2209211A20FFF753FFAF
:102FC0000B223121A620FFF74EFF1A222C21A6202A
:102FD000FFF749FF08222D21A620FFF744FF80229A
:102FE0002E21A620FFF73FFF80223E21D020FFF7B1
:102FF0003AFF07221521D020FFF735FF1E221621A8
:10300000D020FFF730FF00221721D020FFF72BFF41
:1030100000223E21D020FFF726FF10BD2DE9F04110
:1030200005460C4621462846FFF73EFF0646601C33
:10303000C1B22846FFF738FF074607EB0620BDE878
:10304000F0812DE9F04105460C4621462846FFF760
:103050002BFF0746601CC1B22846FFF725FF064636
:1030600007EB0620BDE8F08100B587B001214FF4E1
:10307000047003F07DF84FF4004002F0DDFF0420FF
:10308000ADF8040000208DF8070001A9494802F0BE
:10309000B3FD494804F0E2F9002002908DF80C00DD
:1030A0008DF80D004FF46020049000200590012061
:1030B0008DF8180002A9404804F0F7F901213E48B4
:1030C00004F01FFA3C4804F03EFA00BF3A4804F00E
:1030D0003FFA0028FAD1384804F044FA00BF3648D5
:1030E00004F045FA0028FAD107B000BD10B5044637
:1030F000072301222146304804F06FFA01212E48AF
:1031000004F03FFA00BF02212B4804F0ABFB00287B
:10311000F9D0294804F0C8FA10BD2DE9F04107465E
:103120000C460025002608E03846FFF7DFFF05447F
:10313000052005F004FA701CC6B2A642F4DBB5FB0C
:10314000F4F080B2BDE8F0812DE9F0470C20FFF7E4
:10315000CDFF1A49096808441849086018480078E2
:10316000401C174908700846007805281FD11348ED
:1031700000680521B0FBF1F01049086008460068BE
:1031800008F062FD06464FF066320E4B08F0ACFDCB
:10319000044600220C4B08F08BFB804608F010FD23
:1031A0000A49887400200549086005490870BDE88F
:1031B000F08700000010014000240140940000202E
:1031C0009800002066660A400000B040800200209F
:1031D0000020F6490882704770B5002500244DF69E
:1031E000ED60F34908800B2088700A20C870002029
:1031F000087148710220887100BF06E0ED48015D4A
:10320000E01DEB4A1154601CC4B2022CF6DB002412
:1032100005E0E748005D284405B2601CC4B2E448FC
:103220008078801EA042F4DCE1488078801EE04A6D
:103230001554C5F3072110468078401E11541046DE
:10324000817802F096F970BD10B5DB480078401C1B
:10325000D9490870D948007828B10020D8490870A9
:10326000D649087010E0D6480078022807DDCF481C
:10327000007C20F00100401CCC49087404E0D048D8
:103280000078401CCE490870CE48B0F90E00CD49F8
:10329000B1F90C10401A142809DCCA48B0F90E0024
:1032A000C849B1F90C10401A10F1140F05DAC648DC
:1032B0000078401CC449087011E0C34800783228E7
:1032C0000ADDBA48007C20F00200801CB74908746F
:1032D0000020BD49087002E00020BB490870BB48CF
:1032E000B0F90E00B949B1F90C10401A142809DCE4
:1032F000B648B0F90E00B549B1F90C10401A10F1FA
:10330000140F05DAB2480078401CB149087011E08A
:10331000AF48007832280ADDA448007C20F0040081
:10332000001DA24908740020A949087002E000208D
:10333000A7490870A748B0F90E00A649B1F90C10CA
:10334000401A142809DCA348B0F90E00A149B1F9CC
:103350000C10401A10F1140F05DA9F480078401C39
:103360009D49087011E09C48007832280ADD8F489A
:10337000007C20F0080008308C4908740020964931
:10338000087002E00020944908709448B0F90E00DB
:103390009249B1F90C10401A142809DC8F48B0F991
:1033A0000E008E49B1F90C10401A10F1140F05DA15
:1033B0008B480078401C8A49087011E088480078E2
:1033C00032280ADD7948007C20F01000103077495F
:1033D000087400208249087002E0002080490870CB
:1033E0008048B0F900007F49B1F91210884213D12A
:1033F0007C48B0F90210B0F9140081420CD1794830
:10340000B0F90410B0F91600814205D17648007871
:10341000401C7549087011E07348007832280ADDB5
:103420006248007C20F020002030604908740020B1
:103430006D49087002E000206B49087000206B495C
:1034400008700EE067486949097830F811101230A9
:10345000664A127820F8121064480078401C6349CC
:103460000870624800780328ECDB5E48B0F906007B
:103470005C49B1F91810884213D15A48B0F90810C4
:10348000B0F91A0081420CD15648B0F90A10B0F9CF
:103490001C00814205D156480078401C54490870F0
:1034A00011E05348007832280ADD4048007C20F0C3
:1034B000400040303D49087400204D49087002E04A
:1034C00000204B4908700020484908700FE045482B
:1034D000801D4649097830F811101230434A12789D
:1034E00020F8121041480078401C404908703F48BD
:1034F00000780328EBDB3B48B0F90C003949B1F9FF
:103500001E10884213D13748B0F90E10B0F92000D0
:1035100081420CD13348B0F91010B0F92200814239
:1035200005D134480078401C3249087011E0304819
:10353000007832280ADD00202E4908701B48007CE4
:1035400020F0800080301949087402E000202949E9
:1035500008700020254908700FE022480C302349EC
:10356000097830F811101230204A127820F8121021
:103570001E480078401C1D4908701C48007803282C
:10358000EBDB0A48008A78B10B4800780A280BDD8B
:103590000020094908700548008A06490880FFF79D
:1035A0001BFE00200149088210BD0000800200209F
:1035B00088070020140300209A0000200803002040
:1035C0009B000020580200209C0000206C0200207C
:1035D0009D000020300200209E00002044020020B8
:1035E0009F000020EC030020A00000209900002094
:1035F000A1000020A20000202DE9F04105460C4664
:10360000FE480168204609F093F90746FC48016826
:10361000384609F085F80646FA480168304608F051
:103620009FFEF8490860F8484168F848006809F0CA
:103630007FF90646F4488168304609F079F9F44983
:103640000860F148C06880F000404860EE48C068FB
:1036500080F000408860EF480068C8600868E8496A
:10366000096809F05DF80646E7480168304608F049
:1036700077FEE5490860E6494868E149096809F0CC
:103680004FF80646E0484168304608F069FEDE49DA
:103690004860DF498868DA49096809F041F8064658
:1036A000D9488168304608F05BFED7498860D84920
:1036B000C868D349096809F033F80646D248C1689A
:1036C000304608F04DFED049C860CE480168284613
:1036D00009F02EF9D0490860D048007808F0D8FFEA
:1036E0000646C9480168304609F01AF8CC49086016
:1036F000CA48007808F0CCFF0646C34881683046C7
:1037000009F00EF8C7490860C448007808F0C0FF07
:103710000746C3480168384609F002F80646C24821
:103720000168304608F01CFEC04908600846016880
:10373000BB48006808F082FEBD490860BB480168CC
:10374000B848006808F07AFEBA490860B4480068D2
:10375000B9490860B148007808F09AFF0646AA48BF
:103760004168304608F0DCFFB4490860B24801689F
:10377000AF48006808F0D4FF0646A3480168304609
:1037800009F0CBF8A0490860AC480168A848006877
:1037900008F0C6FF06469C484168304609F0BDF86F
:1037A00099494860A4480168A248006808F0B8FF39
:1037B000064695488168304609F0AFF8924988601E
:1037C0009E4801689B48006808F0AAFF06468E489C
:1037D000C168304609F0A1F88B49C8608E4801687D
:1037E0009348006808F09CFF0646954801683046FB
:1037F00008F0B6FD92490860874801688D48006866
:1038000008F08EFF06467D480168304608F0A8FDA6
:103810007A49086008460168204609F089F8894914
:103820000860BDE8F0812DE9F04105460C4673487B
:103830000168204609F07CF807467148016838465F
:1038400008F06EFF06466F480168304608F088FDB4
:103850006C4908606C4841686C48006809F068F879
:10386000064669488168304609F062F86849086090
:103870006548C06880F0004048606348C06880F0D8
:103880000040886063480068C86008685C4909684F
:1038900008F046FF06465C480168304608F060FDC7
:1038A000594908605A4948685549096808F038FF7D
:1038B000064655484168304608F052FD5249486076
:1038C000534988684E49096808F02AFF06464E4861
:1038D0008168304608F044FD4B4988604C49C8680F
:1038E0004749096808F01CFF06464748C16830464A
:1038F00008F036FD4449C86042480168284609F08E
:1039000017F8454908604548007808F0C1FE0646AA
:103910003D480168304608F003FF414908603F48D0
:10392000007808F0B5FE064637488168304608F052
:10393000F7FE3C4908603948007808F0A9FE0746C0
:1039400037480168384608F0EBFE064636480168FD
:10395000304608F005FD35490860084601683048E2
:10396000006808F06BFD32490860304801682D4856
:10397000006808F063FD2F490860294800682E4957
:1039800008602648007808F083FE06461E48416815
:10399000304608F0C5FE29490860274801682448D8
:1039A000006808F0BDFE064617480168304608F07A
:1039B000B4FF15490860214801681D48006808F0F7
:1039C000AFFE064610484168304608F0A6FF0E4993
:1039D0004860194801681748006808F0A1FE0646CB
:1039E00009488168304608F098FF07498860134805
:1039F00001681048006808F093FE25E0F4000020FC
:103A0000EC000020D800002018010020E000002079
:103A10003C040020E4000020F8000020F00000201A
:103A2000FC00002000010020E8000020040100202C
:103A3000080100200C0100201001002014010020CA
:103A4000DC000020B40000200646FE48C168304675
:103A500008F063FFFB49C860FB480168FB48006849
:103A600008F05EFE0646FA480168304608F078FC29
:103A7000F7490860F4480168F648006808F050FE0D
:103A80000646F5480168304608F06AFCF2490860CD
:103A900008460168204608F04BFFF0490860BDE881
:103AA000F0812DE9F04105460C46EB4801682046BF
:103AB00008F03EFF0746EA480168384608F030FE45
:103AC0000646E8480168304608F04AFCE5490860C7
:103AD000DC484168E448006808F02AFF0646D948F7
:103AE0008168304608F024FFE0490860D548C06886
:103AF00080F000404860D348C06880F00040886093
:103B0000DB480068C8600868D549096808F008FE05
:103B10000646CC480168304608F022FCC9490860D6
:103B2000D2494868CE49096808F0FAFD0646C548FA
:103B30004168304608F014FCC2494860CB498868A7
:103B4000C749096808F0ECFD0646BE488168304662
:103B500008F006FCBB498860C449C868C0490968C8
:103B600008F0DEFD0646B748C168304608F0F8FBAD
:103B7000B449C860BB480168284608F0D9FEB2497C
:103B80000860BC48007808F083FD0646AD4801682F
:103B9000304608F0C5FDB8490860B648007808F01E
:103BA00077FD0646A7488168304608F0B9FDB3495D
:103BB0000860B048007808F06BFD0746AE48016821
:103BC000384608F0ADFD0646AD480168304608F0BD
:103BD000C7FBAC49086008460168A748006808F0C0
:103BE0002DFC9A490860A7480168A448006808F0BD
:103BF00025FC98490860A0480068A34908609D48D2
:103C0000007808F045FD06468E484168304608F0C9
:103C100087FD9E4908609C4801688C48006808F050
:103C20007FFD064687480168304608F076FE8549E4
:103C30000860964801688548006808F071FD0646EE
:103C400080484168304608F068FE7E4948608E48EA
:103C500001688048006808F063FD0646794881687D
:103C6000304608F05AFE77498860884801687948EC
:103C7000006808F055FD06467248C168304608F0F5
:103C80004CFE7049C860704801687048006808F0D0
:103C900047FD064673480168304608F061FB7149EC
:103CA0000860694801686B48006808F039FD0646FD
:103CB00069480168304608F053FB674908600846C8
:103CC0000168204608F034FE71490860BDE8F081C3
:103CD0002DE9FF5F6F49B1F9060008F0C1FC6E499C
:103CE00008606C49B1F9080008F0BAFC6B4908603B
:103CF0006849B1F90A0008F0B3FC694908606549F0
:103D0000B1F9000008F0ACFC614908606149B1F903
:103D1000020008F0A5FC514908605E49B1F90400B1
:103D200008F09EFC5F4908605F495B48006808F046
:103D3000C3FC07D24FF08D415748006808F07EFB66
:103D400004460FE059495448006808F0F1FD064662
:103D50004FF08D4108F072FB05464FF07E5108F0A0
:103D6000DCFD044650494D48006808F0A5FC07D228
:103D70004FF08D414948006808F060FB82460FE033
:103D80004A494648006808F0D3FD06464FF08D4189
:103D900008F054FB05464FF07E5108F0BEFD824608
:103DA00041493F48006808F087FC07D24FF08D4139
:103DB0003B48006808F042FB81460AE03B4938482E
:103DC000006808F0B5FD05464FF08D4108F036FB60
:103DD00081464946504608F031FB834608F094FA84
:103DE000CDE9000106F09AFD05460022304B07F0B0
:103DF0007BFF304A304BCDE9020107F059FD074601
:103E000007F068FC2D4908604946204608F016FB7B
:103E1000834608F079FA074606F080FD0022244B1D
:103E2000CDE9000107F060FF224A234BCDE90201F2
:103E300007F03EFD054607F04DFC2149086021468C
:103E400050463FE018010020F80000200801002043
:103E5000D80000200C010020F4000020B400002055
:103E6000EC000020D4000020E00000203C040020F2
:103E7000E4000020F0000020FC00002000010020F1
:103E8000E80000200401002010010020140100209F
:103E9000B0000020EC030020A4000020A8000020B7
:103EA000AC000020B800002000F8FF4600004047AA
:103EB000008066401F85EB51B81E0940C8000020F5
:103EC000CC00002008F0BAFA834608F01DFA074635
:103ED00006F024FD0022FE4BCDE9000107F004FFAF
:103EE0000546FC4AFC4B07F0E3FCCDE9020107F074
:103EF000F1FBFA490860FA49FA48006808F0DCFB6F
:103F000003D2F9480068F8490860F549F5480068A7
:103F100008F0D2FC05D2F448006880F00040F24975
:103F20000860EF49F148006808F0C6FB03D2F0488A
:103F30000068EF490860EA49EC48006808F0BCFCFA
:103F400005D2EB48006880F00040E9490860E44988
:103F5000E848006808F0B0FB03D2E0480068DF4999
:103F60000860DF49E348006808F0A6FC05D2DB489A
:103F7000006880F00040D94908604FF08E41DE486B
:103F8000006808F099FB10D2DB48006808F0BCF923
:103F900007464FF06632D94B07F08AFC81F00041AA
:103FA000054607F097FBD44908604FF08E41D24890
:103FB000006808F081FC12D2CF480168D04808F0B0
:103FC000B7FC834608F0A0F907464FF06632CB4BAA
:103FD00007F06EFC054607F07DFBC74908604FF00F
:103FE0008E41C848006808F067FB10D2C5480068D9
:103FF00008F08AF907464FF06632C04B07F058FCCC
:1040000081F00041054607F065FBBE4908604FF0AE
:104010008E41BC48006808F04FFC12D2B9480168D4
:10402000B74808F085FC834608F06EF905464FF066
:104030006632B24B07F03CFC074607F04BFBB14938
:1040400008604FF08E41B048006808F035FB10D290
:10405000AD48006808F058F905464FF06632A74BA6
:1040600007F026FC81F00041074607F033FBA64924
:1040700008604FF08E41A448006808F01DFC12D281
:10408000A14801689E4808F053FC834608F03CF9BB
:1040900007464FF06632994B07F00AFC054607F0D9
:1040A00019FB994908609448016891480068FFF736
:1040B000F8FC944801688C480068FFF7B4FB92480C
:1040C000016886480068FFF797FABDE8FF9F2DE971
:1040D000F05F05460E4614468C4801684FF07E504E
:1040E00008F026FC8046894801684FF07E5008F0B1
:1040F0001FFC814686480168284608F019FC824664
:10410000494608F00DFB0746414608F009FB814986
:10411000086021467F48006808F002FB07467E4899
:104120000168384608F01CF97B4908607848016846
:10413000284608F0FDFB8246744801684FF07E5027
:1041400008F0F6FB83464FF0804108F0E9FA81461B
:10415000514608F0E5FA80466F480168404608F08D
:10416000FFF80746314608F0FBF86C490860214625
:104170006A48006808F0D4FA07466548016838467E
:1041800008F0EEF862490860BDE8F09F2DE9F05FA5
:1041900006460C4615462946204608F0C1FA8346D5
:1041A0005F480168584608F0DBF880465D480168C2
:1041B0004FF07E5008F0BCFB8246414608F0B0FA52
:1041C000074658480168304608F0AAFA8146394641
:1041D00008F0C6F85249086008460068BDE8F09F3C
:1041E0002DE9F84F5048C088504908804E48008952
:1041F0004F4908804C4840894E4908804A4890F809
:104200004800A8B94849B1F9000008F029FA464920
:104210004862B1F9020008F023FA43498862B1F913
:10422000040008F01DFA4049C862012081F84800E6
:104230003D49B1F9000008F013FA05463A48416AD1
:10424000284608F075FB044608F0EEF900B23A493A
:1042500008803549B1F9020008F002FA05463248F3
:10426000816A284608F064FB044608F0DDF900B2D4
:10427000324908802C49B1F9040008F0F1F90546EB
:104280002948C16A284608F053FB044608F0CCF9D7
:1042900000B22B4908802548B0F9000007F0BDFCAA
:1042A0000646284A284B07F003FB044607F012FA9B
:1042B000264908601E48B0F9000007F0AEFC06462B
:1042C000204A214B07F0F4FA044607F003FA3FE0D6
:1042D000008066401F85EB51B81E0940D0000020C9
:1042E00000F8FF46A4000020CC000020A800002019
:1042F000C8000020AC000020B000002066663040FE
:1043000000FF7F47B4000020B800002028010020F3
:10431000380100202C010020340100203001002051
:104320008401002088010020EC0300203C010020D3
:104330003E010020400100204201002044010020F5
:1043400046010020FCA9F1D24D62304060010020FE
:10435000724908607248B0F9000007F05EFC06463A
:10436000704A714B07F0A4FA044607F0B3F96F499D
:104370000860084601686E48006808F05FF8009021
:1043800007F0C2FF804606F0C9FA82460022694B58
:1043900007F0AAFC0646684A684B07F089FA04460B
:1043A00007F098F966490860604801685B48006852
:1043B00008F044F8009007F0A7FF824606F0AEFA36
:1043C000804600225B4B07F08FFC06465A4A5B4B47
:1043D00007F06EFA044607F07DF95A4908604F4825
:1043E00001685348006808F029F8009007F08CFF36
:1043F000824606F093FA804600224E4B07F074FC8A
:1044000006464D4A4D4B07F053FA044607F062F951
:104410004D4908604D48B0F9000007F0FEFB064624
:1044200000224B4B07F044FA044607F053F9494980
:1044300008604948B0F9000007F0EFFB064600228B
:10444000434B07F035FA044607F044F94349086046
:104450004348B0F9000007F0E0FB064600223C4B61
:1044600007F026FA044607F035F93E490860084689
:10447000006808F0D9F8061E01DB314600E0714201
:10448000084607F0CAFB0446374A384B07F0F0FBF2
:1044900002D200203349086004F016F8344908605D
:1044A0000968344A1268881A08F0F2F807460021B1
:1044B0002C48006808F03CFA8046394608F030F98C
:1044C00006464FF0804108F02BF905462A4907F0CF
:1044D000B5FF044629480168204607F041FF2749F7
:1044E000086000212548006808F0E6F803D2244857
:1044F0002249086008E023492048006808F0DCF9F8
:1045000002D200201D4908601C4800681E49C8648A
:104510001748006817490860BDE8F88F640100205B
:1045200040010020FCA9F1D24D623040680100201A
:10453000600100200080664038E92F54FB210940CB
:10454000780100207C010020800100204201002031
:1045500000C02C40540100204401002058010020DC
:10456000460100205C0100209A9999999999B93FD8
:104570008C0100209001002000007A44740100208A
:104580000080B3430000B443EC03002010B50020CA
:10459000FE49486008602321FC48083004F053FBC2
:1045A0002321FA48943004F04EFB2321F84804F00C
:1045B0004AFB10BD70B506460C461546F3484068E8
:1045C00023281CDAF1480068F0494968884201D183
:1045D000FFF7DCFFED484168083040F821600838FB
:1045E0004168943040F8214094384168E84840F8E8
:1045F0002150E6484068401CE44948601BE0E3481D
:104600004068232817D10020E049486008464168E7
:10461000083040F8216008384168943040F8214063
:1046200094384168DA4840F82150D8480068401C66
:10463000D649086070BD00BFFCE7D4480068232855
:1046400002D10020D1490860D04801684068401C70
:10465000814201D100207047CC4801680068401CAD
:10466000CA4A106002F1080010F82100F3E710B503
:104670000024C648047808E0C448083050F82410E4
:10468000C4A004F05FF9601CC4B2C0484068A042F6
:10469000F2DC10BDBD480068BC494968884201D1C0
:1046A000012070470020FCE72DE9F04105460C464B
:1046B0005A2C02DDA4F10A0084B2B748007820B178
:1046C000012810D0022875D19AE0B448C06CB449D2
:1046D000086000232A4619461846FCF7A0FD012071
:1046E000AD49087093E0002D44DDAC49C86CAC497D
:1046F000096808F0E1F81DD2204607F0C9FF074617
:10470000A648C16CA74808F013F98046A448016880
:10471000404607F025FE0646394608F0CDF809D296
:1047200000231A4619461846FCF779FD02209A49DB
:10473000087064E09949C86C9949096807F0BCFFA2
:104740005DD2204607F0A4FF06469448C16C944809
:10475000006808F0EDF80746314608F0ADF84ED293
:1047600000231A4619461846FCF759FD02208A49CB
:10477000087044E08949C86C8949096808F09CF8C8
:1047800019D2204607F084FF06468449C86C844944
:10479000096808F0CDF80746314608F08DF80AD2CE
:1047A00000231A4619461846FCF739FD02207A49BB
:1047B000087024E02AE07949C86C7949096807F053
:1047C0007BFF1CD2204607F063FF07467349C86C85
:1047D000744907F0C5FD804671480168404608F0FD
:1047E000A7F80646394608F067F808D200231A46AB
:1047F00019461846FCF713FD02206749087006E0C9
:104800000020694908706449087000E000BF00BFDB
:10481000BDE8F08103B589B06448007820B1012873
:1048200021D002287ED11AE300231A46099801B24A
:104830001846FCF7F4FC5948C06C5D49086003F069
:1048400043FE5C4908605C4840685C4908605C481D
:1048500040685C4908605C4840685C490860012029
:104860005249087002E3099800287DDD4B48C06C6E
:1048700007904F480168079808F01EF875D247481E
:10488000C06C06904A480168069808F051F85049F3
:10489000079008F011F869D24048C06C01460690B4
:1048A000404808F045F8079041480168079807F02C
:1048B00057FD484908600846006807F025FD464A4C
:1048C000464BCDE9000107F00FFACDE904013C4861
:1048D0004068019007F0A1F9CDE90201DDE9042368
:1048E00007F028FCCDE9060107F03AF934494860A1
:1048F0003448006807F091F9374A394BCDE9020195
:1049000007F0F2F9CDE906012D484068039007F061
:1049100084F9CDE90401DDE9062307F0A9F911D2F4
:10492000284800E0A1E2006807F077F92A4A2C4BFA
:10493000CDE9040107F0D8F9CDE9060107F010F937
:104940001F4948602348006807F0DEFC224A234BD9
:10495000CDE9000107F0C8F9CDE904011A48406823
:10496000019007F05AF902E064E0FBE063E0CDE972
:104970000201DDE9042306F0DFFECDE9060107F0C0
:10498000EFF811494860114800682BE04C04002002
:104990006C05002025640A009B010020EC03002028
:1049A0009C0100200000B44398010020A0010020D9
:1049B000A4010020BC01002030020020B001002032
:1049C00044020020AC01002058020020B401002065
:1049D00000004843A80100209A9999999999B93FF4
:1049E0009999E93F07F019F94FF03332FE4BCDE9C1
:1049F000020107F079F9CDE90601FC48406803900F
:104A000007F00BF9CDE90401DDE9062307F06AFAA6
:104A100010D2F748006807F000F94FF03332F24B3C
:104A2000CDE9040107F060F9CDE9060107F098F837
:104A3000EE494860FCE1EF48C06C0790EE48016821
:104A4000079807F075FFED4908600846006807F011
:104A50005BFCEB4AEB4BCDE9000107F045F9CDE9F2
:104A60000401E9484068019007F0D7F8CDE9020158
:104A7000DDE9042306F060FECDE9060107F070F8D9
:104A8000E1494860E148006807F0C7F84FF0333269
:104A9000D54BCDE9020107F027F9CDE90601DA4847
:104AA0004068039007F0B9F8CDE90401DDE9062379
:104AB00007F018FA10D2D548006807F0AEF84FF0AA
:104AC0003332C94BCDE9040107F00EF9CDE90601F7
:104AD00007F046F8CC494860C848006807F014FC65
:104AE000C74AC84BCDE9000107F0FEF8CDE9040143
:104AF000BE484068019007F090F8CDE90201DDE979
:104B0000042307F017FBCDE9060107F029F8B749A0
:104B10004860B748006807F080F8B94ABC4BCDE957
:104B2000020107F0E1F8CDE90601B04840680390C2
:104B300007F073F8CDE90401DDE9062307F098F8E2
:104B40000FD2AB48006807F068F8AD4AB04BCDE92A
:104B5000040107F0C9F8CDE9060107F001F8A349FF
:104B6000486065E1A348C06C0790A34801680798B6
:104B700007F0A2FDF5D29F48C06C06909E480168E0
:104B8000069807F0D5FEA349079007F095FD7DD262
:104B900099480168A04807F0CBFE07909548C06C83
:104BA00001460690079807F0DBFB94490860084629
:104BB000006807F0A9FB924A924BCDE9000107F08B
:104BC00093F8CDE9040190484068019007F025F87A
:104BD000CDE90201DDE9042306F0AEFDCDE90601D1
:104BE00006F0BEFF884948608848006807F015F85D
:104BF0004FF033327C4BCDE9020107F075F8CDE977
:104C0000060181484068039007F007F8CDE90401E8
:104C1000DDE9062307F066F910D27C48006806F04B
:104C2000FCFF4FF03332704BCDE9040107F05CF824
:104C3000CDE9060106F094FF734948606F480068AB
:104C400007F062FB6E4A6F4BCDE9000107F04CF8AC
:104C5000CDE9040165484068019006F0DEFFCDE92A
:104C60000201DDE9042307F065FACDE9060106F04B
:104C700077FF5E4948605E48006806F0CEFF604AF4
:104C8000634BCDE9020107F02FF800E01EE0CDE90B
:104C9000060156484068039006F0BFFFCDE90401C5
:104CA000DDE9062306F0E4FF0FD25148006806F064
:104CB000B4FF534A564BCDE9040107F015F8CDE98E
:104CC000060106F04DFF49494860B1E04948C06C13
:104CD000014607904848006807F02AFE47490860E7
:104CE0000846006807F010FB454A464BCDE9000135
:104CF00006F0FAFFCDE9040143484068019006F050
:104D00008CFFCDE90201DDE9042307F013FACDE9B8
:104D1000060106F025FF3C4948603C48006806F063
:104D20007CFF374A3A4BCDE9020106F0DDFFCDE9C1
:104D3000060135484068039006F06FFFCDE9040195
:104D4000DDE9062306F094FF0FD23048006806F034
:104D500064FF2B4A2E4BCDE9040106F0C5FFCDE9D7
:104D6000060106F0FDFE284948602448006807F067
:104D7000CBFA234A234BCDE9000106F0B5FFCDE97C
:104D800004011A484068019006F047FFCDE902018E
:104D9000DDE9042306F0D0FCCDE9060106F0E0FED3
:104DA000124948601248006806F037FF4FF033326E
:104DB0000D4BCDE9020106F097FFCDE906010B4846
:104DC0004068039006F029FFCDE90401DDE90623E0
:104DD00007F088F82CD20648006806F01EFF4FF056
:104DE0003332014B1AE000003333F33F5802002006
:104DF000B4010020EC030020A4010020A801002041
:104E00009A9999999999B93F44020020AC010020E0
:104E10009999E93F000048C30000B443CDE904017B
:104E200006F062FFCDE9060106F09AFEFC494860F3
:104E300003F04AFBFB49086008460068FA49096824
:104E4000401A0A99B1EB400F08D200231A461946BE
:104E50001846FCF7E4F90220F449087006E0002047
:104E6000F3490870F149087000E000BF00BF0BB0C3
:104E700000BD10B5EF4890F8480000B910BDEC48EF
:104E8000007898B9EC480078401CEB490870084657
:104E90000078642809DDFFF7D0FBE849087001209D
:104EA000E34908700020E4490870E7E7E348007828
:104EB00006285CD2DFE800F0030B1B1C344B0020FB
:104EC000DB4908700221DE4802F0C2FE50E0DD4AF4
:104ED0001268521EDB4B943353F82210D94A1268E1
:104EE000521E8C3353F82200FFF794FC40E03FE061
:104EF000D44A1268521ED44B53F82240002C01DBD6
:104F0000224600E06242524250B2CE4A1268521E1D
:104F1000CD4B8C3B33F8222091B2FFF7C5FB27E045
:104F2000C84A1268521EC84B53F82240002C01DBBD
:104F3000224600E0624250B2C24A1268521EC24B80
:104F40008C3B33F8222091B2FFF7AEFB10E000203B
:104F5000B7490870FFF71AFB00231A46194618468E
:104F6000FCF75DF90221B64802F072FE00E000BFD6
:104F700000BF00BF82E770B504460D461646B04834
:104F800003F08DF9022805D1FFF700FB0121AC48A1
:104F900002F05EFE324629462046FFF70BFB70BD4D
:104FA0002DE9F04F89B004460D4616461F46DDE94F
:104FB000120106F005FEA5490861DDE9140106F0BD
:104FC000FFFDA2494861DDE9160106F0F9FD9F49A0
:104FD0008861DDE9180106F0F3FD9C49C861DDE94F
:104FE0001A0106F0EDFD99490862DDE91C0106F0A1
:104FF000E7FD964948629648007A78B900209549BD
:1050000008700021944A11605160944A1160516007
:10501000934A1060506009B0BDE8F08F8D48007869
:1050200009287BD2DFE800F0051D27C1FBFAF9F85B
:10503000F700864890F8380090B10020834981F845
:1050400038000846D0E90C10844AC2E900107F48B5
:10505000D0E90A10804AC2E9001001207D49087099
:1050600057E2C82240F6B8310120FFF784FF022042
:10507000784908704DE2724803F011F9022878D19E
:105080006B4800780028FAD1704890F83800002862
:105090006FD000206D4981F83800D1E90A816E484F
:1050A0000CC8404607F046F8CDE902016749D1E94E
:1050B0000C816A480CC8404607F03CF8CDE9000175
:1050C000DDE9022306F0F4FB824605F027FC00220E
:1050D000644BCDE9040106F007FE634A634BCDE95A
:1050E000060106F0E5FB5E4A03C2002213465C4956
:1050F00003C906F0F7FE2AD85448D0E90A81564879
:105100000CC8404606F0EEFE11D8554903C906F01A
:1051100027FDB0F1000802DB404602E0F8E1C8F1EB
:105120000000014664220420FFF725FF39E04C48C7
:105130000CC800204B4906F0FDFF804606F010FD2C
:105140008246642251460320FFF715FF29E03F48BD
:10515000D0E90A8140480CC8404606F0C3FE11D889
:105160003F4903C906F0FCFCB0F1000802DB4046F1
:1051700002E019E0C8F10000014664220320FFF7B5
:10518000FAFE0EE036480CC80020364906F0D4FA84
:10519000804606F0E5FC8246642251460420FFF773
:1051A000EAFE03202B490870B3E12848D0E90C102F
:1051B0002A4AC2E900102549D1E90A01264A03C258
:1051C0002248D0E90A8342462046294606F08AFE54
:1051D00009D2C82247F230510120FFF7CCFE04204B
:1051E0001C49087047E01949D1E90A834246204624
:1051F000294606F03DFD3BD26422B4210420FFF78E
:10520000BAFEC82247F230510120FFF7B4FE042055
:10521000104908702FE02EE10FE1E6E04AE02BE0B4
:1052200058020020B8010020BC010020A00100208D
:1052300098010020EC0300209A0100209901002031
:105240007D8500084C0400206C05002068030020C8
:1052500050030020D8010020C0010020C801002018
:10526000D001002000806640F1D4C853FB210940E2
:105270000420A94908704CE1A849D1E90A834246B3
:105280002046294606F064FECDE9060106F068FCDA
:10529000B0F1000A01DB504601E0CAF10000142819
:1052A00007DA002211460520FFF765FE05209A491E
:1052B00008702EE19A4802F0F2FF022879D199484D
:1052C00000780028FAD1954890F83800002870D06E
:1052D0000020924981F838000846D0E90A819248B6
:1052E0000CC8404606F026FF82468B468B49D1E922
:1052F0000C818E480CC8404606F01CFF52465B46A7
:10530000CDE9000106F0D4FACDE9020105F006FB73
:105310000022874BCDE9040106F0E6FC854A864B66
:10532000CDE9060106F0C4FA844A03C200221346FE
:10533000824903C906F0D6FD29D87849D1E90A8106
:1053400079480CC8404606F0CDFD10D87B4903C90A
:1053500006F006FCB0F1000801DB404601E0C8F1B0
:105360000000014664220420FFF705FE39E073487F
:105370000CC800206E4906F0DDFE804606F0F0FB0A
:105380008246642251460320FFF7F5FD29E0634978
:10539000D1E90A8164480CC8404606F0A3FD11D843
:1053A000664903C906F0DCFBB0F1000802DB4046A9
:1053B00002E019E0C8F10000014664220320FFF773
:1053C000DAFD0EE05D480CC80020594906F0B4F93A
:1053D000804606F0C5FB8246642251460420FFF752
:1053E000CAFD06204C49087093E04C4832463B46C3
:1053F000D0E90C81404606F03BFC08D264225A21D9
:105400000320FFF7B8FD07204349087014E0434923
:10541000D1E90C8132463B46404606F063FD08D296
:1054200064225A210420FFF7A6FD07203A4908709C
:1054300002E00720384908706BE0394802F02FFF7E
:10544000022817D137480078A0B900231A46C8218E
:105450001846FBF7E4FE3A4840683A4908603A4883
:1054600040683A4908603A4840683A49086008206C
:10547000294908704DE0294832463B46D0E90C8165
:10548000404606F057FECDE9060106F069FBB0F193
:10549000000A01DB504601E0CAF1000014280ADAD4
:1054A000002211460520FFF766FD00202A490872F8
:1054B000194908702BE01949D1E90A0122462B4607
:1054C000CDE9060106F036FE804600224FF080430B
:1054D00006F00AFC824606F043FB204908600846B5
:1054E0000068322802DD3220086008E01B480068AE
:1054F00010F1320F03DA6FF0310018490860002311
:105500001A46C8211548008800B2FBF788FE00E063
:1055100000BF00BF00BF7EE5D80100206803002067
:105520007D85000898010020C0010020C8010020EE
:1055300000806640F1D4C853FB210940D00100200F
:1055400030020020E001002044020020DC010020A5
:1055500058020020E401002050030020E801002050
:1055600010B54FF4A06000F079FA10BD00BF70478D
:10557000704770B505460C460021F84802F063FA02
:10558000C82C01D9002070BD22462946F44803F0FA
:1055900015FB2146F14802F06BFA0121EF4802F0B9
:1055A00052FA0120EFE700B58BB00121084600F068
:1055B000D2FDEA48143802F079F9E84802F076F9A9
:1055C000E8480090E848019000200290C82003902D
:1055D00000200490802005900020069007900890FD
:1055E0004FF44050099000200A906946DB48143877
:1055F00002F0FEF90121D948143802F024FAD94802
:105600000090D748019010200290092003900020BC
:1056100004908020059000200690079008904FF499
:105620008050099000200A906946CC4802F0E0F9C9
:1056300001224021CB48001F00F0FEFE0122802104
:10564000C848001F00F0F8FE0BB000BD08B51020E0
:105650008DF8000000208DF8010001208DF8020077
:105660008DF80300684600F0FEF926208DF8000052
:1056700000208DF8010002208DF8020001208DF835
:105680000300684600F0EFF908BD10B586B0044687
:105690000121480400F079FD0121052000F068FD9A
:1056A0000420ADF8140018208DF8170003208DF8A1
:1056B000160005A9AD4800F09FFA0820ADF81400C7
:1056C00004208DF8170005A9A84800F095FA019468
:1056D0000020ADF80800ADF80A00ADF80C00ADF8F8
:1056E00010000C20ADF80E0001A99E48001F00F02C
:1056F000E6FDFFF7ABFFFFF756FF012240F2244122
:105700009848001F00F073FE01219648001F00F02A
:1057100062FE40219348001F00F045FF06B010BD17
:1057200070B502F044FE40F224418E48001F00F0A4
:1057300043FF10B38B48001F0088C4B2894800881B
:10574000C4B200218548143802F07DF9834814382A
:1057500002F090F905462A468349854803F02EFA5F
:10576000FCF77EFAC8217D48143802F081F9012146
:105770007A48143802F067F900BF02F027FE70BDC6
:1057800010B502F014FE4FF4001002F077F918B1D2
:105790004FF4001002F0A5F902F018FE10BD70B52C
:1057A00005460C4600216D48643802F04CF9C82CBF
:1057B00001D9002070BD224629466E4803F0FEF94B
:1057C00021466648643802F053F901216348643881
:1057D00002F039F90120EDE700B58BB00121084650
:1057E00000F0B9FC5D48643802F060F85B4850385E
:1057F00002F05CF860480090604801900020029040
:10580000C82003900020049080200590002006907E
:10581000079008904FF44050099000200A90694684
:105820004E48503802F0E4F801214C48503802F05C
:105830000AF9514800904F48019010200290092029
:10584000039000200490802005900020069007908F
:1058500008904FF48050099000200A9069463F4814
:10586000643802F0C5F8012240214348001F00F0CF
:10587000E3FD012280214048001F00F0DDFD0BB058
:1058800000BD08B50D208DF8000000208DF8010046
:1058900001208DF802008DF80300684600F0E3F85F
:1058A00027208DF8000000208DF8010002208DF8DF
:1058B000020001208DF80300684600F0D4F808BD0E
:1058C00010B586B004460121880400F05EFC012179
:1058D000092000F04DFC4FF48060ADF81400182052
:1058E0008DF8170003208DF8160005A9244800F054
:1058F00083F94FF40060ADF8140004208DF8170010
:1059000005A91F4800F078F901940020ADF80800BF
:10591000ADF80A00ADF80C00ADF810000C20ADF8A1
:105920000E0001A91448001F00F0C9FCFFF7A9FFF1
:10593000FFF752FF012240F224410F48001F00F000
:1059400056FD01210C48001F00F045FD40210A488A
:10595000001F00F028FE06B010BD000080000240CD
:10596000C006002004440040F80500200008014063
:10597000EC070020180900200448004050080020CF
:10598000000C014010B502F012FD40F22441204805
:1059900000F012FEA8B11E480088C4B21C48001DC9
:1059A0000088C4B200211B4802F04DF8FCF7BBFD93
:1059B000C821184802F05CF80121164802F043F8AB
:1059C00000BF02F003FD10BD10B502F0F0FC4FF473
:1059D000007002F053F818B14FF4007002F081F833
:1059E00002F0F4FC10BD0FB438B505A800903C21BE
:1059F0000948009B049A02F08BFF044600200090A7
:105A0000E1B20548FFF7CBFE38BC5DF814FB00009F
:105A10000048004030000240E0090020094880476B
:105A200009480047FEE7FEE7FEE7FEE7FEE7FEE780
:105A3000FEE7FEE7FEE7FEE704480549054A064B98
:105A400070470000AB03000831010008881C0020EB
:105A500088220020881E0020881E00203149014332
:105A6000314A1160704770B5002100230F22C478BD
:105A700004B32D4C246804F4E064C4F5E064210A06
:105A8000C1F10403CA40447804FA03F18478144055
:105A900021430901254C0678A155047804F01F051F
:105AA0000124AC4005786D11AD0005F1E025C5F885
:105AB000004109E0047804F01F050124AC401C4DAE
:105AC0000678761145F8264070BD1A4A0A4002430E
:105AD000154B1B1F1A60704739B1134A121D12680B
