:020000040800F2
:10000000582100206150000897020008990200085A
:100010009D020008A1020008A502000800000000DF
:10002000000000000000000000000000A90200081D
:10003000AB02000800000000837D0008CF780008B4
:100040007B5000087B5000087B5000087B50000864
:100050007B5000087B5000087B5000087B50000854
:100060007B5000087B5000087B5000087B50000844
:100070007B5000080D5000087B5000087B500008A2
:10008000C94D00087B5000087B5000087B500008D9
:100090007B5000087B5000087B5000087B50000814
:1000A0007B5000087B5000087B5000087B50000804
:1000B0007B5000087B5000087B5000087B500008F4
:1000C0007B5000087B5000087B5000087B500008E4
:1000D0007B5000087B500008694D0008CD4F000898
:1000E0007B5000087B5000087B5000087B500008C4
:1000F0007B5000087B5000087B5000087B500008B4
:100100007B5000087B5000087B5000087B500008A3
:100110007B5000087B500008D10900087B50000884
:100120007B5000087B5000087B5000087B50000883
:1001300000F002F800F0A0F80AA090E8000C824459
:100140008344AAF10107DA4501D100F095F8AFF236
:10015000090EBAE80F0013F0010F18BFFB1A43F0A5
:100160000103184720B9000040B900000A4410F804
:10017000014B14F00F0508BF10F8015B240908BFFC
:1001800010F8014B6D1E05D010F8013B6D1E01F8F3
:10019000013BF9D1641E03D0641E01F8015BFBD161
:1001A0009142E4D37047000000230024002500267C
:1001B000103A28BF78C1FBD8520728BF30C148BFCA
:1001C0000B6070476E2908F0E080702908F05F84AA
:1001D00066290BF0928265290BF08F8267290BF05C
:1001E0008C826129AFF3008003681B0A28BF41F0AD
:1001F0008001692907F09C86642907F09986752992
:1002000007F096866F2908F0ED83782908F02B8493
:10021000E92908F08783E42908F08483F52908F0A8
:100220008183EF2908F0EA83F82908F02A8403681B
:10023000DB0928BF41F08001632908F0F6827329A9
:1002400008F0FB82E32908F01985F32908F01E85E0
:10025000002070471FB508F079FC04000020002141
:100260000AF092F8401C6060002000210AF076F845
:10027000E0601FBD10B510BD08F0C0FD1146FFF7CE
:10028000E9FF07F0F8FC08F0E7FD03B4FFF7F2FF21
:1002900003BC04F08FFC704700BFFEE700BFFEE721
:1002A00000BFFEE700BFFEE7704770470CB50020B7
:1002B000019000906C48006840F480306A49086002
:1002C00000BF6948006800F4003000900198401CAD
:1002D0000190009818B90198B0F5A06FF1D162486B
:1002E000006800F4003010B10120009001E000200F
:1002F00000900098012843D15C48006840F010004D
:100300005A4908600846006820F003000860084663
:10031000006840F002000860534840685249486055
:100320000846406848600846406840F4806048607D
:100330000846406820F47C1048600846406840F455
:10034000E81048600846006840F08070086000BF10
:100350004548006800F000700028F9D04248406825
:1003600020F00300404948600846406840F0020021
:10037000486000BF3C48406800F00C000828F9D1F4
:100380000CBD10B5FFF792FF10BD10B536480068E0
:1003900040F001003449086008464068344908408C
:1003A0003149486008460068324908402E490860D3
:1003B0000846006820F4802008600846406820F461
:1003C000FE0048604FF41F008860FFF7DAFF4FF02F
:1003D00000602949086010BD10B5002100200022EE
:1003E000214B5B6803F00C0121B1042906D00829D8
:1003F00028D107E0214B224C236027E01F4B204CE3
:10040000236023E0184B5B6803F47010164B5B68A5
:1004100003F48032022303EB904022B9194B43438B
:10042000174C23600DE0104B5B6803F4003323B1DD
:10043000144B4343124C236003E0104B4343104CD6
:10044000236003E00D4B0E4C236000BF00BF064B42
:100450005B68C3F303130C4CE15C094B1B68CB4096
:10046000074C236010BD0000001002400020024035
:100470000000FFF8FFFFF6FE08ED00E000127A0032
:100480000000002000093D000400002030B589B0C4
:1004900005460C460121480305F08CF90121112085
:1004A00005F088F94FF47070ADF8200018208DF831
:1004B000230003208DF8220008A9FA4804F0BEFEAC
:1004C000ADF81850ADF814400020ADF81A00ADF8A2
:1004D000160005A9F44805F0A9FC7020ADF8040049
:1004E0000120ADF806000020ADF80A00ADF80C00C0
:1004F00001A9ED4805F0D7FC01A9EB4805F015FD71
:1005000001A9E94805F05EFD01A9E74805F0A5FD50
:100510000121E54805F0F2FF0821E34806F012F951
:100520000821E14806F017F90821DF4806F020F914
:100530000821DD4806F025F90121DB4806F0D2F854
:100540000121D94805F0CEFF0021D74806F062FA14
:100550000021D54806F060FA0021D34806F05EFA83
:100560000021D14806F05CFA09B030BD30B589B041
:1005700005460C460121042005F029F90121092036
:1005800005F018F94FF47070ADF8200018208DF8C0
:10059000230003208DF8220008A9C44804F04EFE71
:1005A000ADF81850ADF814400020ADF81A00ADF8C1
:1005B000160005A9BE4805F039FC7020ADF804000E
:1005C0000120ADF806000020ADF80A00ADF80C00DF
:1005D00001A9B74805F067FC01A9B54805F0A5FCDD
:1005E00001A9B34805F0EEFC01A9B14805F035FDBD
:1005F0000121AF4805F082FF0821AD4806F0A2F8BE
:100600000821AB4806F0A7F80821A94806F0B0F881
:100610000821A74806F0B5F80121A54806F062F8C0
:100620000121A34805F05EFF0021A14806F0F2F980
:1006300000219F4806F0F0F900219D4806F0EEF9F0
:1006400000219B4806F0ECF909B030BD00B587B039
:100650000121084605F0AEF80121C80205F0AAF80C
:100660000121042005F0A6F84FF44070ADF8180001
:1006700048208DF81B0003208DF81A0006A98D482C
:1006800004F0DCFD012211028A4804F088FE0122F8
:100690005102884804F083FE44F62060ADF8100053
:1006A0000020ADF80C00ADF81200ADF80E0003A963
:1006B000814805F0BBFB0A231A4603217E4805F05A
:1006C000C4FF684605F0F1FE0820ADF80800694651
:1006D000794805F03EFE0121774806F0C9F901226C
:1006E0001146754805F019FF002073492431088030
:1006F0000121714805F0F6FE07B000BD00B587B0D6
:1007000001216E4804F06BFE0121084605F052F805
:100710000121084605F05BF80121042005F04AF8A4
:100720000121082005F046F80121654804F057FE34
:100730004FF40040ADF8180004208DF81B00032092
:100740008DF81A0006A95B4804F078FD0122D10358
:10075000584804F024FE0820ADF8180004208DF855
:100760001B0003208DF81A0006A9504804F066FD0E
:10077000012208214D4804F012FE4FF0804005F0A0
:1007800081FA03A94FF0804005F050FB44F6206049
:10079000ADF810000020ADF80C00ADF81200ADF877
:1007A0000E0003A94FF0804005F040FB00231A46DD
:1007B00003214FF0804005F048FF684605F075FEC4
:1007C0000620ADF8080069464FF0804005F0C1FDF5
:1007D0000121880706F04CF901221146900705F027
:1007E0009CFE00204FF0804188840121880705F09D
:1007F00079FE07B000BD00B587B00121084604F0BE
:10080000D9FF0121022004F0E2FF0121042004F0BD
:10081000D1FFC020ADF8180048208DF81B00032040
:100820008DF81A0006A9234804F008FD0122402192
:10083000204804F0B4FD012280211E4804F0AFFDE1
:1008400044F62060ADF810000020ADF80C00ADF8C3
:100850001200ADF80E0003A91A4805F0E7FA0A23C2
:100860001A460321174805F0F0FE684605F01DFE04
:100870000820ADF808006946124805F06AFD01211C
:10088000104806F0F5F8012211460E4805F045FE25
:1008900000200C492431088001210A4805F022FE7D
:1008A00007B000BD0010014000340140000C0140C1
:1008B0000008004000080140002C01400002300008
:1008C000000318000004004000B587B0012108466D
:1008D00004F070FF0121082004F079FF01210420B9
:1008E00004F068FF0320ADF8180048208DF81B00C5
:1008F00003208DF81A0006A9474804F09FFC012246
:100900001146454804F04BFD01220221424804F003
:1009100046FD44F62060ADF810000020ADF80C0054
:10092000ADF81200ADF80E0003A93C4805F07EFAC0
:100930000A231A460321394805F087FE684605F068
:10094000B4FD0820ADF808006946344805F001FD03
:100950000121324806F08CF8012211462F4805F09B
:10096000DCFD00202D492431088001212B4805F0B1
:10097000B9FD07B000BD7FB505460C46012110202A
:1009800004F025FFADF80850ADF804400020ADF8A4
:100990000A00ADF8060001A9214805F047FA012236
:1009A00011461F4805F0B9FD36208DF800000020E3
:1009B0008DF8010003208DF8020001208DF803005E
:1009C000684604F072FB0121154805F08BFD7FBDE0
:1009D00010B50121124806F04EF840B111480068E8
:1009E000401C1049086001210D4806F055F810BD63
:1009F00010B5FFF72BFEFFF781FEFFF7FCFE1D2170
:100A000040F2AF40FFF7B2FDFFF75EFF1D2140F25D
:100A1000AF40FFF73BFD10BD00080140000C004057
:100A200000100040140000202DE9F0470446002C7F
:100A300008DBB4F5FA7F01DD4FF4FA740120FD49BB
:100A4000087008E06442B4F5FA7F01DD4FF4FA74EF
:100A50000020F849087020B2F649C88120460AF003
:100A60006FFC8246F4490AF0CBFC81460AF0BCFADE
:100A700007460022F14B09F0CFFC054609F0E0FEE5
:100A8000EC494860BDE8F0872DE9F0470446002CAA
:100A900008DBB4F5FA7F01DD4FF4FA740120E84970
:100AA000087008E06442B4F5FA7F01DD4FF4FA748F
:100AB0000020E349087020B2E149C88120460AF0CD
:100AC0003FFC8246DC490AF09BFC81460AF08CFA26
:100AD00007460022D94B09F09FFC054609F0B0FEFD
:100AE000D7494860BDE8F0872DE9F0470446002C5F
:100AF00008DBB4F5FA7F01DD4FF4FA740120D14927
:100B0000087008E06442B4F5FA7F01DD4FF4FA742E
:100B10000020CC49087020B2CA49C88120460AF09A
:100B20000FFC8246C4490AF06BFC81460AF05CFA6D
:100B300007460022C14B09F06FFC054609F080FE14
:100B4000C0494860BDE8F0872DE9F0470446002C15
:100B500008DBB4F5FA7F01DD4FF4FA740120BA49DD
:100B6000087008E06442B4F5FA7F01DD4FF4FA74CE
:100B70000020B549087020B2B349C88120460AF068
:100B8000DFFB8246AC490AF03BFC81460AF02CFAB6
:100B900007460022A94B09F03FFC054609F050FE2C
:100BA000A9494860BDE8F08770B504460D465DB1BF
:100BB0004FF49661A54805F031FFC4F5966081B207
:100BC000A24805F02DFF0AE0C4F5966081B29F4867
:100BD00005F024FF4FF496619C4805F021FF70BD9D
:100BE00070B504460D465DB14FF49661974805F027
:100BF00011FFC4F5966081B2944805F00DFF0AE03C
:100C0000C4F5966081B2914805F004FF4FF49661F7
:100C10008E4805F001FF70BD70B504460D465DB10C
:100C20004FF496618A4805F0F9FEC4F5966081B2EA
:100C3000874805F0F5FE0AE0C4F5966081B2844865
:100C400005F0ECFE4FF49661814805F0E9FE70BDB9
:100C500070B504460D465DB14FF496617C4805F0D1
:100C6000D9FEC4F5966081B2794805F0D5FE0AE058
:100C7000C4F5966081B2764805F0CCFE4FF49661DB
:100C8000734805F0C9FE70BD6A48806810F5966F1C
:100C900002DA70486749886066488068B0F5966FE8
:100CA00003DD4FF49660634988606548806810F5FD
:100CB000966F02DA67486249886061488068B0F5DB
:100CC000966F03DD4FF496605D4988605D488068EB
:100CD00010F5966F02DA5F485A4988605948806873
:100CE000B0F5966F03DD4FF496605649886056481C
:100CF000806810F5966F02DA56485349886052486A
:100D00008068B0F5966F03DD4FF496604E498860B9
:100D100070472DE9F04705460C46601B0AF010FBB2
:100D20004D4908610A46116950680AF069FB80461E
:100D3000494A516910690AF06BFC814646480168CE
:100D400048460AF05DFB074641460AF079F9064637
:100D50004148816930460AF073F93F498861084685
:100D6000006948610CB9002088613B4988693B49AA
:100D70000AF012FC03D239483749886108E0364945
:100D8000886900210AF008FB02D2002032498861FC
:100D9000314988690AF0B8FABDE8F08701460029B0
:100DA00001DA002000E0084670472DE9F0470546CB
:100DB0000C46601B0AF0C4FA294908610A46116909
:100DC00050680AF01DFB8046254A516910690AF0F7
:100DD0001FFC81462248016848460AF011FB07467D
:100DE00041460AF02DF906461D48816930460AF051
:100DF00027F91B4988610846006948610CB9002041
:100E000088611749886915490AF0C6FB03D213485F
:100E10001349886108E01249886900210AF0BCFA88
:100E200002D200200E4988610D4988690AF06CFAE7
:100E3000BDE8F087FC01002037BEEF3D0000E03F39
:100E40001002002024020020380200200008004088
:100E50000034014050FBFFFFB40200200000964424
:100E6000980200202DE9F04705460C46601B0AF069
:100E700067FAFE4908610A46116950680AF0C0FA2B
:100E80008046FA4A516910690AF0C2FB8146F74868
:100E9000016848460AF0B4FA074641460AF0D0F81D
:100EA0000646F248816930460AF0CAF8EF4988617F
:100EB0000846006948610CB900208861EB498869DF
:100EC000EB490AF069FB03D2E948E849886108E088
:100ED000E649886900210AF05FFA02D20020E3495E
:100EE0008861E24988690AF00FFABDE8F0872DE9C8
:100EF000F04705460C46601B0AF022FADD490861FE
:100F00000A46116950680AF07BFA8046D94A51694D
:100F100010690AF07DFB8146D648016848460AF010
:100F20006FFA074641460AF08BF80646D1488169B8
:100F300030460AF085F8CF49886108460069486163
:100F40000CB900208861CB498869C9490AF024FBA3
:100F500003D2C748C749886108E0C64988690021AB
:100F60000AF01AFA02D20020C2498861C149886990
:100F70000AF0CAF9BDE8F08770B50025BE48007CCC
:100F800000F0010058B9BD48C08948BBBC48C089C1
:100F900030BBBC48C08918BBBB48C08900BB00211E
:100FA000BA4805F037FD0021B84805F035FD0021AD
:100FB000B64805F033FD0021B44805F031FD0021AD
:100FC000B34805F027FD0021B14805F025FD0021BB
:100FD000AF4805F023FD0021AD4805F021FD70BDAF
:100FE000AC48B0F90440A54A5168002C01DB224608
:100FF00000E062421046FFF77AFF0646FFF7CEFE9A
:101000009E498860A348B0F900409D4A5168002C71
:1010100001DB224600E062421046FFF723FF06464E
:10102000FFF7BCFE964988609A48B0F90840954A97
:101030005168002C01DB224600E062421046FFF7B7
:10104000B4FE0646FFF7AAFE8E4988609148B0F9C3
:1010500002400A465168002C01DB224600E0624251
:101060001046FFF756FE0646FFF798FE8649886051
:10107000FFF70AFE814A11789068FFF7E9FD804A80
:1010800011789068FFF7C8FD7E4A11789068FFF7E5
:10109000A7FD7D4A11789068FFF786FD00BF9EE7A7
:1010A0007D48744908607D4848607B486F49086006
:1010B0007A48486078487A490860784848607648B5
:1010C000784908607548486070472DE9F047044644
:1010D0000D46281B0AF034F9734908600846016878
:1010E0007248006809F0ACFF7049086070480168F8
:1010F0006D4800680AF08CFA80466E4801684046E8
:101100000AF07EF90646694801686B4800680AF0F3
:1011100077F9804664480168684800680AF070F909
:101120008146414609F08CFF0746314609F088FFA9
:10113000634908605C4800685D4908606048006871
:101140000AF0E2F8BDE8F0872DE9F04104460021FD
:1011500020680AF021F903D2206880F00040206066
:10116000002160680AF018F903D2606880F000403E
:1011700060600021A0680AF00FF903D2A06880F037
:101180000040A0600021E0680AF006F903D2E068A0
:1011900080F00040E0602069E0612169206A09F088
:1011A0004FFF20620021E0680AF07AF813D0E1686E
:1011B000206A0AF0F1F902D2E06820620BE0E068F0
:1011C00080F000452846216A0AF0E6F903D2E0687B
:1011D00080F000402062A16920690AF019FA60627B
:1011E0002069A061616AA0680AF00AF90646216ACE
:1011F00060680AF005F90746E16920680AF000F91D
:101200008046394609F01CFF0546314609F018FFB3
:101210006061BDE8F0812DE9F04F93B004460D46C2
:1012200016469946604204B2704209F066FB254AB0
:1012300003C20022244B234903C909F0C5FBCDE9B1
:101240001001484609F059FBCDE9080109F010F8F2
:1012500007468846284609F050FB82463A464346F0
:1012600009F0B2FBCDE90C0148462FE07C020020DA
:1012700000009644600200204C020020FC01002087
:101280001002002024020020380200200034014017
:1012900000080040180300200000F0420000404019
:1012A00098020020B40200203800002040000020F6
:1012B0004400002034000020300000202C000020DA
:1012C0003C000020600000200070704009F015FB19
:1012D000CDE9080108F07EFF07468846204609F060
:1012E0000CFB82463A46434609F06EFBCDE90A0103
:1012F000DDE90C2309F090F8CDE90E01DDE91023BA
:1013000009F08AF8944A03C20022944B944903C915
:1013100009F05AFBCDE91001484609F0EEFA824681
:1013200008F058FFCDE900018E488F4908F0A0FF72
:101330000746DDE9002309F047FBCDE904014846F3
:1013400009F0DBFA824608F093FF07468846854895
:10135000854908F03FFF81F000413A464346CDE918
:10136000000109F031FBCDE90201DDE9042309F0B8
:1013700051FDCDE90801284609F0BFFACDE9060183
:10138000DDE9082309F020FBCDE90C01484609F00E
:10139000B4FA074608F06CFFCDE9000171487349C3
:1013A00008F066FF8246DDE9002309F00DFBCDE978
:1013B0000401484609F0A1FA074608F00BFF8246EF
:1013C0008B466848684908F005FF81F000415246A5
:1013D0005B46CDE9000109F0F7FACDE90201DDE94C
:1013E000042309F019F8CDE90801204609F085FA2F
:1013F000CDE90601DDE9082309F0E6FACDE90A01A5
:10140000DDE90C2309F008F8CDE90E01DDE9102330
:1014100009F002F8564A03C20022504B504903C952
:1014200009F0D2FACDE91001484609F066FA824681
:1014300008F0D0FECDE900014A484C4908F0CAFE48
:101440000746DDE9002309F0BFFACDE9040148466B
:1014500009F053FACDE9000108F00AFF0746884673
:101460004048424908F004FF81F0004182463A4674
:10147000434609F0A9FACDE90201DDE9042308F0A9
:10148000CBFFCDE90801284609F037FACDE906017E
:10149000DDE9082309F098FACDE90C01484609F086
:1014A0002CFACDE9000108F0E3FE074688462D48F6
:1014B0002E4908F08FFE82463A46434609F084FAE8
:1014C000CDE90401484609F018FA074608F082FE03
:1014D000CDE900012348254908F0CAFE81F000410A
:1014E0008246DDE9002309F06FFACDE90201DDE96A
:1014F000042308F091FFCDE90801204609F0FDF929
:10150000CDE90601DDE9082309F05EFACDE90A011B
:10151000DDE90C2308F080FFCDE90E01DDE91023A1
:1015200008F07AFF134A03C20B4903C909F088F98E
:101530000746FFF779FA0E4903C909F081F9074612
:10154000FFF7A2FA0B4903C909F07AF90746FFF73A
:10155000CBFA13B0BDE8F08F480000200070704057
:1015600060000020A138DB3752C1F03F52C1E03F9C
:10157000500000205800002070B5002500244DF6D2
:10158000ED60F7490880F74880788870F548007961
:10159000C870F4488088000A0871F248807A48715F
:1015A000F0488079887100BF06E0EF48015DE01DDA
:1015B000EB4A1154601CC4B2EA488079A042F4DCC2
:1015C000002405E0E648005D284405B2601CC4B272
:1015D000E4488078801EA042F4DCE2488078801ED7
:1015E000DF4A1554C5F30721DE488078401E1154A8
:1015F000DC488178104603F0E0FA70BD2DE9FC5F0D
:1016000057E1DA48007820BB1D21D02001F01CF9F9
:101610001F21D02001F018F92121D02001F014F968
:101620003221A62001F023F93421A62001F01FF970
:101630003621A62001F01BF900211A2001F017F92C
:1016400002211A2001F013F904211A2001F00FF9E8
:101650002AE11D21D02001F0F7F800B2009009F036
:101660006FFE019009F0C0FC8246C14AC14B09F0EF
:10167000ABF980468946C049486A09F0B5FC064680
:1016800042464B4608F0C8FE044608F093FEBA49AD
:1016900048621F21D02001F0D7F800B2009009F075
:1016A0004FFE019009F0A0FC8046B14AB14B09F011
:1016B0008BF904460D46B049886A09F095FC064648
:1016C00022462B4608F0A8FE824608F073FEAA497F
:1016D00088622121D02001F0B7F800B2009009F013
:1016E0002FFE019009F080FC0646A14AA14B09F0AB
:1016F0006BF904460D46A049C86A09F075FC80469E
:1017000022462B4608F088FE824608F053FE9A498E
:10171000C8623221A62001F0AAF800B2009009F0B8
:101720000FFE019009F060FC8046914A914B09F050
:101730004BF904460D469049086B09F055FC0646E6
:1017400022462B4608F068FE824608F033FE8A499E
:1017500008633421A62001F08AF80FFA80FB58466E
:1017600009F0EEFD824609F03FFC8046804A814B3D
:1017700009F02AF904460D467F49486B09F034FC0C
:10178000064622462B4608F047FECDE9000108F048
:1017900011FE794948633621A62001F068F80FFA56
:1017A00080FB584609F0CCFD824609F01DFC8046BE
:1017B0006F4A704B09F008F904460D466E49886B74
:1017C00009F012FC064622462B4608F025FECDE91C
:1017D000000108F0EFFD6849886300211A2001F03C
:1017E00046F800B2009009F0ABFD019009F0FCFB57
:1017F00080465F4A5F4B09F0E7F804460D465E49B4
:10180000C86B09F0F1FB064622462B4608F004FEA1
:10181000824608F0CFFD5849C86302211A2001F022
:1018200026F80FFA80FB584609F08AFD824609F037
:10183000DBFB06464E4A4F4B09F0C6F804460D4600
:101840004D49086C09F0D0FB804622462B4608F033
:10185000E3FDCDE9000108F0ADFD4749086404212E
:101860001A2001F004F80FFA80FB584609F068FDD1
:10187000824609F0B9FB80463D4A3E4B09F0A4F888
:1018800004460D463C49486C09F0AEFB064622462C
:101890002B4608F0C1FDCDE9000108F08BFD36496B
:1018A0004864052006F06DF930480078401C2F4947
:1018B00008702E4800786528FFF6A3AEBDE8FC9FAF
:1018C00070B5054600242D480078401C2B4908704F
:1018D000FFF794FE29480078062875D2DFE800F06B
:1018E000DB031F5275974DF6ED601D4908802320DC
:1018F00088700020C870F0200871002048711A20FC
:1019000088711F484088184908801D488088488091
:101910001B48C08888801A480089C880BCE01D2107
:10192000D02000F091FF00B20F4908811F21D02084
:1019300000F08AFF00B20C4948812121D02000F03C
:1019400083FF00B208498881084600890A49088057
:101950000548408948800448808988809CE00000D0
:101960005C060020D0020020DC020020680000207D
:101970007B14AE47E17A843F4C0300206B000020CB
:10198000180300203221A62000F071FF00B2FE49AA
:10199000C8813421A62000F06AFF00B2FA4908820B
:1019A0003621A62000F063FF00B2F74948820846BE
:1019B000C089F649C880F448018AF4480181F24898
:1019C000418AF248418167E065E000211A2000F079
:1019D0004EFF00B2EC49888202211A2000F047FF36
:1019E00000B2E949C88204211A2000F040FF00B289
:1019F000E54908830846808AE4498881E248C18A2B
:101A0000E248C181E048018BE048018244E00020C7
:101A1000DF4908700DE0DC48DD490978415CDC48AD
:101A20000078C01DDB4A1154D9480078401CD849C1
:101A30000870D8488079D64909788842EBDC0020C4
:101A4000D34908700AE0D348D1490978405C204462
:101A500004B2CF480078401CCD490870CD4880784A
:101A6000801ECB4909788842EDDCCA488078801E08
:101A7000C84A1454C4F3072110468078401E1154FC
:101A80001DB11046817803F098F801F096FF002010
:101A9000C149087000E000BF00BF70BD10B5002252
:101AA000BE48B0F90000BE4B98427DD1BB4880785B
:101AB000BC4B9870B948C078B84B1B7900EB032039
:101AC000B84B9880B54840799872B448807998713D
:101AD0001846807909283BD2DFE800F03A050A3A37
:101AE000163A223A2E00AD48C079AF4B188030E04C
:101AF000002106E0C81DA94B185CAB4B5854481C8C
:101B0000C1B20229F6DB24E0002106E0C81DA34B88
:101B1000185CA54B5854481CC1B20429F6DB18E0E8
:101B2000002106E0C81D9D4B185C9F4B5854481C73
:101B3000C1B20629F6DB0CE0002106E0C81D974B78
:101B4000185C994B5854481CC1B20829F6DB00E0D8
:101B500000BF00BF93488078801E904B1B5C91486B
:101B60008078401E8D4C205C03EB002000B28D4B32
:101B70001881002105E08948405C104482B2481C6D
:101B8000C1B288488078801E8842F4DC8548B0F96C
:101B90000800904204D10120824B187010BD03E070
:101BA0000020804B1870F9E70020F7E72DE9F04797
:101BB000FFF774FF08B9BDE8F0877A4880880928E4
:101BC00077D007DC76D2DFE800F01E22277A8B8FF1
:101BD00090949F00B0F5004F6DD008DC0A286BD0C0
:101BE0000B286AD00C2869D00D2863D14CE16FF422
:101BF00000410844002870D001286FD002286ED020
:101C00000328F2D1BCE143205F490880C4E140F2DF
:101C100007105D490880BFE16449B1F90C106422E6
:101C200001FB02F008F069FE0646614A614B08F0CC
:101C3000AFFC044608F004FE00B2534908805E4938
:101C4000B1F90C10642201FB02F008F056FE0646C2
:101C5000574A584B08F09CFC044608F0F1FD00B2CE
:101C6000494948805549B1F90C10642201FB02F042
:101C700008F043FE06464E4A4E4B08F089FC0446E7
:101C800008F0DEFD00B2404988804D49B1F90C10E2
:101C9000642201FB02F008F030FE0646444A454B40
:101CA00008F076FC044608F0CBFD00B23649C88047
:101CB00072E1D9E06FE1FBE0D7E0DBE0DFE03B4839
:101CC0008089314908803C48808948803B48808928
:101CD00088803B488089C8805EE13AE14EE14EE170
:101CE00038202949088057E156E10B202649088011
:101CF00052E134488088244908803248C0884880AE
:101D000030480089888047E126488079062804D039
:101D10000C2818D012287DD161E01D21D02000F0C0
:101D200093FD00B2184908801F21D02000F08CFDDF
:101D300000B2154948802121D02000F085FD00B275
:101D4000114988808EE01D21D02000F07DFD00B279
:101D50000D4908801F21D02000F076FD00B20A490D
:101D600048802121D02000F06FFD00B20649888014
:101D70003221A62000F068FD00B20349C88034215A
:101D8000A62000F061FD1FE0DC0200204C030020D3
:101D90006A0000205C0600206B000020C0060020C6
:101DA000EDDEFFFFD0020020FA0200202402002016
:101DB000EC3EB61B934F6A4038020020FC01002025
:101DC000100200201803002000B277490881362154
:101DD000A62000F039FD00B27349488142E01D2180
:101DE000D02000F031FD00B26F4908801F21D020C3
:101DF00000F02AFD00B26C4948802121D02000F07B
:101E000023FD00B2684988803221A62000F01CFD25
:101E100000B200E025E06449C8803421A62000F02B
:101E200013FD00B2604908813621A62000F00CFDA8
:101E300000B25D49488100211A2000F018FD00B26F
:101E40005949888102211A2000F011FD00B256493B
:101E5000C88104211A2000F00AFD00B2524908820C
:101E600000E000BF00BF97E096E05048008A4E496E
:101E7000088091E04FF480704B4908808CE04B481B
:101E8000807C4949087087E043204749088040F238
:101E900007104880382088800B20C8804FF480705D
:101EA00008814248807C887201204149487073E073
:101EB0004048B0F90000642190FBF1F9484608F071
:101EC0001CFD07463C4A3D4B08F07EFD054608F0E8
:101ED000B7FC0446FEF708FE3648B0F9020064215C
:101EE00090FBF1F9484608F008FD0746324A334BAB
:101EF00008F06AFD054608F0A3FC0446FEF724FE40
:101F00002C48B0F90400642190FBF1F9484608F030
:101F1000F4FC0746284A294B08F056FD054608F010
:101F20008FFC0446FEF780FD2248B0F906006421CC
:101F300090FBF1F9484608F0E0FC07461E4A1F4BAB
:101F400008F042FD054608F07BFC0446FEF79CFDC8
:101F500022E01849B1F90000FEF7C6FD1549B1F9B4
:101F60000200FEF7F1FD1349B1F90400FEF75CFD34
:101F70001049B1F90600FEF787FD0DE00CE00BE01B
:101F80000C4BB3F90420B3F90210B3F9000000239D
:101F9000FFF741F900E00EE600BF0548807A08B17E
:101FA000FFF7EAFA00BF06E6DC0200204C02002040
:101FB000D0020020FA020020EC3EB61B934F6A408C
:101FC00010B5E84A128812B2E74B5A811A46116AD4
:101FD000B2F90A30B2F9142040F27124624303EBE3
:101FE0004210421A12B2E04B1A8013E0DE4A928A83
:101FF000521E12B2DC4B9A821A46B2F90A30B2F97A
:10200000142040F27124624303EB4210421A12B2D0
:10201000D54B1A80D44AB2F9002042F210739A428A
:10202000E4DC13E0D04A928A521C12B2CE4B9A8260
:102030001A46B2F90A30B2F9142040F27124624310
:1020400003EB4210421A12B2C74B1A80C64AB2F9C9
:102050000020C64B9A42E5DBC34A106210BD10B5A2
:102060004FF08042928C12B2BF4B9A811A46516A4D
:10207000B2F90C30B2F9162040F27124624303EB3E
:102080004210421A12B2B84B5A8013E0B64AD28AB2
:10209000521E12B2B44BDA821A46B2F90C30B2F9BF
:1020A000162040F27124624303EB4210421A12B22E
:1020B000AD4B5A80AC4AB2F9022042F210739A42F8
:1020C000E4DC13E0A84AD28A521C12B2A64BDA8290
:1020D0001A46B2F90C30B2F9162040F2712462436C
:1020E00003EB4210421A12B29F4B5A809E4AB2F939
:1020F00002209E4B9A42E5DB9B4A506210BD10B510
:102100009B4A128812B2984BDA811A46916AB2F948
:102110000E30B2F9182040F27124624303EB4210F2
:10212000421A12B2904B9A8013E08F4A128B521EC1
:1021300012B28D4B1A831A46B2F90E30B2F918203A
:1021400040F27124624303EB4210421A12B2864BF2
:102150009A80854AB2F9042042F210739A42E4DC74
:1021600013E0814A128B521C12B27F4B1A831A461B
:10217000B2F90E30B2F9182040F27124624303EB39
:102180004210421A12B2784B9A80774AB2F9042070
:10219000764B9A42E5DB744A906210BD10B5754AE1
:1021A000128812B2704B1A821A46D16AB2F91030F4
:1021B000B2F91A2040F27124624303EB4210421A32
:1021C00012B2694BDA8013E0674A528B521E12B288
:1021D000654B5A831A46B2F91030B2F91A2040F210
:1021E0007124624303EB4210421A12B25E4BDA8052
:1021F0005D4AB2F9062042F210739A42E4DC13E021
:10220000594A528B521C12B2574B5A831A46B2F992
:102210001030B2F91A2040F27124624303EB4210ED
:10222000421A12B2504BDA804F4AB2F906204F4B95
:102230009A42E5DB4C4AD06210BD10B54E4A128876
:1022400012B2494B5A821A46116BB2F91230B2F9E6
:102250001C2040F27124624303EB4210421A12B276
:10226000414B1A8113E0404A928B521E12B23E4BF0
:102270009A831A46B2F91230B2F91C2040F2712446
:10228000624303EB4210421A12B2374B1A81364AAC
:10229000B2F9082042F210739A42E4DC13E0324AA9
:1022A000928B521C12B2304B9A831A46B2F91230FA
:1022B000B2F91C2040F27124624303EB4210421A2F
:1022C00012B2294B1A81284AB2F90820274B9A42A8
:1022D000E5DB254A106310BD70B5FFF771FEFFF70F
:1022E000BEFEFFF70CFFFFF7A8FF1F49B1F904007E
:1022F00009F026F80546214908F010FF044609F0C8
:1023000003F800B21E4988811749B1F9000009F0AD
:1023100017F80546194908F001FF044608F0F4FFD4
:1023200000B2184988811049B1F9080009F008F88D
:102330000546124908F0F2FE044608F0E5FF00B237
:10234000114988810849B1F9020008F0F9FF0546F2
:102350000A4908F0E3FE044608F0D6FF00B20B4934
:10236000888170BD242C014018030020F0D8FFFFA5
:102370002404004024080040240C004037BEEF3DF8
:10238000FC0100201002002024020020380200205E
:1023900008B50121082003F00DFA2020ADF8000057
:1023A00003208DF8020014208DF803006946FE48D2
:1023B00002F044FF0121FD4803F011F81020ADF8B0
:1023C000000003208DF8020014208DF803006946F8
:1023D000F54802F033FF08BD002100BF48E000BF10
:1023E00000BF00BF00BF00BF00BF00BF00BF00BFF5
:1023F00000BF00BF00BF00BF00BF00BF00BF00BFE5
:1024000000BF00BF00BF00BF00BF00BF00BF00BFD4
:1024100000BF00BF00BF00BF00BF00BF00BF00BFC4
:1024200000BF00BF00BF00BF00BF00BF00BF00BFB4
:1024300000BF00BF00BF00BF00BF00BF00BF00BFA4
:1024400000BF00BF00BF00BF00BF00BF00BF00BF94
:1024500000BF00BF00BF00BF00BF00BF00BF00BF84
:1024600000BF00BF00BF00BF00BF00BF00BF491CCE
:102470008142B4D3704700B52020CB4910310860A9
:10248000102008600220FFF7A7FFC7480830006847
:1024900008B9012000E0002000F0200008B1002071
:1024A00000BD2020C049143108600220FFF794FFCE
:1024B000BD480830006800F0200008B10020EFE7B8
:1024C0002020B949143108600220FFF785FF012060
:1024D000E6E700B51020B449143108600220FFF788
:1024E0007BFF2020B049143108600220FFF774FF01
:1024F0001020AD49103108600220FFF76DFF202049
:10250000A949103108600220FFF766FF00BD00B541
:102510001020A549143108600220FFF75DFF20203C
:10252000A149143108600220FFF756FF10209E4990
:10253000103108600220FFF74FFF10209A49143134
:1025400008600220FFF748FF00BD00B51020964943
:10255000143108600220FFF73FFF2020924910311C
:1025600008600220FFF738FF10208F491031086003
:102570000220FFF731FF10208B4914310860022040
:10258000FFF72AFF00BD00B510208749143108600D
:102590000220FFF721FF202083491031086002202C
:1025A000FFF71AFF10208049103108600220FFF762
:1025B00013FF7D480830006800F0200040B1102073
:1025C0007949143108600220FFF706FF002000BDA2
:1025D00010207549143108600220FFF7FDFE01202C
:1025E000F5E710B5034608241EE010206E491431AB
:1025F00008600220FFF7F0FE03F0800020B12020E9
:1026000069491031086003E02020674914310860EF
:102610005806030E0220FFF7DFFE1020624910313A
:1026200008600220FFF7D8FE2000A4F10101CCB21F
:10263000DBD110205C491431086010BD10B50824AE
:102640000023202058491031086017E05806030E77
:1026500010205549143108600220FFF7BDFE1020FC
:102660005149103108600220FFF7B6FE4E4808308D
:10267000006800F0200008B143F001032000A4F13D
:102680000101CCB2E2D1102047491431086018464C
:1026900010BD70B506460C461546FFF7ECFE08B9AE
:1026A000002070BD3046FFF79CFFFFF76CFF18B9A4
:1026B000FFF70FFF0020F4E72046FFF792FFFFF738
:1026C00062FF2846FFF78DFFFFF75DFFFFF701FF71
:1026D0000120E6E770B504460D46FFF7CCFE08B9C9
:1026E000002070BD2046FFF77CFFFFF74CFF18B9B4
:1026F000FFF7EFFE0020F4E72846FFF772FFFFF731
:1027000042FFFFF7B8FE611CC8B2FFF76AFFFFF790
:102710003AFFFFF793FF0646FFF717FFFFF7D9FED3
:102720003046DEE7FCB505460E461746FFF7A3FE2A
:10273000A620FFF756FFFFF726FF3220FFF751FFD5
:10274000FFF721FFFFF797FEA720FFF74AFFFFF7EC
:102750001AFF002410E0052C06D1FFF76FFF0DF8DB
:102760000400FFF7F2FE05E0FFF768FF0DF8040034
:10277000FFF7CDFE601CC4B2062CECDBFFF7A9FE10
:102780009DF800009DF8011000EB012000B22880A8
:102790009DF802009DF8031000EB012000B230808C
:1027A0009DF8040004E00000000C0140000230002D
:1027B0009DF8051000EB012000B23880FCBD10B57B
:1027C000FFF7E6FD01220B211A20FFF762FF4022EE
:1027D00020211A20FFF75DFF012221211A20FFF797
:1027E00058FF0D2209211A20FFF753FF0B22312138
:1027F000A620FFF74EFF1A222C21A620FFF749FF43
:1028000008222D21A620FFF744FF80222E21A6209A
:10281000FFF73FFF80223E21D020FFF73AFF07223B
:102820001521D020FFF735FF1E221621D020FFF7FB
:1028300030FF00221721D020FFF72BFF00223E217E
:10284000D020FFF726FF10BD2DE9F04105460C46CC
:1028500021462846FFF73EFF0646601CC1B22846C7
:10286000FFF738FF074607EB0620BDE8F0812DE9AA
:10287000F04105460C4621462846FFF72BFF074648
:10288000601CC1B22846FFF725FF064607EB06206D
:10289000BDE8F08100B587B001214FF4047002F06B
:1028A00089FF4FF4004002F0E9FE0420ADF8040077
:1028B00000208DF8070001A9494802F0BFFC4948F3
:1028C00004F0EEF8002002908DF80C008DF80D0059
:1028D0004FF4602004900020059001208DF818002E
:1028E00002A9404804F003F901213E4804F02BF905
:1028F0003C4804F04AF900BF3A4804F04BF900287C
:10290000FAD1384804F050F900BF364804F051F9C4
:102910000028FAD107B000BD10B5044607230122F4
:102920002146304804F07BF901212E4804F04BF990
:1029300000BF02212B4804F0B7FA0028F9D029483B
:1029400004F0D4F910BD2DE9F04107460C460025EE
:10295000002608E03846FFF7DFFF0544052005F0B4
:1029600010F9701CC6B2A642F4DBB5FBF4F080B2DD
:10297000BDE8F0812DE9F0470C20FFF7CDFF1A49A3
:10298000096808441849086018480078401C17492D
:1029900008700846007805281FD1134800680521F3
:1029A000B0FBF1F0104908600846006807F0BCFF72
:1029B00006464FF066320E4B08F006F80446002239
:1029C0000C4B07F0E5FD804607F06AFF0A49887462
:1029D00000200549086005490870BDE8F08700003F
:1029E00000100140002401406C0000207000002015
:1029F00066660A400000B0404C0200200020F64904
:102A00000882704770B5002500244DF6ED60F3494B
:102A100008800B2088700A20C87000200871487157
:102A20000220887100BF06E0ED48015DE01DEB4A21
:102A30001154601CC4B2022CF6DB002405E0E74808
:102A4000005D284405B2601CC4B2E4488078801E52
:102A5000A042F4DCE1488078801EE04A1554C5F3BA
:102A6000072110468078401E11541046817802F0EC
:102A7000A4F870BD10B5DB480078401CD949087037
:102A8000D948007828B10020D8490870D649087084
:102A900010E0D6480078022807DDCF48007C20F0FF
:102AA0000100401CCC49087404E0D0480078401C68
:102AB000CE490870CE48B0F90E00CD49B1F90C10DE
:102AC000401A142809DCCA48B0F90E00C849B1F907
:102AD0000C10401A10F1140F05DAC6480078401C9B
:102AE000C449087011E0C348007832280ADDBA48AA
:102AF000007C20F00200801CB74908740020BD490A
:102B0000087002E00020BB490870BB48B0F90E0015
:102B1000B949B1F90C10401A142809DCB648B0F9CB
:102B20000E00B549B1F90C10401A10F1140F05DA76
:102B3000B2480078401CB149087011E0AF480078F5
:102B400032280ADDA448007C20F00400001DA249C0
:102B500008740020A949087002E00020A749087005
:102B6000A748B0F90E00A649B1F90C10401A142874
:102B700009DCA348B0F90E00A149B1F90C10401AC4
:102B800010F1140F05DA9F480078401C9D49087029
:102B900011E09C48007832280ADD8F48007C20F044
:102BA000080008308C49087400209649087002E03B
:102BB0000020944908709448B0F90E009249B1F988
:102BC0000C10401A142809DC8F48B0F90E008E4909
:102BD000B1F90C10401A10F1140F05DA8B48007887
:102BE000401C8A49087011E08848007832280ADDC4
:102BF0007948007C20F010001030774908740020DC
:102C00008249087002E00020804908708048B0F9CD
:102C100000007F49B1F91210884213D17C48B0F905
:102C20000210B0F9140081420CD17948B0F90410B7
:102C3000B0F91600814205D176480078401C7549EC
:102C4000087011E07348007832280ADD6248007C81
:102C500020F0200020306049087400206D49087081
:102C600002E000206B49087000206B4908700EE0FC
:102C700067486949097830F811101230664A1278AD
:102C800020F8121064480078401C634908706248BC
:102C900000780328ECDB5E48B0F906005C49B1F926
:102CA0001810884213D15A48B0F90810B0F91A0028
:102CB00081420CD15648B0F90A10B0F91C0081428B
:102CC00005D156480078401C5449087011E053481B
:102CD000007832280ADD4048007C20F04000403077
:102CE0003D49087400204D49087002E000204B491E
:102CF00008700020484908700FE04548801D46498B
:102D0000097830F811101230434A127820F8121066
:102D100041480078401C404908703F48007803282B
:102D2000EBDB3B48B0F90C003949B1F91E10884281
:102D300013D13748B0F90E10B0F9200081420CD100
:102D40003348B0F91010B0F92200814205D134485F
:102D50000078401C3249087011E030480078322871
:102D60000ADD00202E4908701B48007C20F08000FE
:102D700080301949087402E00020294908700020B9
:102D8000254908700FE022480C302349097830F8B3
:102D900011101230204A127820F812101E480078C4
:102DA000401C1D4908701C4800780328EBDB0A48CA
:102DB000008A78B10B4800780A280BDD0020094909
:102DC00008700548008A06490880FFF71BFE0020AE
:102DD0000149088210BD00004C0200205C06002062
:102DE000DC02002072000020D002002073000020CE
:102DF000240200207400002038020020750000200A
:102E0000FC01002076000020100200207700002046
:102E10004C03002078000020710000207900002081
:102E20007A0000202DE9F04105460C46FE48016875
:102E3000204608F0EDFB0746FC480168384608F0DC
:102E4000DFFA0646FA480168304608F0F9F8F84912
:102E50000860F8484168F848006808F0D9FB064661
:102E6000F4488168304608F0D3FBF4490860F14823
:102E7000C06880F000404860EE48C06880F00040C4
:102E80008860EF480068C8600868E849096808F089
:102E9000B7FA0646E7480168304608F0D1F8E54938
:102EA0000860E6494868E149096808F0A9FA064659
:102EB000E0484168304608F0C3F8DE494860DF4921
:102EC0008868DA49096808F09BFA0646D94881689B
:102ED000304608F0B5F8D7498860D849C868D34962
:102EE000096808F08DFA0646D248C168304608F0F5
:102EF000A7F8D049C860CE480168284608F088FB8A
:102F0000D0490860D048007808F032FA0646C9482F
:102F10000168304608F074FACC490860CA48007865
:102F200008F026FA0646C3488168304608F068FA79
:102F3000C7490860C448007808F01AFA0746C34831
:102F40000168384608F05CFA0646C2480168304617
:102F500008F076F8C049086008460168BB48006878
:102F600008F0DCF8BD490860BB480168B848006853
:102F700008F0D4F8BA490860B4480068B949086054
:102F8000B148007808F0F4F90646AA48416830468E
:102F900008F036FAB4490860B2480168AF480068E2
:102FA00008F02EFA0646A3480168304608F025FBD3
:102FB000A0490860AC480168A848006808F020FAF9
:102FC00006469C484168304608F017FB994948601E
:102FD000A4480168A248006808F012FA064695481D
:102FE0008168304608F009FB924988609E48016874
:102FF0009B48006808F004FA06468E48C1683046CF
:1030000008F0FBFA8B49C8608E4801689348006855
:1030100008F0F6F9064695480168304608F010F8C1
:1030200092490860874801688D48006808F0E8F90F
:1030300006467D480168304608F002F87A49086083
:1030400008460168204608F0E3FA89490860BDE8AF
:10305000F0812DE9F04105460C4673480168204691
:1030600008F0D6FA074671480168384608F0C8F9F2
:1030700006466F480168304607F0E2FF6C49086079
:103080006C4841686C48006808F0C2FA0646694816
:103090008168304608F0BCFA684908606548C06835
:1030A00080F0004048606348C06880F0004088605D
:1030B00063480068C86008685C49096808F0A0F9BE
:1030C00006465C480168304607F0BAFF5949086077
:1030D0005A4948685549096808F092F90646554822
:1030E0004168304607F0ACFF524948605349886850
:1030F0004E49096808F084F906464E488168304612
:1031000007F09EFF4B4988604C49C86847490968E9
:1031100008F076F906464748C168304607F090FF48
:103120004449C86042480168284608F071FA454998
:1031300008604548007808F01BF906463D480168DC
:10314000304608F05DF9414908603F48007808F0D2
:103150000FF9064637488168304608F051F93C4976
:1031600008603948007808F003F9074637480168D5
:10317000384608F045F9064636480168304607F0FB
:103180005FFF35490860084601683048006807F06D
:10319000C5FF32490860304801682D48006807F0D3
:1031A000BDFF2F490860294800682E49086026485D
:1031B000007808F0DDF806461E484168304608F001
:1031C0001FF929490860274801682448006808F069
:1031D00017F9064617480168304608F00EFA1549F7
:1031E0000860214801681D48006808F009F9064692
:1031F00010484168304608F000FA0E494860194806
:1032000001681748006808F0FBF80646094881681D
:10321000304608F0F2F90749886013480168104801
:10322000006808F0EDF825E0CC000020C400002084
:10323000B0000020F0000020B80000209C03002017
:10324000BC000020D0000020C8000020D4000020D6
:10325000D8000020C0000020DC000020E00000209A
:10326000E4000020E8000020EC000020B400002072
:103270008C0000200646FE48C168304608F0BDF9C3
:10328000FB49C860FB480168FB48006808F0B8F8D3
:103290000646FA480168304607F0D2FEF749086052
:1032A000F4480168F648006808F0AAF80646F548B0
:1032B0000168304607F0C4FEF2490860084601681C
:1032C000204608F0A5F9F0490860BDE8F0812DE935
:1032D000F04105460C46EB480168204608F098F995
:1032E0000746EA480168384608F08AF80646E84882
:1032F0000168304607F0A4FEE5490860DC484168F3
:10330000E448006808F084F90646D94881683046E8
:1033100008F07EF9E0490860D548C06880F00040B8
:103320004860D348C06880F000408860DB4800688F
:10333000C8600868D549096808F062F80646CC48B4
:103340000168304607F07CFEC9490860D2494868E8
:10335000CE49096808F054F80646C5484168304629
:1033600007F06EFEC2494860CB498868C7490968C2
:1033700008F046F80646BE488168304607F060FE11
:10338000BB498860C449C868C049096808F038F872
:103390000646B748C168304607F052FEB449C860D7
:1033A000BB480168284608F033F9B2490860BC48B8
:1033B000007807F0DDFF0646AD480168304608F0AA
:1033C0001FF8B8490860B648007807F0D1FF0646F4
:1033D000A7488168304608F013F8B3490860B04840
:1033E000007807F0C5FF0746AE480168384608F088
:1033F00007F80646AD480168304607F021FEAC49A3
:10340000086008460168A748006807F087FE9A49E7
:103410000860A7480168A448006807F07FFE984943
:103420000860A0480068A34908609D48007807F03C
:103430009FFF06468E484168304607F0E1FF9E49EF
:1034400008609C4801688C48006807F0D9FF064670
:1034500087480168304608F0D0F8854908609648EA
:1034600001688548006807F0CBFF06468048416840
:10347000304608F0C2F87E4948608E4801688048AE
:10348000006807F0BDFF064679488168304608F0BD
:10349000B4F877498860884801687948006807F07F
:1034A000AFFF06467248C168304608F0A6F870497A
:1034B000C860704801687048006807F0A1FF0646C0
:1034C00073480168304607F0BBFD714908606948E0
:1034D00001686B48006807F093FF06466948016879
:1034E000304607F0ADFD6749086008460168204690
:1034F00008F08EF871490860BDE8F0812DE9FF5FA2
:103500006F49B1F9060007F01BFF6E4908606C496E
:10351000B1F9080007F014FF6B4908606849B1F978
:103520000A0007F00DFF694908606549B1F900001C
:1035300007F006FF614908606149B1F9020007F030
:10354000FFFE514908605E49B1F9040007F0F8FE3A
:103550005F4908605F495B48006807F01DFF07D2BC
:103560004FF08D415748006807F0D8FD04460FE042
:1035700059495448006808F04BF806464FF08D4111
:1035800007F0CCFD05464FF07E5108F036F80446B2
:1035900050494D48006807F0FFFE07D24FF08D41BB
:1035A0004948006807F0BAFD82460FE04A4946489C
:1035B000006808F02DF806464FF08D4107F0AEFD8B
:1035C00005464FF07E5108F018F8824641493F48C1
:1035D000006807F0E1FE07D24FF08D413B480068DC
:1035E00007F09CFD81460AE03B493848006808F036
:1035F0000FF805464FF08D4107F090FD8146494692
:10360000504607F08BFD834607F0EEFCCDE9000144
:1036100006F010FC05460022304B07F0D5F9304A81
:10362000304BCDE9020106F0B3FF074606F0C2FEBB
:103630002D4908604946204607F070FD834607F093
:10364000D3FC074606F0F6FB0022244BCDE900012F
:1036500007F0BAF9224A234BCDE9020106F098FFA0
:10366000054606F0A7FE21490860214650463FE086
:10367000F0000020D0000020E0000020B00000207A
:10368000E4000020CC0000208C000020C4000020BA
:10369000AC000020B80000209C030020BC000020EB
:1036A000C8000020D4000020D8000020C000002066
:1036B000DC000020E8000020EC0000208800002052
:1036C0004C0300207C0000208000002084000020AB
:1036D0009000002000F8FF46000040470080664050
:1036E0001F85EB51B81E0940A0000020A400002057
:1036F00007F014FD834607F077FC074606F09AFBB7
:103700000022FE4BCDE9000107F05EF90546FC4AB8
:10371000FC4B06F03DFFCDE9020106F04BFEFA49F5
:103720000860FA49FA48006807F036FE03D2F94803
:103730000068F8490860F549F548006807F02CFF73
:1037400005D2F448006880F00040F2490860EF4973
:10375000F148006807F020FE03D2F0480068EF4906
:103760000860EA49EC48006807F016FF05D2EB480C
:10377000006880F00040E9490860E449E8480068D2
:1037800007F00AFE03D2E0480068DF490860DF491D
:10379000E348006807F000FF05D2DB48006880F0CE
:1037A0000040D94908604FF08E41DE48006807F0BC
:1037B000F3FD10D2DB48006807F016FC07464FF017
:1037C0006632D94B06F0E4FE81F00041054606F072
:1037D000F1FDD44908604FF08E41D248006807F0EF
:1037E000DBFE12D2CF480168D04807F011FF8346B4
:1037F00007F0FAFB07464FF06632CB4B06F0C8FEE7
:10380000054606F0D7FDC74908604FF08E41C8480D
:10381000006807F0C1FD10D2C548006807F0E4FB5E
:1038200007464FF06632C04B06F0B2FE81F0004111
:10383000054606F0BFFDBE4908604FF08E41BC480A
:10384000006807F0A9FE12D2B9480168B74807F02E
:10385000DFFE834607F0C8FB05464FF06632B24BE9
:1038600006F096FE074606F0A5FDB14908604FF048
:103870008E41B048006807F08FFD10D2AD48006857
:1038800007F0B2FB05464FF06632A74B06F080FE0C
:1038900081F00041074606F08DFDA64908604FF013
:1038A0008E41A448006807F077FE12D2A148016853
:1038B0009E4807F0ADFE834607F096FB07464FF0A3
:1038C0006632994B06F064FE054606F073FD994991
:1038D00008609448016891480068FFF7F8FC944834
:1038E00001688C480068FFF7B4FB9248016886487D
:1038F0000068FFF797FABDE8FF9F2DE9F0470446FF
:103900000D468D4801684FF07E5007F081FE074656
:10391000894801684FF07E5007F07AFE804687485C
:103920000168204607F074FE8146414607F068FDB5
:103930000646394607F064FD814908608148016800
:103940007F48006807F05CFD06467F480168304606
:1039500007F076FB7C49086078480168204607F04C
:1039600057FE8146744801684FF07E5007F050FEC4
:1039700082464FF0804107F043FD8046494607F0FC
:103980003FFD074670480168384607F059FB064678
:10399000294607F055FB6D4908606A4801686B4885
:1039A000006807F02DFD064664480168304607F0C0
:1039B00047FB62490860BDE8F0872DE9F84F64488D
:1039C000C08864490880624800896349088060486B
:1039D0004089624908805E4890F84800A8B95C496F
:1039E000B1F9000007F0ACFC59494862B1F9020096
:1039F00007F0A6FC56498862B1F9040007F0A0FC64
:103A00005349C862012081F848005149B1F90000CA
:103A100007F096FC05464E48416A284607F0F8FD37
:103A2000044607F071FC00B24D4908804849B1F9DD
:103A3000020007F085FC05464548816A284607F0E4
:103A4000E7FD044607F060FC00B2464908804049A3
:103A5000B1F9040007F074FC05463D48C16A2846E8
:103A600007F0D6FD044607F04FFC00B23E4908803F
:103A70003848B0F9000006F040FF06463B4A3C4B90
:103A800006F086FD044606F095FC3A490860324887
:103A9000B0F9000006F031FF0646344A344B06F018
:103AA00077FD044606F086FC334908602B48B0F9E0
:103AB000000006F022FF06462C4A2D4B06F068FD5A
:103AC000044606F077FC2D4908600846016829483D
:103AD000006807F023FB009007F086FA804606F0A6
:103AE000A9F982460022054B06F06EFF0646244ADD
:103AF000244B06F04DFD044646E000000080664081
:103B00001F85EB51B81E0940A800002000F8FF46B1
:103B10007C000020A400002080000020A0000020E5
:103B200084000020880000206666304000FF7F4748
:103B30008C000020900000200001002014010020D3
:103B400004010020100100200C01002008010020C9
:103B50004C030020180100201A0100201C01002045
:103B60001E0100202001002022010020FCA9F1D22A
:103B70004D6230403C010020400100204401002003
:103B800038E92F54FB21094006F014FCFE49086077
:103B9000FE480168FE48006807F0C0FA009007F090
:103BA00023FA824606F046F980460022F94B06F0D9
:103BB0000BFF0646F84AF94B06F0EAFC044606F00D
:103BC000F9FBF7490860F2480168F648006807F019
:103BD000A5FA009007F008FA824606F02BF9804615
:103BE0000022EC4B06F0F0FE0646EB4AEB4B06F0EB
:103BF000CFFC044606F0DEFBEB490860EB48B0F969
:103C0000000006F07AFE06460022E94B06F0C0FCF2
:103C1000044606F0CFFBE7490860E748B0F900002A
:103C200006F06BFE06460022E14B06F0B1FC0446AE
:103C300006F0C0FBE1490860E148B0F9000006F079
:103C40005CFE06460022DA4B06F0A2FC044606F0B3
:103C5000B1FBDC4908600846006807F055FB061E0A
:103C600001DB314600E07142084606F046FE04469C
:103C7000D54AD64B06F06CFE02D20020D14908602E
:103C800003F044FFD24908600021CA48006807F0E9
:103C9000BFFC0646CF4907F0B3FB0546CE4907F007
:103CA0003DFA0446CD480168204607F0C9F9CB49E2
:103CB00008600021C148006807F0AAFC0646C54913
:103CC00007F09EFB0546C44907F028FA0446C4489D
:103CD0000168204607F0B4F9C1490860BC49096889
:103CE000C04A1268881A07F043FB07460021B5480E
:103CF000006807F08DFC8046394607F081FB0646D8
:103D00004FF0804107F07CFB0546B34907F006FA07
:103D10000446B5480168204607F092F9B2490860A8
:103D20000021B148006807F037FB03D2AF48AE4925
:103D3000086008E0AE49AC48006807F02DFC02D2EC
:103D40000020A9490860A8480068AA49C864A0489A
:103D50000068A4490860BDE8F88F0FB597B01798C0
:103D600007F042F9A44AA54BCDE90C0107F052F83F
:103D7000CDE90E0106F01EFB1790189807F034F9F4
:103D80009F4AA04BCDE90C0107F044F8CDE90E01A4
:103D900006F010FB1890199807F026F99A4A9B4BE9
:103DA000CDE90C0107F036F8CDE90E0106F002FB73
:103DB00019901D99084607F023FB0A901C990846A4
:103DC00007F01EFB08901A99084607F019FB0790A8
:103DD000089907F035F909900A9907F031F90B9025
:103DE00007F002F9CDE90C0106F092FACDE90E01D7
:103DF00006F0E0FA169016991A9807F08FF91A90C3
:103E000016991C9807F08AF91C9016991D9807F0CE
:103E100085F91D907E4801687E48006807F0F0FA39
:103E20000E907D4801687D48006807F0E9FA0D9022
:103E30000E9907F0EDFB4FF080410F9007F0E0FA8C
:103E40001590754801687248006807F0D9FA0E901D
:103E5000724801686F48006807F0D2FA0D900E9919
:103E600007F0EEF84FF080410F9007F0C9FA149078
:103E700069480168006807F0C3FA0F906448016858
:103E8000006807F0BDFA0D9064480168006807F00B
:103E9000B7FA0B905F480168006807F0B1FA0A9022
:103EA0000B9907F0B5FB0C900D9907F0B1FB0E9044
:103EB0000F9907F0C5F8139014991D9807F0A0FA10
:103EC0000F9013991C9807F09BFA0E900F9907F02A
:103ED0009FFB129013991A9807F092FA0F90159978
:103EE0001D9807F08DFA0E900F9907F091FB119035
:103EF00015991C9807F084FA0F9014991A9807F0F6
:103F00007FFA0E900F9907F083FB109044491298A6
:103F100007F076FA0F90434801680F9807F090F881
:103F2000404908603E49119807F06AFA0F903E48F0
:103F300001680F9807F084F83B49086038491098E9
:103F400007F05EFA0F90394801680F9807F078F88B
:103F5000364908604FF08040129907F051FA0E90F0
:103F6000179907F06DF80F902E4801680F9807F029
:103F700067F817904FF08040119907F041FA0E90C2
:103F8000189907F05DF853E0540100204401002027
:103F9000400100200080664038E92F54FB21094091
:103FA000580100203C0100205C0100201E0100207F
:103FB00000C02C40300100202001002034010020EE
:103FC00022010020380100209A9999999999B93FC6
:103FD000900100200000A04100007A444801002028
:103FE0004C01002094010020500100200080B343C8
:103FF0000000B4434C030020EE7C3F355EFA05C060
:104000005396218E7571E7BF64CDC8207771074044
:1040100068010020600100206C0100206401002084
:104020006F12833A70010020740100207801002093
:104030000F90A74801680F9807F002F818904FF00A
:104040008040109907F0DCF90E90199906F0F8FFFE
:104050000F90A04801680F9806F0F2FF19909E4853
:104060001999006807F0CCF90D909C4818990068E0
:1040700007F0C6F90B909A48006880F0004009905C
:10408000179907F0BDF90A900B9907F0C1FA0C9047
:104090000D9907F0BDFA93490E9007F0B1F90F9012
:1040A000914801680F9806F0CBFF8F4908608A4855
:1040B0001899006807F0A4F90D90884819990068CC
:1040C00007F09EF90B9088480168179807F098F957
:1040D0000A900B9906F0B4FF0C900D9907F098FA2E
:1040E00080490E9007F08CF90F907D4801680F9879
:1040F00006F0A6FF7A49086077480168179807F02C
:104100007FF90D9076481999006807F079F90B90BE
:1041100075481899006807F073F90A900B9907F031
:1041200077FA0C900D9906F08BFF6E490E9007F010
:1041300067F90F90694801680F9806F081FF674999
:10414000086008460168179807F05AF90D9064480E
:104150001899006807F054F90B90634819990068A2
:1041600007F04EF90A900B9906F06AFF0C900D9932
:1041700007F04EFA5B490E9007F042F90F9056484F
:1041800001680F9806F05CFF534908600846016813
:10419000006807F035F90A9050480168006807F098
:1041A0002FF908904E480168006807F029F9069039
:1041B0004D480168006807F023F90590069906F05C
:1041C0003FFF0790089906F03BFF09900A9906F017
:1041D00037FF0B9006F008FFCDE90C0106F098F8C8
:1041E000CDE90E0106F0E6F816903F4816990068F2
:1041F00006F094FF3C49086039481699006806F0BB
:104200008DFF3749086035481699006806F086FF2B
:104210003249086030481699006806F07FFF2E4941
:10422000086008460168006807F0EAF806902B4825
:104230000168006807F0E4F8049029480168006804
:1042400007F0DEF8029028480168006807F0D8F807
:104250000190029906F0F4FE0390049907F0D8F952
:104260000590069907F0D4F9079006F0BDFECDE958
:104270000A01194801681C48006807F0C1F8059058
:10428000164801681648006807F0BAF804900599C6
:1042900006F0D6FE4FF08041069007F0B1F8079087
:1042A00006F0A2FECDE90801DDE90A2305F0D2FE01
:1042B0004FF066320D4BCDE90C0106F085FBCDE9E0
:1042C0000E0106F077F80A4908601BB000BD000037
:1042D00074010020780100206C010020680100209A
:1042E000640100206F12833A6001002066A64C40F2
:1042F0007C0100200020FE4948600860704700B53E
:1043000003460A46FA484068232817DAF848006846
:10431000F7494968884201D1FFF7ECFFF44841684A
:10432000083040F8213008384168943040F82120A6
:1043300094384068401CEE49486016E0EC484068FC
:10434000232812D10020EA49486008464168083015
:1043500040F8213008384168943040F821209438E2
:104360004068401CE249486000BD00BFFCE7E048EF
:104370000068232802D10020DD490860DC4801687C
:104380004068401C814201D100207047D848016834
:104390000068401CD64A106002F1080010F82100A5
:1043A000F3E710B50024D248047808E0D04808307C
:1043B00050F82410CFA003F085FD601CC4B2CC4897
:1043C0004068A042F2DC10BDC9480068C84949688D
:1043D000884201D1012070470020FCE72DE9F0411F
:1043E00004460D46A5F10A0085B2C348007820B105
:1043F00001281AD002287DD1A5E0C048C06CC04970
:1044000008600846006806F0EFFD064632460B4697
:10441000BCA000F00AFE0023224619461846FCF70D
:10442000FAFE0120B44908709CE0002C44DDB34939
:10443000C86CB349096807F0AFF81DD2284606F0EA
:1044400097FF0746AD48C16CB04807F0E1F88046D9
:10445000AB480168404606F0F3FD0646394607F0D2
:104460009BF809D200231A4619461846FCF7D3FEDA
:104470000220A149087065E0A049C86CA0490968FC
:1044800006F08AFF5ED2284606F072FF06469B4879
:10449000C16C9B48006807F0BBF80746314607F03F
:1044A0007BF84FD200231A4619461846FCF7B3FE94
:1044B00002209149087045E09049C86C904909680C
:1044C00007F06AF81AD2284606F052FF06468B49D2
:1044D000C86C8B49096807F09BF80746314607F01E
:1044E0005BF80BD200231A4619461846FCF793FED8
:1044F000022000E035E08049087023E07F49C86C65
:104500007F49096806F048FF1CD2284606F030FFB4
:1045100007467A49C86C7D4906F092FD8046784886
:104520000168404607F074F80646394607F034F84B
:1045300008D200231A4619461846FCF76CFE0220E2
:104540006D4908700EE06D49C86C06F04DFD0646D9
:1045500032460B466EA000F068FD00206E490870E0
:1045600000E000BF00BFBDE8F0812DE9FC478246B6
:104570006A48007820B1012827D002287ED188E23D
:1045800000231A460FFA8AF11846FCF744FE5B48EE
:10459000C06C6349086063484068634908606348C9
:1045A00040686349086063484068634908605C4844
:1045B000006806F019FD044622460B4651A000F0A3
:1045C00034FD01205549087073E2BAF1000F7CDD1B
:1045D0004A49C86C5249096806F0DEFF76D247495D
:1045E000C86C4F49096807F013F80446534906F0B0
:1045F000D3FF6CD24148C16C444807F009F8044627
:1046000047480168204606F01BFD4D4908600846F2
:10461000006806F0E9FC80464A4A4B4B06F0D4F9A4
:1046200004460D464149486806F067F906462246A9
:104630002B4606F0EFFBCDE9000106F001F93B49FE
:1046400048603B48006806F058F980463D4A3F4BB9
:1046500006F0BAF904460D463449486806F04DF9AB
:10466000064622462B4606F073F90FD23048006802
:1046700006F043F90446334A344B00E018E206F0F2
:10468000A3F9064606F0DCF8284948602C48006883
:1046900006F0AAFC06462B4A2B4B06F095F9CDE90D
:1046A00000012449486806F028F90446DDE90023A2
:1046B00005F0B2FE804606F0C3F81E4948601E4869
:1046C000006806F01AF9804602E055E0D9E054E0AF
:1046D0004FF033321E4B06F077F904460D4615496C
:1046E000486806F00AF9064622462B4632E00000EA
:1046F000AC03002025640A009A0100204C0300202E
:104700009C010020463A252E32660A000000B44380
:104710004C3A252E32660A0098010020A0010020A4
:10472000A4010020FC010020B001002010020020A4
:10473000AC01002024020020B40100200000484306
:10474000A80100209A9999999999B93F9999E93FB7
:104750003333F33F06F036FA0ED2F848006806F01D
:10476000CCF804464FF03332F54B06F02DF90646EF
:1047700006F066F8F34948608AE1F349C86CF349EA
:10478000096806F045FFF24908600846006806F02F
:104790002BFC8046EF4AF04B06F016F904460D4616
:1047A000EE49486806F0A9F8064622462B4605F071
:1047B00033FECDE9000106F043F8E8494860E848D7
:1047C000006806F09AF806464FF03332DC4B06F0EC
:1047D000FBF804460D46E149486806F08EF880462D
:1047E00022462B4606F0EEF90ED2DD48006806F0B0
:1047F00084F804464FF03332D14B06F0E5F8064614
:1048000006F01EF8D5494860D148006806F0ECFB78
:104810000646D04AD04B06F0D7F8CDE90001C94989
:10482000486806F06AF80446DDE9002306F0F2FA6B
:10483000804606F005F8C3494860C048006806F0A5
:104840005CF88046C34AC74B06F0BEF804460D46E6
:10485000BC49486806F051F8064622462B4606F049
:1048600077F889D2B548006806F047F80446B94A97
:10487000BC4B06F0A9F8064605F0E2FFB1494860D6
:1048800006E1B149C86CB149096806F085FDF7D267
:10489000AD49C86CAD49096806F0BAFE0446B24994
:1048A00006F07AFD70D2A9480168B04806F0B0FE63
:1048B0000446A548C16C204606F0C2FBA449086026
:1048C000A748006806F019F880464FF033329C4B39
:1048D00006F07AF804460D46A049486806F00DF83F
:1048E000064622462B4606F06DF90ED29C4800681B
:1048F00006F003F804464FF03332914B06F064F8AB
:10490000064605F09DFF954948609148006806F00D
:104910006BFB80468F4A904B06F056F804460D46D6
:104920008849486805F0E9FF064622462B4606F00E
:1049300071FACDE9000105F083FF824948607F48A4
:10494000006805F0DAFF0646824A864B06F03CF81E
:1049500004460D467B49486805F0CFFF8046224655
:104960002B4605F0F5FF8BD27448006805F0C5FFB3
:104970000446784A7B4B06F027F8064605F060FFB0
:104980007049486084E0FFE76F48C16C6F48006879
:1049900006F03EFE6E4908600846006806F024FBFB
:1049A00080466C4A6C4B06F00FF804460D466B4986
:1049B000486805F0A2FF064622462B4606F02AFA72
:1049C000CDE9000105F03CFF644948606448006897
:1049D00005F093FF06465F4A624B05F0F5FF04467B
:1049E0000D465E49486805F088FF804622462B4602
:1049F00005F0AEFF0DD25A48006805F07EFF044670
:104A0000544A584B05F0E0FF064605F019FF53499C
:104A100048604F48006806F0E7FA06464D4A4E4B9C
:104A200005F0D2FF804689464649486805F065FF93
:104A3000044642464B4605F0EFFCCDE9000105F087
:104A4000FFFE404948603D48006805F056FF80463B
:104A50004FF033323A4B05F0B7FF04460D46394963
:104A6000486805F04AFF064622462B4606F0AAF89B
:104A70000ED23248006805F040FF04464FF0333252
:104A80002F4B05F0A1FF064605F0DAFE2D494860E0
:104A90000FE02D49C86C06F0A7FA044622460B46E3
:104AA000AFF2943000F0C1FA00203149087000E004
:104AB00000BF00BFBDE8FC8710B5234890F8480050
:104AC00000B910BD2A48007830B9FFF750FC2949D9
:104AD000087001202649087026480078062850D220
:104AE000DFE800F003081213204E0221224802F0F2
:104AF000D1FB47E021490968491E204A943252F807
:104B00002100FFF732FD3DE03CE01C480068401EFC
:104B10001A4A943232F8200081B24FF0FF30FFF78A
:104B20005DFC2FE015480068401E144A943232F8AC
:104B3000200081B20120FFF751FC23E0B4010020E6
:104B40003333F33F240200204C030020A401002053
:104B5000A80100209A9999999999B93F10020020CB
:104B6000AC0100209999E93F000048C30000B4431C
:104B70009801002099010020C17B0008AC030020AF
:104B800000E000BF00BF00BF9BE770B504460D46C4
:104B900029462046FFF7B3FB0121024802F07AFBC9
:104BA00070BD0000C17B000810B54FF4A06000F09C
:104BB00077FA10BD00BF7047704770B505460C46C8
:104BC0000021F84802F061FAC82C01D9002070BD1C
:104BD00022462946F44803F0B1FA2146F14802F092
:104BE00069FA0121EF4802F050FA0120EFE700B521
:104BF0008BB00121084600F0D0FDEA48143802F0DD
:104C000077F9E84802F074F9E8480090E848019024
:104C100000200290C820039000200490802005907E
:104C200000200690079008904FF440500990002013
:104C30000A906946DB48143802F0FCF90121D94892
:104C4000143802F022FAD9480090D7480190102079
:104C500002900920039000200490802005900020FD
:104C60000690079008904FF48050099000200A9019
:104C70006946CC4802F0DEF901224021CB48001FF2
:104C800000F0FCFE01228021C848001F00F0F6FE63
:104C90000BB000BD08B510208DF8000000208DF885
:104CA000010001208DF802008DF80300684600F035
:104CB000FCF926208DF8000000208DF8010002206C
:104CC0008DF8020001208DF80300684600F0EDF930
:104CD00008BD10B586B004460121480400F077FDF8
:104CE0000121052000F066FD0420ADF81400182015
:104CF0008DF8170003208DF8160005A9AD4800F0C7
:104D00009DFA0820ADF8140004208DF8170005A9BD
:104D1000A84800F093FA01940020ADF80800ADF81F
:104D20000A00ADF80C00ADF810000C20ADF80E0034
:104D300001A99E48001F00F0E4FDFFF7ABFFFFF75D
:104D400056FF012240F224419848001F00F071FEF6
:104D500001219648001F00F060FE40219348001F8B
:104D600000F043FF06B010BD70B502F042FE40F205
:104D700024418E48001F00F041FF10B38B48001FF4
:104D80000088C4B289480088C4B20021854814381C
:104D900002F07BF98348143802F08EF905462A4662
:104DA0008349854803F0CAF9FCF700FFC8217D4814
:104DB000143802F07FF901217A48143802F065F9BD
:104DC00000BF02F025FE70BD10B502F012FE4FF4D8
:104DD000001002F075F918B14FF4001002F0A3F9B9
:104DE00002F016FE10BD70B505460C4600216D4858
:104DF000643802F04AF9C82C01D9002070BD22465F
:104E000029466E4803F09AF921466648643802F054
:104E100051F901216348643802F037F90120EDE7C8
:104E200000B58BB00121084600F0B7FC5D4864383E
:104E300002F05EF85B48503802F05AF86048009083
:104E40006048019000200290C82003900020049048
:104E50008020059000200690079008904FF4405065
:104E6000099000200A9069464E48503802F0E2F856
:104E700001214C48503802F008F9514800904F4841
:104E800001901020029009200390002004908020BF
:104E9000059000200690079008904FF480500990EC
:104EA00000200A9069463F48643802F0C3F80122A6
:104EB00040214348001F00F0E1FD012280214048CD
:104EC000001F00F0DBFD0BB000BD08B50D208DF814
:104ED000000000208DF8010001208DF802008DF8FF
:104EE0000300684600F0E1F827208DF8000000205C
:104EF0008DF8010002208DF8020001208DF80300DA
:104F0000684600F0D2F808BD10B586B0044601210D
:104F1000880400F05CFC0121092000F04BFC4FF4F8
:104F20008060ADF8140018208DF8170003208DF86C
:104F3000160005A9244800F081F94FF40060ADF88F
:104F4000140004208DF8170005A91F4800F076F919
:104F500001940020ADF80800ADF80A00ADF80C008F
:104F6000ADF810000C20ADF80E0001A91448001F88
:104F700000F0C7FCFFF7A9FFFFF752FF012240F244
:104F800024410F48001F00F054FD01210C48001F70
:104F900000F043FD40210A48001F00F026FE06B045
:104FA00010BD000080000240940500200444004031
:104FB000CC04002000080140C0060020EC070020BF
:104FC0000448004024070020000C014010B502F006
:104FD00010FD40F224411F4800F010FE98B11D481A
:104FE0000088C4B21B48001D0088C4B200211A48C2
:104FF00002F04BF8C821184802F05CF8012116486D
:1050000002F043F800BF02F003FD10BD10B502F03E
:10501000F0FC4FF4007002F053F818B14FF4007038
:1050200002F081F802F0F4FC10BD0FB438B505A809
:1050300000903C210948009B049A02F029FF044695
:1050400000200090E1B20548FFF7CDFE38BC5DF8C6
:1050500014FB00000048004030000240B40800206B
:105060000948804709480047FEE7FEE7FEE7FEE7FC
:10507000FEE7FEE7FEE7FEE7FEE7FEE70448054938
:10508000054A064B704700008B03000831010008F9
:10509000581B002058210020581D0020581D0020BA
:1050A00031490143314A1160704770B50021002336
:1050B0000F22C47804B32D4C246804F4E064C4F5D2
:1050C000E064210AC1F10403CA40447804FA03F100
:1050D0008478144021430901254C0678A1550478B1
:1050E00004F01F050124AC4005786D11AD0005F1F9
:1050F000E025C5F8004109E0047804F01F0501240B
:10510000AC401C4D0678761145F8264070BD1A4A11
:105110000A400243154B1B1F1A60704739B1134AEE
:10512000121D12680243114B1B1D1A6006E00F4A44
:10513000121D126882430D4B1B1D1A607047042814
:1051400008D14FF0E021096941F004014FF0E0225D
:10515000116107E04FF0E021096921F004014FF0EF
:10516000E0221161704700000000FA050CED00E03C
:1051700000E400E080E100E080FFFF1F10B504467E
:10518000CC48844208D10121042000F02DFB0021ED
:10519000042000F029FB46E0C748844208D10121E1
:1051A000082000F021FB0021082000F01DFB3AE060
:1051B000C248844208D10121102000F015FB0021D3
:1051C000102000F011FB2EE0BD48844208D10121DF
:1051D000202000F009FB0021202000F005FB22E048
:1051E000B848844208D10121402000F0FDFA002196
:1051F000402000F0F9FA16E0B348844208D10121BA
:10520000802000F0F1FA0021802000F0EDFA0AE0A1
:10521000AE48844207D10121801500F0E5FA002153
:10522000A01500F0E1FA10BD10B50121084600F00C
:10523000DBFA0021012000F0D7FA10BD2DE9F04182
:10524000024600250026002000230024002791F8B4
:1052500003C00CF00F0591F803C00CF0100CBCF16A
:10526000000F03D091F802C04CEA050591F800C088
:10527000BCF1000F31D0146800202BE04FF0010C7E
:105280000CFA00F3B1F800C00CEA03069E4220D1EC
:1052900083004FF00F0C0CFA03F7BC4305FA03FC34
:1052A0004CEA040491F803C0BCF1280F06D14FF07A
:1052B000010C0CFA00FCC2F814C00AE091F803C01B
:1052C000BCF1480F05D14FF0010C0CFA00FCC2F8FC
:1052D00010C0401C0828D1D31460B1F800C0BCF144
:1052E000FF0F34DD546800202EE000F1080C4FF071
:1052F000010808FA0CF3B1F800C00CEA03069E425C
:1053000021D183004FF00F0C0CFA03F7BC4305FAD0
:1053100003FC4CEA040491F803C0BCF1280F05D14A
:1053200000F1080C08FA0CF8C2F8148091F803C0D8
:10533000BCF1480F07D100F1080C4FF0010808FA42
:105340000CF8C2F81080401C0828CED35460BDE889
:10535000F0814FF6FF710180022181700421C1703C
:1053600070470246002093680B400BB1012000E01B
:10537000002070470146886880B2704702460020CE
:10538000D3680B400BB1012000E0002070470146BC
:10539000C86880B2704701617047416170470AB1C7
:1053A000016100E041617047C16070474FF4803295
:1053B0000A43826181618261826982697047024623
:1053C0000020434B18684FF68073184040EA0210E3
:1053D00008433F4B186070473E49C8617047F0B5BD
:1053E0000A46002300240021002500F00046B6F103
:1053F000004F02D1364EF16901E0354E7168C0F3BD
:10540000034583B200F44016B6F5401F08D121F0E1
:1054100070612F4E766826F070662D4F7E6012E028
:1054200000F48016B6F5801F06D1032606FA05F4AF
:10543000A14341F0706106E0460D360103FA06F61D
:10544000B14341F0706122B1460D360103FA06F610
:10545000314300F00046B6F1004F02D11C4EF1611D
:1054600001E01B4E7160F0BD30B500228B071C0FB0
:105470000F2303FA04F2164B08338C1053F8243030
:105480009343134C08348D1044F8253023468C1078
:1054900053F824308C07240F00FA04F423430C4CF7
:1054A00008348D1044F8253030BD0A49DC310860DD
:1054B0007047000000080140000C0140001001404E
:1054C0000014014000180140001C01400020014070
:1054D0000000014000002042DF48006840F0010069
:1054E000DD49086008464068DC490840DA49486000
:1054F00008460068DA490840D7490860084600684D
:1055000020F4802008600846406820F4FE004860CF
:105510004FF41F0088607047CF49096821F480313B
:10552000CD4A11601146096821F480211160B0F55F
:10553000803F03D0B0F5802F0ED106E0C649096840
:1055400041F48031C44A116007E0C349096841F45D
:10555000A021C14A116000E000BF00BF704710B534
:1055600001460022002300204A11012A02D1BA4C30
:10557000236806E0022A02D1B74C236A01E0B64C48
:10558000636A01F01F02012494401C400CB1012009
:1055900000E0002010BD38B5002000900024002558
:1055A00000BF3120FFF7DBFF05460098401C00904C
:1055B0000098B0F5A06F01D0002DF2D03120FFF798
:1055C000CEFF08B1012400E00024204638BD01468A
:1055D0000020A14A106820F0F80040EAC1001060E5
:1055E0007047A04908607047024600209A4B5868EF
:1055F00020F47C1042EA01031843974B586070472F
:1056000098490866704701460020934A506820F088
:1056100003000843506070478F48406800F00C005A
:105620007047014600208C4A506820F0F000084383
:105630005060704701460020874A506820F4E060BF
:1056400008435060704701460020834A506820F4A8
:10565000605040EAC1005060704729B17E4A527ADA
:1056600002437D4B5A7204E07B4A527A82437A4B62
:105670005A7270477B49D831086070470146002054
:10568000754A506820F4404008435060704700213C
:10569000714A20321170704A82F82010012802D01D
:1056A00004280AD104E001216B4A2032117005E080
:1056B0000521694A2032117000E000BF00BF704729
:1056C0006949086070476449096A0143624A116286
:1056D0007047654944390860704730B500210022A1
:1056E000002400235C4D6D6805F00C0121B10429F4
:1056F00005D0082923D105E05C4D056022E05B4D13
:1057000005601FE0544D6D6805F47012524D6D68D0
:1057100005F48034022505EB92421CB9544D5543E3
:1057200005600BE04C4D6D6805F400351DB1504D22
:105730005543056002E04D4D5543056002E04B4D79
:10574000056000BF00BF444D6D6805F0F001090918
:10575000484D6B5C0568DD4045603F4D6D6805F464
:10576000E061090A434D6B5C4568DD4085603A4D58
:105770006D6805F46051C90A3E4D6B5C4568DD40BB
:10578000C560354D6D6805F44041890B3A4D6B5C41
:10579000C568B5FBF3F5056130BD29B12E4A5269E4
:1057A00002432D4B5A6104E02B4A526982432A4B33
:1057B0005A61704729B1284A92690243264B9A617F
:1057C00004E0254A92698243234B9A61704729B1CC
:1057D000214AD2690243204BDA6104E01E4AD269B1
:1057E00082431D4BDA61704729B11B4AD2680243DC
:1057F000194BDA6004E0184AD2688243164BDA602B
:10580000704729B1144A12690243134B1A6104E02C
:10581000114A12698243104B1A617047124940398C
:10582000086070470F49C86470470B49C8717047DA
:105830000948406A40F08070074948627047014655
:105840000020054A92680A400AB1012000E00020C9
:105850007047014988727047001002400000FFF84D
:10586000FFFFF6FE000042428004424200127A002E
:1058700000093D00BC010020CC01002010B5044609
:10588000FB48844209D101218803FFF7ADFF0021C5
:105890004FF48040FFF7A8FF32E0F648844209D178
:1058A00001214804FFF7ADFF00214FF40030FFF75E
:1058B000A8FF25E0F048844209D101218804FFF7C0
:1058C000A0FF00214FF48020FFF79BFF18E0EB487A
:1058D000844209D10121C804FFF793FF00214FF44E
:1058E0000020FFF78EFF0BE0E548844208D101213C
:1058F0000805FFF786FF00214FF48010FFF781FFB6
:1059000010BD2DE9F04786B005460E460024A2469C
:1059100000BFA1460027B08900B100BF2F462C8AE6
:105920004CF6FF700440F08804432C82AC894EF69C
:10593000F3100440B0883189084371890843044357
:10594000AC81AC8A4FF6FF400440B0890443AC827E
:1059500001A8FFF7C2FEC648874202D1DDF810A0B9
:1059600001E0DDF80CA0A88900F4004040B10AEB8A
:10597000CA0000EB0A1031684900B0FBF1F807E0FB
:105980000AEBCA0000EB0A1031688900B0FBF1F89D
:105990006420B8FBF0F004012009642101FB1089A8
:1059A000A88900F4004040B1322000EBC900B0FBF0
:1059B000F1F000F00700044308E0322000EB09108A
:1059C0006421B0FBF1F000F00F0004432C8106B01D
:1059D000BDE8F0874FF41651016000218180C1803D
:1059E00001810C21418100218181704710B502465F
:1059F0000020108A4FF2FF0318400B884C88234385
:105A00008C882343CC8823431843108210BD002187
:105A1000018041808180C180704721B1828942F438
:105A20000052828104E082894DF6FF731A40828120
:105A30007047F0B50346002400260025002040F6FC
:105A40006A17B94200D100BF1846C1F3421401F0F1
:105A50001F06012707FA06F5012C01D10C3004E0DE
:105A6000022C01D1103000E014301AB107682F4326
:105A7000076002E00768AF430760F0BD1AB1838A90
:105A80000B43838202E0838A8B4383827047028ABE
:105A90004FF6F0731A400282028A0A43028270476C
:105AA00082894FF2FF731A40828182890A43828180
:105AB000704721B1828942F00202828104E082892A
:105AC0004FF6FD731A4082817047028A4FF6DF73EA
:105AD0001A400282028A0A430282704721B1028A76
