:020000040800F2
:100000004822002085570008B7020008B9020008FE
:10001000BD020008C1020008C5020008000000007F
:10002000000000000000000000000000C9020008FD
:10003000CB02000800000000AF840008F37F000836
:100040009F5700089F5700089F5700089F570008B8
:100050009F5700089F5700089F5700089F570008A8
:100060009F5700089F5700089F5700089F57000898
:100070009F570008315700089F5700089F570008F6
:10008000E95400089F5700089F5700089F57000831
:100090009F5700089F5700089F5700089F57000868
:1000A0009F5700089F5700089F5700089F57000858
:1000B0009F5700089F5700089F5700089F57000848
:1000C0009F5700089F5700089F5700089F57000838
:1000D0009F5700089F57000889540008ED560008F4
:1000E0009F5700089F5700089F5700089F57000818
:1000F0009F5700089F5700089F5700089F57000808
:100100009F5700089F5700089F5700089F570008F7
:100110009F5700089F570008F10900089F570008E3
:100120009F5700089F5700089F5700089F570008D7
:1001300000F002F800F0B0F80AA090E8000C824449
:100140008344AAF10107DA4501D100F0A5F8AFF226
:10015000090EBAE80F0013F0010F18BFFB1A43F0A5
:1001600001031847A8CA0000C8CA00000A444FF09B
:10017000000C10F8013B13F0070408BF10F8014B06
:100180001D1108BF10F8015B641E05D010F8016B4B
:10019000641E01F8016BF9D113F0080F1EBF10F8AF
:1001A000014BAD1C0C1B09D16D1E58BF01F801CBD2
:1001B000FAD505E014F8016B01F8016B6D1EF9D555
:1001C0009142D6D37047000000230024002500266A
:1001D000103A28BF78C1FBD8520728BF30C148BFAA
:1001E0000B6070476E2908F06684702908F0E58777
:1001F00066290CF0028365290CF0FF8267290CF058
:10020000FC826129AFF3008003681B0A28BF41F01C
:100210008001692908F02282642908F01F8275296B
:1002200008F01C826F2908F07387782908F0B187DD
:10023000E92908F00D87E42908F00A87F52908F074
:100240000787EF2908F07087F82908F0B08703685E
:10025000DB0928BF41F08001632908F07C867329FF
:1002600008F08186E32909F09F80F32909F0A48032
:10027000002070471FB508F0FFFF04000020002198
:100280000BF002F9401C6060002000210BF0E6F842
:10029000E0601FBD10B510BD09F046F91146FFF72B
:1002A000E9FF08F080F809F06DF903B4FFF7F2FFF9
:1002B00003BC05F00FF8704700BFFEE700BFFEE784
:1002C00000BFFEE700BFFEE7704770470CB5002097
:1002D000019000906C48006840F480306A490860E2
:1002E00000BF6948006800F4003000900198401C8D
:1002F0000190009818B90198B0F5A06FF1D162484B
:10030000006800F4003010B10120009001E00020EE
:1003100000900098012843D15C48006840F010002C
:100320005A4908600846006820F003000860084643
:10033000006840F002000860534840685249486035
:100340000846406848600846406840F4806048605D
:100350000846406820F47C1048600846406840F435
:10036000E81048600846006840F08070086000BFF0
:100370004548006800F000700028F9D04248406805
:1003800020F00300404948600846406840F0020001
:10039000486000BF3C48406800F00C000828F9D1D4
:1003A0000CBD10B5FFF792FF10BD10B536480068C0
:1003B00040F001003449086008464068344908406C
:1003C0003149486008460068324908402E490860B3
:1003D0000846006820F4802008600846406820F441
:1003E000FE0048604FF41F008860FFF7DAFF4FF00F
:1003F00000602949086010BD10B5002100200022CE
:10040000214B5B6803F00C0121B1042906D00829B7
:1004100028D107E0214B224C236027E01F4B204CC2
:10042000236023E0184B5B6803F47010164B5B6885
:1004300003F48032022303EB904022B9194B43436B
:10044000174C23600DE0104B5B6803F4003323B1BD
:10045000144B4343124C236003E0104B4343104CB6
:10046000236003E00D4B0E4C236000BF00BF064B22
:100470005B68C3F303130C4CE15C094B1B68CB4076
:10048000074C236010BD0000001002400020024015
:100490000000FFF8FFFFF6FE08ED00E000127A0012
:1004A0000000002000093D000400002030B589B0A4
:1004B00005460C460121480305F00EFD01211120DF
:1004C00005F00AFD4FF47070ADF8200018208DF88B
:1004D000230003208DF8220008A9FA4805F040FA0D
:1004E000ADF81850ADF814400020ADF81A00ADF882
:1004F000160005A9F44806F02BF87020ADF80400AA
:100500000120ADF806000020ADF80A00ADF80C009F
:1005100001A9ED4806F059F801A9EB4806F097F853
:1005200001A9E94806F0E0F801A9E74806F027F933
:100530000121E54806F074FB0821E34806F094FC2D
:100540000821E14806F099FC0821DF4806F0A2FCEA
:100550000821DD4806F0A7FC0121DB4806F054FC29
:100560000121D94806F050FB0021D74806F0E4FDF0
:100570000021D54806F0E2FD0021D34806F0E0FD59
:100580000021D14806F0DEFD09B030BD30B589B09C
:1005900005460C460121042005F0ABFC0121092091
:1005A00005F09AFC4FF47070ADF8200018208DF81B
:1005B000230003208DF8220008A9C44805F0D0F9D3
:1005C000ADF81850ADF814400020ADF81A00ADF8A1
:1005D000160005A9BE4805F0BBFF7020ADF8040069
:1005E0000120ADF806000020ADF80A00ADF80C00BF
:1005F00001A9B74805F0E9FF01A9B54806F027F8B9
:1006000001A9B34806F070F801A9B14806F0B7F89F
:100610000121AF4806F004FB0821AD4806F024FC98
:100620000821AB4806F029FC0821A94806F032FC55
:100630000821A74806F037FC0121A54806F0E4FB95
:100640000121A34806F0E0FA0021A14806F074FD5C
:1006500000219F4806F072FD00219D4806F070FDC4
:1006600000219B4806F06EFD09B030BD00B587B093
:100670000121084605F030FC0121C80205F02CFCE0
:100680000121042005F028FC4FF44070ADF818005B
:1006900048208DF81B0003208DF81A0006A98D480C
:1006A00005F05EF9012211028A4805F00AFA0122DA
:1006B0005102884805F005FA44F62060ADF81000B4
:1006C0000020ADF80C00ADF81200ADF80E0003A943
:1006D000814805F03DFF0A231A4603217E4806F0B3
:1006E00046FB684606F073FA0820ADF80800694634
:1006F000794806F0C0F90121774806F04BFD012248
:100700001146754806F09BFA002073492431088091
:100710000121714806F078FA07B000BD00B587B036
:1007200001216E4805F0EDF90121084605F0D4FBE2
:100730000121084605F0DDFB0121042005F0CCFB7A
:100740000121082005F0C8FB0121654805F0D9F911
:100750004FF40040ADF8180004208DF81B00032072
:100760008DF81A0006A95B4805F0FAF80122D103BA
:10077000584805F0A6F90820ADF8180004208DF8B7
:100780001B0003208DF81A0006A9504805F0E8F870
:10079000012208214D4805F094F94FF0804005F002
:1007A00003FE03A94FF0804005F0D2FE44F620601E
:1007B000ADF810000020ADF80C00ADF81200ADF857
:1007C0000E0003A94FF0804005F0C2FE00231A4638
:1007D00003214FF0804006F0CAFA684606F0F7F9A8
:1007E0000620ADF8080069464FF0804006F043F956
:1007F0000121880706F0CEFC01221146900706F081
:100800001EFA00204FF0804188840121880706F0FD
:10081000FBF907B000BD00B587B00121084605F01F
:100820005BFB0121022005F064FB0121042005F09F
:1008300053FBC020ADF8180048208DF81B000320A2
:100840008DF81A0006A9234805F08AF801224021F4
:10085000204805F036F9012280211E4805F031F9C3
:1008600044F62060ADF810000020ADF80C00ADF8A3
:100870001200ADF80E0003A91A4805F069FE0A231C
:100880001A460321174806F072FA684606F09FF9E7
:100890000820ADF808006946124806F0ECF801217E
:1008A000104806F077FC012211460E4806F0C7F901
:1008B00000200C492431088001210A4806F0A4F9DF
:1008C00007B000BD0010014000340140000C0140A1
:1008D0000008004000080140002C014000023000E8
:1008E000000318000004004000B587B0012108464D
:1008F00005F0F2FA0121082005F0FBFA012104209D
:1009000005F0EAFA0320ADF8180048208DF81B0026
:1009100003208DF81A0006A9474805F021F80122A6
:100920001146454805F0CDF801220221424805F064
:10093000C8F844F62060ADF810000020ADF80C00B7
:10094000ADF81200ADF80E0003A93C4805F000FE1A
:100950000A231A460321394806F009FA684606F0C8
:1009600036F90820ADF808006946344806F083F8E7
:100970000121324806F00EFC012211462F4806F0F4
:100980005EF900202D492431088001212B4806F012
:100990003BF907B000BD7FB505460C46012110208C
:1009A00005F0A7FAADF80850ADF804400020ADF806
:1009B0000A00ADF8060001A9214805F0C9FD012291
:1009C00011461F4806F03BF936208DF80000002044
:1009D0008DF8010003208DF8020001208DF803003E
:1009E000684604F0F4FE0121154806F00DF97FBDBC
:1009F00010B50121124806F0D0FB40B11148006843
:100A0000401C1049086001210D4806F0D7FB10BDBD
:100A100010B5FFF72BFEFFF781FEFFF7FCFE1D214F
:100A200040F2AF40FFF7B2FDFFF75EFF1D2140F23D
:100A3000AF40FFF73BFD10BD00080140000C004037
:100A400000100040140000202DE9F0470446002C5F
:100A500008DBB4F5FA7F01DD4FF4FA740120FD499B
:100A6000087008E06442B4F5FA7F01DD4FF4FA74CF
:100A70000020F849087020B2F649C88120460BF0E2
:100A8000DFFC8246F4490BF03BFD81460BF02CFB6A
:100A900007460022F14B0AF03FFD05460AF050FFE1
:100AA000EC494860BDE8F0872DE9F0470446002C8A
:100AB00008DBB4F5FA7F01DD4FF4FA740120E84950
:100AC000087008E06442B4F5FA7F01DD4FF4FA746F
:100AD0000020E349087020B2E149C88120460BF0AC
:100AE000AFFC8246DC490BF00BFD81460BF0FCFAB3
:100AF00007460022D94B0AF00FFD05460AF020FFF9
:100B0000D7494860BDE8F0872DE9F0470446002C3E
:100B100008DBB4F5FA7F01DD4FF4FA740120D14906
:100B2000087008E06442B4F5FA7F01DD4FF4FA740E
:100B30000020CC49087020B2CA49C88120460BF079
:100B40007FFC8246C4490BF0DBFC81460BF0CCFAFB
:100B500007460022C14B0AF0DFFC05460AF0F0FE12
:100B6000C0494860BDE8F0872DE9F0470446002CF5
:100B700008DBB4F5FA7F01DD4FF4FA740120BA49BD
:100B8000087008E06442B4F5FA7F01DD4FF4FA74AE
:100B90000020B549087020B2B349C88120460BF047
:100BA0004FFC8246AC490BF0ABFC81460BF09CFA43
:100BB00007460022A94B0AF0AFFC05460AF0C0FE2A
:100BC000A9494860BDE8F08770B504460D465DB19F
:100BD0004FF49661A54806F0B3FAC4F5966081B269
:100BE000A24806F0AFFA0AE0C4F5966081B29F48C9
:100BF00006F0A6FA4FF496619C4806F0A3FA70BD81
:100C000070B504460D465DB14FF49661974806F005
:100C100093FAC4F5966081B2944806F08FFA0AE020
:100C2000C4F5966081B2914806F086FA4FF4966159
:100C30008E4806F083FA70BD70B504460D465DB16E
:100C40004FF496618A4806F07BFAC4F5966081B24B
:100C5000874806F077FA0AE0C4F5966081B28448C6
:100C600006F06EFA4FF49661814806F06BFA70BD9B
:100C700070B504460D465DB14FF496617C4806F0B0
:100C80005BFAC4F5966081B2794806F057FA0AE03B
:100C9000C4F5966081B2764806F04EFA4FF496613C
:100CA000734806F04BFA70BD6A48806810F5966F7D
:100CB00002DA70486749886066488068B0F5966FC8
:100CC00003DD4FF49660634988606548806810F5DD
:100CD000966F02DA67486249886061488068B0F5BB
:100CE000966F03DD4FF496605D4988605D488068CB
:100CF00010F5966F02DA5F485A4988605948806853
:100D0000B0F5966F03DD4FF49660564988605648FB
:100D1000806810F5966F02DA564853498860524849
:100D20008068B0F5966F03DD4FF496604E49886099
:100D300070472DE9F04705460C46601B0BF080FB21
:100D40004D4908610A46116950680BF0D9FB80468D
:100D5000494A516910690BF0DBFC8146464801683D
:100D600048460BF0CDFB074641460BF0E9F9064635
:100D70004148816930460BF0E3F93F4988610846F4
:100D8000006948610CB9002088613B4988693B498A
:100D90000BF082FC03D239483749886108E03649B4
:100DA000886900210BF078FB02D20020324988616B
:100DB000314988690BF028FBBDE8F087014600291E
:100DC00001DA002000E0084670472DE9F0470546AB
:100DD0000C46601B0BF034FB294908610A46116977
:100DE00050680BF08DFB8046254A516910690BF065
:100DF0008FFC81462248016848460BF081FB07467C
:100E000041460BF09DF906461D48816930460BF0BE
:100E100097F91B4988610846006948610CB90020B0
:100E200088611749886915490BF036FC03D21348CD
:100E30001349886108E01249886900210BF02CFBF6
:100E400002D200200E4988610D4988690BF0DCFA56
:100E5000BDE8F0872002002037BEEF3D0000E03FF4
:100E600034020020480200205C02002000080040FC
:100E70000034014050FBFFFFD802002000009644E0
:100E8000BC0200202DE9F04705460C46601B0BF024
:100E9000D7FAFE4908610A46116950680BF030FB29
:100EA0008046FA4A516910690BF032FC8146F748D6
:100EB000016848460BF024FB074641460BF040F919
:100EC0000646F248816930460BF03AF9EF498861ED
:100ED0000846006948610CB900208861EB498869BF
:100EE000EB490BF0D9FB03D2E948E849886108E0F7
:100EF000E649886900210BF0CFFA02D20020E349CD
:100F00008861E24988690BF07FFABDE8F0872DE936
:100F1000F04705460C46601B0BF092FADD4908616C
:100F20000A46116950680BF0EBFA8046D94A5169BC
:100F300010690BF0EDFB8146D648016848460BF07E
:100F4000DFFA074641460BF0FBF80646D1488169B7
:100F500030460BF0F5F8CF498861084600694861D2
:100F60000CB900208861CB498869C9490BF094FB12
:100F700003D2C748C749886108E0C649886900218B
:100F80000BF08AFA02D20020C2498861C1498869FF
:100F90000BF03AFABDE8F08770B50025BE48007C3A
:100FA00000F0010058B9BD48C08948BBBC48C089A1
:100FB00030BBBC48C08918BBBB48C08900BB0021FE
:100FC000BA4806F0B9F80021B84806F0B7F8002191
:100FD000B64806F0B5F80021B44806F0B3F8002191
:100FE000B34806F0A9F80021B14806F0A7F800219F
:100FF000AF4806F0A5F80021AD4806F0A3F870BD93
:10100000AC48B0F90440A54A5168002C01DB2246E7
:1010100000E062421046FFF77AFF0646FFF7CEFE79
:101020009E498860A348B0F900409D4A5168002C51
:1010300001DB224600E062421046FFF723FF06462E
:10104000FFF7BCFE964988609A48B0F90840954A77
:101050005168002C01DB224600E062421046FFF797
:10106000B4FE0646FFF7AAFE8E4988609148B0F9A3
:1010700002400A465168002C01DB224600E0624231
:101080001046FFF756FE0646FFF798FE8649886031
:10109000FFF70AFE814A11789068FFF7E9FD804A60
:1010A00011789068FFF7C8FD7E4A11789068FFF7C5
:1010B000A7FD7D4A11789068FFF786FD00BF9EE787
:1010C0007D48744908607D4848607B486F490860E6
:1010D0007A48486078487A49086078484860764895
:1010E000784908607548486070472DE9F047044624
:1010F0000D46281B0BF0A4F97349086008460168E7
:10110000724800680BF01CF870490860704801686C
:101110006D4800680BF0FCFA80466E480168404656
:101120000BF0EEF90646694801686B4800680BF061
:10113000E7F9804664480168684800680BF0E0F908
:10114000814641460AF0FCFF074631460AF0F8FFA7
:10115000634908605C4800685D4908606048006851
:101160000BF052F9BDE8F0872DE9F041044600216B
:1011700020680BF091F903D2206880F000402060D5
:10118000002160680BF088F903D2606880F00040AD
:1011900060600021A0680BF07FF903D2A06880F0A6
:1011A0000040A0600021E0680BF076F903D2E0680F
:1011B00080F00040E0602069E0612169206A0AF067
:1011C000BFFF20620021E0680BF0EAF813D0E1686D
:1011D000206A0BF061FA02D2E06820620BE0E0685E
:1011E00080F000452846216A0BF056FA03D2E068E9
:1011F00080F000402062A16920690BF089FA6062EA
:101200002069A061616AA0680BF07AF90646216A3C
:1012100060680BF075F90746E16920680BF070F91A
:10122000804639460AF08CFF054631460AF088FFB1
:101230006061BDE8F0812DE9F04F93B004460D46A2
:1012400016469946604204B27042642190FBF1F761
:1012500038460AF0D2FB234A03C20022224B21491E
:1012600003C90AF031FCCDE9100148460AF0C5FB7C
:10127000CDE908010AF07CF882468B4628460AF040
:10128000BCFB074652465B4630E00000A00200204F
:1012900000009644840200207002002020020020FA
:1012A00034020020480200205C020020003401408B
:1012B00000080040780300200000F0420000404099
:1012C000BC020020D802002038000020400000208E
:1012D0004400002034000020300000202C000020BA
:1012E0003C00002060000020007070400AF0ECFB21
:1012F000CDE90C0148460AF080FBCDE9080109F070
:101300000DFB0746884620460AF077FB82463A46A0
:1013100043460AF0D9FBCDE90A01DDE90C230AF0C6
:10132000FBF8CDE90E01DDE910230AF0F5F8974A44
:1013300003C20022964B974903C90AF0C5FBCDE9C9
:10134000100148460AF059FBCDE9000109F0E6FA20
:1013500082468B46904891490AF00AF80746524661
:101360005B460AF0B1FBCDE9040148460AF045FBB3
:10137000824609F0FDFF074688468748874909F0FD
:10138000CDFA81F000413A464346CDE900010AF02A
:101390009BFBCDE90201DDE904230AF0BBFDCDE9A9
:1013A000080128460AF029FBCDE90601DDE90823FA
:1013B0000AF08AFBCDE90C0148460AF01EFBCDE994
:1013C000000109F0D5FF074688467348744909F0C3
:1013D000CFFF82463A4643460AF076FBCDE9040148
:1013E00048460AF00AFBCDE9000109F097FA0746E2
:1013F00088466948694909F091FA81F000418246BE
:101400003A4643460AF060FBCDE90201DDE90423D8
:101410000AF082F8CDE9080120460AF0EEFACDE99B
:101420000601DDE908230AF04FFBCDE90A01DDE9F9
:101430000C230AF071F8CDE90E01DDE910230AF062
:101440006BF8584A03C20022514B524903C90AF0B3
:101450003BFBCDE9100148460AF0CFFACDE9000187
:1014600009F05CFA82468B464B484D4909F056FA22
:10147000074652465B460AF027FBCDE90401484681
:101480000AF0BBFA074609F073FF82468B464248D2
:10149000434909F06DFF81F0004152465B46CDE9BA
:1014A00000010AF011FBCDE90201DDE904230AF095
:1014B00033F8CDE9080128460AF09FFACDE9060184
:1014C000DDE908230AF000FBCDE90C0148460AF0EB
:1014D00094FACDE9000109F04BFF82468B462E4875
:1014E0002F4909F01BFA074652465B460AF0ECFA10
:1014F000CDE9040148460AF080FACDE9000109F07F
:101500000DFA074688462448254909F031FF81F045
:10151000004182463A4643460AF0D6FACDE9020136
:10152000DDE9042309F0F8FFCDE9080120460AF0BF
:1015300064FACDE90601DDE908230AF0C5FACDE930
:101540000A01DDE90C2309F0E7FFCDE90E01DDE931
:10155000102309F0E1FF144A03C20C4903C90AF041
:10156000EFF90746FFF770FA0E4903C90AF0E8F9E8
:101570000746FFF799FA0C4903C90AF0E1F9074653
:10158000FFF7C2FA13B0BDE8F08F0000480000205A
:101590000070704060000020A138DB3752C1F03F7E
:1015A00052C1E03F500000205800002070B50025D7
:1015B00000244DF6ED60F7490880F7488078887080
:1015C000F5480079C870F4488088000A0871F2482C
:1015D000807A4871F0488079887100BF06E0EF4852
:1015E000015DE01DEB4A1154601CC4B2EA488079E9
:1015F000A042F4DC002405E0E648005D284405B282
:10160000601CC4B2E4488078801EA042F4DCE2484A
:101610008078801EDF4A1554C5F30721DE488078A4
:10162000401E1154DC488178104603F056FE70BD10
:101630002DE9FC5F57E1DA48007820BB1D21D0205E
:1016400001F0A4FB1F21D02001F0A0FB2121D0201C
:1016500001F09CFB3221A62001F0ABFB3421A62037
:1016600001F0A7FB3621A62001F0A3FB00211A20E0
:1016700001F09FFB02211A2001F09BFB04211A209C
:1016800001F097FB2AE11D21D02001F07FFB00B281
:1016900000900AF0D5FE01900AF026FD8246C14A6C
:1016A000C14B0AF011FA80468946C049486A0AF0DF
:1016B0001BFD064642464B4609F02EFF044609F044
:1016C000F9FEBA4948621F21D02001F05FFB00B249
:1016D00000900AF0B5FE01900AF006FD8046B14A7E
:1016E000B14B0AF0F1F904460D46B049886A0AF098
:1016F000FBFC064622462B4609F00EFF824609F007
:10170000D9FEAA4988622121D02001F03FFB00B216
:1017100000900AF095FE01900AF0E6FC0646A14A08
:10172000A14B0AF0D1F904460D46A049C86A0AF057
:10173000DBFC804622462B4609F0EEFE824609F08D
:10174000B9FE9A49C8623221A62001F032FB00B2EC
:1017500000900AF075FE01900AF0C6FC8046914A9E
:10176000914B0AF0B1F904460D469049086B0AF016
:10177000BBFC064622462B4609F0CEFE824609F007
:1017800099FE8A4908633421A62001F012FB0FFA62
:1017900080FB58460AF054FE82460AF0A5FC8046BB
:1017A000804A814B0AF090F904460D467F49486B08
:1017B0000AF09AFC064622462B4609F0ADFECDE91A
:1017C000000109F077FE794948633621A62001F02F
:1017D000F0FA0FFA80FB58460AF032FE82460AF011
:1017E00083FC80466F4A704B0AF06EF904460D4642
:1017F0006E49886B0AF078FC064622462B4609F0B3
:101800008BFECDE9000109F055FE6849886300218F
:101810001A2001F0CEFA00B200900AF011FE0190F9
:101820000AF062FC80465F4A5F4B0AF04DF90446BD
:101830000D465E49C86B0AF057FC064622462B4609
:1018400009F06AFE824609F035FE5849C863022154
:101850001A2001F0AEFA0FFA80FB58460AF0F0FDAC
:1018600082460AF041FC06464E4A4F4B0AF02CF9DC
:1018700004460D464D49086C0AF036FC8046224667
:101880002B4609F049FECDE9000109F013FE474956
:10189000086404211A2001F08CFA0FFA80FB5846E4
:1018A0000AF0CEFD82460AF01FFC80463D4A3E4BC0
:1018B0000AF00AF904460D463C49486C0AF014FC4B
:1018C000064622462B4609F027FECDE9000109F025
:1018D000F1FD36494864052006F0E5FC3048007803
:1018E000401C2F4908702E4800786528FFF6A3AEEB
:1018F000BDE8FC9F70B5054600242D480078401CCB
:101900002B490870FFF794FE29480078062875D205
:10191000DFE800F0DB031F5275974DF6ED601D49BF
:101920000880232088700020C870F02008710020F3
:1019300048711A2088711F484088184908801D483E
:10194000808848801B48C08888801A480089C880E1
:10195000BCE01D21D02001F019FA00B20F49088126
:101960001F21D02001F012FA00B20C494881212138
:10197000D02001F00BFA00B208498881084600899E
:101980000A49088005484089488004488089888041
:101990009CE0000048070020F8020020040300201B
:1019A000680000207B14AE47E17A843FAC0300203E
:1019B0006B000020780300203221A62001F0F9F905
:1019C00000B2FE49C8813421A62001F0F2F900B22C
:1019D000FA4908823621A62001F0EBF900B2F74956
:1019E00048820846C089F649C880F448018AF4480C
:1019F0000181F248418AF248418167E065E00021B7
:101A00001A2001F0D6F900B2EC49888202211A208E
:101A100001F0CFF900B2E949C88204211A2001F08F
:101A2000C8F900B2E54908830846808AE4498881FC
:101A3000E248C18AE248C181E048018BE048018266
:101A400044E00020DF4908700DE0DC48DD490978FA
:101A5000415CDC480078C01DDB4A1154D94800784D
:101A6000401CD8490870D8488079D64909788842FE
:101A7000EBDC0020D34908700AE0D348D14909784B
:101A8000405C204404B2CF480078401CCD49087027
:101A9000CD488078801ECB4909788842EDDCCA4861
:101AA0008078801EC84A1454C4F3072110468078F9
:101AB000401E11541DB11046817803F00EFC02F057
:101AC0001EFA0020C149087000E000BF00BF70BDD1
:101AD00010B50022BE48B0F90000BE4B98427DD13F
:101AE000BB488078BC4B9870B948C078B84B1B791C
:101AF00000EB0320B84B9880B54840799872B44801
:101B0000807998711846807909283BD2DFE800F087
:101B10003A050A3A163A223A2E00AD48C079AF4B40
:101B2000188030E0002106E0C81DA94B185CAB4BC3
:101B30005854481CC1B20229F6DB24E0002106E01B
:101B4000C81DA34B185CA54B5854481CC1B20429AE
:101B5000F6DB18E0002106E0C81D9D4B185C9F4B8A
:101B60005854481CC1B20629F6DB0CE0002106E0FF
:101B7000C81D974B185C994B5854481CC1B2082992
:101B8000F6DB00E000BF00BF93488078801E904BDA
:101B90001B5C91488078401E8D4C205C03EB00203C
:101BA00000B28D4B1881002105E08948405C10444B
:101BB00082B2481CC1B288488078801E8842F4DC1A
:101BC0008548B0F90800904204D10120824B18707A
:101BD00010BD03E00020804B1870F9E70020F7E704
:101BE0002DE9F047FFF774FF08B9BDE8F0877A48A0
:101BF0008088092877D007DC76D2DFE800F01E2243
:101C0000277A8B8F90949F00B0F5004F6DD008DC41
:101C10000A286BD00B286AD00C2869D00D2863D114
:101C20004CE16FF400410844002870D001286FD0C7
:101C300002286ED00328F2D1BCE143205F4908801E
:101C4000C4E140F207105D490880BFE16449B1F981
:101C50000C10642201FB02F009F0CFFE0646614A37
:101C6000614B09F015FD044609F06AFE00B25349C4
:101C700008805E49B1F90C10642201FB02F009F002
:101C8000BCFE0646574A584B09F002FD044609F0CF
:101C900057FE00B2494948805549B1F90C106422F9
:101CA00001FB02F009F0A9FE06464E4A4E4B09F030
:101CB000EFFC044609F044FE00B2404988804D49DB
:101CC000B1F90C10642201FB02F009F096FE064601
:101CD000444A454B09F0DCFC044609F031FE00B2F1
:101CE0003649C88072E1D9E06FE1FBE0D7E0DBE084
:101CF000DFE03B488089314908803C488089488042
:101D00003B48808988803B488089C8805EE13AE111
:101D10004EE14EE138202949088057E156E10B2079
:101D20002649088052E13448808824490880324896
:101D3000C088488030480089888047E126488079FB
:101D4000062804D00C2818D012287DD161E01D216E
:101D5000D02001F01BF800B2184908801F21D020C4
:101D600001F014F800B2154948802121D02001F07B
:101D70000DF800B2114988808EE01D21D02001F0BD
:101D800005F800B20D4908801F21D02000F0FEFFA9
:101D900000B20A4948802121D02000F0F7FF00B2AC
:101DA000064988803221A62000F0F0FF00B20349E6
:101DB000C8803421A62000F0E9FF1FE004030020C2
:101DC000AC0300206A000020480700206B000020C0
:101DD000AC070020EDDEFFFFF80200202203002008
:101DE00048020020EC3EB61B934F6A405C02002084
:101DF00020020020340200207803002000B2FE49B7
:101E000008813621A62000F0C1FF00B2FA494881BE
:101E100042E01D21D02000F0B9FF00B2F649088051
:101E20001F21D02000F0B2FF00B2F34948802121E9
:101E3000D02000F0ABFF00B2EF4988803221A6200D
:101E400000F0A4FF00B200E025E0EB49C880342197
:101E5000A62000F09BFF00B2E74908813621A620AA
:101E600000F094FF00B2E449488100211A2000F0FC
:101E7000A0FF00B2E049888102211A2000F099FFFA
:101E800000B2DD49C88104211A2000F092FF00B29F
:101E9000D949088200E000BF00BF97E096E0D7482C
:101EA000008AD549088091E04FF48070D2490880BB
:101EB0008CE0D248807CD049087087E04320CE492E
:101EC000088040F207104880382088800B20C880A6
:101ED0004FF480700881C948807C88720120C8490D
:101EE000487073E0C748B0F90000642190FBF1F935
:101EF000484609F082FD0746C34AC44B09F0E4FD99
:101F0000054609F01DFD0446FEF7FEFDBD48B0F98B
:101F10000200642190FBF1F9484609F06EFD074686
:101F2000B94ABA4B09F0D0FD054609F009FD04464F
:101F3000FEF71AFEB348B0F90400642190FBF1F9F2
:101F4000484609F05AFD0746AF4AB04B09F0BCFDC0
:101F5000054609F0F5FC0446FEF776FDA948B0F900
:101F60000600642190FBF1F9484609F046FD07465A
:101F7000A54AA64B09F0A8FD054609F0E1FC044678
:101F8000FEF792FD22E09F49B1F90000FEF7BCFD8B
:101F90009C49B1F90200FEF7E7FD9A49B1F9040046
:101FA000FEF752FD9749B1F90600FEF77DFD0DE001
:101FB0000CE00BE0934BB3F90420B3F90210B3F932
:101FC00000000023FFF737F900E00EE600BF8C4861
:101FD000807A08B1FFF7EAFA00BF06E62DE9FF5F55
:101FE0009CB032ACF0CC22462B46DDE91C0109F056
:101FF00091FF00224FF08043CDE9120109F064FD0A
:102000008046894632463B46DDE91E0109F082FFE3
:1020100000224FF08043CDE9120109F055FD8246C0
:102020008B4600224FF08043DDE92A0108F0C4FC12
:1020300000224FF08043CDE91201DDE9360108F0BE
:10204000BBFC00224FF08043CDE90E0130463946FB
:1020500008F0B2FC00224FF08043CDE90A01DDE92F
:102060001E0108F0A9FC00224FF08043CDE90601D3
:102070002046294608F0A0FC00224FF08043CDE91D
:102080000201DDE91C0108F097FCCDE90001DDE962
:10209000022309F03FFFCDE90401DDE9062309F041
:1020A0003BFACDE90801DDE90A2309F033FFCDE968
:1020B0000C01DDE90E2309F02FFACDE91001DDE96D
:1020C000122309F027FFCDE91A0122462B46DDE94C
:1020D0002C0109F01FFF00224FF08043CDE91201CF
:1020E00009F0F2FCCDE9180132463B46DDE92E014C
:1020F00009F010FF00224FF08043CDE9120109F0F2
:10210000E3FCCDE9160100224FF08043DDE9300108
:1021100008F052FC00224FF08043CDE91201DDE9C6
:10212000360108F049FC00224FF08043CDE90E0152
:102130003046394608F040FC00224FF08043CDE99C
:102140000A01DDE92E0108F037FC00224FF0804340
:10215000CDE906012046294608F02EFC00224FF06A
:102160008043CDE90201DDE92C0108F025FCCDE931
:102170000001DDE9022309F0CDFECDE90401DDE92E
:10218000062309F0C9F9CDE90801DDE90A2309F0C0
:10219000C1FECDE90C01DDE90E2309F0BDF9CDE961
:1021A0001001DDE9122309F0B5FECDE91401504616
:1021B0005946DDE9182309F087FCCDE90C014046BA
:1021C0004946DDE9162309F07FFCCDE90A01DDE986
:1021D0000C2309F09FFECDE9100150465946DDE978
:1021E000142309F071FCCDE90C01DDE91623DDE9CA
:1021F0001A0109F069FC0BE00403002070020020C2
:10220000F802002022030020EC3EB61B934F6A40E8
:10221000CDE90A01DDE90C2309F07CFECDE90E01D0
:10222000DDE9102309F034FA0022B34BCDE91201A5
:1022300009F02EFAB14AC2E90A0150465946DDE9D1
:10224000182309F041FCCDE90C0140464946DDE97F
:10225000162309F039FCCDE90A01DDE90C2309F068
:1022600059FECDE91001DDE91823DDE91A0109F075
:102270002BFCCDE90C0140464946DDE9142309F069
:1022800023FCCDE90A01DDE90C2309F043FECDE989
:102290000E01DDE9102309F0FBF90022964BCDE990
:1022A000120109F0F5F9954AC2E90C0120B0BDE828
:1022B000F09F2DE9F0479CB04FF0000AD146002472
:1022C00000BF11E18E4810F80A006D2879D18C49C1
:1022D0000AF10100085C7228F8D10AF10200085CDA
:1022E0002028F3D10AF10300085C3028EED10AF16E
:1022F0000400085C3728E9D14FF0000921E07F484D
:10230000006800017D4908600AF1060048447C49E4
:102310000C5C302C05DB392C03DCA4F13000C4B29A
:1023200006E0612C04DB662C02DCA4F15700C4B289
:102330007248006820447149086009F1010000F00A
:10234000FF09B9F1080FDADB4FF0000921E06B4813
:1023500040680001694948600AF10F004844684933
:102360000C5C302C05DB392C03DCA4F13000C4B24A
:1023700006E0612C04DB662C02DCA4F15700C4B239
:102380005E48406820445D49486009F1010000F062
:10239000FF09B9F1080FDADB4FF0000922E05748D6
:1023A00080680001554988600AF118004844544982
:1023B0000C5C302C06DB392C04DCA4F13000C4B2F8
:1023C00007E08DE0612C04DB662C02DCA4F15700F1
:1023D000C4B24A48806820444849886009F1010035
:1023E00000F0FF09B9F1080FD9DB4FF0000921E037
:1023F0004248C06800014149C8600AF121004844D0
:102400003F490C5C302C05DB392C03DCA4F1300097
:10241000C4B206E0612C04DB662C02DCA4F1570098
:10242000C4B23648C06820443449C86009F101008C
:1024300000F0FF09B9F1080FDADB3049886809F0CC
:10244000F3FA05460E462D49486A09F0EDFA0746AB
:1024500088462A49086A09F0E7FACDE91A012749AE
:10246000486809F0E1FACDE918012449C86909F082
:10247000DBFACDE916012149886909F0D5FACDE9E1
:1024800014011E49086809F0CFFACDE912011B4971
:10249000486909F0C9FACDE910011849086909F03D
:1024A000C3FACDE90A78CDE90C56CDE90E01DDE994
:1024B0001A01CDE90801DDE91801CDE90601DDE9E0
:1024C0001601CDE90401DDE91401CDE90201DDE9E0
:1024D0001201CDE900010EA80FC8FFF77FFD07E04C
:1024E0000AF1010000F0FF0ABAF1C80FFFF6EAAEE8
:1024F00000BF1CB0BDE8F08700002440400300206E
:102500001008002010B5E84A128812B2E74B5A8131
:102510001A46116AB2F90A30B2F9142040F2712455
:10252000624303EB4210421A12B2E04B1A8013E0EE
:10253000DE4A928A521E12B2DC4B9A821A46B2F9D5
:102540000A30B2F9142040F27124624303EB4210C6
:10255000421A12B2D54B1A80D44AB2F9002042F284
:1025600010739A42E4DC13E0D04A928A521C12B2F1
:10257000CE4B9A821A46B2F90A30B2F9142040F2D0
:102580007124624303EB4210421A12B2C74B1A8005
:10259000C64AB2F90020C64B9A42E5DBC34A106234
:1025A00010BD10B54FF08042928C12B2BF4B9A8191
:1025B0001A46516AB2F90C30B2F9162040F2712471
:1025C000624303EB4210421A12B2B84B5A8013E036
:1025D000B64AD28A521E12B2B44BDA821A46B2F905
:1025E0000C30B2F9162040F27124624303EB421022
:1025F000421A12B2AD4B5A80AC4AB2F9022042F2F2
:1026000010739A42E4DC13E0A84AD28A521C12B238
:10261000A64BDA821A46B2F90C30B2F9162040F213
:102620007124624303EB4210421A12B29F4B5A804C
:102630009E4AB2F902209E4B9A42E5DB9B4A5062C9
:1026400010BD10B59B4A128812B2984BDA811A4617
:10265000916AB2F90E30B2F9182040F27124624347
:1026600003EB4210421A12B2904B9A8013E08F4A49
:10267000128B521E12B28D4B1A831A46B2F90E30CB
:10268000B2F9182040F27124624303EB4210421A5F
:1026900012B2864B9A80854AB2F9042042F2107336
:1026A0009A42E4DC13E0814A128B521C12B27F4B37
:1026B0001A831A46B2F90E30B2F9182040F271248A
:1026C000624303EB4210421A12B2784B9A80774A67
:1026D000B2F90420764B9A42E5DB744A906210BD51
:1026E00010B5754A128812B2704B1A821A46D16A16
:1026F000B2F91030B2F91A2040F27124624303EBB0
:102700004210421A12B2694BDA8013E0674A528BC8
:10271000521E12B2654B5A831A46B2F91030B2F902
:102720001A2040F27124624303EB4210421A12B2A3
:102730005E4BDA805D4AB2F9062042F210739A428B
:10274000E4DC13E0594A528B521C12B2574B5A83A5
:102750001A46B2F91030B2F91A2040F271246243DD
:1027600003EB4210421A12B2504BDA804F4AB2F9D0
:1027700006204F4B9A42E5DB4C4AD06210BD10B5A3
:102780004E4A128812B2494B5A821A46116BB2F95C
:102790001230B2F91C2040F27124624303EB421064
:1027A000421A12B2414B1A8113E0404A928B521ED8
:1027B00012B23E4B9A831A46B2F91230B2F91C207B
:1027C00040F27124624303EB4210421A12B2374BBB
:1027D0001A81364AB2F9082042F210739A42E4DCB8
:1027E00013E0324A928B521C12B2304B9A831A4633
:1027F000B2F91230B2F91C2040F27124624303EBAB
:102800004210421A12B2294B1A81284AB2F9082002
:10281000274B9A42E5DB254A106310BD70B5FFF7E0
:1028200071FEFFF7BEFEFFF70CFFFFF7A8FF1F4981
:10283000B1F9040009F004FE0546214909F0EEFC57
:10284000044609F0E1FD00B21E4988811749B1F93B
:10285000000009F0F5FD0546194909F0DFFC0446C2
:1028600009F0D2FD00B2184988811049B1F9080079
:1028700009F0E6FD0546124909F0D0FC044609F0CE
:10288000C3FD00B2114988810849B1F9020009F07D
:10289000D7FD05460A4909F0C1FC044609F0B4FD1C
:1028A00000B20B49888170BD242C014078030020C0
:1028B000F0D8FFFF2404004024080040240C00400E
:1028C00037BEEF3D200200203402002048020020E5
:1028D0005C02002008B50121082003F0FDFA202049
:1028E000ADF8000003208DF8020014208DF80300DD
:1028F0006946FE4803F034F80121FD4803F001F970
:102900001020ADF8000003208DF8020014208DF88F
:1029100003006946F54803F023F808BD002100BF15
:1029200048E000BF00BF00BF00BF00BF00BF00BF46
:1029300000BF00BF00BF00BF00BF00BF00BF00BF9F
:1029400000BF00BF00BF00BF00BF00BF00BF00BF8F
:1029500000BF00BF00BF00BF00BF00BF00BF00BF7F
:1029600000BF00BF00BF00BF00BF00BF00BF00BF6F
:1029700000BF00BF00BF00BF00BF00BF00BF00BF5F
:1029800000BF00BF00BF00BF00BF00BF00BF00BF4F
:1029900000BF00BF00BF00BF00BF00BF00BF00BF3F
:1029A00000BF00BF00BF00BF00BF00BF00BF00BF2F
:1029B00000BF491C8142B4D3704700B52020CB49E9
:1029C00010310860102008600220FFF7A7FFC748F9
:1029D0000830006808B9012000E0002000F0200065
:1029E00008B1002000BD2020C04914310860022039
:1029F000FFF794FFBD480830006800F0200008B1E0
:102A00000020EFE72020B949143108600220FFF7C9
:102A100085FF0120E6E700B51020B44914310860B5
:102A20000220FFF77BFF2020B0491431086002200C
:102A3000FFF774FF1020AD49103108600220FFF746
:102A40006DFF2020A949103108600220FFF766FFC2
:102A500000BD00B51020A549143108600220FFF721
:102A60005DFF2020A149143108600220FFF756FFC6
:102A700010209E49103108600220FFF74FFF102000
:102A80009A49143108600220FFF748FF00BD00B5E5
:102A900010209649143108600220FFF73FFF2020E4
:102AA0009249103108600220FFF738FF10208F494B
:102AB000103108600220FFF731FF10208B491431DC
:102AC00008600220FFF72AFF00BD00B510208749EB
:102AD000143108600220FFF721FF202083491031C4
:102AE00008600220FFF71AFF1020804910310860AB
:102AF0000220FFF713FF7D480830006800F0200037
:102B000040B110207949143108600220FFF706FF18
:102B1000002000BD10207549143108600220FFF725
:102B2000FDFE0120F5E710B5034608241EE0102045
:102B30006E49143108600220FFF7F0FE03F08000B8
:102B400020B1202069491031086003E02020674946
:102B5000143108605806030E0220FFF7DFFE102034
:102B60006249103108600220FFF7D8FE2000A4F16E
:102B70000101CCB2DBD110205C491431086010BDDA
:102B800010B508240023202058491031086017E0B0
:102B90005806030E10205549143108600220FFF733
:102BA000BDFE10205149103108600220FFF7B6FE2B
:102BB0004E480830006800F0200008B143F00103DF
:102BC0002000A4F10101CCB2E2D110204749143118
:102BD0000860184610BD70B506460C461546FFF74E
:102BE000ECFE08B9002070BD3046FFF79CFFFFF7F0
:102BF0006CFF18B9FFF70FFF0020F4E72046FFF73E
:102C000092FFFFF762FF2846FFF78DFFFFF75DFF9A
:102C1000FFF701FF0120E6E770B504460D46FFF718
:102C2000CCFE08B9002070BD2046FFF77CFFFFF7FF
:102C30004CFF18B9FFF7EFFE0020F4E72846FFF736
:102C400072FFFFF742FFFFF7B8FE611CC8B2FFF743
:102C50006AFFFFF73AFFFFF793FF0646FFF717FFFC
:102C6000FFF7D9FE3046DEE7FCB505460E461746AF
:102C7000FFF7A3FEA620FFF756FFFFF726FF32203F
:102C8000FFF751FFFFF721FFFFF797FEA720FFF7A0
:102C90004AFFFFF71AFF002410E0052C06D1FFF7CA
:102CA0006FFF0DF80400FFF7F2FE05E0FFF768FF85
:102CB0000DF80400FFF7CDFE601CC4B2062CECDB5F
:102CC000FFF7A9FE9DF800009DF8011000EB012020
:102CD00000B228809DF802009DF8031000EB01204F
:102CE00000B230809DF8040004E00000000C0140B8
:102CF000000230009DF8051000EB012000B2388082
:102D0000FCBD10B5FFF7E6FD01220B211A20FFF7ED
:102D100062FF402220211A20FFF75DFF01222121BE
:102D20001A20FFF758FF0D2209211A20FFF753FF41
:102D30000B223121A620FFF74EFF1A222C21A620BC
:102D4000FFF749FF08222D21A620FFF744FF80222C
:102D50002E21A620FFF73FFF80223E21D020FFF743
:102D60003AFF07221521D020FFF735FF1E2216213A
:102D7000D020FFF730FF00221721D020FFF72BFFD4
:102D800000223E21D020FFF726FF10BD2DE9F041A3
:102D900005460C4621462846FFF73EFF0646601CC6
:102DA000C1B22846FFF738FF074607EB0620BDE80B
:102DB000F0812DE9F04105460C4621462846FFF7F3
:102DC0002BFF0746601CC1B22846FFF725FF0646C9
:102DD00007EB0620BDE8F08100B587B001214FF474
:102DE000047003F079F84FF4004002F0D9FF04209A
:102DF000ADF8040000208DF8070001A9494802F051
:102E0000AFFD494804F0DEF9002002908DF80C0077
:102E10008DF80D004FF460200490002005900120F3
:102E20008DF8180002A9404804F0F3F901213E484A
:102E300004F01BFA3C4804F03AFA00BF3A4804F0A8
:102E40003BFA0028FAD1384804F040FA00BF36486F
:102E500004F041FA0028FAD107B000BD10B50446CD
:102E6000072301222146304804F06BFA01212E4845
:102E700004F03BFA00BF02212B4804F0A7FB002816
:102E8000F9D0294804F0C4FA10BD2DE9F0410746F5
:102E90000C460025002608E03846FFF7DFFF054412
:102EA000052005F000FA701CC6B2A642F4DBB5FBA3
:102EB000F4F080B2BDE8F0812DE9F0470C20FFF777
:102EC000CDFF1A4909680844184908601848007875
:102ED000401C174908700846007805281FD1134880
:102EE00000680521B0FBF1F0104908600846006851
:102EF00008F09AFD06464FF066320E4B08F0E4FDEE
:102F0000044600220C4B08F0C3FB804608F048FD45
:102F10000A49887400200549086005490870BDE821
:102F2000F087000000100140002401406C000020E8
:102F30007000002066660A400000B0407002002069
:102F40000020F6490882704770B5002500244DF630
:102F5000ED60F34908800B2088700A20C8700020BB
:102F6000087148710220887100BF06E0ED48015DDC
:102F7000E01DEB4A1154601CC4B2022CF6DB0024A5
:102F800005E0E748005D284405B2601CC4B2E4488F
:102F90008078801EA042F4DCE1488078801EE04A00
:102FA0001554C5F3072110468078401E1154104671
:102FB000817802F092F970BD10B5DB480078401CB2
:102FC000D9490870D948007828B10020D84908703C
:102FD000D649087010E0D6480078022807DDCF48AF
:102FE000007C20F00100401CCC49087404E0D0486B
:102FF0000078401CCE490870CE48B0F90E00CD498B
:10300000B1F90C10401A142809DCCA48B0F90E00B6
:10301000C849B1F90C10401A10F1140F05DAC6486E
:103020000078401CC449087011E0C3480078322879
:103030000ADDBA48007C20F00200801CB749087401
:103040000020BD49087002E00020BB490870BB4861
:10305000B0F90E00B949B1F90C10401A142809DC76
:10306000B648B0F90E00B549B1F90C10401A10F18C
:10307000140F05DAB2480078401CB149087011E01D
:10308000AF48007832280ADDA448007C20F0040014
:10309000001DA24908740020A949087002E0002020
:1030A000A7490870A748B0F90E00A649B1F90C105D
:1030B000401A142809DCA348B0F90E00A149B1F95F
:1030C0000C10401A10F1140F05DA9F480078401CCC
:1030D0009D49087011E09C48007832280ADD8F482D
:1030E000007C20F0080008308C49087400209649C4
:1030F000087002E00020944908709448B0F90E006E
:103100009249B1F90C10401A142809DC8F48B0F923
:103110000E008E49B1F90C10401A10F1140F05DAA7
:103120008B480078401C8A49087011E08848007874
:1031300032280ADD7948007C20F0100010307749F1
:10314000087400208249087002E00020804908705D
:103150008048B0F900007F49B1F91210884213D1BC
:103160007C48B0F90210B0F9140081420CD17948C2
:10317000B0F90410B0F91600814205D17648007804
:10318000401C7549087011E07348007832280ADD48
:103190006248007C20F02000203060490874002044
:1031A0006D49087002E000206B49087000206B49EF
:1031B00008700EE067486949097830F8111012303C
:1031C000664A127820F8121064480078401C63495F
:1031D0000870624800780328ECDB5E48B0F906000E
:1031E0005C49B1F91810884213D15A48B0F9081057
:1031F000B0F91A0081420CD15648B0F90A10B0F962
:103200001C00814205D156480078401C5449087082
:1032100011E05348007832280ADD4048007C20F055
:10322000400040303D49087400204D49087002E0DC
:1032300000204B4908700020484908700FE04548BD
:10324000801D4649097830F811101230434A12782F
:1032500020F8121041480078401C404908703F484F
:1032600000780328EBDB3B48B0F90C003949B1F991
:103270001E10884213D13748B0F90E10B0F9200063
:1032800081420CD13348B0F91010B0F922008142CC
:1032900005D134480078401C3249087011E03048AC
:1032A000007832280ADD00202E4908701B48007C77
:1032B00020F0800080301949087402E0002029497C
:1032C00008700020254908700FE022480C3023497F
:1032D000097830F811101230204A127820F81210B4
:1032E0001E480078401C1D4908701C4800780328BF
:1032F000EBDB0A48008A78B10B4800780A280BDD1E
:103300000020094908700548008A06490880FFF72F
:103310001BFE00200149088210BD00007002002041
:10332000480700200403002072000020F80200205B
:103330007300002048020020740000205C0200207E
:1033400075000020200200207600002034020020BA
:1033500077000020AC0300207800002071000020DE
:10336000790000207A0000202DE9F04105460C4646
:10337000FE480168204609F0CBF90746FC48016881
:10338000384609F0BDF80646FA480168304608F0AC
:10339000D7FEF8490860F8484168F848006809F025
:1033A000B7F90646F4488168304609F0B1F9F449A6
:1033B0000860F148C06880F000404860EE48C0688E
:1033C00080F000408860EF480068C8600868E849FD
:1033D000096809F095F80646E7480168304608F0A4
:1033E000AFFEE5490860E6494868E149096809F027
:1033F00087F80646E0484168304608F0A1FEDE49FD
:103400004860DF498868DA49096809F079F80646B2
:10341000D9488168304608F093FED7498860D8497A
:10342000C868D349096809F06BF80646D248C168F4
:10343000304608F085FED049C860CE48016828466D
:1034400009F066F9D0490860D048007809F010F812
:103450000646C9480168304609F052F8CC49086070
:10346000CA48007809F004F80646C3488168304627
:1034700009F046F8C7490860C448007808F0F8FF2A
:103480000746C3480168384609F03AF80646C2487C
:103490000168304608F054FEC049086008460168DB
:1034A000BB48006808F0BAFEBD490860BB48016827
:1034B000B848006808F0B2FEBA490860B44800682D
:1034C000B9490860B148007808F0D2FF0646AA481A
:1034D0004168304609F014F8B4490860B248016800
:1034E000AF48006809F00CF80646A348016830466A
:1034F00009F003F9A0490860AC480168A8480068D1
:1035000008F0FEFF06469C484168304609F0F5F891
:1035100099494860A4480168A248006808F0F0FF93
:10352000064695488168304609F0E7F89249886078
:103530009E4801689B48006808F0E2FF06468E48F6
:10354000C168304609F0D9F88B49C8608E480168D7
:103550009348006808F0D4FF064695480168304655
:1035600008F0EEFD92490860874801688D480068C0
:1035700008F0C6FF06467D480168304608F0E0FDC9
:103580007A49086008460168204609F0C1F889496F
:103590000860BDE8F0812DE9F04105460C4673480E
:1035A0000168204609F0B4F80746714801683846BA
:1035B00008F0A6FF06466F480168304608F0C0FDD7
:1035C0006C4908606C4841686C48006809F0A0F8D4
:1035D000064669488168304609F09AF868490860EB
:1035E0006548C06880F0004048606348C06880F06B
:1035F0000040886063480068C86008685C490968E2
:1036000008F07EFF06465C480168304608F098FDE9
:10361000594908605A4948685549096808F070FFD7
:10362000064655484168304608F08AFD52494860D0
:10363000534988684E49096808F062FF06464E48BB
:103640008168304608F07CFD4B4988604C49C86869
:103650004749096808F054FF06464748C1683046A4
:1036600008F06EFD4449C86042480168284609F0E8
:103670004FF8454908604548007808F0F9FE0646CD
:103680003D480168304608F03BFF414908603F482B
:10369000007808F0EDFE064637488168304608F0AD
:1036A0002FFF3C4908603948007808F0E1FE0746E2
:1036B00037480168384608F023FF06463648016857
:1036C000304608F03DFD354908600846016830483D
:1036D000006808F0A3FD32490860304801682D48B1
:1036E000006808F09BFD2F490860294800682E49B2
:1036F00008602648007808F0BBFE06461E48416870
:10370000304608F0FDFE2949086027480168244832
:10371000006808F0F5FE064617480168304608F0D4
:10372000ECFF15490860214801681D48006808F051
:10373000E7FE064610484168304608F0DEFF0E49B5
:103740004860194801681748006808F0D9FE064625
:1037500009488168304608F0D0FF0749886013485F
:1037600001681048006808F0CBFE25E0CC0000207E
:10377000C4000020B0000020F0000020B8000020AD
:10378000FC030020BC000020D0000020C800002066
:10379000D4000020D8000020C0000020DC00002061
:1037A000E0000020E4000020E8000020EC00002001
:1037B000B40000208C0000200646FE48C168304658
:1037C00008F09BFFFB49C860FB480168FB480068A4
:1037D00008F096FE0646FA480168304608F0B0FC4C
:1037E000F7490860F4480168F648006808F088FE68
:1037F0000646F5480168304608F0A2FCF249086028
:1038000008460168204608F083FFF0490860BDE8DB
:10381000F0812DE9F04105460C46EB480168204651
:1038200008F076FF0746EA480168384608F068FE67
:103830000646E8480168304608F082FCE549086021
:10384000DC484168E448006808F062FF0646D94851
:103850008168304608F05CFFE0490860D548C068E0
:1038600080F000404860D348C06880F00040886025
:10387000DB480068C8600868D549096808F040FE60
:103880000646CC480168304608F05AFCC949086031
:10389000D2494868CE49096808F032FE0646C54854
:1038A0004168304608F04CFCC2494860CB49886802
:1038B000C749096808F024FE0646BE4881683046BC
:1038C00008F03EFCBB498860C449C868C049096823
:1038D00008F016FE0646B748C168304608F030FCCE
:1038E000B449C860BB480168284608F011FFB249D6
:1038F0000860BC48007808F0BBFD0646AD4801688A
:10390000304608F0FDFDB8490860B648007808F078
:10391000AFFD0646A7488168304608F0F1FDB3497F
:103920000860B048007808F0A3FD0746AE4801687B
:10393000384608F0E5FD0646AD480168304608F017
:10394000FFFBAC49086008460168A748006808F01A
:1039500065FC9A490860A7480168A448006808F017
:103960005DFC98490860A0480068A34908609D482C
:10397000007808F07DFD06468E484168304608F024
:10398000BFFD9E4908609C4801688C48006808F0AB
:10399000B7FD064687480168304608F0AEFE854907
:1039A0000860964801688548006808F0A9FD064649
:1039B00080484168304608F0A0FE7E4948608E4845
:1039C00001688048006808F09BFD064679488168D8
:1039D000304608F092FE7749886088480168794847
:1039E000006808F08DFD06467248C168304608F050
:1039F00084FE7049C860704801687048006808F02B
:103A00007FFD064673480168304608F099FB71490E
:103A10000860694801686B48006808F071FD064657
:103A200069480168304608F08BFB67490860084622
:103A30000168204608F06CFE71490860BDE8F0811D
:103A40002DE9FF5F6F49B1F9060008F0F9FC6E49F6
:103A500008606C49B1F9080008F0F2FC6B49086095
:103A60006849B1F90A0008F0EBFC6949086065494A
:103A7000B1F9000008F0E4FC614908606149B1F95E
:103A8000020008F0DDFC514908605E49B1F904000C
:103A900008F0D6FC5F4908605F495B48006808F0A1
:103AA000FBFC07D24FF08D415748006808F0B6FB89
:103AB00004460FE059495448006808F029FE0646BC
:103AC0004FF08D4108F0AAFB05464FF07E5108F0FB
:103AD00014FE044650494D48006808F0DDFC07D24A
:103AE0004FF08D414948006808F098FB82460FE08E
:103AF0004A494648006808F00BFE06464FF08D41E3
:103B000008F08CFB05464FF07E5108F0F6FD82462A
:103B100041493F48006808F0BFFC07D24FF08D4193
:103B20003B48006808F07AFB81460AE03B49384888
:103B3000006808F0EDFD05464FF08D4108F06EFB82
:103B400081464946504608F069FB834608F0CCFAA6
:103B5000CDE9000106F012FD05460022304B07F0CA
:103B6000B3FF304A304BCDE9020107F091FD074623
:103B700007F0A0FC2D4908604946204608F04EFB9E
:103B8000834608F0B1FA074606F0F8FC0022244B01
:103B9000CDE9000107F098FF224A234BCDE902014D
:103BA00007F076FD054607F085FC214908602146AF
:103BB00050463FE0F0000020D0000020E000002050
:103BC000B0000020E4000020CC0000208C00002089
:103BD000C4000020AC000020B8000020FC0300203E
:103BE000BC000020C8000020D4000020D800002025
:103BF000C0000020DC000020E8000020EC000020D5
:103C000088000020AC0300207C0000208000002001
:103C1000840000209000002000F8FF46000040478C
:103C2000008066401F85EB51B81E0940A0000020AF
:103C3000A400002008F0F2FA834608F055FA07467F
:103C400006F09CFC0022FE4BCDE9000107F03CFF92
:103C50000546FC4AFC4B07F01BFDCDE9020107F0CD
:103C600029FCFA490860FA49FA48006808F014FC8F
:103C700003D2F9480068F8490860F549F54800683A
:103C800008F00AFD05D2F448006880F00040F249CF
:103C90000860EF49F148006808F0FEFB03D2F048E5
:103CA0000068EF490860EA49EC48006808F0F4FC55
:103CB00005D2EB48006880F00040E9490860E4491B
:103CC000E848006808F0E8FB03D2E0480068DF49F4
:103CD0000860DF49E348006808F0DEFC05D2DB48F5
:103CE000006880F00040D94908604FF08E41DE48FE
:103CF000006808F0D1FB10D2DB48006808F0F4F946
:103D000007464FF06632D94B07F0C2FC81F0004104
:103D1000054607F0CFFBD44908604FF08E41D248EA
:103D2000006808F0B9FC12D2CF480168D04808F00A
:103D3000EFFC834608F0D8F907464FF06632CB4BCC
:103D400007F0A6FC054607F0B5FBC74908604FF031
:103D50008E41C848006808F09FFB10D2C548006833
:103D600008F0C2F907464FF06632C04B07F090FCEE
:103D700081F00041054607F09DFBBE4908604FF009
:103D80008E41BC48006808F087FC12D2B94801682F
:103D9000B74808F0BDFC834608F0A6F905464FF089
:103DA0006632B24B07F074FC074607F083FBB1495B
:103DB00008604FF08E41B048006808F06DFB10D2EB
:103DC000AD48006808F090F905464FF06632A74B01
:103DD00007F05EFC81F00041074607F06BFBA64947
:103DE00008604FF08E41A448006808F055FC12D2DC
:103DF000A14801689E4808F08BFC834608F074F9DE
:103E000007464FF06632994B07F042FC054607F033
:103E100051FB994908609448016891480068FFF790
:103E2000F8FC944801688C480068FFF7B4FB92489E
:103E3000016886480068FFF797FABDE8FF9F2DE903
:103E4000F04704460D468D4801684FF07E5008F05B
:103E50005FFC0746894801684FF07E5008F058FC27
:103E6000804687480168204608F052FC814641465A
:103E700008F046FB0646394608F042FB81490860D7
:103E8000814801687F48006808F03AFB06467F4891
:103E90000168304608F054F97C49086078480168A8
:103EA000204608F035FC8146744801684FF07E508A
:103EB00008F02EFC82464FF0804108F021FB80463E
:103EC000494608F01DFB074670480168384608F06F
:103ED00037F90646294608F033F96D4908606A4803
:103EE00001686B48006808F00BFB064664480168EF
:103EF000304608F025F962490860BDE8F0872DE9F1
:103F0000F84F6448C0886449088062480089634962
:103F1000088060484089624908805E4890F84800FF
:103F2000A8B95C49B1F9000008F08AFA5949486219
:103F3000B1F9020008F084FA56498862B1F9040028
:103F400008F07EFA5349C862012081F848005149BF
:103F5000B1F9000008F074FA05464E48416A284657
:103F600008F0D6FB044608F04FFA00B24D4908802D
:103F70004849B1F9020008F063FA05464548816AEC
:103F8000284608F0C5FB044608F03EFA00B2464950
:103F900008804049B1F9040008F052FA05463D484E
:103FA000C16A284608F0B4FB044608F02DFA00B2B6
:103FB0003E4908803848B0F9000007F01EFD06466B
:103FC0003B4A3C4B07F064FB044607F073FA3A495E
:103FD00008603248B0F9000007F00FFD0646344A89
:103FE000344B07F055FB044607F064FA3349086088
:103FF0002B48B0F9000007F000FD06462C4A2D4B77
:1040000007F046FB044607F055FA2D4908600846BC
:1040100001682948006808F001F9009008F064F888
:10402000804606F0ABFA82460022054B07F04CFDB5
:104030000646244A244B07F02BFB044646E00000CA
:10404000008066401F85EB51B81E0940A800002083
:1040500000F8FF467C000020A40000208000002023
:10406000A000002084000020880000206666304008
:1040700000FF7F478C0000209000002000010020FE
:104080001401002004010020100100200C01002078
:1040900008010020AC030020180100201A010020B4
:1040A0001C0100201E010020200100202201002010
:1040B000FCA9F1D24D6230403C01002040010020BB
:1040C0004401002038E92F54FB21094007F0F2F9A0
:1040D000FE490860FE480168FE48006808F09EF846
:1040E000009008F001F8824606F048FA8046002267
:1040F000F94B07F0E9FC0646F84AF94B07F0C8FA15
:10410000044607F0D7F9F7490860F2480168F64815
:10411000006808F083F8009007F0E6FF824606F09A
:104120002DFA80460022EC4B07F0CEFC0646EB4A07
:10413000EB4B07F0ADFA044607F0BCF9EB49086019
:10414000EB48B0F9000007F058FC06460022E94BA6
:1041500007F09EFA044607F0ADF9E7490860E74822
:10416000B0F9000007F049FC06460022E14B07F0D9
:104170008FFA044607F09EF9E1490860E148B0F97A
:10418000000007F03AFC06460022DA4B07F080FAFE
:10419000044607F08FF9DC4908600846006808F01B
:1041A00033F9061E01DB314600E07142084607F094
:1041B00024FC0446D54AD64B07F04AFC02D2002024
:1041C000D149086004F034F8D24908600021CA4897
:1041D000006808F09DFA0646CF4908F091F90546B7
:1041E000CE4908F01BF80446CD480168204607F088
:1041F000A7FFCB4908600021C148006808F088FA91
:104200000646C54908F07CF90546C44908F006F899
:104210000446C4480168204607F092FFC14908607F
:10422000BC490968C04A1268881A08F021F9074693
:104230000021B548006808F06BFA8046394608F05E
:104240005FF906464FF0804108F05AF90546B34938
:1042500007F0E4FF0446B5480168204607F070FF08
:10426000B24908600021B148006808F015F903D28E
:10427000AF48AE49086008E0AE49AC48006808F0B5
:104280000BFA02D20020A9490860A8480068AA4990
:10429000C864A0480068A4490860BDE8F88F0FB55D
:1042A00097B0179807F020FFA44AA54BCDE90C0161
:1042B00007F030FECDE90E0107F0FCF817901898D2
:1042C00007F012FF9F4AA04BCDE90C0107F022FE38
:1042D000CDE90E0107F0EEF81890199807F004FFE9
:1042E0009A4A9B4BCDE90C0107F014FECDE90E0173
:1042F00007F0E0F819901D99084608F001F90A90B6
:104300001C99084608F0FCF808901A99084608F02D
:10431000F7F80790089907F013FF09900A9907F03A
:104320000FFF0B9007F0E0FECDE90C0107F070F8ED
:10433000CDE90E0107F0BEF8169016991A9807F00D
:104340006DFF1A9016991C9807F068FF1C9016993B
:104350001D9807F063FF1D907E4801687E48006845
:1043600008F0CEF80E907D4801687D48006808F09E
:10437000C7F80D900E9908F0CBF94FF080410F90DF
:1043800008F0BEF81590754801687248006808F09A
:10439000B7F80E90724801686F48006808F0B0F8EE
:1043A0000D900E9907F0CCFE4FF080410F9008F071
:1043B000A7F8149069480168006808F0A1F80F9008
:1043C00064480168006808F09BF80D906448016833
:1043D000006808F095F80B905F480168006808F0E5
:1043E0008FF80A900B9908F093F90C900D9908F04A
:1043F0008FF90E900F9907F0A3FE139014991D9852
:1044000008F07EF80F9013991C9808F079F80E9038
:104410000F9908F07DF9129013991A9808F070F826
:104420000F9015991D9808F06BF80E900F9908F0F1
:104430006FF9119015991C9808F062F80F90149973
:104440001A9808F05DF80E900F9908F061F9109035
:104450004449129808F054F80F90434801680F98A7
:1044600007F06EFE404908603E49119808F048F890
:104470000F903E4801680F9807F062FE3B490860C4
:104480003849109808F03CF80F90394801680F98A7
:1044900007F056FE364908604FF08040129908F048
:1044A0002FF80E90179907F04BFE0F902E480168D9
:1044B0000F9807F045FE17904FF08040119908F0D3
:1044C0001FF80E90189907F03BFE53E054010020AE
:1044D00044010020400100200080664038E92F544C
:1044E000FB210940580100203C0100205C01002014
:1044F0001E01002000C02C403001002020010020BF
:104500003401002022010020380100209A99999955
:104510009999B93F900100200000A04100007A4421
:10452000480100204C01002094010020500100208F
:104530000080B3430000B443AC030020EE7C3F3561
:104540005EFA05C05396218E7571E7BF64CDC82011
:104550007771074068010020600100206C01002095
:10456000640100206F12833A700100207401002062
:10457000780100200F90A74801680F9807F0E0FD30
:1045800018904FF08040109907F0BAFF0E901999DB
:1045900007F0D6FD0F90A04801680F9807F0D0FDF6
:1045A00019909E481999006807F0AAFF0D909C4841
:1045B0001899006807F0A4FF0B909A48006880F0F3
:1045C00000400990179907F09BFF0A900B9908F09B
:1045D0009FF80C900D9908F09BF893490E9007F006
:1045E0008FFF0F90914801680F9807F0A9FD8F4940
:1045F00008608A481899006807F082FF0D90884883
:104600001999006807F07CFF0B908848016817989B
:1046100007F076FF0A900B9907F092FD0C900D9928
:1046200008F076F880490E9007F06AFF0F907D48F9
:1046300001680F9807F084FD7A490860774801689F
:10464000179807F05DFF0D9076481999006807F0FC
:1046500057FF0B9075481899006807F051FF0A90B2
:104660000B9908F055F80C900D9907F069FD6E490B
:104670000E9007F045FF0F90694801680F9807F00A
:104680005FFD6749086008460168179807F038FF22
:104690000D9064481899006807F032FF0B9063484A
:1046A0001999006807F02CFF0A900B9907F048FD54
:1046B0000C900D9908F02CF85B490E9007F020FF44
:1046C0000F90564801680F9807F03AFD534908606B
:1046D00008460168006807F013FF0A905048016817
:1046E000006807F00DFF08904E480168006807F069
:1046F00007FF06904D480168006807F001FF05902C
:10470000069907F01DFD0790089907F019FD09901B
:104710000A9907F015FD0B9007F0E6FCCDE90C01B6
:1047200006F076FECDE90E0106F0C4FE16903F4875
:104730001699006807F072FD3C49086039481699DF
:10474000006807F06BFD3749086035481699006826
:1047500007F064FD3249086030481699006807F098
:104760005DFD2E49086008460168006807F0C8FE34
:1047700006902B480168006807F0C2FE04902948A3
:104780000168006807F0BCFE0290284801680068D4
:1047900007F0B6FE0190029907F0D2FC039004994D
:1047A00007F0B6FF0590069907F0B2FF079007F0F3
:1047B0009BFCCDE90A01194801681C48006807F014
:1047C0009FFE0590164801681648006807F098FE9D
:1047D0000490059907F0B4FC4FF08041069007F073
:1047E0008FFE079007F080FCCDE90801DDE90A2380
:1047F00005F0D4FF4FF066320D4BCDE90C0107F008
:1048000063F9CDE90E0106F055FE0A4908601BB0B8
:1048100000BD000074010020780100206C01002020
:1048200068010020640100206F12833A60010020BB
:1048300066A64C407C0100200020FE4948600860CC
:10484000704710B503460C46FA48406823281DDA25
:10485000F8480068F7494968884201D1FFF7ECFF42
:10486000F4484168083040F82130083841689430F5
:1048700040F821409438416800F5907040F82120BC
:10488000EC484068401CEB4948601CE0E94840683F
:10489000232818D10020E7494860084641680830BD
:1048A00040F8213008384168943040F8214094386D
:1048B000416800F5907040F82120DE484068401CB7
:1048C000DC49486010BD00BFFCE7DA4800682328D7
:1048D00002D10020D7490860D64801684068401CD2
:1048E000814201D100207047D24801680068401C15
:1048F000D04A106002F1080010F82100F3E710B56B
:104900000024CC48047808E0CA48083050F8241045
:10491000C9A003F06DFE601CC4B2C6484068A04246
:10492000F2DC10BDC3480068C2494968884201D121
:10493000012070470020FCE72DE9F04105460C46B8
:104940005A2C02DDA4F10A0084B2BC48007820B1E0
:10495000012810D0022875D19AE0B948C06CB94935
:10496000086000232A4619461846FCF764FC01201B
:10497000B249087093E0002D44DDB149C86CB149DB
:10498000096807F089FE1DD2204607F071FD074631
:10499000AB48C16CAC4807F0BBFE8046A948016833
:1049A000404607F0CDFB0646394607F075FE09D2B2
:1049B00000231A4619461846FCF73DFC02209F4981
:1049C000087064E09E49C86C9E49096807F064FD60
:1049D0005DD2204607F04CFD06469948C16C9948C7
:1049E000006807F095FE0746314607F055FE4ED2A7
:1049F00000231A4619461846FCF71DFC02208F4971
:104A0000087044E08E49C86C8E49096807F044FE7E
:104A100019D2204607F02CFD06468949C86C894901
:104A2000096807F075FE0746314607F035FE0AD2E1
:104A300000231A4619461846FCF7FDFB02207F4961
:104A4000087024E02AE07E49C86C7E49096807F0B6
:104A500023FD1CD2204607F00BFD07467849C86CA1
:104A6000794907F06DFB804676480168404607F0BB
:104A70004FFE0646394607F00FFE08D200231A46BD
:104A800019461846FCF7D7FB02206C49087006E06F
:104A900000206E4908706949087000E000BF00BF3F
:104AA000BDE8F0812DE9FC5F04468946684800783E
:104AB00020B1012820D002287ED191E200231A469D
:104AC00021B21846FCF7B7FB5D48C06C614908602D
:104AD00003F0AEFB604908606048406860490860C8
:104AE0006048406860490860604840686049086004
:104AF0000120574908707AE2002C7DDD5049C86CCE
:104B00005449096807F0C8FD77D24D49C86C51492E
:104B1000096807F0FDFD0546564907F0BDFD6DD259
:104B20004748C16C484807F0F3FD0546494801680D
:104B3000284607F005FB504908600846006807F062
:104B4000D3FA4E4A4E4BCDE9000106F0BDFF0546B3
:104B50000E464449486806F050FF07462A46334649
:104B600007F0D8F9824606F0EBFE3E4948603E4821
:104B7000006806F042FF8246404A424B06F0A4FF1E
:104B8000074688463749486806F037FF05463A46E3
:104B9000434606F05DFF0DD23348006806F02DFF56
:104BA0000746364A374B06F08FFF054606F0C8FE2B
:104BB0002C494860304800E018E2006807F094FA99
:104BC00005462E4A2E4B06F07FFF074688462749AA
:104BD000486806F012FF82463A46434606F09CFCBF
:104BE000CDE9000106F0ACFE20494860204800688D
:104BF00006F003FF824602E04FE0D4E04EE04FF0C3
:104C00003332214B06F060FF05460E4617494868CF
:104C100006F0F3FE07462A46334607F053F83CD227
:104C20001348006806F0E9FE07464FF03332164B92
:104C30002CE000000C04002025640A009B010020E9
:104C4000AC0300209C0100200000B4439801002028
:104C5000A0010020A4010020BC01002020020020AF
:104C6000B001002034020020AC01002048020020E6
:104C7000B401002000004843A80100209A999999A6
:104C80009999B93F9999E93F3333F33F06F01CFFF7
:104C9000054606F055FEF74948608BE1F649C86CB9
:104CA000F649096807F034FDF549086008460068D0
:104CB00007F01AFA8246F34AF34B06F005FF054661
:104CC0000E46F249486806F098FE07462A463346E3
:104CD00006F022FCCDE9000106F032FEEB49486007
:104CE000EB48006806F089FE05464FF03332E94B89
:104CF00006F0EAFE07468846E449486806F07DFE6D
:104D000082463A46434606F0DDFF0ED2E048006890
:104D100006F073FE07464FF03332DE4B06F0D4FE4A
:104D2000054606F00DFED9494860D548006807F0F1
:104D3000DBF98246D34AD44B06F0C6FE05460E4642
:104D4000CC49486806F059FE07462A46334607F024
:104D5000E1F8CDE9000106F0F3FDC6494860CE4810
:104D6000006806F04AFE0546C64ACC4B06F0ACFE8B
:104D700082468B46BF49486806F03FFE07465246CA
:104D80005B4606F065FE88D2C348006806F035FE33
:104D90000746BC4AC14B06F097FE054606F0D0FD1B
:104DA000B449486006E1B449C86CB449096807F0E1
:104DB00073FBF7D2B049C86CB049096807F0A8FC8A
:104DC0000546B74907F068FB70D2AC480168B548A2
:104DD00007F09EFC0546A848C16C284607F0B0F9CC
:104DE000A7490860AA48006806F007FE07464FF08A
:104DF0003332A84B06F068FE05460E46A3494868C4
:104E000006F0FBFD82462A46334606F05BFF0ED2D3
:104E10009F48006806F0F1FD07464FF033329D4B86
:104E200006F052FE054606F08BFD9849486094480E
:104E3000006807F059F90546924A934B06F044FE84
:104E400082468B468B49486806F0D7FD0746524696
:104E50005B4607F05FF8CDE9000106F071FD85497A
:104E600048608D48006806F0C8FD8246854A8B4B35
:104E700006F02AFE074688467E49486806F0BDFDD2
:104E800005463A46434606F0E3FD8BD28248006869
:104E900006F0B3FD07467B4A804B06F015FE05463B
:104EA00006F04EFD7349486084E0FFE77248C16C2C
:104EB0007248006807F02CFC7149086008460068D9
:104EC00007F012F982466F4A6F4B06F0FDFD05466A
:104ED0000E466E49486806F090FD07462A4633465E
:104EE00007F018F8CDE9000106F02AFD674948608F
:104EF0006748006806F081FD8246624A674B06F00B
:104F0000E3FD05460E466149486806F076FD074612
:104F10002A46334606F09CFD0DD25D48006806F037
:104F20006CFD0746574A5D4B06F0CEFD054606F080
:104F300007FD564948605248006807F0D5F8054615
:104F4000504A514B06F0C0FD07468846494948681B
:104F500006F053FD82463A46434606F0DDFACDE9B7
:104F6000000106F0EDFC434948604B48006806F03C
:104F700044FD05464FF03332464B06F0A5FD07468B
:104F800088463C49486806F038FD82463A46434622
:104F900006F098FE0ED24048006806F02EFD074647
:104FA0004FF033323B4B06F08FFD054606F0C8FC50
:104FB0003049486003F03CF93B4908600846006806
:104FC0003A490968401AB9EB400F08D200231A4643
:104FD00019461846FCF72FF902203549087006E0FB
:104FE0000020344908703249087000E000BF00BF5B
:104FF000BDE8FC9F10B5204890F8480000B910BDEE
:105000002C48007898B92C480078401C2A49087030
:1050100008460078642809DDFFF757FC2749087027
:10502000012024490870002023490870E7E723483D
:105030000078062879D2DFE800F0030B1B475F7782
:1050400000201C49087002211D4802F0B5FC6DE0EB
:105050001C4A1268521E1B4B943353F82210194AF3
:105060001268521E8C3353F82200FFF71BFD5DE0DF
:105070005CE0000048020020AC030020A4010020F6
:10508000A80100209A9999999999B93F3402002072
:10509000AC0100203333F33FB40100209999E93F7C
:1050A000000048C30000B443B8010020BC01002048
:1050B000A0010020980100209A0100209901002001
:1050C000E58200080C040020724A1268521E724BDE
:1050D00053F82240002C01DB224600E0624252429B
:1050E00050B26C4A1268521E6B4B8C3B33F8222034
:1050F00091B2FFF721FC19E0664A1268521E664B16
:1051000053F82240002C01DB224600E0624250B2FC
:10511000604A1268521E604B8C3B33F8222091B2D9
:10512000FFF70AFC02E000E000E000BF00BF00BFA4
:1051300065E770B504460D461646584802F063FF11
:10514000022805D1FFF778FB0121544802F034FC16
:10515000324629462046FFF774FB70BD2DE9FF5FFC
:105160004F48007830B101281ED0022826D00328ED
:1051700074D18AE04B480078401C4A4908700846C0
:105180000078C8280FDD4849D1E90C01474A03C21D
:105190004549D1E90A01464A03C201204049087045
:1051A00000204049087072E0C82240F6B831012062
:1051B000FFF7BFFF02203A49087068E0374802F065
:1051C00022FF022860D13B48007800285CD1354896
:1051D0000078401C3349087008460078C82853DD21
:1051E0003148D0E90A6132480CC8304606F092FED8
:1051F00004460D462C48D0E90C612C480CC83046BA
:1052000006F088FE804622462B4606F041FACDE99C
:10521000000105F0B3F982460022274B06F054FC4A
:10522000264A274BCDE9020106F032FA254A03C28D
:1052300000221346234903C906F044FD0FD2214939
:1052400003C906F07DFB041E01DB204600E060423E
:10525000014664220420FFF76CFF0FE016E01948B6
:105260000CC80020144906F057F9054606F068FB03
:105270000446642221460420FFF75BFF032008490F
:10528000087000200749087001E000E000BF00BF7F
:10529000BDE8FF9F0C0400202C050020E5820008DB
:1052A000D8010020D901002040030020C8010020BF
:1052B000C00100209801002000806640F1D4C8534E
:1052C000FB210940D001002010B54FF4A06000F090
:1052D00079FA10BD00BF7047704770B505460C469F
:1052E0000021F84802F063FAC82C01D9002070BDF3
:1052F00022462946F44803F0B7FA2146F14802F065
:105300006BFA0121EF4802F052FA0120EFE700B5F5
:105310008BB00121084600F0D2FDEA48143802F0B3
:1053200079F9E84802F076F9E8480090E8480190F9
:1053300000200290C8200390002004908020059057
:1053400000200690079008904FF4405009900020EC
:105350000A906946DB48143802F0FEF90121D94869
:10536000143802F024FAD9480090D7480190102050
:1053700002900920039000200490802005900020D6
:105380000690079008904FF48050099000200A90F2
:105390006946CC4802F0E0F901224021CB48001FC9
:1053A00000F0FEFE01228021C848001F00F0F8FE38
:1053B0000BB000BD08B510208DF8000000208DF85E
:1053C000010001208DF802008DF80300684600F00E
:1053D000FEF926208DF8000000208DF80100022043
:1053E0008DF8020001208DF80300684600F0EFF907
:1053F00008BD10B586B004460121480400F079FDCF
:105400000121052000F068FD0420ADF814001820EB
:105410008DF8170003208DF8160005A9AD4800F09F
:105420009FFA0820ADF8140004208DF8170005A994
:10543000A84800F095FA01940020ADF80800ADF8F6
:105440000A00ADF80C00ADF810000C20ADF80E000D
:1054500001A99E48001F00F0E6FDFFF7ABFFFFF734
:1054600056FF012240F224419848001F00F073FECD
:1054700001219648001F00F062FE40219348001F62
:1054800000F045FF06B010BD70B502F044FE40F2DA
:1054900024418E48001F00F043FF10B38B48001FCB
:1054A0000088C4B289480088C4B2002185481438F5
:1054B00002F07DF98348143802F090F905462A4637
:1054C0008349854803F0D0F9FCF78AFBC8217D4861
:1054D000143802F081F901217A48143802F067F992
:1054E00000BF02F027FE70BD10B502F014FE4FF4AD
:1054F000001002F077F918B14FF4001002F0A5F98E
:1055000002F018FE10BD70B505460C4600216D482E
:10551000643802F04CF9C82C01D9002070BD224635
:1055200029466E4803F0A0F921466648643802F027
:1055300053F901216348643802F039F90120EDE79D
:1055400000B58BB00121084600F0B9FC5D48643815
:1055500002F060F85B48503802F05CF86048009058
:105560006048019000200290C82003900020049021
:105570008020059000200690079008904FF440503E
:10558000099000200A9069464E48503802F0E4F82D
:1055900001214C48503802F00AF9514800904F4818
:1055A0000190102002900920039000200490802098
:1055B000059000200690079008904FF480500990C5
:1055C00000200A9069463F48643802F0C5F801227D
:1055D00040214348001F00F0E3FD012280214048A4
:1055E000001F00F0DDFD0BB000BD08B50D208DF8EB
:1055F000000000208DF8010001208DF802008DF8D8
:105600000300684600F0E3F827208DF80000002032
:105610008DF8010002208DF8020001208DF80300B2
:10562000684600F0D4F808BD10B586B004460121E4
:10563000880400F05EFC0121092000F04DFC4FF4CD
:105640008060ADF8140018208DF8170003208DF845
:10565000160005A9244800F083F94FF40060ADF866
:10566000140004208DF8170005A91F4800F078F9F0
:1056700001940020ADF80800ADF80A00ADF80C0068
:10568000ADF810000C20ADF80E0001A91448001F61
:1056900000F0C9FCFFF7A9FFFFF752FF012240F21B
:1056A00024410F48001F00F056FD01210C48001F47
:1056B00000F045FD40210A48001F00F028FE06B01A
:1056C00010BD00008000024080060020044400401D
:1056D000B805002000080140AC070020D8080020D1
:1056E0000448004010080020000C014010B502F0F2
:1056F00012FD40F22441204800F012FEA8B11E48DD
:105700000088C4B21C48001D0088C4B200211B4898
:1057100002F04DF8FCF7CDFDC821184802F05CF806
:105720000121164802F043F800BF02F003FD10BD4E
:1057300010B502F0F0FC4FF4007002F053F818B10D
:105740004FF4007002F081F802F0F4FC10BD0FB4C9
:1057500038B505A800903C210948009B049A02F046
:105760002DFF044600200090E1B20548FFF7CBFE74
:1057700038BC5DF814FB00000048004030000240D7
:10578000A00900200948804709480047FEE7FEE7D6
:10579000FEE7FEE7FEE7FEE7FEE7FEE7FEE7FEE7E1
:1057A00004480549054A064B70470000AB03000852
:1057B00031010008481C002048220020481E00201B
:1057C000481E002031490143314A1160704770B5CD
:1057D000002100230F22C47804B32D4C246804F464
:1057E000E064C4F5E064210AC1F10403CA404478CE
:1057F00004FA03F18478144021430901254C06780A
:10580000A155047804F01F050124AC4005786D1102
:10581000AD0005F1E025C5F8004109E0047804F089
:105820001F050124AC401C4D0678761145F8264032
:1058300070BD1A4A0A400243154B1B1F1A6070477D
:1058400039B1134A121D12680243114B1B1D1A6015
:1058500006E00F4A121D126882430D4B1B1D1A6091
:105860007047042808D14FF0E021096941F0040194
:105870004FF0E022116107E04FF0E021096921F0CB
:1058800004014FF0E0221161704700000000FA05AA
:105890000CED00E000E400E080E100E080FFFF1F8D
:1058A00010B50446CC48844208D10121042000F000
:1058B0002DFB0021042000F029FB46E0C74884426C
:1058C00008D10121082000F021FB0021082000F070
:1058D0001DFB3AE0C248844208D10121102000F0AB
:1058E00015FB0021102000F011FB2EE0BD48844282
:1058F00008D10121202000F009FB0021202000F028
:1059000005FB22E0B848844208D10121402000F084
:10591000FDFA0021402000F0F9FA16E0B348844275
:1059200008D10121802000F0F1FA0021802000F050
:10593000EDFA0AE0AE48844207D10121801500F05B
:10594000E5FA0021A01500F0E1FA10BD10B5012123
:10595000084600F0DBFA0021012000F0D7FA10BD64
:105960002DE9F041024600250026002000230024F6
:10597000002791F803C00CF00F0591F803C00CF05C
:10598000100CBCF1000F03D091F802C04CEA0505E1
:1059900091F800C0BCF1000F31D0146800202BE05A
:1059A0004FF0010C0CFA00F3B1F800C00CEA03064A
:1059B0009E4220D183004FF00F0C0CFA03F7BC433A
:1059C00005FA03FC4CEA040491F803C0BCF1280F6B
:1059D00006D14FF0010C0CFA00FCC2F814C00AE02A
:1059E00091F803C0BCF1480F05D14FF0010C0CFA3F
:1059F00000FCC2F810C0401C0828D1D31460B1F8D4
:105A000000C0BCF1FF0F34DD546800202EE000F12F
:105A1000080C4FF0010808FA0CF3B1F800C00CEACA
:105A200003069E4221D183004FF00F0C0CFA03F7BE
:105A3000BC4305FA03FC4CEA040491F803C0BCF132
:105A4000280F05D100F1080C08FA0CF8C2F81480F0
:105A500091F803C0BCF1480F07D100F1080C4FF0DA
:105A6000010808FA0CF8C2F81080401C0828CED3B0
:105A70005460BDE8F0814FF6FF7101800221817012
:105A80000421C17070470246002093680B400BB19F
:105A9000012000E0002070470146886880B270470E
:105AA00002460020D3680B400BB1012000E000202B
:105AB00070470146C86880B2704701617047416114
:105AC00070470AB1016100E041617047C1607047F1
:105AD0004FF480320A438261816182618269826906
