:020000040800F2
:10000000A8220020315E0008B7020008B9020008EB
:10001000BD020008C1020008C5020008000000007F
:10002000000000000000000000000000C9020008FD
:10003000CB020008000000000F8C00089F8600081B
:100040004B5E00084B5E00084B5E00084B5E0008EC
:100050004B5E00084B5E00084B5E00084B5E0008DC
:100060004B5E00084B5E00084B5E00084B5E0008CC
:100070004B5E0008DD5D00084B5E00084B5E00082B
:10008000955B00084B5E00084B5E00084B5E000865
:100090004B5E00084B5E00084B5E00084B5E00089C
:1000A0004B5E00084B5E00084B5E00084B5E00088C
:1000B0004B5E00084B5E00084B5E00084B5E00087C
:1000C0004B5E00084B5E00084B5E00084B5E00086C
:1000D0004B5E00084B5E0008355B0008995D000828
:1000E0004B5E00084B5E00084B5E00084B5E00084C
:1000F0004B5E00084B5E00084B5E00084B5E00083C
:100100004B5E00084B5E00084B5E00084B5E00082B
:100110004B5E00084B5E0008F10900084B5E0008CA
:100120004B5E00084B5E00084B5E00084B5E00080B
:1001300000F002F800F0B0F80AA090E8000C824449
:100140008344AAF10107DA4501D100F0A5F8AFF226
:10015000090EBAE80F0013F0010F18BFFB1A43F0A5
:100160000103184758D2000078D200000A444FF02B
:10017000000C10F8013B13F0070408BF10F8014B06
:100180001D1108BF10F8015B641E05D010F8016B4B
:10019000641E01F8016BF9D113F0080F1EBF10F8AF
:1001A000014BAD1C0C1B09D16D1E58BF01F801CBD2
:1001B000FAD505E014F8016B01F8016B6D1EF9D555
:1001C0009142D6D37047000000230024002500266A
:1001D000103A28BF78C1FBD8520728BF30C148BFAA
:1001E0000B6070476E2909F03C80702909F0BB83D1
:1001F00066290CF0D88665290CF0D58667290CF0A5
:10020000D2866129AFF3008003681B0A28BF41F042
:100210008001692908F0D285642908F0CF85752905
:1002200008F0CC856F2909F04983782909F0878384
:10023000E92909F0E382E42909F0E082F52909F0CF
:10024000DD82EF2909F04683F82909F086830368E7
:10025000DB0928BF41F08001632909F0528273292C
:1002600009F05782E32909F07584F32909F07A84AB
:10027000002070471FB509F0D5FB040000200021C5
:100280000BF0D8FC401C6060002000210BF0BCFC8F
:10029000E0601FBD10B510BD09F01CFD1146FFF751
:1002A000E9FF08F011FC09F043FD03B4FFF7F2FF8A
:1002B00003BC05F065FB704700BFFEE700BFFEE72B
:1002C00000BFFEE700BFFEE7704770470CB5002097
:1002D000019000906C48006840F480306A490860E2
:1002E00000BF6948006800F4003000900198401C8D
:1002F0000190009818B90198B0F5A06FF1D162484B
:10030000006800F4003010B10120009001E00020EE
:1003100000900098012843D15C48006840F010002C
:100320005A4908600846006820F003000860084643
:10033000006840F002000860534840685249486035
:100340000846406848600846406840F4806048605D
:100350000846406820F47C1048600846406840F435
:10036000E81048600846006840F08070086000BFF0
:100370004548006800F000700028F9D04248406805
:1003800020F00300404948600846406840F0020001
:10039000486000BF3C48406800F00C000828F9D1D4
:1003A0000CBD10B5FFF792FF10BD10B536480068C0
:1003B00040F001003449086008464068344908406C
:1003C0003149486008460068324908402E490860B3
:1003D0000846006820F4802008600846406820F441
:1003E000FE0048604FF41F008860FFF7DAFF4FF00F
:1003F00000602949086010BD10B5002100200022CE
:10040000214B5B6803F00C0121B1042906D00829B7
:1004100028D107E0214B224C236027E01F4B204CC2
:10042000236023E0184B5B6803F47010164B5B6885
:1004300003F48032022303EB904022B9194B43436B
:10044000174C23600DE0104B5B6803F4003323B1BD
:10045000144B4343124C236003E0104B4343104CB6
:10046000236003E00D4B0E4C236000BF00BF064B22
:100470005B68C3F303130C4CE15C094B1B68CB4076
:10048000074C236010BD0000001002400020024015
:100490000000FFF8FFFFF6FE08ED00E000127A0012
:1004A0000000002000093D000400002030B589B0A4
:1004B00005460C460121480306F064F8012111208D
:1004C00006F060F84FF47070ADF8200018208DF839
:1004D000230003208DF8220008A9FA4805F096FDB4
:1004E000ADF81850ADF814400020ADF81A00ADF882
:1004F000160005A9F44806F081FB7020ADF8040051
:100500000120ADF806000020ADF80A00ADF80C009F
:1005100001A9ED4806F0AFFB01A9EB4806F0EDFBA1
:1005200001A9E94806F036FC01A9E74806F07DFC80
:100530000121E54806F0CAFE0821E34806F0EAFF7B
:100540000821E14806F0EFFF0821DF4806F0F8FF38
:100550000821DD4806F0FDFF0121DB4806F0AAFF77
:100560000121D94806F0A6FE0021D74807F03AF944
:100570000021D54807F038F90021D34807F036F9B3
:100580000021D14807F034F909B030BD30B589B049
:1005900005460C460121042006F001F8012109203E
:1005A00005F0F0FF4FF47070ADF8200018208DF8C2
:1005B000230003208DF8220008A9C44805F026FD79
:1005C000ADF81850ADF814400020ADF81A00ADF8A1
:1005D000160005A9BE4806F011FB7020ADF8040016
:1005E0000120ADF806000020ADF80A00ADF80C00BF
:1005F00001A9B74806F03FFB01A9B54806F07DFB0D
:1006000001A9B34806F0C6FB01A9B14806F00DFCEC
:100610000121AF4806F05AFE0821AD4806F07AFFE6
:100620000821AB4806F07FFF0821A94806F088FFA3
:100630000821A74806F08DFF0121A54806F03AFFE2
:100640000121A34806F036FE0021A14807F0CAF8B0
:1006500000219F4807F0C8F800219D4807F0C6F820
:1006600000219B4807F0C4F809B030BD00B587B041
:100670000121084605F086FF0121C80205F082FF2E
:100680000121042005F07EFF4FF44070ADF8180002
:1006900048208DF81B0003208DF81A0006A98D480C
:1006A00005F0B4FC012211028A4805F060FD012228
:1006B0005102884805F05BFD44F62060ADF810005B
:1006C0000020ADF80C00ADF81200ADF80E0003A943
:1006D000814806F093FA0A231A4603217E4806F061
:1006E0009CFE684606F0C9FD0820ADF80800694682
:1006F000794806F016FD0121774807F0A1F801229C
:100700001146754806F0F1FD002073492431088038
:100710000121714806F0CEFD07B000BD00B587B0DD
:1007200001216E4805F043FD0121084605F02AFF2E
:100730000121084605F033FF0121042005F022FFC6
:100740000121082005F01EFF0121654805F02FFD5D
:100750004FF40040ADF8180004208DF81B00032072
:100760008DF81A0006A95B4805F050FC0122D10360
:10077000584805F0FCFC0820ADF8180004208DF85E
:100780001B0003208DF81A0006A9504805F03EFC16
:10079000012208214D4805F0EAFC4FF0804006F0A8
:1007A00059F903A94FF0804006F028FA44F620607A
:1007B000ADF810000020ADF80C00ADF81200ADF857
:1007C0000E0003A94FF0804006F018FA00231A46E5
:1007D00003214FF0804006F020FE684606F04DFDF4
:1007E0000620ADF8080069464FF0804006F099FCFD
:1007F0000121880707F024F801221146900706F02E
:1008000074FD00204FF0804188840121880706F0A4
:1008100051FD07B000BD00B587B00121084605F0C5
:10082000B1FE0121022005F0BAFE0121042005F0ED
:10083000A9FEC020ADF8180048208DF81B00032049
:100840008DF81A0006A9234805F0E0FB012240219B
:10085000204805F08CFC012280211E4805F087FC11
:1008600044F62060ADF810000020ADF80C00ADF8A3
:100870001200ADF80E0003A91A4806F0BFF90A23CA
:100880001A460321174806F0C8FD684606F0F5FC35
:100890000820ADF808006946124806F042FC012124
:1008A000104806F0CDFF012211460E4806F01DFD4E
:1008B00000200C492431088001210A4806F0FAFC86
:1008C00007B000BD0010014000340140000C0140A1
:1008D0000008004000080140002C014000023000E8
:1008E000000318000004004000B587B0012108464D
:1008F00005F048FE0121082005F051FE01210420E9
:1009000005F040FE0320ADF8180048208DF81B00CC
:1009100003208DF81A0006A9474805F077FB01224D
:100920001146454805F023FC01220221424805F00A
:100930001EFC44F62060ADF810000020ADF80C005D
:10094000ADF81200ADF80E0003A93C4806F056F9C8
:100950000A231A460321394806F05FFD684606F06F
:100960008CFC0820ADF808006946344806F0D9FB35
:100970000121324806F064FF012211462F4806F09B
:10098000B4FC00202D492431088001212B4806F0B9
:1009900091FC07B000BD7FB505460C460121102033
:1009A00005F0FDFDADF80850ADF804400020ADF8AD
:1009B0000A00ADF8060001A9214806F01FF901223E
:1009C00011461F4806F091FC36208DF800000020EB
:1009D0008DF8010003208DF8020001208DF803003E
:1009E000684605F04AFA0121154806F063FC7FBD10
:1009F00010B50121124806F026FF40B111480068E9
:100A0000401C1049086001210D4806F02DFF10BD63
:100A100010B5FFF72BFEFFF781FEFFF7FCFE1D214F
:100A200040F2AF40FFF7B2FDFFF75EFF1D2140F23D
:100A3000AF40FFF73BFD10BD00080140000C004037
:100A400000100040140000202DE9F0470446002C5F
:100A500008DBB4F5FA7F01DD4FF4FA740120FD499B
:100A6000087008E06442B4F5FA7F01DD4FF4FA74CF
:100A70000020F849087020B2F649C88120460CF0E1
:100A8000B5F88246F4490CF011F981460BF002FFEB
:100A900007460022F14B0BF015F905460BF026FB3B
:100AA000EC494860BDE8F0872DE9F0470446002C8A
:100AB00008DBB4F5FA7F01DD4FF4FA740120E84950
:100AC000087008E06442B4F5FA7F01DD4FF4FA746F
:100AD0000020E349087020B2E149C88120460CF0AB
:100AE00085F88246DC490CF0E1F881460BF0D2FE35
:100AF00007460022D94B0BF0E5F805460BF0F6FA55
:100B0000D7494860BDE8F0872DE9F0470446002C3E
:100B100008DBB4F5FA7F01DD4FF4FA740120D14906
:100B2000087008E06442B4F5FA7F01DD4FF4FA740E
:100B30000020CC49087020B2CA49C88120460CF078
:100B400055F88246C4490CF0B1F881460BF0A2FE7C
:100B500007460022C14B0BF0B5F805460BF0C6FA6C
:100B6000C0494860BDE8F0872DE9F0470446002CF5
:100B700008DBB4F5FA7F01DD4FF4FA740120BA49BD
:100B8000087008E06442B4F5FA7F01DD4FF4FA74AE
:100B90000020B549087020B2B349C88120460CF046
:100BA00025F88246AC490CF081F881460BF072FEC4
:100BB00007460022A94B0BF085F805460BF096FA84
:100BC000A9494860BDE8F08770B504460D465DB19F
:100BD0004FF49661A54806F009FEC4F5966081B20F
:100BE000A24806F005FE0AE0C4F5966081B29F486F
:100BF00006F0FCFD4FF496619C4806F0F9FD70BDCF
:100C000070B504460D465DB14FF49661974806F005
:100C1000E9FDC4F5966081B2944806F0E5FD0AE06E
:100C2000C4F5966081B2914806F0DCFD4FF4966100
:100C30008E4806F0D9FD70BD70B504460D465DB115
:100C40004FF496618A4806F0D1FDC4F5966081B2F2
:100C5000874806F0CDFD0AE0C4F5966081B284486D
:100C600006F0C4FD4FF49661814806F0C1FD70BDE9
:100C700070B504460D465DB14FF496617C4806F0B0
:100C8000B1FDC4F5966081B2794806F0ADFD0AE089
:100C9000C4F5966081B2764806F0A4FD4FF49661E3
:100CA000734806F0A1FD70BD6A48806810F5966F24
:100CB00002DA70486749886066488068B0F5966FC8
:100CC00003DD4FF49660634988606548806810F5DD
:100CD000966F02DA67486249886061488068B0F5BB
:100CE000966F03DD4FF496605D4988605D488068CB
:100CF00010F5966F02DA5F485A4988605948806853
:100D0000B0F5966F03DD4FF49660564988605648FB
:100D1000806810F5966F02DA564853498860524849
:100D20008068B0F5966F03DD4FF496604E49886099
:100D300070472DE9F04705460C46601B0BF056FF47
:100D40004D4908610A46116950680BF0AFFF8046B3
:100D5000494A516910690CF0B1F88146464801686A
:100D600048460BF0A3FF074641460BF0BFFD064681
:100D70004148816930460BF0B9FD3F49886108461A
:100D8000006948610CB9002088613B4988693B498A
:100D90000CF058F803D239483749886108E03649E1
:100DA000886900210BF04EFF02D200203249886191
:100DB000314988690BF0FEFEBDE8F0870146002945
:100DC00001DA002000E0084670472DE9F0470546AB
:100DD0000C46601B0BF00AFF294908610A4611699D
:100DE00050680BF063FF8046254A516910690CF08A
:100DF00065F881462248016848460BF057FF0746D0
:100E000041460BF073FD06461D48816930460BF0E4
:100E10006DFD1B4988610846006948610CB90020D6
:100E200088611749886915490CF00CF803D21348FA
:100E30001349886108E01249886900210BF002FF1C
:100E400002D200200E4988610D4988690BF0B2FE7C
:100E5000BDE8F0876802002037BEEF3D0000E03FAC
:100E60007C02002090020020A40200200008004024
:100E70000034014050FBFFFF200300200000964497
:100E8000040300202DE9F04705460C46601B0BF0DB
:100E9000ADFEFE4908610A46116950680BF006FF75
:100EA0008046FA4A516910690CF008F88146F74803
:100EB000016848460BF0FAFE074641460BF016FD66
:100EC0000646F248816930460BF010FDEF49886113
:100ED0000846006948610CB900208861EB498869BF
:100EE000EB490BF0AFFF03D2E948E849886108E01D
:100EF000E649886900210BF0A5FE02D20020E349F3
:100F00008861E24988690BF055FEBDE8F0872DE95C
:100F1000F04705460C46601B0BF068FEDD49086192
:100F20000A46116950680BF0C1FE8046D94A5169E2
:100F300010690BF0C3FF8146D648016848460BF0A4
:100F4000B5FE074641460BF0D1FC0646D148816903
:100F500030460BF0CBFCCF498861084600694861F8
:100F60000CB900208861CB498869C9490BF06AFF38
:100F700003D2C748C749886108E0C649886900218B
:100F80000BF060FE02D20020C2498861C149886925
:100F90000BF010FEBDE8F08770B50025BE48007C60
:100FA00000F0010058B9BD48C08948BBBC48C089A1
:100FB00030BBBC48C08918BBBB48C08900BB0021FE
:100FC000BA4806F00FFC0021B84806F00DFC0021DD
:100FD000B64806F00BFC0021B44806F009FC0021DD
:100FE000B34806F0FFFB0021B14806F0FDFB0021ED
:100FF000AF4806F0FBFB0021AD4806F0F9FB70BDE1
:10100000AC48B0F90440A54A5168002C01DB2246E7
:1010100000E062421046FFF77AFF0646FFF7CEFE79
:101020009E498860A348B0F900409D4A5168002C51
:1010300001DB224600E062421046FFF723FF06462E
:10104000FFF7BCFE964988609A48B0F90840954A77
:101050005168002C01DB224600E062421046FFF797
:10106000B4FE0646FFF7AAFE8E4988609148B0F9A3
:1010700002400A465168002C01DB224600E0624231
:101080001046FFF756FE0646FFF798FE8649886031
:10109000FFF70AFE814A11789068FFF7E9FD804A60
:1010A00011789068FFF7C8FD7E4A11789068FFF7C5
:1010B000A7FD7D4A11789068FFF786FD00BF9EE787
:1010C0007D48744908607D4848607B486F490860E6
:1010D0007A48486078487A49086078484860764895
:1010E000784908607548486070472DE9F047044624
:1010F0000D46281B0BF07AFD73490860084601680D
:10110000724800680BF0F2FB704908607048016893
:101110006D4800680BF0D2FE80466E48016840467C
:101120000BF0C4FD0646694801686B4800680BF087
:10113000BDFD804664480168684800680BF0B6FD54
:10114000814641460BF0D2FB074631460BF0CEFB01
:10115000634908605C4800685D4908606048006851
:101160000BF028FDBDE8F0872DE9F0410446002191
:1011700020680BF067FD03D2206880F000402060FB
:10118000002160680BF05EFD03D2606880F00040D3
:1011900060600021A0680BF055FD03D2A06880F0CC
:1011A0000040A0600021E0680BF04CFD03D2E06835
:1011B00080F00040E0602069E0612169206A0BF066
:1011C00095FB20620021E0680BF0C0FC13D0E168C1
:1011D000206A0BF037FE02D2E06820620BE0E06884
:1011E00080F000452846216A0BF02CFE03D2E0680F
:1011F00080F000402062A16920690BF05FFE606210
:101200002069A061616AA0680BF050FD0646216A62
:1012100060680BF04BFD0746E16920680BF046FD66
:10122000804639460BF062FB054631460BF05EFB0B
:101230006061BDE8F0812DE9F04F93B004460D46A2
:1012400016469946604204B27042642190FBF1F761
:1012500038460AF0A8FF234A03C20022224B214944
:1012600003C90BF007F8CDE9100148460AF09BFFCF
:10127000CDE908010AF052FC82468B4628460AF066
:1012800092FF074652465B4630E00000E80200202D
:1012900000009644CC020020B80200206802002022
:1012A0007C02002090020020A402002000340140B3
:1012B00000080040D80300200000F0420000404039
:1012C00004030020200300203800002040000020FC
:1012D0004400002034000020300000202C000020BA
:1012E0003C00002060000020007070400AF0C2FF47
:1012F000CDE90C0148460AF056FFCDE9080109F096
:10130000E3FE0746884620460AF04DFF82463A46ED
:1013100043460AF0AFFFCDE90A01DDE90C230AF0EC
:10132000D1FCCDE90E01DDE910230AF0CBFC974A90
:1013300003C20022964B974903C90AF09BFFCDE9EF
:10134000100148460AF02FFFCDE9000109F0BCFE6C
:1013500082468B46904891490AF0E0FB0746524688
:101360005B460AF087FFCDE9040148460AF01BFFFF
:1013700082460AF0D3FB074688468748874909F02A
:10138000A3FE81F000413A464346CDE900010AF050
:1013900071FFCDE90201DDE904230BF091F9CDE9FC
:1013A000080128460AF0FFFECDE90601DDE9082321
:1013B0000AF060FFCDE90C0148460AF0F4FECDE9E1
:1013C00000010AF0ABFB07468846734874490AF0EF
:1013D000A5FB82463A4643460AF04CFFCDE904019C
:1013E00048460AF0E0FECDE9000109F06DFE07462F
:1013F00088466948694909F067FE81F000418246E4
:101400003A4643460AF036FFCDE90201DDE90423FE
:101410000AF058FCCDE9080120460AF0C4FECDE9E7
:101420000601DDE908230AF025FFCDE90A01DDE91F
:101430000C230AF047FCCDE90E01DDE910230AF088
:1014400041FC584A03C20022514B524903C90AF0D9
:1014500011FFCDE9100148460AF0A5FECDE90001D3
:1014600009F032FE82468B464B484D4909F02CFE6E
:10147000074652465B460AF0FDFECDE904014846A8
:101480000AF091FE07460AF049FB82468B46424825
:1014900043490AF043FB81F0004152465B46CDE9E7
:1014A00000010AF0E7FECDE90201DDE904230AF0BC
:1014B00009FCCDE9080128460AF075FECDE90601D0
:1014C000DDE908230AF0D6FECDE90C0148460AF012
:1014D0006AFECDE900010AF021FB82468B462E48C8
:1014E0002F4909F0F1FD074652465B460AF0C2FE5D
:1014F000CDE9040148460AF056FECDE9000109F0A5
:10150000E3FD07468846244825490AF007FB81F099
:10151000004182463A4643460AF0ACFECDE902015C
:10152000DDE904230AF0CEFBCDE9080120460AF0EC
:101530003AFECDE90601DDE908230AF09BFECDE97C
:101540000A01DDE90C230AF0BDFBCDE90E01DDE95E
:1015500010230AF0B7FB144A03C20C4903C90AF06E
:10156000C5FD0746FFF770FA0E4903C90AF0BEFD34
:101570000746FFF799FA0C4903C90AF0B7FD074679
:10158000FFF7C2FA13B0BDE8F08F0000480000205A
:101590000070704060000020A138DB3752C1F03F7E
:1015A00052C1E03F500000205800002070B50025D7
:1015B00000244DF6ED60F7490880F7488078887080
:1015C000F5480079C870F4488088000A0871F2482C
:1015D000807A4871F0488079887100BF06E0EF4852
:1015E000015DE01DEB4A1154601CC4B2EA488079E9
:1015F000A042F4DC002405E0E648005D284405B282
:10160000601CC4B2E4488078801EA042F4DCE2484A
:101610008078801EDF4A1554C5F30721DE488078A4
:10162000401E1154DC488178104604F0ACF970BDBE
:101630002DE9FC5F57E1DA48007820BB1D21D0205E
:1016400001F086FC1F21D02001F082FC2121D02056
:1016500001F07EFC3221A62001F08DFC3421A62071
:1016600001F089FC3621A62001F085FC00211A201A
:1016700001F081FC02211A2001F07DFC04211A20D6
:1016800001F079FC2AE11D21D02001F061FC00B2BB
:1016900000900BF0ABFA01900BF0FCF88246C14AC7
:1016A000C14B0AF0E7FD80468946C049486A0BF005
:1016B000F1F8064642464B460AF004FB04460AF09F
:1016C000CFFABA4948621F21D02001F041FC00B294
:1016D00000900BF08BFA01900BF0DCF88046B14AD9
:1016E000B14B0AF0C7FD04460D46B049886A0BF0BD
:1016F000D1F8064622462B460AF0E4FA82460AF062
:10170000AFFAAA4988622121D02001F021FC00B261
:1017100000900BF06BFA01900BF0BCF80646A14A62
:10172000A14B0AF0A7FD04460D46A049C86A0BF07C
:10173000B1F8804622462B460AF0C4FA82460AF0E7
:101740008FFA9A49C8623221A62001F014FC00B237
:1017500000900BF04BFA01900BF09CF88046914AF8
:10176000914B0AF087FD04460D469049086B0BF03B
:1017700091F8064622462B460AF0A4FA82460AF061
:101780006FFA8A4908633421A62001F0F4FB0FFAAE
:1017900080FB58460BF02AFA82460BF07BF8804615
:1017A000804A814B0AF066FD04460D467F49486B2E
:1017B0000BF070F8064622462B460AF083FACDE974
:1017C00000010AF04DFA794948633621A62001F05C
:1017D000D2FB0FFA80FB58460BF008FA82460BF05A
:1017E00059F880466F4A704B0AF044FD04460D4696
:1017F0006E49886B0BF04EF8064622462B460AF0DF
:1018000061FACDE900010AF02BFA684988630021EA
:101810001A2001F0B0FB00B200900BF0E7F9019044
:101820000BF038F880465F4A5F4B0AF023FD044610
:101830000D465E49C86B0BF02DF8064622462B4636
:101840000AF040FA82460AF00BFA5849C8630221AE
:101850001A2001F090FB0FFA80FB58460BF0C6F9F6
:1018600082460BF017F806464E4A4F4B0AF002FD2F
:1018700004460D464D49086C0BF00CF88046224694
:101880002B460AF01FFACDE900010AF0E9F94749B1
:10189000086404211A2001F06EFB0FFA80FB584601
:1018A0000BF0A4F982460AF0F5FF80463D4A3E4B14
:1018B0000AF0E0FC04460D463C49486C0AF0EAFF99
:1018C000064622462B460AF0FDF9CDE900010AF052
:1018D000C7F936494864052007F03BF830480078DE
:1018E000401C2F4908702E4800786528FFF6A3AEEB
:1018F000BDE8FC9F70B5054600242D480078401CCB
:101900002B490870FFF794FE29480078062875D205
:10191000DFE800F0DB031F5275974DF6ED601D49BF
:101920000880232088700020C870F02008710020F3
:1019300048711A2088711F484088184908801D483E
:10194000808848801B48C08888801A480089C880E1
:10195000BCE01D21D02001F0FBFA00B20F49088144
:101960001F21D02001F0F4FA00B20C494881212156
:10197000D02001F0EDFA00B20849888108460089BC
:101980000A49088005484089488004488089888041
:101990009CE00000A8070020400300204C0300202A
:1019A0006C0000207B14AE47E17A843F0C040020D9
:1019B0006F000020D80300203221A62001F0DBFABE
:1019C00000B2FE49C8813421A62001F0D4FA00B249
:1019D000FA4908823621A62001F0CDFA00B2F74973
:1019E00048820846C089F649C880F448018AF4480C
:1019F0000181F248418AF248418167E065E00021B7
:101A00001A2001F0B8FA00B2EC49888202211A20AB
:101A100001F0B1FA00B2E949C88204211A2001F0AC
:101A2000AAFA00B2E54908830846808AE449888119
:101A3000E248C18AE248C181E048018BE048018266
:101A400044E00020DF4908700DE0DC48DD490978FA
:101A5000415CDC480078C01DDB4A1154D94800784D
:101A6000401CD8490870D8488079D64909788842FE
:101A7000EBDC0020D34908700AE0D348D14909784B
:101A8000405C204404B2CF480078401CCD49087027
:101A9000CD488078801ECB4909788842EDDCCA4861
:101AA0008078801EC84A1454C4F3072110468078F9
:101AB000401E11541DB11046817803F064FF02F0FE
:101AC00029FB0020C149087000E000BF00BF70BDC5
:101AD00010B50022BE48B0F90000BE4B98427DD13F
:101AE000BB488078BC4B9870B948C078B84B1B791C
:101AF00000EB0320B84B9880B54840799872B44801
:101B0000807998711846807909283BD2DFE800F087
:101B10003A050A3A163A223A2E00AD48C079AF4B40
:101B2000188030E0002106E0C81DA94B185CAB4BC3
:101B30005854481CC1B20229F6DB24E0002106E01B
:101B4000C81DA34B185CA54B5854481CC1B20429AE
:101B5000F6DB18E0002106E0C81D9D4B185C9F4B8A
:101B60005854481CC1B20629F6DB0CE0002106E0FF
:101B7000C81D974B185C994B5854481CC1B2082992
:101B8000F6DB00E000BF00BF93488078801E904BDA
:101B90001B5C91488078401E8D4C205C03EB00203C
:101BA00000B28D4B1881002105E08948405C10444B
:101BB00082B2481CC1B288488078801E8842F4DC1A
:101BC0008548B0F90800904204D10120824B18707A
:101BD00010BD03E00020804B1870F9E70020F7E704
:101BE0002DE9F047FFF774FF08B9BDE8F0877A48A0
:101BF0008088092877D007DC76D2DFE800F01E2243
:101C0000277A8B8F90949F00B0F5004F6DD008DC41
:101C10000A286BD00B286AD00C2869D00D2863D114
:101C20004CE16FF400410844002870D001286FD0C7
:101C300002286ED00328F2D1BCE143205F4908801E
:101C400003E240F207105D490880FEE16449B1F902
:101C50000C10642201FB02F00AF0A5FA0646614A64
:101C6000614B0AF0EBF804460AF040FA00B253491F
:101C700008805E49B1F90C10642201FB02F00AF001
:101C800092FA0646574A584B0AF0D8F804460AF02A
:101C90002DFA00B2494948805549B1F90C10642227
:101CA00001FB02F00AF07FFA06464E4A4E4B0AF05C
:101CB000C5F804460AF01AFA00B2404988804D4936
:101CC000B1F90C10642201FB02F00AF06CFA06462E
:101CD000444A454B0AF0B2F804460AF007FA00B24B
:101CE0003649C880B1E1D9E0AEE1FBE0D7E0DBE006
:101CF000DFE03B488089314908803C488089488042
:101D00003B48808988803B488089C8809DE13AE1D2
:101D10004EE14EE138202949088096E195E10B20FB
:101D20002649088091E13448808824490880324857
:101D3000C088488030480089888086E126488079BC
:101D4000062804D00C2818D012287DD161E01D216E
:101D5000D02001F0FDF800B2184908801F21D020E2
:101D600001F0F6F800B2154948802121D02001F099
:101D7000EFF800B2114988808EE01D21D02001F0DB
:101D8000E7F800B20D4908801F21D02001F0E0F8EB
:101D900000B20A4948802121D02001F0D9F800B2D0
:101DA000064988803221A62001F0D2F800B203490A
:101DB000C8803421A62001F0CBF81FE04C0300209E
:101DC0000C0400206E000020A80700206F000020F7
:101DD0000C080020EDDEFFFF400300206A03002016
:101DE00090020020EC3EB61B934F6A40A4020020F4
:101DF000680200207C020020D803002000B2FE49C7
:101E000008813621A62001F0A3F800B2FA494881E2
:101E100042E01D21D02001F09BF800B2F649088075
:101E20001F21D02001F094F800B2F349488021210D
:101E3000D02001F08DF800B2EF4988803221A62031
:101E400001F086F800B200E025E0EB49C8803421BB
:101E5000A62001F07DF800B2E74908813621A620CE
:101E600001F076F800B2E449488100211A2001F01F
:101E700082F800B2E049888102211A2001F07BF843
:101E800000B2DD49C88104211A2001F074F800B2C3
:101E9000D949088200E000BF00BFD6E0D5E0D748AE
:101EA000008AD5490880D0E04FF48070D24908807C
:101EB000CBE0D248807CD0490870C6E04320CE49B0
:101EC000088040F207104880382088800B20C880A6
:101ED0004FF480700881C948807C88720120C8490D
:101EE0004870B2E0C748B0F90000642190FBF1F9F6
:101EF00048460AF058F90746C34AC44B0AF0BAF9F3
:101F000005460AF0F3F80446FEF7FEFDBD48B0F9B9
:101F10000200642190FBF1F948460AF044F90746B3
:101F2000B94ABA4B0AF0A6F905460AF0DFF80446AA
:101F3000FEF71AFEB348B0F90400642190FBF1F9F2
:101F400048460AF030F90746AF4AB04B0AF092F91A
:101F500005460AF0CBF80446FEF776FDA948B0F92D
:101F60000600642190FBF1F948460AF01CF9074687
:101F7000A54AA64B0AF07EF905460AF0B7F80446D2
:101F8000FEF792FD61E09F49B1F90000FEF7BCFD4C
:101F90009C49B1F90200FEF7E7FD9A49B1F9040046
:101FA000FEF752FD9749B1F90600FEF77DFD4CE0C2
:101FB0004BE04AE09348B0F900009249B1F90210B1
:101FC00008439049B1F90410084368B101209049D1
:101FD00008708C4BB3F90420B3F90210B3F9000078
:101FE0000023FFF728F911E08948007870B100203C
:101FF0008849087048708870C87000231A461946CE
:102000001846FFF718F90020814908707D48B0F99B
:1020100006000D2806D00E2808D00F280AD0102858
:1020200010D10BE001207B4908700BE001207949B9
:10203000487007E001207749887003E00120754966
:10204000C87000BF00BF00E0CFE500BF6C48807AD9
:1020500008B1FFF7ABFA00BFC7E570B504460D46FF
:1020600000221346204629460AF0C8F803D285F01C
:102070000041204670BD20462946FBE72DE9F04788
:102080006548D0E90C6165480CC830460AF018FB79
:102090008046FFF7E2FF04460022614B0AF0AEF8EB
:1020A00036D25D49D1E90A615E480CC830460AF073
:1020B00007FB0446FFF7D1FF80460022584B0AF089
:1020C0009DF825D25448584A584BD0E90A61304609
:1020D0000AF0D0F8044656480CC8204609F0F2FD34
:1020E000534A03C24C48504A504BD0E90C61304629
:1020F0000AF0C0F804464F480CC8204609F0E2FD3B
:102100004C4A03C24C480078401C4B4908700CE014
:102110000021474A11605160464A11605160002019
:102120003D4981F838004449087043480078142834
:1021300010DD3F48D0E90010374AC2E910103D4990
:1021400003C9C2E912010120114681F838000020BC
:10215000394908703048D0E90C10304AC2E9001003
:102160002D49D1E90A012F4A03C2BDE8F0872DE9C4
:10217000FF5F9CB032ACF0CC22462B46DDE91C015F
:102180000AF09EFA00224FF08043CDE912010AF0D6
:1021900071F88046894632463B46DDE91E010AF069
:1021A0008FFA00224FF08043CDE912010AF062F865
:1021B00082468B4600224FF08043DDE92A0108F079
:1021C000D1FF00224FF08043CDE91201DDE9360155
:1021D00008F0C8FF00224FF08043CDE90E013046E1
:1021E000394608F0BFFF00224FF08043CDE90A01D5
:1021F000DDE91E0122E000004C030020B8020020AF
:10220000400300206A030020EC3EB61B934F6A4057
:10221000700000206800002088030020800000205B
:1022200000002440780000209A9999999999A93F33
:1022300088000020900000209800002008F092FF05
:1022400000224FF08043CDE906012046294608F0E0
:1022500089FF00224FF08043CDE90201DDE91C0136
:1022600008F080FFCDE90001DDE902230AF028FA39
:10227000CDE90401DDE9062309F024FDCDE90801DB
:10228000DDE90A230AF01CFACDE90C01DDE90E2391
:1022900009F018FDCDE91001DDE912230AF010FA6A
:1022A000CDE91A0122462B46DDE92C010AF008FA95
:1022B00000224FF08043CDE9120109F0DBFFCDE9A8
:1022C000180132463B46DDE92E010AF0F9F90022F9
:1022D0004FF08043CDE9120109F0CCFFCDE91601A2
:1022E00000224FF08043DDE9300108F03BFF00227F
:1022F0004FF08043CDE91201DDE9360108F032FFED
:1023000000224FF08043CDE90E013046394608F0F7
:1023100029FF00224FF08043CDE90A01DDE92E01BB
:1023200008F020FF00224FF08043CDE9060120464F
:10233000294608F017FF00224FF08043CDE9020143
:10234000DDE92C0108F00EFFCDE90001DDE90223F3
:102350000AF0B6F9CDE90401DDE9062309F0B2FC83
:10236000CDE90801DDE90A230AF0AAF9CDE90C015B
:10237000DDE90E2309F0A6FCCDE91001DDE9122309
:102380000AF09EF9CDE9140150465946DDE91823BB
:1023900009F070FFCDE90C0140464946DDE91623FE
:1023A00009F068FFCDE90A01DDE90C230AF088F99C
:1023B000CDE9100150465946DDE9142309F05AFFD2
:1023C000CDE90C01DDE91623DDE91A0109F052FF20
:1023D000CDE90A01DDE90C230AF072F9CDE90E011D
:1023E000DDE9102309F02AFD0022B44BCDE91201EA
:1023F00009F024FDB24AC2E90A0150465946DDE916
:10240000182309F037FFCDE90C0140464946DDE9C4
:10241000162309F02FFFCDE90A01DDE90C230AF0AC
:102420004FF9CDE91001DDE91823DDE91A0109F0C2
:1024300021FFCDE90C0140464946DDE9142309F0AE
:1024400019FFCDE90A01DDE90C230AF039F9CDE9DC
:102450000E01DDE9102309F0F1FC0022974BCDE9D4
:10246000120109F0EBFC964AC2E90C01FFF706FEE7
:1024700020B0BDE8F09F2DE9F0479CB04FF0000A76
:10248000D146002400BF11E18E4810F80A006D28E3
:1024900079D18C490AF10100085C7228F8D10AF15F
:1024A0000200085C2028F3D10AF10300085C302800
:1024B000EED10AF10400085C3728E9D14FF0000999
:1024C00021E07F48006800017D4908600AF10600AC
:1024D00048447C490C5C302C05DB392C03DCA4F12E
:1024E0003000C4B206E0612C04DB662C02DCA4F1EF
:1024F0005700C4B27248006820447149086009F16D
:10250000010000F0FF09B9F1080FDADB4FF0000914
:1025100021E06B4840680001694948600AF10F00FA
:10252000484468490C5C302C05DB392C03DCA4F1F1
:102530003000C4B206E0612C04DB662C02DCA4F19E
:102540005700C4B25E48406820445D49486009F1C4
:10255000010000F0FF09B9F1080FDADB4FF00009C4
:1025600022E0574880680001554988600AF1180048
:10257000484454490C5C302C06DB392C04DCA4F1B3
:102580003000C4B207E08DE0612C04DB662C02DC75
:10259000A4F15700C4B24A48806820444849886082
:1025A00009F1010000F0FF09B9F1080FD9DB4FF084
:1025B000000921E04248C06800014149C8600AF1B1
:1025C000210048443F490C5C302C05DB392C03DCEE
:1025D000A4F13000C4B206E0612C04DB662C02DCFE
:1025E000A4F15700C4B23648C06820443449C860DA
:1025F00009F1010000F0FF09B9F1080FDADB3049F9
:10260000886809F0E7FD05460E462D49486A09F03D
:10261000E1FD074688462A49086A09F0DBFDCDE955
:102620001A012749486809F0D5FDCDE91801244968
:10263000C86909F0CFFDCDE916012149886909F083
:10264000C9FDCDE914011E49086809F0C3FDCDE9B3
:1026500012011B49486909F0BDFDCDE91001184977
:10266000086909F0B7FDCDE90A78CDE90C56CDE946
:102670000E01DDE91A01CDE90801DDE91801CDE916
:102680000601DDE91601CDE90401DDE91401CDE91A
:102690000201DDE91201CDE900010EA80FC8FFF724
:1026A00066FD07E00AF1010000F0FF0ABAF1C80F69
:1026B000FFF6EAAE00BF1CB0BDE8F0870000244082
:1026C000880300207008002010B5E84A128812B272
:1026D000E74B5A811A46116AB2F90A30B2F914204E
:1026E00040F27124624303EB4210421A12B2E04BF3
:1026F0001A8013E0DE4A928A521E12B2DC4B9A8292
:102700001A46B2F90A30B2F9142040F27124624339
:1027100003EB4210421A12B2D54B1A80D44AB2F9D6
:10272000002042F210739A42E4DC13E0D04A928A0D
:10273000521C12B2CE4B9A821A46B2F90A30B2F942
:10274000142040F27124624303EB4210421A12B289
:10275000C74B1A80C64AB2F90020C64B9A42E5DB45
:10276000C34A106210BD10B54FF08042928C12B275
:10277000BF4B9A811A46516AB2F90C30B2F9162051
:1027800040F27124624303EB4210421A12B2B84B7A
:102790005A8013E0B64AD28A521E12B2B44BDA8281
:1027A0001A46B2F90C30B2F9162040F27124624395
:1027B00003EB4210421A12B2AD4B5A80AC4AB2F946
:1027C000022042F210739A42E4DC13E0A84AD28A53
:1027D000521C12B2A64BDA821A46B2F90C30B2F988
:1027E000162040F27124624303EB4210421A12B2E7
:1027F0009F4B5A809E4AB2F902209E4B9A42E5DBDB
:102800009B4A506210BD10B59B4A128812B2984B79
:10281000DA811A46916AB2F90E30B2F9182040F204
:102820007124624303EB4210421A12B2904B9A8019
:1028300013E08F4A128B521E12B28D4B1A831A4626
:10284000B2F90E30B2F9182040F27124624303EB62
:102850004210421A12B2864B9A80854AB2F904207D
:1028600042F210739A42E4DC13E0814A128B521C4C
:1028700012B27F4B1A831A46B2F90E30B2F9182001
:1028800040F27124624303EB4210421A12B2784BB9
:102890009A80774AB2F90420764B9A42E5DB744A73
:1028A000906210BD10B5754A128812B2704B1A8230
:1028B0001A46D16AB2F91030B2F91A2040F27124E6
:1028C000624303EB4210421A12B2694BDA8013E002
:1028D000674A528B521E12B2654B5A831A46B2F99E
:1028E0001030B2F91A2040F27124624303EB421017
:1028F000421A12B25E4BDA805D4AB2F9062042F209
:1029000010739A42E4DC13E0594A528B521C12B203
:10291000574B5A831A46B2F91030B2F91A2040F2D6
:102920007124624303EB4210421A12B2504BDA8018
:102930004F4AB2F906204F4B9A42E5DB4C4AD0622F
:1029400010BD10B54E4A128812B2494B5A821A462F
:10295000116BB2F91230B2F91C2040F271246243BB
:1029600003EB4210421A12B2414B1A8113E0404A63
:10297000928B521E12B23E4B9A831A46B2F9123013
:10298000B2F91C2040F27124624303EB4210421A58
:1029900012B2374B1A81364AB2F9082042F210734C
:1029A0009A42E4DC13E0324A928B521C12B2304B52
:1029B0009A831A46B2F91230B2F91C2040F27124FF
:1029C000624303EB4210421A12B2294B1A81284A81
:1029D000B2F90820274B9A42E5DB254A106310BD67
:1029E00070B5FFF771FEFFF7BEFEFFF70CFFFFF7B4
:1029F000A8FF1F49B1F904000AF0F8F8054621497B
:102A000009F0E2FF04460AF0D5F800B21E498881B9
:102A10001749B1F900000AF0E9F80546194909F02B
:102A2000D3FF04460AF0C6F800B21849888110495D
:102A3000B1F908000AF0DAF80546124909F0C4FFB6
:102A400004460AF0B7F800B2114988810849B1F983
:102A500002000AF0CBF805460A4909F0B5FF044622
:102A60000AF0A8F800B20B49888170BD242C0140FF
:102A7000D8030020F0D8FFFF2404004024080040C1
:102A8000240C004037BEEF3D680200207C0200208D
:102A900090020020A402002008B50121082003F0C4
:102AA00071FD2020ADF8000003208DF802001420F5
:102AB0008DF803006946FE4803F0A8FA0121FD489D
:102AC00003F075FB1020ADF8000003208DF8020024
:102AD00014208DF803006946F54803F097FA08BD05
:102AE000002100BF48E000BF00BF00BF00BF00BF23
:102AF00000BF00BF00BF00BF00BF00BF00BF00BFDE
:102B000000BF00BF00BF00BF00BF00BF00BF00BFCD
:102B100000BF00BF00BF00BF00BF00BF00BF00BFBD
:102B200000BF00BF00BF00BF00BF00BF00BF00BFAD
:102B300000BF00BF00BF00BF00BF00BF00BF00BF9D
:102B400000BF00BF00BF00BF00BF00BF00BF00BF8D
:102B500000BF00BF00BF00BF00BF00BF00BF00BF7D
:102B600000BF00BF00BF00BF00BF00BF00BF00BF6D
:102B700000BF00BF00BF491C8142B4D3704700B5FD
:102B80002020CB4910310860102008600220FFF798
:102B9000A7FFC7480830006808B9012000E00020FE
:102BA00000F0200008B1002000BD2020C0491431F1
:102BB00008600220FFF794FFBD480830006800F06D
:102BC000200008B10020EFE72020B9491431086047
:102BD0000220FFF785FF0120E6E700B51020B44989
:102BE000143108600220FFF77BFF2020B049143128
:102BF00008600220FFF774FF1020AD491031086013
:102C00000220FFF76DFF2020A94910310860022043
:102C1000FFF766FF00BD00B51020A549143108601C
:102C20000220FFF75DFF2020A14914310860022037
:102C3000FFF756FF10209E49103108600220FFF771
:102C40004FFF10209A49143108600220FFF748FF17
:102C500000BD00B510209649143108600220FFF72E
:102C60003FFF20209249103108600220FFF738FF13
:102C700010208F49103108600220FFF731FF10202B
:102C80008B49143108600220FFF72AFF00BD00B510
:102C900010208749143108600220FFF721FF20200F
:102CA0008349103108600220FFF71AFF1020804985
:102CB000103108600220FFF713FF7D4808300068DC
:102CC00000F0200040B11020794914310860022042
:102CD000FFF706FF002000BD102075491431086081
:102CE0000220FFF7FDFE0120F5E710B5034608249A
:102CF0001EE010206E49143108600220FFF7F0FE3C
:102D000003F0800020B1202069491031086003E001
:102D100020206749143108605806030E0220FFF78F
:102D2000DFFE10206249103108600220FFF7D8FE54
:102D30002000A4F10101CCB2DBD110205C49143198
:102D4000086010BD10B50824002320205849103118
:102D5000086017E05806030E10205549143108602A
:102D60000220FFF7BDFE10205149103108600220FB
:102D7000FFF7B6FE4E480830006800F0200008B1AA
:102D800043F001032000A4F10101CCB2E2D11020F4
:102D9000474914310860184610BD70B506460C4608
:102DA0001546FFF7ECFE08B9002070BD3046FFF76E
:102DB0009CFFFFF76CFF18B9FFF70FFF0020F4E747
:102DC0002046FFF792FFFFF762FF2846FFF78DFFCF
:102DD000FFF75DFFFFF701FF0120E6E770B504464E
:102DE0000D46FFF7CCFE08B9002070BD2046FFF766
:102DF0007CFFFFF74CFF18B9FFF7EFFE0020F4E768
:102E00002846FFF772FFFFF742FFFFF7B8FE611C8D
:102E1000C8B2FFF76AFFFFF73AFFFFF793FF0646D6
:102E2000FFF717FFFFF7D9FE3046DEE7FCB5054692
:102E30000E461746FFF7A3FEA620FFF756FFFFF743
:102E400026FF3220FFF751FFFFF721FFFFF797FE24
:102E5000A720FFF74AFFFFF71AFF002410E0052C18
:102E600006D1FFF76FFF0DF80400FFF7F2FE05E053
:102E7000FFF768FF0DF80400FFF7CDFE601CC4B239
:102E8000062CECDBFFF7A9FE9DF800009DF8011071
:102E900000EB012000B228809DF802009DF803108D
:102EA00000EB012000B230809DF8040004E0000037
:102EB000000C0140000230009DF8051000EB0120DD
:102EC00000B23880FCBD10B5FFF7E6FD01220B21F2
:102ED0001A20FFF762FF402220211A20FFF75DFF32
:102EE000012221211A20FFF758FF0D2209211A2063
:102EF000FFF753FF0B223121A620FFF74EFF1A22C6
:102F00002C21A620FFF749FF08222D21A620FFF73C
:102F100044FF80222E21A620FFF73FFF80223E2182
:102F2000D020FFF73AFF07221521D020FFF735FF09
:102F30001E221621D020FFF730FF00221721D020BB
:102F4000FFF72BFF00223E21D020FFF726FF10BD08
:102F50002DE9F04105460C4621462846FFF73EFF85
:102F60000646601CC1B22846FFF738FF074607EB4C
:102F70000620BDE8F0812DE9F04105460C462146CA
:102F80002846FFF72BFF0746601CC1B22846FFF713
:102F900025FF064607EB0620BDE8F08100B587B0A7
:102FA00001214FF4047003F0EDFA4FF4004003F0F8
:102FB0004DFA0420ADF8040000208DF8070001A9A7
:102FC000494803F023F8494804F052FC00200290DD
:102FD0008DF80C008DF80D004FF460200490002057
:102FE000059001208DF8180002A9404804F067FC04
:102FF00001213E4804F08FFC3C4804F0AEFC00BFC9
:103000003A4804F0AFFC0028FAD1384804F0B4FC88
:1030100000BF364804F0B5FC0028FAD107B000BD67
:1030200010B50446072301222146304804F0DFFC96
:1030300001212E4804F0AFFC00BF02212B4804F010
:103040001BFE0028F9D0294804F038FD10BD2DE9F9
:10305000F04107460C460025002608E03846FFF7F9
:10306000DFFF0544052005F074FC701CC6B2A642C3
:10307000F4DBB5FBF4F080B2BDE8F0812DE9F04758
:103080000C20FFF7CDFF1A49096808441849086069
:1030900018480078401C1749087008460078052831
:1030A0001FD1134800680521B0FBF1F010490860FA
:1030B0000846006809F08EF806464FF066320E4B5F
:1030C00009F0D8F8044600220C4B08F0B7FE804601
:1030D00009F03CF80A498874002005490860054950
:1030E0000870BDE8F0870000001001400024014096
:1030F0009C000020A000002066660A400000B0404E
:10310000B80200200020F6490882704770B50025FB
:1031100000244DF6ED60F34908800B2088700A20EA
:10312000C8700020087148710220887100BF06E055
:10313000ED48015DE01DEB4A1154601CC4B2022C45
:10314000F6DB002405E0E748005D284405B2601C7A
:10315000C4B2E4488078801EA042F4DCE148807864
:10316000801EE04A1554C5F3072110468078401EA2
:1031700011541046817802F006FC70BD10B5DB4892
:103180000078401CD9490870D948007828B100203F
:10319000D8490870D649087010E0D648007802284F
:1031A00007DDCF48007C20F00100401CCC490874AA
:1031B00004E0D0480078401CCE490870CE48B0F9F1
:1031C0000E00CD49B1F90C10401A142809DCCA4888
:1031D000B0F90E00C849B1F90C10401A10F1140FE3
:1031E00005DAC6480078401CC449087011E0C3489D
:1031F000007832280ADDBA48007C20F00200801CEA
:10320000B74908740020BD49087002E00020BB499E
:103210000870BB48B0F90E00B949B1F90C10401A5A
:10322000142809DCB648B0F90E00B549B1F90C1004
:10323000401A10F1140F05DAB2480078401CB14969
:10324000087011E0AF48007832280ADDA448007CFD
:1032500020F00400001DA24908740020A94908704C
:1032600002E00020A7490870A748B0F90E00A6495F
:10327000B1F90C10401A142809DCA348B0F90E006B
:10328000A149B1F90C10401A10F1140F05DA9F484A
:103290000078401C9D49087011E09C480078322855
:1032A0000ADD8F48007C20F0080008308C49087443
:1032B00000209649087002E0002094490870944864
:1032C000B0F90E009249B1F90C10401A142809DC2B
:1032D0008F48B0F90E008E49B1F90C10401A10F168
:1032E000140F05DA8B480078401C8A49087011E0F9
:1032F0008848007832280ADD7948007C20F01000E8
:1033000010307749087400208249087002E00020DC
:10331000804908708048B0F900007F49B1F9121067
:10332000884213D17C48B0F90210B0F914008142F0
:103330000CD17948B0F90410B0F91600814205D1DA
:1033400076480078401C7549087011E07348007891
:1033500032280ADD6248007C20F0200020306049DD
:10336000087400206D49087002E000206B49087065
:1033700000206B4908700EE067486949097830F809
:1033800011101230664A127820F812106448007842
:10339000401C63490870624800780328ECDB5E48F3
:1033A000B0F906005C49B1F91810884213D15A48A7
:1033B000B0F90810B0F91A0081420CD15648B0F9A2
:1033C0000A10B0F91C00814205D156480078401C13
:1033D0005449087011E05348007832280ADD40480B
:1033E000007C20F0400040303D49087400204D49E9
:1033F000087002E000204B4908700020484908701E
:103400000FE04548801D4649097830F81110123008
:10341000434A127820F8121041480078401C404975
:1034200008703F4800780328EBDB3B48B0F90C00FC
:103430003949B1F91E10884213D13748B0F90E103E
:10344000B0F9200081420CD13348B0F91010B0F926
:103450002200814205D134480078401C324908706E
:1034600011E03048007832280ADD00202E4908702B
:103470001B48007C20F0800080301949087402E06D
:103480000020294908700020254908700FE02248D3
:103490000C302349097830F811101230204A127884
:1034A00020F812101E480078401C1D4908701C4866
:1034B00000780328EBDB0A48008A78B10B480078D3
:1034C0000A280BDD0020094908700548008A0649D2
:1034D0000880FFF71BFE00200149088210BD000094
:1034E000B8020020A80700204C030020A200002002
:1034F00040030020A300002090020020A400002030
:10350000A4020020A500002068020020A6000020E0
:103510007C020020A70000200C040020A80000204E
:10352000A1000020A9000020AA0000202DE9F04100
:1035300005460C46FE480168204609F0BFFC0746D8
:10354000FC480168384609F0B1FB0646FA480168B4
:10355000304609F0CBF9F8490860F8484168F84866
:10356000006809F0ABFC0646F4488168304609F073
:10357000A5FCF4490860F148C06880F0004048604C
:10358000EE48C06880F000408860EF480068C8607E
:103590000868E849096809F089FB0646E7480168B8
:1035A000304609F0A3F9E5490860E6494868E14971
:1035B000096809F07BFB0646E0484168304609F09F
:1035C00095F9DE494860DF498868DA49096809F0F9
:1035D0006DFB0646D9488168304609F087F9D7491E
:1035E0008860D849C868D349096809F05FFB064676
:1035F000D248C168304609F079F9D049C860CE4850
:103600000168284609F05AFCD0490860D048007883
:1036100009F004FB0646C9480168304609F046FB3C
:10362000CC490860CA48007809F0F8FA0646C34851
:103630008168304609F03AFBC7490860C448007801
:1036400009F0ECFA0746C3480168384609F02EFB3A
:103650000646C2480168304609F048F9C04908608A
:1036600008460168BB48006809F0AEF9BD4908602A
:10367000BB480168B848006809F0A6F9BA49086073
:10368000B4480068B9490860B148007809F0C6FA42
:103690000646AA484168304609F008FBB44908606C
:1036A000B2480168AF48006809F000FB0646A3482D
:1036B0000168304609F0F7FBA0490860AC48016892
:1036C000A848006809F0F2FA06469C48416830466E
:1036D00009F0E9FB99494860A4480168A2480068DC
:1036E00009F0E4FA064695488168304609F0DBFBAC
:1036F000924988609E4801689B48006809F0D6FAA4
:1037000006468E48C168304609F0CDFB8B49C8603B
:103710008E4801689348006809F0C8FA0646954843
:103720000168304609F0E2F892490860874801686C
:103730008D48006809F0BAFA06467D4801683046AF
:1037400009F0D4F87A49086008460168204609F073
:10375000B5FB89490860BDE8F0812DE9F0410546D7
:103760000C4673480168204609F0A8FB07467148DB
:103770000168384609F09AFA06466F4801683046F3
:1037800009F0B4F86C4908606C4841686C480068FE
:1037900009F094FB064669488168304609F08EFBC3
:1037A000684908606548C06880F000404860634828
:1037B000C06880F00040886063480068C86008689E
:1037C0005C49096809F072FA06465C4801683046AF
:1037D00009F08CF8594908605A4948685549096800
:1037E00009F064FA064655484168304609F07EF80B
:1037F00052494860534988684E49096809F056FAA9
:1038000006464E488168304609F070F84B4988609A
:103810004C49C8684749096809F048FA06464748CC
:10382000C168304609F062F84449C86042480168FE
:10383000284609F043FB454908604548007809F0EF
:10384000EDF906463D480168304609F02FFA414936
:1038500008603F48007809F0E1F90646374881687A
:10386000304609F023FA3C4908603948007809F0ED
:10387000D5F9074637480168384609F017FA064671
:1038800036480168304609F031F835490860084685
:1038900001683048006809F097F8324908603048FC
:1038A00001682D48006809F08FF82F490860294801
:1038B00000682E4908602648007809F0AFF90646EE
:1038C0001E484168304609F0F1F929490860274847
:1038D00001682448006809F0E9F9064617480168BC
:1038E000304609F0E0FA15490860214801681D4892
:1038F000006809F0DBF9064610484168304609F0D7
:10390000D2FA0E494860194801681748006809F062
:10391000CDF9064609488168304609F0C4FA0749DE
:103920008860134801681048006809F0BFF925E075
:10393000FC000020F4000020E00000202001002016
:10394000E80000205C040020EC00002000010020C2
:10395000F80000200401002008010020F0000020F1
:103960000C0100201001002014010020180100208B
:103970001C010020E4000020BC0000200646FE4898
:10398000C168304609F08FFAFB49C860FB480168FE
:10399000FB48006809F08AF90646FA480168304693
:1039A00008F0A4FFF7490860F4480168F648006889
:1039B00009F07CF90646F5480168304608F096FFA4
:1039C000F249086008460168204609F077FAF04994
:1039D0000860BDE8F0812DE9F04105460C46EB4852
:1039E0000168204609F06AFA0746EA480168384645
:1039F00009F05CF90646E8480168304608F076FFB1
:103A0000E5490860DC484168E448006809F056FA76
:103A10000646D9488168304609F050FAE049086006
:103A2000D548C06880F000404860D348C06880F046
:103A300000408860DB480068C8600868D5490968AC
:103A400009F034F90646CC480168304608F04EFFCC
:103A5000C9490860D2494868CE49096809F026F981
:103A60000646C5484168304608F040FFC2494860F4
:103A7000CB498868C749096809F018F90646BE4865
:103A80008168304608F032FFBB498860C449C86885
:103A9000C049096809F00AF90646B748C1683046C6
:103AA00008F024FFB449C860BB480168284609F003
:103AB00005FAB2490860BC48007809F0AFF806463C
:103AC000AD480168304609F0F1F8B8490860B648D9
:103AD000007809F0A3F80646A7488168304609F047
:103AE000E5F8B3490860B048007809F097F8074650
:103AF000AE480168384609F0D9F80646AD48016875
:103B0000304608F0F3FEAC49086008460168A74853
:103B1000006808F059FF9A490860A7480168A4485E
:103B2000006808F051FF98490860A0480068A34960
:103B300008609D48007809F071F806468E48416893
:103B4000304609F0B3F89E4908609C4801688C48EB
:103B5000006809F0ABF8064687480168304609F06E
:103B6000A2F985490860964801688548006809F00F
:103B70009DF8064680484168304609F094F97E4930
:103B800048608E4801688048006809F08FF8064652
:103B900079488168304609F086F977498860884815
:103BA00001687948006809F081F806467248C168E2
:103BB000304609F078F97049C8607048016870486B
:103BC000006809F073F8064673480168304608F04B
:103BD0008DFE71490860694801686B48006809F00A
:103BE00065F8064669480168304608F07FFE674977
:103BF000086008460168204609F060F971490860CC
:103C0000BDE8F0812DE9FF5F6F49B1F9060008F0CA
:103C1000EDFF6E4908606C49B1F9080008F0E6FF55
:103C20006B4908606849B1F90A0008F0DFFF69498B
:103C300008606549B1F9000008F0D8FF61490860E3
:103C40006149B1F9020008F0D1FF514908605E49AD
:103C5000B1F9040008F0CAFF5F4908605F495B489A
:103C6000006808F0EFFF07D24FF08D415748006819
:103C700008F0AAFE04460FE059495448006809F0CC
:103C80001DF906464FF08D4108F09EFE05464FF0A7
:103C90007E5109F008F9044650494D48006808F083
:103CA000D1FF07D24FF08D414948006808F08CFEE3
:103CB00082460FE04A494648006809F0FFF8064688
:103CC0004FF08D4108F080FE05464FF07E5109F01F
:103CD000EAF8824641493F48006808F0B3FF07D23E
:103CE0004FF08D413B48006808F06EFE81460AE0C7
:103CF0003B493848006809F0E1F805464FF08D412E
:103D000008F062FE81464946504608F05DFE834653
:103D100008F0C0FDCDE9000107F006F805460022D5
:103D2000304B08F0A7FA304A304BCDE9020108F0D9
:103D300085F8074607F094FF2D490860494620465C
:103D400008F042FE834608F0A5FD074606F0ECFFAA
:103D50000022244BCDE9000108F08CFA224A234BC3
:103D6000CDE9020108F06AF8054607F079FF21491C
:103D70000860214650463FE020010020000100205D
:103D800010010020E000002014010020FC000020B1
:103D9000BC000020F4000020DC000020E80000202F
:103DA0005C040020EC000020F8000020040100204A
:103DB00008010020F00000200C0100201801002064
:103DC0001C010020B80000200C040020AC000020E2
:103DD000B0000020B4000020C000002000F8FF4622
:103DE00000004047008066401F85EB51B81E094027
:103DF000D0000020D400002008F0E6FD834608F043
:103E000049FD074606F090FF0022FE4BCDE9000178
:103E100008F030FA0546FC4AFC4B08F00FF8CDE9F3
:103E2000020107F01DFFFA490860FA49FA480068E4
:103E300008F008FF03D2F9480068F8490860F5491E
:103E4000F548006808F0FEFF05D2F448006880F0ED
:103E50000040F2490860EF49F148006808F0F2FEBE
:103E600003D2F0480068EF490860EA49EC4800686E
:103E700008F0E8FF05D2EB48006880F00040E9490F
:103E80000860E449E848006808F0DCFE03D2E04836
:103E90000068DF490860DF49E348006808F0D2FFA6
:103EA00005D2DB48006880F00040D94908604FF037
:103EB0008E41DE48006808F0C5FE10D2DB4800687D
:103EC00008F0E8FC07464FF06632D94B07F0B6FF22
:103ED00081F00041054607F0C3FED44908604FF069
:103EE0008E41D248006808F0ADFF12D2CF48016879
:103EF000D04808F0E3FF834608F0CCFC07464FF0BB
:103F00006632CB4B07F09AFF054607F0A9FEC7497A
:103F100008604FF08E41C848006808F093FE10D248
:103F2000C548006808F0B6FC07464FF06632C04B43
:103F300007F084FF81F00041054607F091FEBE497D
:103F400008604FF08E41BC48006808F07BFF12D239
:103F5000B9480168B74808F0B1FF834608F09AFCF9
:103F600005464FF06632B24B07F068FF074607F090
:103F700077FEB14908604FF08E41B048006808F004
:103F800061FE10D2AD48006808F084FC05464FF091
:103F90006632A74B07F052FF81F00041074607F059
:103FA0005FFEA64908604FF08E41A448006808F003
:103FB00049FF12D2A14801689E4808F07FFF83465E
:103FC00008F068FC07464FF06632994B07F036FF61
:103FD000054607F045FE99490860944801689148F4
:103FE0000068FFF7F8FC944801688C480068FFF708
:103FF000B4FB9248016886480068FFF797FABDE86D
:10400000FF9F2DE9F05F05460E4614468C48016877
:104010004FF07E5008F052FF8046894801684FF00B
:104020007E5008F04BFF814686480168284608F01C
:1040300045FF8246494608F039FE0746414608F0EA
:1040400035FE8149086021467F48006808F02EFE51
:1040500007467E480168384608F048FC7B490860FE
:1040600078480168284608F029FF824674480168AC
:104070004FF07E5008F022FF83464FF0804108F059
:1040800015FE8146514608F011FE80466F480168D2
:10409000404608F02BFC0746314608F027FC6C49E7
:1040A000086021466A48006808F000FE0746654837
:1040B0000168384608F01AFC62490860BDE8F09FC4
:1040C0002DE9F05F06460C4615462946204608F0C5
:1040D000EDFD83465F480168584608F007FC8046BE
:1040E0005D4801684FF07E5008F0E8FE8246414688
:1040F00008F0DCFD074658480168304608F0D6FD58
:104100008146394608F0F2FB5249086008460068CB
:10411000BDE8F09F2DE9F84F5048C088504908800D
:104120004E4800894F4908804C4840894E490880D4
:104130004A4890F84800A8B94849B1F9000008F089
:1041400055FD46494862B1F9020008F04FFD434968
:104150008862B1F9040008F049FD4049C8620120B5
:1041600081F848003D49B1F9000008F03FFD0546DF
:104170003A48416A284608F0A1FE044608F01AFDB4
:1041800000B23A4908803549B1F9020008F02EFD25
:1041900005463248816A284608F090FE044608F039
:1041A00009FD00B2324908802C49B1F9040008F039
:1041B0001DFD05462948C16A284608F07FFE0446D1
:1041C00008F0F8FC00B22B4908802548B0F900003F
:1041D00007F0E9FF0646284A284B07F02FFE044661
:1041E00007F03EFD264908601E48B0F9000007F0C0
:1041F000DAFF0646204A214B07F020FE044607F06E
:104200002FFD3FE0008066401F85EB51B81E09403E
:10421000D800002000F8FF46AC000020D4000020A9
:10422000B0000020D0000020B4000020B800002022
:104230006666304000FF7F47BC000020C0000020C1
:104240003001002040010020340100203C0100200A
:1042500038010020B8010020BC0100200C0400201F
:104260004401002046010020480100204A010020AE
:104270004C0100204E010020FCA9F1D24D623040DB
:1042800068010020FE490860FE48B0F9000007F010
:104290008AFF0646FC4AFD4B07F0D0FD044607F0B6
:1042A000DFFCFB49086008460168FA48006808F02E
:1042B0008BFB009008F0EEFA804606F035FD824652
:1042C0000022F54B07F0D6FF0646F44AF44B07F000
:1042D000B5FD044607F0C4FCF2490860EC480168EB
:1042E000E748006808F070FB009008F0D3FA8246B7
:1042F00006F01AFD80460022E74B07F0BBFF06469A
:10430000E64AE74B07F09AFD044607F0A9FCE649A8
:104310000860DB480168DF48006808F055FB009042
:1043200008F0B8FA824606F0FFFC80460022DA4B1D
:1043300007F0A0FF0646D94AD94B07F07FFD044697
:1043400007F08EFCD9490860D948B0F9000007F0A1
:104350002AFF06460022D74B07F070FD044607F0FF
:104360007FFCD5490860D548B0F9000007F01BFF75
:1043700006460022CF4B07F061FD044607F070FCB3
:10438000CF490860CF48B0F9000007F00CFF06469F
:104390000022C84B07F052FD044607F061FCCA49F1
:1043A00008600846006808F005FC061E01DB31467F
:1043B00000E07142084607F0F6FE0446C34AC44BCB
:1043C00007F01CFF02D20020BF49086004F086FA03
:1043D000C04908600968C04A1268881A08F01EFCC3
:1043E00007460021B848006808F068FD8046394655
:1043F00008F05CFC06464FF0804108F057FC05468B
:10440000B64908F0E1FA0446B5480168204608F0CC
:104410006DFAB34908600021B148006808F012FC49
:1044200003D2B048AE49086008E0AF49AC48006824
:1044300008F008FD02D20020A9490860A8480068D9
:10444000AA49C864A3480068A3490860BDE8F88F7A
:104450000FB597B0179808F01DFAA54AA54BCDE9FE
:104460000C0108F02DF9CDE90E0107F0F9FB1790CA
:10447000189808F00FFAA04AA04BCDE90C0108F0FB
:104480001FF9CDE90E0107F0EBFB1890199808F021
:1044900001FA9B4A9B4BCDE90C0108F011F9CDE9DB
:1044A0000E0107F0DDFB19901D99084608F0FEFB90
:1044B0000A901C99084608F0F9FB08901A990846DA
:1044C00008F0F4FB0790089908F010FA09900A998F
:1044D00008F00CFA0B9008F0DDF9CDE90C0107F0BB
:1044E0006DFBCDE90E0107F0BBFB169016991A98EB
:1044F00008F06AFA1A9016991C9808F065FA1C9050
:1045000016991D9808F060FA1D907F4801687F4851
:10451000006808F0CBFB0E907D4801687D4800687C
:1045200008F0C4FB0D900E9908F0C8FC4FF08041D4
:104530000F9008F0BBFB1590754801687248006841
:1045400008F0B4FB0E90734801687048006808F0EA
:10455000ADFB0D900E9908F0C9F94FF080410F9016
:1045600008F0A4FB14906A480168006808F09EFBFC
:104570000F9065480168006808F098FB0D90654849
:104580000168006808F092FB0B90604801680068C1
:1045900008F08CFB0A900B9908F090FC0C900D9998
:1045A00008F08CFC0E900F9908F0A0F91390149964
:1045B0001D9808F07BFB0F9013991C9808F076FB70
:1045C0000E900F9908F07AFC129013991A9808F03F
:1045D0006DFB0F9015991D9808F068FB0E900F99D0
:1045E00008F06CFC119015991C9808F05FFB0F9077
:1045F00014991A9808F05AFB0E900F9908F05EFC77
:1046000010904549129808F051FB0F9043480168FB
:104610000F9808F06BF9414908603F49119808F07C
:1046200045FB0F903E4801680F9808F05FF93C4940
:1046300008603949109808F039FB0F903948016833
:104640000F9808F053F9374908604FF080401299ED
:1046500008F02CFB0E90179908F048F90F902F489E
:1046600001680F9808F042F917904FF080401199B7
:1046700008F01CFB0E90189908F038F90F9053E0E1
:104680006C01002048010020FCA9F1D24D623040AD
:1046900070010020680100200080664038E92F5436
:1046A000FB210940800100208401002088010020B6
:1046B0004A01002000C02C405C0100204C01002079
:1046C000600100204E010020640100209A99999910
:1046D0009999B93FC4010020C801002000007A4424
:1046E0007C0100200080B3430000B4430C04002090
:1046F000EE7C3F355EFA05C05396218E7571E7BF9B
:1047000064CDC82077710740940100208C010020FF
:1047100098010020900100206F12833A9C01002034
:10472000A0010020A4010020A64801680F9808F00D
:10473000DDF818904FF08040109908F0B7FA0E900D
:10474000199908F0D3F80F909F4801680F9808F066
:10475000CDF819909D481999006808F0A7FA0D90B6
:104760009B481899006808F0A1FA0B9099480068D6
:1047700080F000400990179908F098FA0A900B9978
:1047800008F09CFB0C900D9908F098FB92490E9054
:1047900008F08CFA0F90914801680F9808F0A6F87D
:1047A0008E49086089481899006808F07FFA0D90D2
:1047B00087481999006808F079FA0B9087480168D2
:1047C000179808F073FA0A900B9908F08FF80C907C
:1047D0000D9908F073FB80490E9008F067FA0F906E
:1047E0007C4801680F9808F081F87A49086077489A
:1047F0000168179808F05AFA0D90764819990068E0
:1048000008F054FA0B9075481899006808F04EFAB1
:104810000A900B9908F052FB0C900D9908F066F87D
:104820006D490E9008F042FA0F90694801680F98A0
:1048300008F05CF86649086008460168179808F0B7
:1048400035FA0D9063481899006808F02FFA0B901C
:1048500062481999006808F029FA0A900B9908F043
:1048600045F80C900D9908F029FB5B490E9008F073
:104870001DFA0F90554801680F9808F037F8534912
:10488000086008460168006808F010FA0A9050486D
:104890000168006808F00AFA08904E48016800684C
:1048A00008F004FA06904D480168006808F0FEF927
:1048B0000590069908F01AF80790089908F016F87C
:1048C00009900A9908F012F80B9007F0E3FFCDE980
:1048D0000C0107F073F9CDE90E0107F0C1F916904C
:1048E0003E481699006808F06FF83C49086039485E
:1048F0001699006808F068F8364908603448169937
:10490000006808F061F8324908603048169900687C
:1049100008F05AF82D49086008460168006808F058
:10492000C5F906902A480168006808F0BFF90490AC
:1049300028480168006808F0B9F902902748016822
:10494000006808F0B3F90190029907F0CFFF0390D7
:10495000049908F0B3FA0590069908F0AFFA0790A9
:1049600007F098FFCDE90A01184801681B48006864
:1049700008F09CF90590164801681648006808F090
:1049800095F90490059907F0B1FF4FF0804106902A
:1049900008F08CF9079007F07DFFCDE90801DDE90B
:1049A0000A2306F0D1FA4FF066320D4BCDE90C0127
:1049B00007F060FCCDE90E0107F052F909490860E3
:1049C0001BB000BDA0010020A40100209801002020
:1049D00094010020900100206F12833A8C01002086
:1049E00066A64C40A801002010B50020FE49486092
:1049F00008602321FC48083004F02BFB2321FA48EF
:104A0000943004F026FB2321F84804F022FB10BD6B
:104A100070B506460C461546F348406823281CDA54
:104A2000F1480068F0494968884201D1FFF7DCFF8E
:104A3000ED484168083040F82160083841689430FA
:104A400040F8214094384168E84840F82150E64851
:104A50004068401CE44948601BE0E3484068232864
:104A600017D10020E049486008464168083040F806
:104A7000216008384168943040F8214094384168FA
:104A8000DA4840F82150D8480068401CD6490860F0
:104A900070BD00BFFCE7D4480068232802D1002085
:104AA000D1490860D04801684068401C814201D16A
:104AB00000207047CC4801680068401CCA4A10605A
:104AC00002F1080010F82100F3E710B50024C648F1
:104AD000047808E0C448083050F82410C4A004F05A
:104AE00037F9601CC4B2C0484068A042F2DC10BD77
:104AF000BD480068BC494968884201D1012070471F
:104B00000020FCE72DE9F04105460C465A2C02DD59
:104B1000A4F10A0084B2B748007820B1012810D06F
:104B2000022875D19AE0B448C06CB44908600023EB
:104B30002A4619461846FCF77EFB0120AD4908704D
:104B400093E0002D44DDAC49C86CAC49096808F01D
:104B500079F91DD2204608F061F80746A648C16CD5
:104B6000A74808F0ABF98046A4480168404607F022
:104B7000BDFE0646394608F065F909D200231A46FB
:104B800019461846FCF757FB02209A49087064E062
:104B90009949C86C9949096808F054F85DD22046D3
:104BA00008F03CF806469448C16C9448006808F048
:104BB00085F90746314608F045F94ED200231A46DA
:104BC00019461846FCF737FB02208A49087044E072
:104BD0008949C86C8949096808F034F919D2204616
:104BE00008F01CF806468449C86C8449096808F036
:104BF00065F90746314608F025F90AD200231A461E
:104C000019461846FCF717FB02207A49087024E081
:104C10002AE07949C86C7949096808F013F81CD270
:104C2000204607F0FBFF07467349C86C744907F03C
:104C30005DFE804671480168404608F03FF906462F
:104C4000394608F0FFF808D200231A4619461846DC
:104C5000FCF7F1FA02206749087006E00020694974
:104C600008706449087000E000BF00BFBDE8F08133
:104C700003B589B06448007820B1012821D002280A
:104C80007ED11AE300231A46099801B21846FCF7B0
:104C9000D2FA5948C06C5D49086003F01FFE5C49B8
:104CA00008605C4840685C4908605C4840685C4952
:104CB00008605C4840685C490860012052490870FF
:104CC00002E3099800287DDD4B48C06C07904F48EF
:104CD0000168079808F0B6F875D24748C06C06908E
:104CE0004A480168069808F0E9F85049079008F02A
:104CF000A9F869D24048C06C01460690404808F0C7
:104D0000DDF8079041480168079807F0EFFD484932
:104D100008600846006807F0BDFD464A464BCDE9ED
:104D2000000107F0A7FACDE904013C484068019072
:104D300007F039FACDE90201DDE9042307F0C0FCF0
:104D4000CDE9060107F0D2F93449486034480068DB
:104D500007F029FA374A394BCDE9020107F08AFA00
:104D6000CDE906012D484068039007F01CFACDE913
:104D70000401DDE9062307F041FA11D2284800E0DA
:104D8000A1E2006807F00FFA2A4A2C4BCDE9040192
:104D900007F070FACDE9060107F0A8F91F4948604D
:104DA0002348006807F076FD224A234BCDE9000135
:104DB00007F060FACDE904011A484068019007F055
:104DC000F2F902E064E0FBE063E0CDE90201DDE935
:104DD000042306F077FFCDE9060107F087F91149B2
:104DE0004860114800682BE06C0400208C0500200E
:104DF00025640A00D30100200C040020D401002007
:104E00000000B443D0010020D8010020DC010020C4
:104E1000F401002068020020E80100207C0200204C
:104E2000E401002090020020EC0100200000484333
:104E3000E00100209A9999999999B93F9999E93F88
:104E400007F0B1F94FF03332FE4BCDE9020107F024
:104E500011FACDE90601FC484068039007F0A3F978
:104E6000CDE90401DDE9062307F002FB10D2F74883
:104E7000006807F098F94FF03332F24BCDE90401A6
:104E800007F0F8F9CDE9060107F030F9EE4948607E
:104E9000FCE1EF48C06C0790EE480168079808F005
:104EA0000DF8ED4908600846006807F0F3FCEB4A8E
:104EB000EB4BCDE9000107F0DDF9CDE90401E9484C
:104EC0004068019007F06FF9CDE90201DDE90423A4
:104ED00006F0F8FECDE9060107F008F9E14948605F
:104EE000E148006807F05FF94FF03332D54BCDE968
:104EF000020107F0BFF9CDE90601DA4840680390E6
:104F000007F051F9CDE90401DDE9062307F0B0FA15
:104F100010D2D548006807F046F94FF03332C94B3C
:104F2000CDE9040107F0A6F9CDE9060107F0DEF8A6
:104F3000CC494860C848006807F0ACFCC74AC84B79
:104F4000CDE9000107F096F9CDE90401BE484068BB
:104F5000019007F028F9CDE90201DDE9042307F00B
:104F6000AFFBCDE9060107F0C1F8B7494860B74883
:104F7000006807F018F9B94ABC4BCDE9020107F007
:104F800079F9CDE90601B0484068039007F00BF9C4
:104F9000CDE90401DDE9062307F030F90FD2AB4873
:104FA000006807F000F9AD4AB04BCDE9040107F005
:104FB00061F9CDE9060107F099F8A349486065E178
:104FC000A348C06C0790A3480168079807F03AFE11
:104FD000F5D29F48C06C06909E480168069807F07D
:104FE0006DFFA349079007F02DFE7DD29948016817
:104FF000A04807F063FF07909548C06C01460690F3
:10500000079807F073FC944908600846006807F0A9
:1050100041FC924A924BCDE9000107F02BF9CDE912
:10502000040190484068019007F0BDF8CDE9020105
:10503000DDE9042306F046FECDE9060107F056F847
:10504000884948608848006807F0ADF84FF033326F
:105050007C4BCDE9020107F00DF9CDE9060181484D
:105060004068039007F09FF8CDE90401DDE90623CD
:1050700007F0FEF910D27C48006807F094F84FF072
:105080003332704BCDE9040107F0F4F8CDE90601A5
:1050900007F02CF8734948606F48006807F0FAFB86
:1050A0006E4A6F4BCDE9000107F0E4F8CDE9040149
:1050B00065484068019007F076F8CDE90201DDE926
:1050C000042307F0FDFACDE9060107F00FF85E4969
:1050D00048605E48006807F066F8604A634BCDE9B7
:1050E000020107F0C7F800E01EE0CDE906015648CE
:1050F0004068039007F057F8CDE90401DDE9062385
:1051000007F07CF80FD25148006807F04CF8534A7A
:10511000564BCDE9040107F0ADF8CDE9060106F0E4
:10512000E5FF49494860B1E04948C06C0146079035
:105130004848006807F0C2FE474908600846006812
:1051400007F0A8FB454A464BCDE9000107F092F86D
:10515000CDE9040143484068019007F024F8CDE907
:105160000201DDE9042307F0ABFACDE9060106F000
:10517000BDFF3C4948603C48006807F014F8374AD6
:105180003A4BCDE9020107F075F8CDE90601354843
:105190004068039007F007F8CDE90401DDE9062334
:1051A00007F02CF80FD23048006806F0FCFF2B4ABD
:1051B0002E4BCDE9040107F05DF8CDE9060106F0BC
:1051C00095FF284948602448006807F063FB234A9C
:1051D000234BCDE9000107F04DF8CDE904011A4851
:1051E0004068019006F0DFFFCDE90201DDE904230C
:1051F00006F068FDCDE9060106F078FF1249486027
:105200001248006806F0CFFF4FF033320D4BCDE966
:10521000020107F02FF8CDE906010B484068039022
:1052200006F0C1FFCDE90401DDE9062307F020F90E
:105230002CD20648006806F0B6FF4FF03332014B1F
:105240001AE000003333F33F90020020EC0100200D
:105250000C040020DC010020E00100209A999999BB
:105260009999B93F7C020020E40100209999E93F17
:10527000000048C30000B443CDE9040106F0FAFF82
:10528000CDE9060106F032FFFB49486003F026FB3A
:10529000FA49086008460068F9490968401A0A99FD
:1052A000B1EB400F08D200231A4619461846FBF707
:1052B000C2FF0220F349087006E00020F24908709E
:1052C000F049087000E000BF00BF0BB000BD10B592
:1052D000EE4890F8480000B910BDEB48007898B946
:1052E000EB480078401CEA490870084600786428BA
:1052F00009DDFFF7D0FBE74908700120E24908709B
:105300000020E3490870E7E7E248007806285CD20D
:10531000DFE800F0030B1B1C344B0020DA49087057
:105320000221DD4802F09EFE50E0DC4A1268521E67
:10533000DA4B943353F82210D84A1268521E8C3339
:1053400053F82200FFF794FC40E03FE0D34A126894
:10535000521ED34B53F82240002C01DB224600E0C2
:105360006242524250B2CD4A1268521ECC4B8C3B24
:1053700033F8222091B2FFF7C5FB27E0C74A126835
:10538000521EC74B53F82240002C01DB224600E09E
:10539000624250B2C14A1268521EC14B8C3B33F874
:1053A000222091B2FFF7AEFB10E00020B649087052
:1053B000FFF71AFB00231A4619461846FBF73BFF76
:1053C0000221B54802F04EFE00E000BF00BF00BF62
:1053D00082E770B504460D461646AF4803F069F9FA
:1053E000022805D1FFF700FB0121AB4802F03AFE8D
:1053F000324629462046FFF70BFB70BD2DE9F04FE2
:1054000089B004460D4616461F46A648007878B96E
:105410000020A5490870A54A106050600021A44AE8
:1054200011605160A34A1160516009B0BDE8F08F6E
:105430009D48007809287BD2DFE800F0051C26C1D2
:10544000FFF9F8F7F6009C4890F8380088B1002082
:10545000994981F838000846D0E90C10944AC2E90D
:1054600000109549D1E90A01904A03C201208E49F2
:10547000087058E2C82240F6B8310120FFF7A9FFB2
:105480000220894908704EE2834803F012F902288D
:1054900079D17D4800780028FAD1874890F8380003
:1054A000002870D00020844981F83800D1E90A81B1
:1054B0007E480CC8404607F003F982468B467E487A
:1054C000D0E90C817A480CC8404607F0F9F85246FA
:1054D0005B46CDE9000106F0B1FCCDE9020105F023
:1054E00023FC0022754BCDE9040106F0C3FE744A8B
:1054F000744BCDE9060106F0A1FC6E4A03C20022FE
:1055000013466C4903C906F0B3FF2AD86A48D0E9AC
:105510000A8166480CC8404606F0AAFF11D86549C2
:1055200003C906F0E3FDB0F1000802DB404602E0EB
:10553000F8E1C8F10000014664220420FFF749FFAA
:1055400039E05C480CC800205C4907F0B9F8804697
:1055500006F0CCFD8246642251460320FFF739FF56
:1055600029E05548D0E90A8150480CC8404606F069
:105570007FFF11D84F4903C906F0B8FDB0F100080C
:1055800002DB404602E019E0C8F100000146642257
:105590000320FFF71EFF0EE046480CC800204749D5
:1055A00006F090FB804606F0A1FD8246642251463B
:1055B0000420FFF70EFF03203B490870B3E13E498A
:1055C000D1E90C013A4A03C23B49D1E90A01374A01
:1055D00003C23948D0E90A8342462046294606F0EC
:1055E00047FF09D2C82247F230510120FFF7F1FEF0
:1055F00004202D4908701FE02F49D1E90A83424653
:105600002046294606F0FAFD13D26422B421042074
:10561000FFF7DFFEC82247F230510120FFF7D9FE25
:1056200004202149087007E02FE110E1E7E04BE09A
:1056300003E004201C49087075E11F48D0E90A8383
:1056400042462046294606F049FFCDE9060106F00C
:105650004DFDB0F1000A01DB504601E0CAF1000047
:10566000142807DA002211460520FFF7B2FE0520B4
:105670000D49087057E1000090020020F001002061
:10568000F4010020D8010020D00100200C040020EB
:10569000D2010020D1010020918900086C04002073
:1056A0008C0500206800002010020020F801002076
:1056B00000020020080200208803002000806640CD
:1056C000F1D4C853FB210940984802F0F2FF0228A8
:1056D00079D1974800780028FAD1964890F8380098
:1056E000002870D00020934981F838000846D0E99E
:1056F0000A8191480CC8404606F0E2FF82468B467C
:105700008C49D1E90C818D480CC8404606F0D8FF81
:1057100052465B46CDE9000106F090FBCDE902015F
:1057200005F002FB0022864BCDE9040106F0A2FD44
:10573000844A854BCDE9060106F080FB834A03C20B
:1057400000221346814903C906F092FE29D87949FF
:10575000D1E90A8178480CC8404606F089FE10D885
:105760007A4903C906F0C2FCB0F1000801DB4046EB
:1057700001E0C8F10000014664220420FFF729FE81
:1057800039E072480CC800206D4906F099FF804648
:1057900006F0ACFC8246642251460320FFF719FE56
:1057A00029E06448D0E90A8163480CC8404606F005
:1057B0005FFE11D8654903C906F098FCB0F10008F6
:1057C00002DB404602E019E0C8F100000146642215
:1057D0000320FFF7FEFD0EE05C480CC8002058498E
:1057E00006F070FA804606F081FC8246642251463B
:1057F0000420FFF7EEFD06205549087093E04D4860
:1058000032463B46D0E90C81404606F0F7FC08D210
:1058100064225A210320FFF7DCFD07204C49087061
:1058200014E04449D1E90C8132463B46404606F03B
:105830001FFE08D264225A210420FFF7CAFD072068
:105840004349087002E00720414908706BE037487F
:1058500002F02FFF022817D135480078A0B90023A5
:105860001A46C8211846FBF7E6FC3A4840683A4910
:1058700008603A4840683A4908603A4840683A49FE
:1058800008600820324908704DE02A4832463B46FD
:10589000D0E90C81404606F013FFCDE9060106F081
:1058A00025FCB0F1000A01DB504601E0CAF100001E
:1058B00014280ADA002211460520FFF78AFD00208D
:1058C0002A490870224908702BE01A49D1E90A8355
:1058D00042462046294606F001FE824600224FF04D
:1058E000804306F0C7FCCDE9060106F0FFFB204926
:1058F000086008460068322802DD3220086008E0AF
:105900001B48006810F1320F03DA6FF031001849BC
:10591000086000231A46C8211548008800B2FBF72A
:105920008AFC00E000BF00BF00BF7EE5918900084F
:10593000D001002088030020F80100200002002090
:1059400000806640F1D4C853FB21094008020020C2
:105950001002002068020020180200207C020020B3
:1059600014020020900200201C0200206800002089
:105970002002002010B54FF4A06000F079FA10BDAD
:1059800000BF7047704770B505460C460021F848C7
:1059900002F063FAC82C01D9002070BD22462946C6
:1059A000F44803F011FB2146F14802F06BFA0121A3
:1059B000EF4802F052FA0120EFE700B58BB0012169
:1059C000084600F0D2FDEA48143802F079F9E848B8
:1059D00002F076F9E8480090E84801900020029033
:1059E000C82003900020049080200590002006909D
:1059F000079008904FF44050099000200A906946A3
:105A0000DB48143802F0FEF90121D948143802F0BD
:105A100024FAD9480090D74801901020029009201C
:105A200003900020049080200590002006900790AD
:105A300008904FF48050099000200A906946CC48A5
:105A400002F0E0F901224021CB48001F00F0FEFEE9
:105A500001228021C848001F00F0F8FE0BB000BDF5
:105A600008B510208DF8000000208DF801000120FD
:105A70008DF802008DF80300684600F0FEF926203C
:105A80008DF8000000208DF8010002208DF8020042
:105A900001208DF80300684600F0EFF908BD10B54D
:105AA00086B004460121480400F079FD012105205B
:105AB00000F068FD0420ADF8140018208DF81700E0
:105AC00003208DF8160005A9AD4800F09FFA0820C4
:105AD000ADF8140004208DF8170005A9A84800F0BF
