:020000040800F2
:10000000A8220020915E0008B7020008B90200088B
:10001000BD020008C1020008C5020008000000007F
:10002000000000000000000000000000C9020008FD
:10003000CB02000800000000778C0008FF86000853
:10004000AB5E0008AB5E0008AB5E0008AB5E00086C
:10005000AB5E0008AB5E0008AB5E0008AB5E00085C
:10006000AB5E0008AB5E0008AB5E0008AB5E00084C
:10007000AB5E00083D5E0008AB5E0008AB5E0008AA
:10008000F55B0008AB5E0008AB5E0008AB5E0008E5
:10009000AB5E0008AB5E0008AB5E0008AB5E00081C
:1000A000AB5E0008AB5E0008AB5E0008AB5E00080C
:1000B000AB5E0008AB5E0008AB5E0008AB5E0008FC
:1000C000AB5E0008AB5E0008AB5E0008AB5E0008EC
:1000D000AB5E0008AB5E0008955B0008F95D0008A8
:1000E000AB5E0008AB5E0008AB5E0008AB5E0008CC
:1000F000AB5E0008AB5E0008AB5E0008AB5E0008BC
:10010000AB5E0008AB5E0008AB5E0008AB5E0008AB
:10011000AB5E0008AB5E0008F1090008AB5E0008AA
:10012000AB5E0008AB5E0008AB5E0008AB5E00088B
:1001300000F002F800F0B0F80AA090E8000C824449
:100140008344AAF10107DA4501D100F0A5F8AFF226
:10015000090EBAE80F0013F0010F18BFFB1A43F0A5
:1001600001031847C0D20000E0D200000A444FF05B
:10017000000C10F8013B13F0070408BF10F8014B06
:100180001D1108BF10F8015B641E05D010F8016B4B
:10019000641E01F8016BF9D113F0080F1EBF10F8AF
:1001A000014BAD1C0C1B09D16D1E58BF01F801CBD2
:1001B000FAD505E014F8016B01F8016B6D1EF9D555
:1001C0009142D6D37047000000230024002500266A
:1001D000103A28BF78C1FBD8520728BF30C148BFAA
:1001E0000B6070476E2909F07080702909F0EF8369
:1001F00066290CF00C8765290CF0098767290CF03B
:1002000006876129AFF3008003681B0A28BF41F00D
:100210008001692908F00686642908F0038675299B
:1002200008F000866F2909F07D83782909F0BB83E7
:10023000E92909F01783E42909F01483F52909F065
:100240001183EF2909F07A83F82909F0BA8303684A
:10025000DB0928BF41F08001632909F086827329F8
:1002600009F08B82E32909F0A984F32909F0AE840F
:10027000002070471FB509F009FC04000020002190
:100280000BF00CFD401C6060002000210BF0F0FC26
:10029000E0601FBD10B510BD09F050FD1146FFF71D
:1002A000E9FF08F044FC09F077FD03B4FFF7F2FF23
:1002B00003BC05F095FB704700BFFEE700BFFEE7FB
:1002C00000BFFEE700BFFEE7704770470CB5002097
:1002D000019000906C48006840F480306A490860E2
:1002E00000BF6948006800F4003000900198401C8D
:1002F0000190009818B90198B0F5A06FF1D162484B
:10030000006800F4003010B10120009001E00020EE
:1003100000900098012843D15C48006840F010002C
:100320005A4908600846006820F003000860084643
:10033000006840F002000860534840685249486035
:100340000846406848600846406840F4806048605D
:100350000846406820F47C1048600846406840F435
:10036000E81048600846006840F08070086000BFF0
:100370004548006800F000700028F9D04248406805
:1003800020F00300404948600846406840F0020001
:10039000486000BF3C48406800F00C000828F9D1D4
:1003A0000CBD10B5FFF792FF10BD10B536480068C0
:1003B00040F001003449086008464068344908406C
:1003C0003149486008460068324908402E490860B3
:1003D0000846006820F4802008600846406820F441
:1003E000FE0048604FF41F008860FFF7DAFF4FF00F
:1003F00000602949086010BD10B5002100200022CE
:10040000214B5B6803F00C0121B1042906D00829B7
:1004100028D107E0214B224C236027E01F4B204CC2
:10042000236023E0184B5B6803F47010164B5B6885
:1004300003F48032022303EB904022B9194B43436B
:10044000174C23600DE0104B5B6803F4003323B1BD
:10045000144B4343124C236003E0104B4343104CB6
:10046000236003E00D4B0E4C236000BF00BF064B22
:100470005B68C3F303130C4CE15C094B1B68CB4076
:10048000074C236010BD0000001002400020024015
:100490000000FFF8FFFFF6FE08ED00E000127A0012
:1004A0000000002000093D000400002030B589B0A4
:1004B00005460C460121480306F094F8012111205D
:1004C00006F090F84FF47070ADF8200018208DF809
:1004D000230003208DF8220008A9FA4805F0C6FD84
:1004E000ADF81850ADF814400020ADF81A00ADF882
:1004F000160005A9F44806F0B1FB7020ADF8040021
:100500000120ADF806000020ADF80A00ADF80C009F
:1005100001A9ED4806F0DFFB01A9EB4806F01DFC40
:1005200001A9E94806F066FC01A9E74806F0ADFC20
:100530000121E54806F0FAFE0821E34807F01AF821
:100540000821E14807F01FF80821DF4807F028F8E4
:100550000821DD4807F02DF80121DB4806F0DAFF1D
:100560000121D94806F0D6FE0021D74807F06AF9E4
:100570000021D54807F068F90021D34807F066F953
:100580000021D14807F064F909B030BD30B589B019
:1005900005460C460121042006F031F8012109200E
:1005A00006F020F84FF47070ADF8200018208DF898
:1005B000230003208DF8220008A9C44805F056FD49
:1005C000ADF81850ADF814400020ADF81A00ADF8A1
:1005D000160005A9BE4806F041FB7020ADF80400E6
:1005E0000120ADF806000020ADF80A00ADF80C00BF
:1005F00001A9B74806F06FFB01A9B54806F0ADFBAD
:1006000001A9B34806F0F6FB01A9B14806F03DFC8C
:100610000121AF4806F08AFE0821AD4806F0AAFF86
:100620000821AB4806F0AFFF0821A94806F0B8FF43
:100630000821A74806F0BDFF0121A54806F06AFF82
:100640000121A34806F066FE0021A14807F0FAF850
:1006500000219F4807F0F8F800219D4807F0F6F8C0
:1006600000219B4807F0F4F809B030BD00B587B011
:100670000121084605F0B6FF0121C80205F0B2FFCE
:100680000121042005F0AEFF4FF44070ADF81800D2
:1006900048208DF81B0003208DF81A0006A98D480C
:1006A00005F0E4FC012211028A4805F090FD0122C8
:1006B0005102884805F08BFD44F62060ADF810002B
:1006C0000020ADF80C00ADF81200ADF80E0003A943
:1006D000814806F0C3FA0A231A4603217E4806F031
:1006E000CCFE684606F0F9FD0820ADF80800694622
:1006F000794806F046FD0121774807F0D1F801223C
:100700001146754806F021FE002073492431088007
:100710000121714806F0FEFD07B000BD00B587B0AD
:1007200001216E4805F073FD0121084605F05AFFCE
:100730000121084605F063FF0121042005F052FF66
:100740000121082005F04EFF0121654805F05FFDFD
:100750004FF40040ADF8180004208DF81B00032072
:100760008DF81A0006A95B4805F080FC0122D10330
:10077000584805F02CFD0820ADF8180004208DF82D
:100780001B0003208DF81A0006A9504805F06EFCE6
:10079000012208214D4805F01AFD4FF0804006F077
:1007A00089F903A94FF0804006F058FA44F620601A
:1007B000ADF810000020ADF80C00ADF81200ADF857
:1007C0000E0003A94FF0804006F048FA00231A46B5
:1007D00003214FF0804006F050FE684606F07DFD94
:1007E0000620ADF8080069464FF0804006F0C9FCCD
:1007F0000121880707F054F801221146900706F0FE
:10080000A4FD00204FF0804188840121880706F074
:1008100081FD07B000BD00B587B00121084605F095
:10082000E1FE0121022005F0EAFE0121042005F08D
:10083000D9FEC020ADF8180048208DF81B00032019
:100840008DF81A0006A9234805F010FC012240216A
:10085000204805F0BCFC012280211E4805F0B7FCB1
:1008600044F62060ADF810000020ADF80C00ADF8A3
:100870001200ADF80E0003A91A4806F0EFF90A239A
:100880001A460321174806F0F8FD684606F025FDD4
:100890000820ADF808006946124806F072FC0121F4
:1008A000104806F0FDFF012211460E4806F04DFDEE
:1008B00000200C492431088001210A4806F02AFD55
:1008C00007B000BD0010014000340140000C0140A1
:1008D0000008004000080140002C014000023000E8
:1008E000000318000004004000B587B0012108464D
:1008F00005F078FE0121082005F081FE0121042089
:1009000005F070FE0320ADF8180048208DF81B009C
:1009100003208DF81A0006A9474805F0A7FB01221D
:100920001146454805F053FC01220221424805F0DA
:100930004EFC44F62060ADF810000020ADF80C002D
:10094000ADF81200ADF80E0003A93C4806F086F998
:100950000A231A460321394806F08FFD684606F03F
:10096000BCFC0820ADF808006946344806F009FCD4
:100970000121324806F094FF012211462F4806F06B
:10098000E4FC00202D492431088001212B4806F089
:10099000C1FC07B000BD7FB505460C460121102003
:1009A00005F02DFEADF80850ADF804400020ADF87C
:1009B0000A00ADF8060001A9214806F04FF901220E
:1009C00011461F4806F0C1FC36208DF800000020BB
:1009D0008DF8010003208DF8020001208DF803003E
:1009E000684605F07AFA0121154806F093FC7FBDB0
:1009F00010B50121124806F056FF40B111480068B9
:100A0000401C1049086001210D4806F05DFF10BD33
:100A100010B5FFF72BFEFFF781FEFFF7FCFE1D214F
:100A200040F2AF40FFF7B2FDFFF75EFF1D2140F23D
:100A3000AF40FFF73BFD10BD00080140000C004037
:100A400000100040140000202DE9F0470446002C5F
:100A500008DBB4F5FA7F01DD4FF4FA740120FD499B
:100A6000087008E06442B4F5FA7F01DD4FF4FA74CF
:100A70000020F849087020B2F649C88120460CF0E1
:100A8000E9F88246F4490CF045F981460BF036FF4F
:100A900007460022F14B0BF049F905460BF05AFBD3
:100AA000EC494860BDE8F0872DE9F0470446002C8A
:100AB00008DBB4F5FA7F01DD4FF4FA740120E84950
:100AC000087008E06442B4F5FA7F01DD4FF4FA746F
:100AD0000020E349087020B2E149C88120460CF0AB
:100AE000B9F88246DC490CF015F981460BF006FF97
:100AF00007460022D94B0BF019F905460BF02AFBEB
:100B0000D7494860BDE8F0872DE9F0470446002C3E
:100B100008DBB4F5FA7F01DD4FF4FA740120D14906
:100B2000087008E06442B4F5FA7F01DD4FF4FA740E
:100B30000020CC49087020B2CA49C88120460CF078
:100B400089F88246C4490CF0E5F881460BF0D6FEE0
:100B500007460022C14B0BF0E9F805460BF0FAFA04
:100B6000C0494860BDE8F0872DE9F0470446002CF5
:100B700008DBB4F5FA7F01DD4FF4FA740120BA49BD
:100B8000087008E06442B4F5FA7F01DD4FF4FA74AE
:100B90000020B549087020B2B349C88120460CF046
:100BA00059F88246AC490CF0B5F881460BF0A6FE28
:100BB00007460022A94B0BF0B9F805460BF0CAFA1C
:100BC000A9494860BDE8F08770B504460D465DB19F
:100BD0004FF49661A54806F039FEC4F5966081B2DF
:100BE000A24806F035FE0AE0C4F5966081B29F483F
:100BF00006F02CFE4FF496619C4806F029FE70BD6D
:100C000070B504460D465DB14FF49661974806F005
:100C100019FEC4F5966081B2944806F015FE0AE00C
:100C2000C4F5966081B2914806F00CFE4FF49661CF
:100C30008E4806F009FE70BD70B504460D465DB1E4
:100C40004FF496618A4806F001FEC4F5966081B2C1
:100C5000874806F0FDFD0AE0C4F5966081B284483D
:100C600006F0F4FD4FF49661814806F0F1FD70BD89
:100C700070B504460D465DB14FF496617C4806F0B0
:100C8000E1FDC4F5966081B2794806F0DDFD0AE029
:100C9000C4F5966081B2764806F0D4FD4FF49661B3
:100CA000734806F0D1FD70BD6A48806810F5966FF4
:100CB00002DA70486749886066488068B0F5966FC8
:100CC00003DD4FF49660634988606548806810F5DD
:100CD000966F02DA67486249886061488068B0F5BB
:100CE000966F03DD4FF496605D4988605D488068CB
:100CF00010F5966F02DA5F485A4988605948806853
:100D0000B0F5966F03DD4FF49660564988605648FB
:100D1000806810F5966F02DA564853498860524849
:100D20008068B0F5966F03DD4FF496604E49886099
:100D300070472DE9F04705460C46601B0BF08AFF13
:100D40004D4908610A46116950680BF0E3FF80467F
:100D5000494A516910690CF0E5F881464648016836
:100D600048460BF0D7FF074641460BF0F3FD064619
:100D70004148816930460BF0EDFD3F4988610846E6
:100D8000006948610CB9002088613B4988693B498A
:100D90000CF08CF803D239483749886108E03649AD
:100DA000886900210BF082FF02D20020324988615D
:100DB000314988690BF032FFBDE8F0870146002910
:100DC00001DA002000E0084670472DE9F0470546AB
:100DD0000C46601B0BF03EFF294908610A46116969
:100DE00050680BF097FF8046254A516910690CF056
:100DF00099F881462248016848460BF08BFF074668
:100E000041460BF0A7FD06461D48816930460BF0B0
:100E1000A1FD1B4988610846006948610CB90020A2
:100E200088611749886915490CF040F803D21348C6
:100E30001349886108E01249886900210BF036FFE8
:100E400002D200200E4988610D4988690BF0E6FE48
:100E5000BDE8F0876802002037BEEF3D0000E03FAC
:100E60007C02002090020020A40200200008004024
:100E70000034014050FBFFFF200300200000964497
:100E8000040300202DE9F04705460C46601B0BF0DB
:100E9000E1FEFE4908610A46116950680BF03AFF0D
:100EA0008046FA4A516910690CF03CF88146F748CF
:100EB000016848460BF02EFF074641460BF04AFDFD
:100EC0000646F248816930460BF044FDEF498861DF
:100ED0000846006948610CB900208861EB498869BF
:100EE000EB490BF0E3FF03D2E948E849886108E0E9
:100EF000E649886900210BF0D9FE02D20020E349BF
:100F00008861E24988690BF089FEBDE8F0872DE928
:100F1000F04705460C46601B0BF09CFEDD4908615E
:100F20000A46116950680BF0F5FE8046D94A5169AE
:100F300010690BF0F7FF8146D648016848460BF070
:100F4000E9FE074641460BF005FD0646D14881699A
:100F500030460BF0FFFCCF498861084600694861C4
:100F60000CB900208861CB498869C9490BF09EFF04
:100F700003D2C748C749886108E0C649886900218B
:100F80000BF094FE02D20020C2498861C1498869F1
:100F90000BF044FEBDE8F08770B50025BE48007C2C
:100FA00000F0010058B9BD48C08948BBBC48C089A1
:100FB00030BBBC48C08918BBBB48C08900BB0021FE
:100FC000BA4806F03FFC0021B84806F03DFC00217D
:100FD000B64806F03BFC0021B44806F039FC00217D
:100FE000B34806F02FFC0021B14806F02DFC00218B
:100FF000AF4806F02BFC0021AD4806F029FC70BD7F
:10100000AC48B0F90440A54A5168002C01DB2246E7
:1010100000E062421046FFF77AFF0646FFF7CEFE79
:101020009E498860A348B0F900409D4A5168002C51
:1010300001DB224600E062421046FFF723FF06462E
:10104000FFF7BCFE964988609A48B0F90840954A77
:101050005168002C01DB224600E062421046FFF797
:10106000B4FE0646FFF7AAFE8E4988609148B0F9A3
:1010700002400A465168002C01DB224600E0624231
:101080001046FFF756FE0646FFF798FE8649886031
:10109000FFF70AFE814A11789068FFF7E9FD804A60
:1010A00011789068FFF7C8FD7E4A11789068FFF7C5
:1010B000A7FD7D4A11789068FFF786FD00BF9EE787
:1010C0007D48744908607D4848607B486F490860E6
:1010D0007A48486078487A49086078484860764895
:1010E000784908607548486070472DE9F047044624
:1010F0000D46281B0BF0AEFD7349086008460168D9
:10110000724800680BF026FC70490860704801685E
:101110006D4800680BF006FF80466E480168404647
:101120000BF0F8FD0646694801686B4800680BF053
:10113000F1FD804664480168684800680BF0EAFDEC
:10114000814641460BF006FC074631460BF002FC97
:10115000634908605C4800685D4908606048006851
:101160000BF05CFDBDE8F0872DE9F041044600215D
:1011700020680BF09BFD03D2206880F000402060C7
:10118000002160680BF092FD03D2606880F000409F
:1011900060600021A0680BF089FD03D2A06880F098
:1011A0000040A0600021E0680BF080FD03D2E06801
:1011B00080F00040E0602069E0612169206A0BF066
:1011C000C9FB20620021E0680BF0F4FC13D0E16859
:1011D000206A0BF06BFE02D2E06820620BE0E06850
:1011E00080F000452846216A0BF060FE03D2E068DB
:1011F00080F000402062A16920690BF093FE6062DC
:101200002069A061616AA0680BF084FD0646216A2E
:1012100060680BF07FFD0746E16920680BF07AFDFE
:10122000804639460BF096FB054631460BF092FBA3
:101230006061BDE8F0812DE9F04F93B004460D46A2
:1012400016469946604204B27042642190FBF1F761
:1012500038460AF0DCFF234A03C20022224B214910
:1012600003C90BF03BF8CDE9100148460AF0CFFF67
:10127000CDE908010AF086FC82468B4628460AF032
:10128000C6FF074652465B4630E00000E8020020F9
:1012900000009644CC020020B80200206802002022
:1012A0007C02002090020020A402002000340140B3
:1012B00000080040D80300200000F0420000404039
:1012C00004030020200300203800002040000020FC
:1012D0004400002034000020300000202C000020BA
:1012E0003C00002060000020007070400AF0F6FF13
:1012F000CDE90C0148460AF08AFFCDE9080109F062
:1013000017FF0746884620460AF081FF82463A4684
:1013100043460AF0E3FFCDE90A01DDE90C230AF0B8
:1013200005FDCDE90E01DDE910230AF0FFFC974A27
:1013300003C20022964B974903C90AF0CFFFCDE9BB
:10134000100148460AF063FFCDE9000109F0F0FE04
:1013500082468B46904891490AF014FC0746524653
:101360005B460AF0BBFFCDE9040148460AF04FFF97
:1013700082460AF007FC074688468748874909F0F5
:10138000D7FE81F000413A464346CDE900010AF01C
:10139000A5FFCDE90201DDE904230BF0C5F9CDE994
:1013A000080128460AF033FFCDE90601DDE90823EC
:1013B0000AF094FFCDE90C0148460AF028FFCDE978
:1013C00000010AF0DFFB07468846734874490AF0BB
:1013D000D9FB82463A4643460AF080FFCDE9040134
:1013E00048460AF014FFCDE9000109F0A1FE0746C6
:1013F00088466948694909F09BFE81F000418246B0
:101400003A4643460AF06AFFCDE90201DDE90423CA
:101410000AF08CFCCDE9080120460AF0F8FECDE97F
:101420000601DDE908230AF059FFCDE90A01DDE9EB
:101430000C230AF07BFCCDE90E01DDE910230AF054
:1014400075FC584A03C20022514B524903C90AF0A5
:1014500045FFCDE9100148460AF0D9FECDE900016B
:1014600009F066FE82468B464B484D4909F060FE06
:10147000074652465B460AF031FFCDE90401484673
:101480000AF0C5FE07460AF07DFB82468B464248BD
:1014900043490AF077FB81F0004152465B46CDE9B3
:1014A00000010AF01BFFCDE90201DDE904230AF087
:1014B0003DFCCDE9080128460AF0A9FECDE9060168
:1014C000DDE908230AF00AFFCDE90C0148460AF0DD
:1014D0009EFECDE900010AF055FB82468B462E4860
:1014E0002F4909F025FE074652465B460AF0F6FEF4
:1014F000CDE9040148460AF08AFECDE9000109F071
:1015000017FE07468846244825490AF03BFB81F030
:10151000004182463A4643460AF0E0FECDE9020128
:10152000DDE904230AF002FCCDE9080120460AF0B7
:101530006EFECDE90601DDE908230AF0CFFECDE914
:101540000A01DDE90C230AF0F1FBCDE90E01DDE92A
:1015500010230AF0EBFB144A03C20C4903C90AF03A
:10156000F9FD0746FFF770FA0E4903C90AF0F2FDCC
:101570000746FFF799FA0C4903C90AF0EBFD074645
:10158000FFF7C2FA13B0BDE8F08F0000480000205A
:101590000070704060000020A138DB3752C1F03F7E
:1015A00052C1E03F500000205800002070B50025D7
:1015B00000244DF6ED60F7490880F7488078887080
:1015C000F5480079C870F4488088000A0871F2482C
:1015D000807A4871F0488079887100BF06E0EF4852
:1015E000015DE01DEB4A1154601CC4B2EA488079E9
:1015F000A042F4DC002405E0E648005D284405B282
:10160000601CC4B2E4488078801EA042F4DCE2484A
:101610008078801EDF4A1554C5F30721DE488078A4
:10162000401E1154DC488178104604F0DCF970BD8E
:101630002DE9FC5F57E1DA48007820BB1D21D0205E
:1016400001F092FC1F21D02001F08EFC2121D0203E
:1016500001F08AFC3221A62001F099FC3421A62059
:1016600001F095FC3621A62001F091FC00211A2002
:1016700001F08DFC02211A2001F089FC04211A20BE
:1016800001F085FC2AE11D21D02001F06DFC00B2A3
:1016900000900BF0DFFA01900BF030F98246C14A5E
:1016A000C14B0AF01BFE80468946C049486A0BF0D0
:1016B00025F9064642464B460AF038FB04460AF036
:1016C00003FBBA4948621F21D02001F04DFC00B253
:1016D00000900BF0BFFA01900BF010F98046B14A70
:1016E000B14B0AF0FBFD04460D46B049886A0BF089
:1016F00005F9064622462B460AF018FB82460AF0F8
:10170000E3FAAA4988622121D02001F02DFC00B221
:1017100000900BF09FFA01900BF0F0F80646A14AFA
:10172000A14B0AF0DBFD04460D46A049C86A0BF048
:10173000E5F8804622462B460AF0F8FA82460AF07F
:10174000C3FA9A49C8623221A62001F020FC00B2F7
:1017500000900BF07FFA01900BF0D0F88046914A90
:10176000914B0AF0BBFD04460D469049086B0BF007
:10177000C5F8064622462B460AF0D8FA82460AF0F9
:10178000A3FA8A4908633421A62001F000FC0FFA6D
:1017900080FB58460BF05EFA82460BF0AFF88046AD
:1017A000804A814B0AF09AFD04460D467F49486BFA
:1017B0000BF0A4F8064622462B460AF0B7FACDE90C
:1017C00000010AF081FA794948633621A62001F028
:1017D000DEFB0FFA80FB58460BF03CFA82460BF01A
:1017E0008DF880466F4A704B0AF078FD04460D462E
:1017F0006E49886B0BF082F8064622462B460AF0AB
:1018000095FACDE900010AF05FFA68498863002182
:101810001A2001F0BCFB00B200900BF01BFA019003
:101820000BF06CF880465F4A5F4B0AF057FD0446A8
:101830000D465E49C86B0BF061F8064622462B4602
:101840000AF074FA82460AF03FFA5849C863022146
:101850001A2001F09CFB0FFA80FB58460BF0FAF9B6
:1018600082460BF04BF806464E4A4F4B0AF036FDC7
:1018700004460D464D49086C0BF040F88046224660
:101880002B460AF053FACDE900010AF01DFA474948
:10189000086404211A2001F07AFB0FFA80FB5846F5
:1018A0000BF0D8F982460BF029F880463D4A3E4BB2
:1018B0000AF014FD04460D463C49486C0BF01EF836
:1018C000064622462B460AF031FACDE900010AF01D
:1018D000FBF936494864052007F06BF8304800787A
:1018E000401C2F4908702E4800786528FFF6A3AEEB
:1018F000BDE8FC9F70B5054600242D480078401CCB
:101900002B490870FFF794FE29480078062875D205
:10191000DFE800F0DB031F5275974DF6ED601D49BF
:101920000880232088700020C870F02008710020F3
:1019300048711A2088711F484088184908801D483E
:10194000808848801B48C08888801A480089C880E1
:10195000BCE01D21D02001F007FB00B20F49088137
:101960001F21D02001F000FB00B20C494881212149
:10197000D02001F0F9FA00B20849888108460089B0
:101980000A49088005484089488004488089888041
:101990009CE00000A8070020400300204C0300202A
:1019A0006C0000207B14AE47E17A843F0C040020D9
:1019B0006F000020D80300203221A62001F0E7FAB2
:1019C00000B2FE49C8813421A62001F0E0FA00B23D
:1019D000FA4908823621A62001F0D9FA00B2F74967
:1019E00048820846C089F649C880F448018AF4480C
:1019F0000181F248418AF248418167E065E00021B7
:101A00001A2001F0C4FA00B2EC49888202211A209F
:101A100001F0BDFA00B2E949C88204211A2001F0A0
:101A2000B6FA00B2E54908830846808AE44988810D
:101A3000E248C18AE248C181E048018BE048018266
:101A400044E00020DF4908700DE0DC48DD490978FA
:101A5000415CDC480078C01DDB4A1154D94800784D
:101A6000401CD8490870D8488079D64909788842FE
:101A7000EBDC0020D34908700AE0D348D14909784B
:101A8000405C204404B2CF480078401CCD49087027
:101A9000CD488078801ECB4909788842EDDCCA4861
:101AA0008078801EC84A1454C4F3072110468078F9
:101AB000401E11541DB11046817803F094FF02F0CE
:101AC00035FB0020C149087000E000BF00BF70BDB9
:101AD00010B50022BE48B0F90000BE4B984270D14C
:101AE000BB488078BC4B9870B948C078B84B1B791C
:101AF00000EB0320B84B9880B54840799872B44801
:101B00008079987118468079092847D2DFE800F07B
:101B100046050A4616222E463A00AD48C079AF4B1C
:101B200018803CE0002106E0C81DA94B185CAB4BB7
:101B30005854481CC1B20229F6DB30E0002106E00F
:101B4000C81DA34B185CA54B5854481CC1B20429AE
:101B5000F6DB24E0002106E0C81D9D4B185C9F4B7E
:101B60005854481CC1B20529F6DB18E0002106E0F4
:101B7000C81D974B185C994B5854481CC1B2062994
:101B8000F6DB0CE0002106E0C81D914B185C934B7E
:101B90005854481CC1B20829F6DB00E000BF00BF62
:101BA0008D488078801E8A4B1B5C8B488078401E55
:101BB000874C205C03EB002000B2874B188100218A
:101BC00006E017E08248405C104482B2481CC1B273
:101BD00081488078801E8842F4DC7F48B0F9080094
:101BE000904203D101207C4B187010BD00207A4B2D
:101BF0001870FAE70020F8E72DE9F047FFF768FFD3
:101C000008B9BDE8F08774488088092877D007DCD8
:101C100076D2DFE800F01E22277A8B8F90949F0007
:101C2000B0F5004F6DD008DC0A286BD00B286AD0C5
:101C30000C2869D00D2863D14CE16FF400410844B1
:101C4000002870D001286FD002286ED00328F2D16E
:101C5000BCE143205949088003E240F2071057498C
:101C60000880FEE15E49B1F90C10642201FB02F02C
:101C70000AF0CDFA06465B4A5B4B0AF013F90446BC
:101C80000AF068FA00B24D4908805849B1F90C10C1
:101C9000642201FB02F00AF0BAFA0646514A524B9E
:101CA0000AF000F904460AF055FA00B243494880A8
:101CB0004F49B1F90C10642201FB02F00AF0A7FAB7
:101CC0000646484A484B0AF0EDF804460AF042FA44
:101CD00000B23A4988804749B1F90C10642201FBEF
:101CE00002F00AF094FA06463E4A3F4B0AF0DAF850
:101CF00004460AF02FFA00B23049C880B1E1D9E0B9
:101D0000AEE1FBE0D7E0DBE0DFE0354880892B493E
:101D100008803648808948803548808988803548E1
:101D20008089C8809DE13AE14EE14EE138202349A7
:101D3000088096E195E10B202049088091E12E482A
:101D400080881E4908802C48C08848802A4800891D
:101D5000888086E120488079062804D00C2818D095
:101D600012287DD161E01D21D02001F0FDF800B2E4
:101D7000124908801F21D02001F0F6F800B20F4967
:101D800048802121D02001F0EFF800B20B49888073
:101D90008EE01D21D02001F0E7F800B2074908804D
:101DA0001F21D02001F0E0F800B204494880212131
:101DB000D02001F0D9F800B200491FE04C03002008
:101DC0000C0400206E000020A80700206F000020F7
:101DD0000C080020EDDEFFFF400300206A03002016
:101DE00090020020EC3EB61B934F6A40A4020020F4
:101DF000680200207C020020D80300208880322165
:101E0000A62001F0B1F800B2FE49C8803421A62016
:101E100001F0AAF800B2FB4908813621A62001F0A2
:101E2000A3F800B2F749488142E01D21D02001F01B
:101E30009BF800B2F34908801F21D02001F094F8EC
:101E400000B2F04948802121D02001F08DF800B285
:101E5000EC4988803221A62001F086F800B200E02B
:101E600025E0E849C8803421A62001F07DF800B2C1
:101E7000E44908813621A62001F076F800B2E14954
:101E8000488100211A2001F082F800B2DD498881E2
:101E900002211A2001F07BF800B2DA49C88104213E
:101EA0001A2001F074F800B2D649088200E000BFA1
:101EB00000BFD6E0D5E0D448008AD2490880D0E0FF
:101EC0004FF48070CF490880CBE0CF48807CCD496B
:101ED0000870C6E04320CB49088040F207104880D4
:101EE000382088800B20C8804FF480700881C64855
:101EF000807C88720120C5494870B2E0C448B0F9BE
:101F00000000642190FBF1F948460AF080F9074689
:101F1000C04AC14B0AF0E2F905460AF01BF9044633
:101F2000FEF7F2FDBA48B0F90200642190FBF1F926
:101F300048460AF06CF90746B64AB74B0AF0CEF9A4
:101F400005460AF007F90446FEF70EFEB048B0F960
:101F50000400642190FBF1F948460AF058F907465D
:101F6000AC4AAD4B0AF0BAF905460AF0F3F804465C
:101F7000FEF76AFDA648B0F90600642190FBF1F96E
:101F800048460AF044F90746A24AA34B0AF0A6F9CC
:101F900005460AF0DFF80446FEF786FD61E09C493D
:101FA000B1F90000FEF7B0FD9949B1F90200FEF762
:101FB000DBFD9749B1F90400FEF746FD9449B1F9FC
:101FC0000600FEF771FD4CE04BE04AE09048B0F9A6
:101FD00000008F49B1F9021008438D49B1F904108E
:101FE000084368B101208D490870894BB3F904207A
:101FF000B3F90210B3F900000023FFF71CF911E058
:102000008648007870B10020854908704870887053
:10201000C87000231A4619461846FFF70CF900202D
:102020007E4908707A48B0F906000D2806D00E28BF
:1020300008D00F280AD0102810D10BE001207849D1
:1020400008700BE001207649487007E001207449D0
:10205000887003E001207249C87000BF00BF00E033
:10206000CFE500BF6948807A08B1FFF79FFA00BF4B
:10207000C7E570B504460D460022134620462946A2
:102080000AF0F0F803D285F00041204670BD2046EA
:102090002946FBE72DE9F0476248D0E90C61624828
:1020A0000CC830460AF040FB8046FFF7E2FF0446CA
:1020B00000225E4B0AF0D6F836D25A49D1E90A61BD
:1020C0005B480CC830460AF02FFB0446FFF7D1FFEF
:1020D00080460022554B0AF0C5F825D25148554A92
:1020E000554BD0E90A6130460AF0F8F804465348E7
:1020F0000CC8204609F01AFE504A03C249484D4A0E
:102100004D4BD0E90C6130460AF0E8F804464C48E3
:102110000CC8204609F00AFE494A03C24948007823
:10212000401C484908700CE00021444A116051608D
:10213000434A1160516000203A4981F83800414912
:10214000087040480078142810DD3C48D0E90010A1
:10215000344AC2E910103A4903C9C2E91201012008
:10216000114681F838000020364908702D48D0E922
:102170000C102D4AC2E900102A49D1E90A012C4A63
:1021800003C2BDE8F0872DE9FF5F9CB032ACF0CC14
:1021900022462B46DDE91C010AF0C6FA00224FF068
:1021A0008043CDE912010AF099F88046894632460B
:1021B0003B46DDE91E010AF0B7FA00224FF08043EA
:1021C000CDE912010AF08AF882468B4600224FF0D0
:1021D0008043DDE92A0108F0F9FF00224FF0804337
:1021E000CDE91201DDE9360108F0F0FF00224FF0E1
:1021F0008043CDE90E013046394608F0E7FF002262
:1022000022E000004C030020B80200204003002020
:102210006A030020EC3EB61B934F6A40700000201A
:102220006800002088030020800000200000244077
:10223000780000209A9999999999A93F88000020DF
:1022400090000020980000204FF08043CDE90A0163
:10225000DDE91E0108F0BAFF00224FF08043CDE90E
:1022600006012046294608F0B1FF00224FF08043C6
:10227000CDE90201DDE91C0108F0A8FFCDE900016C
:10228000DDE902230AF050FACDE90401DDE9062375
:1022900009F04CFDCDE90801DDE90A230AF044FA12
:1022A000CDE90C01DDE90E2309F040FDCDE9100177
:1022B000DDE912230AF038FACDE91A0122462B464D
:1022C000DDE92C010AF030FA00224FF08043CDE91D
:1022D00012010AF003F8CDE9180132463B46DDE968
:1022E0002E010AF021FA00224FF08043CDE91201BD
:1022F00009F0F4FFCDE9160100224FF08043DDE93B
:10230000300108F063FF00224FF08043CDE9120155
:10231000DDE9360108F05AFF00224FF08043CDE995
:102320000E013046394608F051FF00224FF080433D
:10233000CDE90A01DDE92E0108F048FF00224FF047
:102340008043CDE906012046294608F03FFF0022E0
:102350004FF08043CDE90201DDE92C0108F036FFA2
:10236000CDE90001DDE902230AF0DEF9CDE904013F
:10237000DDE9062309F0DAFCCDE90801DDE90A23ED
:102380000AF0D2F9CDE90C01DDE90E2309F0CEFC0B
:10239000CDE91001DDE912230AF0C6F9CDE91401F7
:1023A00050465946DDE9182309F098FFCDE90C01A4
:1023B00040464946DDE9162309F090FFCDE90A01C0
:1023C000DDE90C230AF0B0F9CDE910015046594679
:1023D000DDE9142309F082FFCDE90C01DDE91623C4
:1023E000DDE91A0109F07AFFCDE90A01DDE90C23E4
:1023F0000AF09AF9CDE90E01DDE9102309F052FD4A
:102400000022B44BCDE9120109F04CFDB24AC2E9F9
:102410000A0150465946DDE9182309F05FFFCDE96E
:102420000C0140464946DDE9162309F057FFCDE986
:102430000A01DDE90C230AF077F9CDE91001DDE9A5
:102440001823DDE91A0109F049FFCDE90C014046E6
:102450004946DDE9142309F041FFCDE90A01DDE930
:102460000C230AF061F9CDE90E01DDE9102309F032
:1024700019FD0022974BCDE9120109F013FD964A90
:10248000C2E90C01FFF706FE20B0BDE8F09F2DE980
:10249000F0479CB04FF0000AD146002400BF11E184
:1024A0008E4810F80A006D2879D18C490AF1010094
:1024B000085C7228F8D10AF10200085C2028F3D1E8
:1024C0000AF10300085C3028EED10AF10400085C30
:1024D0003728E9D14FF0000921E07F48006800016A
:1024E0007D4908600AF1060048447C490C5C302CA8
:1024F00005DB392C03DCA4F13000C4B206E0612C0A
:1025000004DB662C02DCA4F15700C4B272480068F8
:1025100020447149086009F1010000F0FF09B9F198
:10252000080FDADB4FF0000921E06B48406800013A
:10253000694948600AF10F00484468490C5C302C36
:1025400005DB392C03DCA4F13000C4B206E0612CB9
:1025500004DB662C02DCA4F15700C4B25E4840687C
:1025600020445D49486009F1010000F0FF09B9F11C
:10257000080FDADB4FF0000922E0574880680001BD
:10258000554988600AF11800484454490C5C302CC5
:1025900006DB392C04DCA4F13000C4B207E08DE086
:1025A000612C04DB662C02DCA4F15700C4B24A485B
:1025B000806820444849886009F1010000F0FF0963
:1025C000B9F1080FD9DB4FF0000921E04248C0689B
:1025D00000014149C8600AF1210048443F490C5CB0
:1025E000302C05DB392C03DCA4F13000C4B206E04A
:1025F000612C04DB662C02DCA4F15700C4B236481F
:10260000C06820443449C86009F1010000F0FF09A6
:10261000B9F1080FDADB3049886809F00FFE05468A
:102620000E462D49486A09F009FE074688462A49A0
:10263000086A09F003FECDE91A012749486809F044
:10264000FDFDCDE918012449C86909F0F7FDCDE980
:1026500016012149886909F0F1FDCDE914011E49EF
:10266000086809F0EBFDCDE912011B49486909F042
:10267000E5FDCDE910011849086909F0DFFDCDE954
:102680000A78CDE90C56CDE90E01DDE91A01CDE954
:102690000801DDE91801CDE90601DDE91601CDE902
:1026A0000401DDE91401CDE90201DDE91201CDE902
:1026B00000010EA80FC8FFF766FD07E00AF1010050
:1026C00000F0FF0ABAF1C80FFFF6EAAE00BF1CB077
:1026D000BDE8F08700002440880300207008002037
:1026E00010B5E84A128812B2E74B5A811A46116AAD
:1026F000B2F90A30B2F9142040F27124624303EBBC
:102700004210421A12B2E04B1A8013E0DE4A928A5B
:10271000521E12B2DC4B9A821A46B2F90A30B2F952
:10272000142040F27124624303EB4210421A12B2A9
:10273000D54B1A80D44AB2F9002042F210739A4263
:10274000E4DC13E0D04A928A521C12B2CE4B9A8239
:102750001A46B2F90A30B2F9142040F271246243E9
:1027600003EB4210421A12B2C74B1A80C64AB2F9A2
:102770000020C64B9A42E5DBC34A106210BD10B57B
:102780004FF08042928C12B2BF4B9A811A46516A26
:10279000B2F90C30B2F9162040F27124624303EB17
:1027A0004210421A12B2B84B5A8013E0B64AD28A8B
:1027B000521E12B2B44BDA821A46B2F90C30B2F998
:1027C000162040F27124624303EB4210421A12B207
:1027D000AD4B5A80AC4AB2F9022042F210739A42D1
:1027E000E4DC13E0A84AD28A521C12B2A64BDA8269
:1027F0001A46B2F90C30B2F9162040F27124624345
:1028000003EB4210421A12B29F4B5A809E4AB2F911
:1028100002209E4B9A42E5DB9B4A506210BD10B5E8
:102820009B4A128812B2984BDA811A46916AB2F921
:102830000E30B2F9182040F27124624303EB4210CB
:10284000421A12B2904B9A8013E08F4A128B521E9A
:1028500012B28D4B1A831A46B2F90E30B2F9182013
:1028600040F27124624303EB4210421A12B2864BCB
:102870009A80854AB2F9042042F210739A42E4DC4D
:1028800013E0814A128B521C12B27F4B1A831A46F4
:10289000B2F90E30B2F9182040F27124624303EB12
:1028A0004210421A12B2784B9A80774AB2F9042049
:1028B000764B9A42E5DB744A906210BD10B5754ABA
:1028C000128812B2704B1A821A46D16AB2F91030CD
:1028D000B2F91A2040F27124624303EB4210421A0B
:1028E00012B2694BDA8013E0674A528B521E12B261
:1028F000654B5A831A46B2F91030B2F91A2040F2E9
:102900007124624303EB4210421A12B25E4BDA802A
:102910005D4AB2F9062042F210739A42E4DC13E0F9
:10292000594A528B521C12B2574B5A831A46B2F96B
:102930001030B2F91A2040F27124624303EB4210C6
:10294000421A12B2504BDA804F4AB2F906204F4B6E
:102950009A42E5DB4C4AD06210BD10B54E4A12884F
:1029600012B2494B5A821A46116BB2F91230B2F9BF
:102970001C2040F27124624303EB4210421A12B24F
:10298000414B1A8113E0404A928B521E12B23E4BC9
:102990009A831A46B2F91230B2F91C2040F271241F
:1029A000624303EB4210421A12B2374B1A81364A85
:1029B000B2F9082042F210739A42E4DC13E0324A82
:1029C000928B521C12B2304B9A831A46B2F91230D3
:1029D000B2F91C2040F27124624303EB4210421A08
:1029E00012B2294B1A81284AB2F90820274B9A4281
:1029F000E5DB254A106310BD70B5FFF771FEFFF7E8
:102A0000BEFEFFF70CFFFFF7A8FF1F49B1F9040056
:102A10000AF020F9054621490AF00AF804460AF0AE
:102A2000FDF800B21E4988811749B1F900000AF08B
:102A300011F90546194909F0FBFF04460AF0EEF8C2
:102A400000B2184988811049B1F908000AF002F96A
:102A50000546124909F0ECFF04460AF0DFF800B21F
:102A6000114988810849B1F902000AF0F3F80546D6
:102A70000A4909F0DDFF04460AF0D0F800B20B491C
:102A8000888170BD242C0140D8030020F0D8FFFFBE
:102A90002404004024080040240C004037BEEF3DD1
:102AA000680200207C02002090020020A402002086
:102AB00008B50121082003F095FD2020ADF80000A5
:102AC00003208DF8020014208DF803006946FE48AB
:102AD00003F0CCFA0121FD4803F099FB1020ADF87A
:102AE000000003208DF8020014208DF803006946D1
:102AF000F54803F0BBFA08BD002100BF48E000BF65
:102B000000BF00BF00BF00BF00BF00BF00BF00BFCD
:102B100000BF00BF00BF00BF00BF00BF00BF00BFBD
:102B200000BF00BF00BF00BF00BF00BF00BF00BFAD
:102B300000BF00BF00BF00BF00BF00BF00BF00BF9D
:102B400000BF00BF00BF00BF00BF00BF00BF00BF8D
:102B500000BF00BF00BF00BF00BF00BF00BF00BF7D
:102B600000BF00BF00BF00BF00BF00BF00BF00BF6D
:102B700000BF00BF00BF00BF00BF00BF00BF00BF5D
:102B800000BF00BF00BF00BF00BF00BF00BF491CA7
:102B90008142B4D3704700B52020CB491031086082
:102BA000102008600220FFF7A7FFC7480830006820
:102BB00008B9012000E0002000F0200008B100204A
:102BC00000BD2020C049143108600220FFF794FFA7
:102BD000BD480830006800F0200008B10020EFE791
:102BE0002020B949143108600220FFF785FF012039
:102BF000E6E700B51020B449143108600220FFF761
:102C00007BFF2020B049143108600220FFF774FFD9
:102C10001020AD49103108600220FFF76DFF202021
:102C2000A949103108600220FFF766FF00BD00B51A
:102C30001020A549143108600220FFF75DFF202015
:102C4000A149143108600220FFF756FF10209E4969
:102C5000103108600220FFF74FFF10209A4914310D
:102C600008600220FFF748FF00BD00B5102096491C
:102C7000143108600220FFF73FFF202092491031F5
:102C800008600220FFF738FF10208F4910310860DC
:102C90000220FFF731FF10208B4914310860022019
:102CA000FFF72AFF00BD00B51020874914310860E6
:102CB0000220FFF721FF2020834910310860022005
:102CC000FFF71AFF10208049103108600220FFF73B
:102CD00013FF7D480830006800F0200040B110204C
:102CE0007949143108600220FFF706FF002000BD7B
:102CF00010207549143108600220FFF7FDFE012005
:102D0000F5E710B5034608241EE010206E49143183
:102D100008600220FFF7F0FE03F0800020B12020C1
:102D200069491031086003E02020674914310860C8
:102D30005806030E0220FFF7DFFE10206249103113
:102D400008600220FFF7D8FE2000A4F10101CCB2F8
:102D5000DBD110205C491431086010BD10B5082487
:102D60000023202058491031086017E05806030E50
:102D700010205549143108600220FFF7BDFE1020D5
:102D80005149103108600220FFF7B6FE4E48083066
:102D9000006800F0200008B143F001032000A4F116
:102DA0000101CCB2E2D11020474914310860184625
:102DB00010BD70B506460C461546FFF7ECFE08B987
:102DC000002070BD3046FFF79CFFFFF76CFF18B97D
:102DD000FFF70FFF0020F4E72046FFF792FFFFF711
:102DE00062FF2846FFF78DFFFFF75DFFFFF701FF4A
:102DF0000120E6E770B504460D46FFF7CCFE08B9A2
:102E0000002070BD2046FFF77CFFFFF74CFF18B98C
:102E1000FFF7EFFE0020F4E72846FFF772FFFFF709
:102E200042FFFFF7B8FE611CC8B2FFF76AFFFFF769
:102E30003AFFFFF793FF0646FFF717FFFFF7D9FEAC
:102E40003046DEE7FCB505460E461746FFF7A3FE03
:102E5000A620FFF756FFFFF726FF3220FFF751FFAE
:102E6000FFF721FFFFF797FEA720FFF74AFFFFF7C5
:102E70001AFF002410E0052C06D1FFF76FFF0DF8B4
:102E80000400FFF7F2FE05E0FFF768FF0DF804000D
:102E9000FFF7CDFE601CC4B2062CECDBFFF7A9FEE9
:102EA0009DF800009DF8011000EB012000B2288081
:102EB0009DF802009DF8031000EB012000B2308065
:102EC0009DF8040004E00000000C01400002300006
:102ED0009DF8051000EB012000B23880FCBD10B554
:102EE000FFF7E6FD01220B211A20FFF762FF4022C7
:102EF00020211A20FFF75DFF012221211A20FFF770
:102F000058FF0D2209211A20FFF753FF0B22312110
:102F1000A620FFF74EFF1A222C21A620FFF749FF1B
:102F200008222D21A620FFF744FF80222E21A62073
:102F3000FFF73FFF80223E21D020FFF73AFF072214
:102F40001521D020FFF735FF1E221621D020FFF7D4
:102F500030FF00221721D020FFF72BFF00223E2157
:102F6000D020FFF726FF10BD2DE9F04105460C46A5
:102F700021462846FFF73EFF0646601CC1B22846A0
:102F8000FFF738FF074607EB0620BDE8F0812DE983
:102F9000F04105460C4621462846FFF72BFF074621
:102FA000601CC1B22846FFF725FF064607EB062046
:102FB000BDE8F08100B587B001214FF4047003F043
:102FC00011FB4FF4004003F071FA0420ADF8040047
:102FD00000208DF8070001A9494803F047F8494847
:102FE00004F076FC002002908DF80C008DF80D00A6
:102FF0004FF4602004900020059001208DF8180007
:1030000002A9404804F08BFC01213E4804F0B3FCC7
:103010003C4804F0D2FC00BF3A4804F0D3FC00283E
:10302000FAD1384804F0D8FC00BF364804F0D9FC87
:103030000028FAD107B000BD10B5044607230122CD
:103040002146304804F003FD01212E4804F0D3FC52
:1030500000BF02212B4804F03FFE0028F9D0294888
:1030600004F05CFD10BD2DE9F04107460C4600253B
:10307000002608E03846FFF7DFFF0544052005F08D
:1030800098FC701CC6B2A642F4DBB5FBF4F080B22B
:10309000BDE8F0812DE9F0470C20FFF7CDFF1A497C
:1030A000096808441849086018480078401C174906
:1030B00008700846007805281FD1134800680521CC
:1030C000B0FBF1F0104908600846006809F0B6F856
:1030D00006464FF066320E4B09F000F90446002216
:1030E0000C4B08F0DFFE804609F064F80A4988744A
:1030F00000200549086005490870BDE8F087000018
:1031000000100140002401409C000020A00000208D
:1031100066660A400000B040B80200200020F64970
:103120000882704770B5002500244DF6ED60F34924
:1031300008800B2088700A20C87000200871487130
:103140000220887100BF06E0ED48015DE01DEB4AFA
:103150001154601CC4B2022CF6DB002405E0E748E1
:10316000005D284405B2601CC4B2E4488078801E2B
:10317000A042F4DCE1488078801EE04A1554C5F393
:10318000072110468078401E11541046817802F0C5
:103190002AFC70BD10B5DB480078401CD949087086
:1031A000D948007828B10020D8490870D64908705D
:1031B00010E0D6480078022807DDCF48007C20F0D8
:1031C0000100401CCC49087404E0D0480078401C41
:1031D000CE490870CE48B0F90E00CD49B1F90C10B7
:1031E000401A142809DCCA48B0F90E00C849B1F9E0
:1031F0000C10401A10F1140F05DAC6480078401C74
:10320000C449087011E0C348007832280ADDBA4882
:10321000007C20F00200801CB74908740020BD49E2
:10322000087002E00020BB490870BB48B0F90E00EE
:10323000B949B1F90C10401A142809DCB648B0F9A4
:103240000E00B549B1F90C10401A10F1140F05DA4F
:10325000B2480078401CB149087011E0AF480078CE
:1032600032280ADDA448007C20F00400001DA24999
:1032700008740020A949087002E00020A7490870DE
:10328000A748B0F90E00A649B1F90C10401A14284D
:1032900009DCA348B0F90E00A149B1F90C10401A9D
:1032A00010F1140F05DA9F480078401C9D49087002
:1032B00011E09C48007832280ADD8F48007C20F01D
:1032C000080008308C49087400209649087002E014
:1032D0000020944908709448B0F90E009249B1F961
:1032E0000C10401A142809DC8F48B0F90E008E49E2
:1032F000B1F90C10401A10F1140F05DA8B48007860
:10330000401C8A49087011E08848007832280ADD9C
:103310007948007C20F010001030774908740020B4
:103320008249087002E00020804908708048B0F9A6
:1033300000007F49B1F91210884213D17C48B0F9DE
:103340000210B0F9140081420CD17948B0F9041090
:10335000B0F91600814205D176480078401C7549C5
:10336000087011E07348007832280ADD6248007C5A
:1033700020F0200020306049087400206D4908705A
:1033800002E000206B49087000206B4908700EE0D5
:1033900067486949097830F811101230664A127886
:1033A00020F8121064480078401C63490870624895
:1033B00000780328ECDB5E48B0F906005C49B1F9FF
:1033C0001810884213D15A48B0F90810B0F91A0001
:1033D00081420CD15648B0F90A10B0F91C00814264
:1033E00005D156480078401C5449087011E05348F4
:1033F000007832280ADD4048007C20F04000403050
:103400003D49087400204D49087002E000204B49F6
:1034100008700020484908700FE04548801D464963
:10342000097830F811101230434A127820F812103F
:1034300041480078401C404908703F480078032804
:10344000EBDB3B48B0F90C003949B1F91E1088425A
:1034500013D13748B0F90E10B0F9200081420CD1D9
:103460003348B0F91010B0F92200814205D1344838
:103470000078401C3249087011E03048007832284A
:103480000ADD00202E4908701B48007C20F08000D7
:1034900080301949087402E0002029490870002092
:1034A000254908700FE022480C302349097830F88C
:1034B00011101230204A127820F812101E4800789D
:1034C000401C1D4908701C4800780328EBDB0A48A3
:1034D000008A78B10B4800780A280BDD00200949E2
:1034E00008700548008A06490880FFF71BFE002087
:1034F0000149088210BD0000B8020020A807002082
:103500004C030020A200002040030020A300002064
:1035100090020020A4000020A4020020A5000020AA
:1035200068020020A60000207C020020A7000020E6
:103530000C040020A8000020A1000020A900002009
:10354000AA0000202DE9F04105460C46FE4801681E
:10355000204609F0E7FC0746FC480168384609F0B8
:10356000D9FB0646FA480168304609F0F3F9F849F4
:103570000860F8484168F848006809F0D3FC06463E
:10358000F4488168304609F0CDFCF4490860F14800
:10359000C06880F000404860EE48C06880F000409D
:1035A0008860EF480068C8600868E849096809F061
:1035B000B1FB0646E7480168304609F0CBF9E5491A
:1035C0000860E6494868E149096809F0A3FB064636
:1035D000E0484168304609F0BDF9DE494860DF49FE
:1035E0008868DA49096809F095FB0646D948816878
:1035F000304609F0AFF9D7498860D849C868D3493F
:10360000096809F087FB0646D248C168304609F0D0
:10361000A1F9D049C860CE480168284609F082FC6B
:10362000D0490860D048007809F02CFB0646C9480C
:103630000168304609F06EFBCC490860CA48007842
:1036400009F020FB0646C3488168304609F062FB5A
:10365000C7490860C448007809F014FB0746C3480E
:103660000168384609F056FB0646C24801683046F4
:1036700009F070F9C049086008460168BB48006855
:1036800009F0D6F9BD490860BB480168B848006830
:1036900009F0CEF9BA490860B4480068B949086031
:1036A000B148007809F0EEFA0646AA48416830466B
:1036B00009F030FBB4490860B2480168AF480068BF
:1036C00009F028FB0646A3480168304609F01FFCB4
:1036D000A0490860AC480168A848006809F01AFBD6
:1036E00006469C484168304609F011FC99494860FB
:1036F000A4480168A248006809F00CFB06469548FA
:103700008168304609F003FC924988609E48016850
:103710009B48006809F0FEFA06468E48C1683046AC
:1037200009F0F5FB8B49C8608E4801689348006832
:1037300009F0F0FA064695480168304609F00AF9A2
:1037400092490860874801688D48006809F0E2FAEC
:1037500006467D480168304609F0FCF87A49086061
:1037600008460168204609F0DDFB89490860BDE88C
:10377000F0812DE9F04105460C467348016820466A
:1037800009F0D0FB074671480168384609F0C2FAD3
:1037900006466F480168304609F0DCF86C4908605D
:1037A0006C4841686C48006809F0BCFB06466948F3
:1037B0008168304609F0B6FB684908606548C06812
:1037C00080F0004048606348C06880F00040886036
:1037D00063480068C86008685C49096809F09AFA9B
:1037E00006465C480168304609F0B4F8594908605B
:1037F0005A4948685549096809F08CFA06465548FF
:103800004168304609F0A6F8524948605349886833
:103810004E49096809F07EFA06464E4881683046EE
:1038200009F098F84B4988604C49C86847490968CD
:1038300009F070FA06464748C168304609F08AF830
:103840004449C86042480168284609F06BFB454975
:1038500008604548007809F015FA06463D480168B9
:10386000304609F057FA414908603F48007809F0AE
:1038700009FA064637488168304609F04BFA3C4958
:1038800008603948007809F0FDF9074637480168B3
:10389000384609F03FFA064636480168304609F0D6
:1038A00059F835490860084601683048006809F051
:1038B000BFF832490860304801682D48006809F0B7
:1038C000B7F82F490860294800682E490860264843
:1038D000007809F0D7F906461E484168304609F0DD
:1038E00019FA29490860274801682448006809F046
:1038F00011FA064617480168304609F008FB1549D9
:103900000860214801681D48006809F003FA06466E
:1039100010484168304609F0FAFA0E4948601948E3
:1039200001681748006809F0F5F9064609488168FA
:10393000304609F0ECFA07498860134801681048DE
:10394000006809F0E7F925E0FC000020F400002001
:10395000E000002020010020E80000205C0400209E
:10396000EC00002000010020F800002004010020ED
:1039700008010020F00000200C01002010010020B0
:1039800014010020180100201C010020E400002088
:10399000BC0000200646FE48C168304609F0B7FA70
:1039A000FB49C860FB480168FB48006809F0B2F9B0
:1039B0000646FA480168304608F0CCFFF74908602F
:1039C000F4480168F648006809F0A4F90646F5488D
:1039D0000168304608F0BEFFF249086008460168F9
:1039E000204609F09FFAF0490860BDE8F0812DE912
:1039F000F04105460C46EB480168204609F092FA72
:103A00000746EA480168384609F084F90646E8485E
:103A10000168304608F09EFFE5490860DC484168CF
:103A2000E448006809F07EFA0646D94881683046C5
:103A300009F078FAE0490860D548C06880F0004095
:103A40004860D348C06880F000408860DB48006868
:103A5000C8600868D549096809F05CF90646CC4891
:103A60000168304608F076FFC9490860D2494868C5
:103A7000CE49096809F04EF90646C5484168304606
:103A800008F068FFC2494860CB498868C74909689F
:103A900009F040F90646BE488168304608F05AFFF2
:103AA000BB498860C449C868C049096809F032F94F
:103AB0000646B748C168304608F04CFFB449C860B4
:103AC000BB480168284609F02DFAB2490860BC4895
:103AD000007809F0D7F80646AD480168304609F08D
:103AE00019F9B8490860B648007809F0CBF80646DD
:103AF000A7488168304609F00DF9B3490860B0481D
:103B0000007809F0BFF80746AE480168384609F06A
:103B100001F90646AD480168304608F01BFFAC4984
:103B2000086008460168A748006808F081FF9A49C4
:103B30000860A7480168A448006808F079FF984920
:103B40000860A0480068A34908609D48007809F013
:103B500099F806468E484168304609F0DBF89E49E0
:103B600008609C4801688C48006809F0D3F8064654
:103B700087480168304609F0CAF9854908609648C7
:103B800001688548006809F0C5F806468048416824
:103B9000304609F0BCF97E4948608E48016880488B
:103BA000006809F0B7F8064679488168304609F0A0
:103BB000AEF977498860884801687948006809F05B
:103BC000A9F806467248C168304609F0A0F9704964
:103BD000C860704801687048006809F09BF80646A4
:103BE00073480168304608F0B5FE714908606948BD
:103BF00001686B48006809F08DF80646694801685D
:103C0000304608F0A7FE674908600846016820466C
:103C100009F088F971490860BDE8F0812DE9FF5F7E
:103C20006F49B1F9060009F015F86E4908606C4952
:103C3000B1F9080009F00EF86B4908606849B1F95C
:103C40000A0009F007F8694908606549B1F9000000
:103C500009F000F8614908606149B1F9020008F013
:103C6000F9FF514908605E49B1F9040008F0F2FF1C
:103C70005F4908605F495B48006809F017F807D2A0
:103C80004FF08D415748006808F0D2FE04460FE01F
:103C900059495448006809F045F906464FF08D41EE
:103CA00008F0C6FE05464FF07E5109F030F9044693
:103CB00050494D48006808F0F9FF07D24FF08D4198
:103CC0004948006808F0B4FE82460FE04A49464879
:103CD000006809F027F906464FF08D4108F0A8FE6C
:103CE00005464FF07E5109F012F9824641493F489E
:103CF000006808F0DBFF07D24FF08D413B480068B9
:103D000008F096FE81460AE03B493848006809F011
:103D100009F905464FF08D4108F08AFE8146494673
:103D2000504608F085FE834608F0E8FDCDE9000125
:103D300007F02EF805460022304B08F0CFFA304A43
:103D4000304BCDE9020108F0ADF8074607F0BCFFA3
:103D50002D4908604946204608F06AFE834608F06F
:103D6000CDFD074607F014F80022244BCDE90001F1
:103D700008F0B4FA224A234BCDE9020108F092F888
:103D8000054607F0A1FF21490860214650463FE063
:103D9000200100200001002010010020E000002090
:103DA00014010020FC000020BC000020F4000020D2
:103DB000DC000020E80000205C040020EC00002073
:103DC000F80000200401002008010020F00000207D
:103DD0000C010020180100201C010020B800002068
:103DE0000C040020AC000020B0000020B400002033
:103DF000C000002000F8FF460000404700806640F9
:103E00001F85EB51B81E0940D0000020D4000020CF
:103E100008F00EFE834608F071FD074606F0B8FF75
:103E20000022FE4BCDE9000108F058FA0546FC4A95
:103E3000FC4B08F037F8CDE9020107F045FFFA49DD
:103E40000860FA49FA48006808F030FF03D2F948E0
:103E50000068F8490860F549F548006809F026F857
:103E600005D2F448006880F00040F2490860EF494C
:103E7000F148006808F01AFF03D2F0480068EF49E3
:103E80000860EA49EC48006809F010F805D2EB48F0
:103E9000006880F00040E9490860E449E8480068AB
:103EA00008F004FF03D2E0480068DF490860DF49FA
:103EB000E348006808F0FAFF05D2DB48006880F0AC
:103EC0000040D94908604FF08E41DE48006808F094
:103ED000EDFE10D2DB48006808F010FD07464FF0F9
:103EE0006632D94B07F0DEFF81F00041054607F04E
:103EF000EBFED44908604FF08E41D248006808F0CC
:103F0000D5FF12D2CF480168D04809F00BF883469C
:103F100008F0F4FC07464FF06632CB4B07F0C2FFC7
:103F2000054607F0D1FEC74908604FF08E41C848EA
:103F3000006808F0BBFE10D2C548006808F0DEFC3F
:103F400007464FF06632C04B07F0ACFF81F00041EE
:103F5000054607F0B9FEBE4908604FF08E41BC48E7
:103F6000006808F0A3FF12D2B9480168B74808F00A
:103F7000D9FF834608F0C2FC05464FF06632B24BCB
:103F800007F090FF074607F09FFEB14908604FF029
:103F90008E41B048006808F089FE10D2AD48006834
:103FA00008F0ACFC05464FF06632A74B07F07AFFED
:103FB00081F00041074607F087FEA64908604FF0F0
:103FC0008E41A448006808F071FF12D2A148016830
:103FD0009E4808F0A7FF834608F090FC07464FF084
:103FE0006632994B07F05EFF054607F06DFE994972
:103FF00008609448016891480068FFF7F8FC94480D
:1040000001688C480068FFF7B4FB92480168864855
:104010000068FFF797FABDE8FF9F2DE9F05F0546BE
:104020000E4614468C4801684FF07E5008F07AFF27
:104030008046894801684FF07E5008F073FF814642
:1040400086480168284608F06DFF8246494608F018
:1040500061FE0746414608F05DFE81490860214641
:104060007F48006808F056FE07467E4801683846DB
:1040700008F070FC7B49086078480168284608F021
:1040800051FF8246744801684FF07E5008F04AFFA5
:1040900083464FF0804108F03DFE8146514608F0CE
:1040A00039FE80466F480168404608F053FC0746D9
:1040B000314608F04FFC6C49086021466A480068A8
:1040C00008F028FE074665480168384608F042FCBB
:1040D00062490860BDE8F09F2DE9F05F06460C4696
:1040E00015462946204608F015FE83465F480168BC
:1040F000584608F02FFC80465D4801684FF07E501E
:1041000008F010FF8246414608F004FE0746584872
:104110000168304608F0FEFD8146394608F01AFC79
:104120005249086008460068BDE8F09F2DE9F84F45
:104130005048C088504908804E4800894F4908803F
:104140004C4840894E4908804A4890F84800A8B930
:104150004849B1F9000008F07DFD46494862B1F9CF
:10416000020008F077FD43498862B1F9040008F0C5
:1041700071FD4049C862012081F848003D49B1F90C
:10418000000008F067FD05463A48416A284608F0F5
:10419000C9FE044608F042FD00B23A49088035499C
:1041A000B1F9020008F056FD05463248816A2846FA
:1041B00008F0B8FE044608F031FD00B2324908802C
:1041C0002C49B1F9040008F045FD05462948C16AAB
:1041D000284608F0A7FE044608F020FD00B22B494F
:1041E00008802548B0F9000008F011F80646284A72
:1041F000284B07F057FE044607F066FD2649086085
:104200001E48B0F9000008F002F80646204A214B8B
:1042100007F048FE044607F057FD3FE00080664087
:104220001F85EB51B81E0940D800002000F8FF465A
:10423000AC000020D4000020B0000020D0000020FE
:10424000B4000020B80000206666304000FF7F47C1
:10425000BC000020C00000203001002040010020F0
:10426000340100203C01002038010020B80100206A
:10427000BC0100200C040020440100204601002065
:10428000480100204A0100204C0100204E0100207E
:10429000FCA9F1D24D62304068010020FE4908605F
:1042A000FE48B0F9000007F0B2FF0646FC4AFD4B9D
:1042B00007F0F8FD044607F007FDFB4908600846D3
:1042C0000168FA48006808F0B3FB009008F016FB9C
:1042D000804606F05DFD82460022F54B07F0FEFFAA
:1042E0000646F44AF44B07F0DDFD044607F0ECFC0B
:1042F000F2490860EC480168E748006808F098FB5C
:10430000009008F0FBFA824606F042FD804600224B
:10431000E74B07F0E3FF0646E64AE74B07F0C2FD2E
:10432000044607F0D1FCE6490860DB480168DF4835
:10433000006808F07DFB009008F0E0FA824606F085
:1043400027FD80460022DA4B07F0C8FF0646D94A0F
:10435000D94B07F0A7FD044607F0B6FCD949086021
:10436000D948B0F9000007F052FF06460022D74BAB
:1043700007F098FD044607F0A7FCD5490860D5482A
:10438000B0F9000007F043FF06460022CF4B07F0CC
:1043900089FD044607F098FCCF490860CF48B0F982
:1043A000000007F034FF06460022C84B07F07AFDF4
:1043B000044607F089FCCA4908600846006808F00E
:1043C0002DFC061E01DB314600E07142084607F075
:1043D0001EFF0446C34AC44B07F044FF02D200202C
:1043E000BF49086004F0AAFAC04908600968C04AD9
:1043F0001268881A08F046FC07460021B848006891
:1044000008F090FD8046394608F084FC06464FF0DF
:10441000804108F07FFC0546B64908F009FB0446D8
:10442000B5480168204608F095FAB34908600021B4
:10443000B148006808F03AFC03D2B048AE490860C1
:1044400008E0AF49AC48006808F030FD02D2002017
:10445000A9490860A8480068AA49C864A348006838
:10446000A3490860BDE8F88F0FB597B0179808F01A
:1044700045FAA54AA54BCDE90C0108F055F9CDE95F
:104480000E0107F021FC1790189808F037FAA04A9F
:10449000A04BCDE90C0108F047F9CDE90E0107F07A
:1044A00013FC1890199808F029FA9B4A9B4BCDE908
:1044B0000C0108F039F9CDE90E0107F005FC19905F
:1044C0001D99084608F026FC0A901C99084608F039
:1044D00021FC08901A99084608F01CFC07900899DE
:1044E00008F038FA09900A9908F034FA0B9008F0AD
:1044F00005FACDE90C0107F095FBCDE90E0107F0B7
:10450000E3FB169016991A9808F092FA1A901699E9
:104510001C9808F08DFA1C9016991D9808F088FADE
:104520001D907F4801687F48006808F0F3FB0E90FB
:104530007D4801687D48006808F0ECFB0D900E99FD
:1045400008F0F0FC4FF080410F9008F0E3FB15906D
:10455000754801687248006808F0DCFB0E907348EB
:1045600001687048006808F0D5FB0D900E9908F0BE
:10457000F1F94FF080410F9008F0CCFB14906A489D
:104580000168006808F0C6FB0F9065480168006884
:1045900008F0C0FB0D9065480168006808F0BAFBA0
:1045A0000B9060480168006808F0B4FB0A900B9912
:1045B00008F0B8FC0C900D9908F0B4FC0E900F991F
:1045C00008F0C8F9139014991D9808F0A3FB0F90F8
:1045D00013991C9808F09EFB0E900F9908F0A2FC0E
:1045E000129013991A9808F095FB0F9015991D9841
:1045F00008F090FB0E900F9908F094FC119015991B
:104600001C9808F087FB0F9014991A9808F082FB09
:104610000E900F9908F086FC10904549129808F00A
:1046200079FB0F90434801680F9808F093F94149CE
:1046300008603F49119808F06DFB0F903E480168F3
:104640000F9808F087F93C4908603949109808F03C
:1046500061FB0F90394801680F9808F07BF93749E2
:1046600008604FF08040129908F054FB0E901799A3
:1046700008F070F90F902F4801680F9808F06AF958
:1046800017904FF08040119908F044FB0E90189954
:1046900008F060F90F9053E06C0100204801002001
:1046A000FCA9F1D24D623040700100206801002069
:1046B0000080664038E92F54FB210940800100202A
:1046C00084010020880100204A01002000C02C4005
:1046D0005C0100204C010020600100204E01002000
:1046E000640100209A9999999999B93FC4010020D1
:1046F000C801002000007A447C0100200080B34300
:104700000000B4430C040020EE7C3F355EFA05C087
:104710005396218E7571E7BF64CDC820777107402D
:10472000940100208C0100209801002090010020BD
:104730006F12833A9C010020A0010020A4010020F8
:10474000A64801680F9808F005F918904FF08040CE
:10475000109908F0DFFA0E90199908F0FBF80F9005
:104760009F4801680F9808F0F5F819909D4819992D
:10477000006808F0CFFA0D909B481899006808F07F
:10478000C9FA0B909948006880F000400990179989
:1047900008F0C0FA0A900B9908F0C4FB0C900D9930
:1047A00008F0C0FB92490E9008F0B4FA0F909148BF
:1047B00001680F9808F0CEF88E490860894818996A
:1047C000006808F0A7FA0D9087481999006808F06A
:1047D000A1FA0B9087480168179808F09BFA0A9095
:1047E0000B9908F0B7F80C900D9908F09BFB8049E5
:1047F0000E9008F08FFA0F907C4801680F9808F02F
:10480000A9F87A49086077480168179808F082FA91
:104810000D9076481999006808F07CFA0B9075485D
:104820001899006808F076FA0A900B9908F07AFB5C
:104830000C900D9908F08EF86D490E9008F06AFA08
:104840000F90694801680F9808F084F8664908607D
:1048500008460168179808F05DFA0D9063481899AA
:10486000006808F057FA0B9062481999006808F040
:1048700051FA0A900B9908F06DF80C900D9908F018
:1048800051FB5B490E9008F045FA0F9055480168BE
:104890000F9808F05FF853490860084601680068FF
:1048A00008F038FA0A9050480168006808F032FAB7
:1048B00008904E480168006808F02CFA06904D48B0
:1048C0000168006808F026FA0590069908F042F899
:1048D0000790089908F03EF809900A9908F03AF80C
:1048E0000B9008F00BF8CDE90C0107F09BF9CDE92E
:1048F0000E0107F0E9F916903E481699006808F095
:1049000097F83C49086039481699006808F090F813
:104910003649086034481699006808F089F8324929
:10492000086030481699006808F082F82D49086040
:1049300008460168006808F0EDF906902A48016809
:10494000006808F0E7F9049028480168006808F05A
:10495000E1F9029027480168006808F0DBF901904E
:10496000029907F0F7FF0390049908F0DBFA05902D
:10497000069908F0D7FA079007F0C0FFCDE90A01C1
:10498000184801681B48006808F0C4F905901648EB
:1049900001681648006808F0BDF90490059907F011
:1049A000D9FF4FF08041069008F0B4F9079007F066
:1049B000A5FFCDE90801DDE90A2306F0F9FA4FF079
:1049C00066320D4BCDE90C0107F088FCCDE90E01F4
:1049D00007F07AF9094908601BB000BDA00100206A
:1049E000A4010020980100209401002090010020E3
:1049F0006F12833A8C01002066A64C40A80100206B
:104A000010B50020FE49486008602321FC480830AA
:104A100004F053FB2321FA48943004F04EFB232189
:104A2000F84804F04AFB10BD70B506460C46154622
:104A3000F348406823281CDAF1480068F0494968C7
:104A4000884201D1FFF7DCFFED484168083040F8AB
:104A5000216008384168943040F82140943841681A
:104A6000E84840F82150E6484068401CE449486066
:104A70001BE0E3484068232817D10020E049486044
:104A800008464168083040F8216008384168943091
:104A900040F8214094384168DA4840F82150D8481D
:104AA0000068401CD649086070BD00BFFCE7D448D0
:104AB0000068232802D10020D1490860D04801684D
:104AC0004068401C814201D100207047CC480168F9
:104AD0000068401CCA4A106002F1080010F821006A
:104AE000F3E710B50024C648047808E0C44808304D
:104AF00050F82410C4A004F05FF9601CC4B2C04890
:104B00004068A042F2DC10BDBD480068BC4949685D
:104B1000884201D1012070470020FCE72DE9F041D7
:104B200005460C465A2C02DDA4F10A0084B2B748AF
:104B3000007820B1012810D0022875D19AE0B4483D
:104B4000C06CB449086000232A4619461846FCF791
:104B500072FB0120AD49087093E0002D44DDAC49A3
:104B6000C86CAC49096808F0A1F91DD2204608F0CC
:104B700089F80746A648C16CA74808F0D3F98046D3
:104B8000A4480168404607F0E5FE0646394608F0AD
:104B90008DF909D200231A4619461846FCF74BFB3B
:104BA00002209A49087064E09949C86C99490968DB
:104BB00008F07CF85DD2204608F064F80646944878
:104BC000C16C9448006808F0ADF90746314608F01A
:104BD0006DF94ED200231A4619461846FCF72BFBF6
:104BE00002208A49087044E08949C86C89490968EB
:104BF00008F05CF919D2204608F044F806468449CA
:104C0000C86C8449096808F08DF90746314608F0F8
:104C10004DF90AD200231A4619461846FCF70BFB39
:104C200002207A49087024E02AE07949C86C794961
:104C3000096808F03BF81CD2204608F023F8074624
:104C40007349C86C744907F085FE80467148016855
:104C5000404608F067F90646394608F027F908D2B9
:104C600000231A4619461846FCF7E5FA0220674960
:104C7000087006E00020694908706449087000E087
:104C800000BF00BFBDE8F08103B589B0644800787B
:104C900020B1012821D002287ED11AE300231A4630
:104CA000099801B21846FCF7C6FA5948C06C5D492C
:104CB000086003F043FE5C4908605C4840685C495A
:104CC00008605C4840685C4908605C4840685C4932
:104CD000086001205249087002E3099800287DDD30
:104CE0004B48C06C07904F480168079808F0DEF801
:104CF00075D24748C06C06904A480168069808F08B
:104D000011F95049079008F0D1F869D24048C06CB9
:104D100001460690404808F005F9079041480168AF
:104D2000079807F017FE484908600846006807F032
:104D3000E5FD464A464BCDE9000107F0CFFACDE943
:104D400004013C484068019007F061FACDE9020196
:104D5000DDE9042307F0E8FCCDE9060107F0FAF9E4
:104D6000344948603448006807F051FA374A394BF3
:104D7000CDE9020107F0B2FACDE906012D484068FD
:104D8000039007F044FACDE90401DDE9062307F0BA
:104D900069FA11D2284800E0A1E2006807F037FA6A
:104DA0002A4A2C4BCDE9040107F098FACDE9060117
:104DB00007F0D0F91F4948602348006807F09EFDBE
:104DC000224A234BCDE9000107F088FACDE904011E
:104DD0001A484068019007F01AFA02E064E0FBE02C
:104DE00063E0CDE90201DDE9042306F09FFFCDE990
:104DF000060107F0AFF911494860114800682BE03F
:104E00006C0400208C05002025640A00D3010020DA
:104E10000C040020D40100200000B443D001002085
:104E2000D8010020DC010020F401002068020020ED
:104E3000E80100207C020020E40100209002002014
:104E4000EC01002000004843E00100209A99999964
:104E50009999B93F9999E93F07F0D9F94FF0333261
:104E6000FE4BCDE9020107F039FACDE90601FC4815
:104E70004068039007F0CBF9CDE90401DDE9062392
:104E800007F02AFB10D2F748006807F0C0F94FF08E
:104E90003332F24BCDE9040107F020FACDE90601E7
:104EA00007F058F9EE494860FCE1EF48C06C079004
:104EB000EE480168079808F035F8ED4908600846A3
:104EC000006807F01BFDEB4AEB4BCDE9000107F052
:104ED00005FACDE90401E9484068019007F097F927
:104EE000CDE90201DDE9042306F020FFCDE906014A
:104EF00007F030F9E1494860E148006807F087F9B8
:104F00004FF03332D54BCDE9020107F0E7F9CDE997
:104F10000601DA484068039007F079F9CDE9040109
:104F2000DDE9062307F0D8FA10D2D548006807F06B
:104F30006EF94FF03332C94BCDE9040107F0CEF9D9
:104F4000CDE9060107F006F9CC494860C848006879
:104F500007F0D4FCC74AC84BCDE9000107F0BEF901
:104F6000CDE90401BE484068019007F050F9CDE951
:104F70000201DDE9042307F0D7FBCDE9060107F0C4
:104F8000E9F8B7494860B748006807F040F9B94AFE
:104F9000BC4BCDE9020107F0A1F9CDE90601B0480B
:104FA0004068039007F033F9CDE90401DDE90623F9
:104FB00007F058F90FD2AB48006807F028F9AD4A5E
:104FC000B04BCDE9040107F089F9CDE9060107F0FE
:104FD000C1F8A349486065E1A348C06C0790A348A5
:104FE0000168079807F062FEF5D29F48C06C0690F2
:104FF0009E480168069807F095FFA349079007F0BF
:1050000055FE7DD299480168A04807F08BFF0790B4
:105010009548C06C01460690079807F09BFC9449A0
:1050200008600846006807F069FC924A924BCDE997
:10503000000107F053F9CDE9040190484068019060
:1050400007F0E5F8CDE90201DDE9042306F06EFE84
:10505000CDE9060107F07EF8884948608848006875
:1050600007F0D5F84FF033327C4BCDE9020107F061
:1050700035F9CDE9060181484068039007F0C7F88B
:10508000CDE90401DDE9062307F026FA10D27C48B9
:10509000006807F0BCF84FF03332704BCDE90401E3
:1050A00007F01CF9CDE9060107F054F87349486090
:1050B0006F48006807F022FC6E4A6F4BCDE9000193
:1050C00007F00CF9CDE9040165484068019007F04C
:1050D0009EF8CDE90201DDE9042307F025FBCDE9C7
:1050E000060107F037F85E4948605E48006807F03F
:1050F0008EF8604A634BCDE9020107F0EFF800E05B
:105100001EE0CDE9060156484068039007F07FF89D
:10511000CDE90401DDE9062307F0A4F80FD25148D8
:10512000006807F074F8534A564BCDE9040107F0C4
:10513000D5F8CDE9060107F00DF849494860B1E01E
:105140004948C06C014607904848006807F0EAFEED
:10515000474908600846006807F0D0FB454A464BBF
:10516000CDE9000107F0BAF8CDE9040143484068F1
:10517000019007F04CF8CDE90201DDE9042307F0C6
:10518000D3FACDE9060106F0E5FF3C4948603C480A
:10519000006807F03CF8374A3A4BCDE9020107F0C6
:1051A0009DF8CDE9060135484068039007F02FF8D7
:1051B000CDE90401DDE9062307F054F80FD23048A9
:1051C000006807F024F82B4A2E4BCDE9040107F0C4
:1051D00085F8CDE9060106F0BDFF2849486024485E
:1051E000006807F08BFB234A234BCDE9000107F051
:1051F00075F8CDE904011A484068019007F007F8F6
:10520000CDE90201DDE9042306F090FDCDE90601B8
:1052100006F0A0FF124948601248006806F0F7FF48
:105220004FF033320D4BCDE9020107F057F8CDE9CD
:1052300006010B484068039006F0E9FFCDE9040140
:10524000DDE9062307F048F92CD20648006806F08D
:10525000DEFF4FF03332014B1AE000003333F33FEF
:1052600090020020EC0100200C040020DC01002052
:10527000E00100209A9999999999B93F7C02002000
:10528000E40100209999E93F000048C30000B443BD
:10529000CDE9040107F022F8CDE9060106F05AFF36
:1052A000FC49486003F04AFBFB4908600846006877
:1052B000FA490968401A0A99B1EB400F08D2002355
:1052C0001A4619461846FBF7B6FF0220F449087043
:1052D00006E00020F3490870F149087000E000BFC3
:1052E00000BF0BB000BD10B5EF4890F8480000B902
:1052F00010BDEC48007898B9EC480078401CEB49A8
:10530000087008460078642809DDFFF7D0FBE849FB
:1053100008700120E34908700020E4490870E7E7BD
:10532000E348007806285CD2DFE800F0030B1B1C82
:10533000344B0020DB4908700221DE4802F0C2FE37
:1053400050E0DD4A1268521EDB4B943353F82210B2
:10535000D94A1268521E8C3353F82200FFF794FC8E
:1053600040E03FE0D44A1268521ED44B53F822402A
:10537000002C01DB224600E06242524250B2CE4A8B
:105380001268521ECD4B8C3B33F8222091B2FFF7AE
:10539000C5FB27E0C84A1268521EC84B53F822408A
:1053A000002C01DB224600E0624250B2C24A126881
:1053B000521EC24B8C3B33F8222091B2FFF7AEFB5A
:1053C00010E00020B7490870FFF71AFB00231A46C7
:1053D00019461846FBF72FFF0221B64802F072FE6D
:1053E00000E000BF00BF00BF82E770B504460D4675
:1053F0001646B04803F08DF9022805D1FFF700FBEF
:105400000121AC4802F05EFE324629462046FFF7F5
:105410000BFB70BD2DE9F04F89B004460D461646D2
:105420001F46DDE9120106F0C5FEA5490861DDE968
:10543000140106F0BFFEA2494861DDE9160106F03D
:10544000B9FE9F498861DDE9180106F0B3FE9C4969
:10545000C861DDE91A0106F0ADFE99490862DDE98F
:105460001C0106F0A7FE964948629648007878B974
:105470000020954908700021944A11605160944AB7
:1054800011605160934A1060506009B0BDE8F08F20
:105490008D48007809287BD2DFE800F0051D27C180
:1054A000FBFAF9F8F700864890F8380090B1002030
:1054B000834981F838000846D0E90C10844AC2E9D3
:1054C00000107F48D0E90A10804AC2E9001001208C
:1054D0007D49087057E2C82240F6B8310120FFF735
:1054E00084FF0220784908704DE2724803F011F9F8
:1054F000022878D16B4800780028FAD1704890F8DB
:10550000380000286FD000206D4981F83800D1E9BB
:105510000A816E480CC8404607F006F9CDE9020141
:105520006749D1E90C816A480CC8404607F0FCF88D
:10553000CDE90001DDE9022306F0B4FC824605F066
:1055400027FC0022644BCDE9040106F0C7FE634A44
:10555000634BCDE9060106F0A5FC5E4A03C20022BA
:1055600013465C4903C906F0B7FF2AD85448D0E96E
:105570000A8156480CC8404606F0AEFF11D855497E
:1055800003C906F0E7FDB0F1000802DB404602E087
:10559000F8E1C8F10000014664220420FFF725FF6E
:1055A00039E04C480CC800204B4907F0BDF8804654
:1055B00006F0D0FD8246642251460320FFF715FF16
:1055C00029E03F48D0E90A8140480CC8404606F02F
:1055D00083FF11D83F4903C906F0BCFDB0F10008B4
:1055E00002DB404602E019E0C8F1000001466422F7
:1055F0000320FFF7FAFE0EE036480CC800203649BB
:1056000006F094FB804606F0A5FD824664225146D2
:105610000420FFF7EAFE03202B490870B3E1284875
:10562000D0E90C102A4AC2E900102549D1E90A0143
:10563000264A03C22248D0E90A8342462046294628
:1056400006F04AFF09D2C82247F230510120FFF785
:10565000CCFE04201C49087047E01949D1E90A83AF
:1056600042462046294606F0FDFD3BD26422B42185
:105670000420FFF7BAFEC82247F230510120FFF79D
:10568000B4FE0420104908702FE02EE10FE1E6E09F
:105690004AE02BE090020020F0010020F4010020FD
:1056A000D8010020D00100200C040020D2010020ED
:1056B000D1010020F18900086C0400208C05002035
:1056C000880300206800002010020020F80100205C
:1056D000000200200802002000806640F1D4C85378
:1056E000FB2109400420A94908704CE1A849D1E9EF
:1056F0000A8342462046294606F024FFCDE90601EA
:1057000006F028FDB0F1000A01DB504601E0CAF1C5
:105710000000142807DA002211460520FFF765FE75
:1057200005209A4908702EE19A4802F0F2FF0228FB
:1057300079D1994800780028FAD1954890F8380036
:10574000002870D00020924981F838000846D0E93E
:105750000A8192480CC8404606F0E6FF82468B4616
:105760008B49D1E90C818E480CC8404606F0DCFF1D
:1057700052465B46CDE9000106F094FBCDE90201FB
:1057800005F006FB0022874BCDE9040106F0A6FDDB
:10579000854A864BCDE9060106F084FB844A03C2A4
:1057A00000221346824903C906F096FE29D878499B
:1057B000D1E90A8179480CC8404606F08DFE10D820
:1057C0007B4903C906F0C6FCB0F1000801DB404686
:1057D00001E0C8F10000014664220420FFF705FE45
:1057E00039E073480CC800206E4906F09DFF8046E2
:1057F00006F0B0FC8246642251460320FFF7F5FD17
:1058000029E06349D1E90A8164480CC8404606F0A2
:1058100063FE11D8664903C906F09CFCB0F100088C
:1058200002DB404602E019E0C8F1000001466422B4
:105830000320FFF7DAFD0EE05D480CC8002059494F
:1058400006F074FA804606F085FC824664225146D2
:105850000420FFF7CAFD06204C49087093E04C482D
:1058600032463B46D0E90C81404606F0FBFC08D2AC
:1058700064225A210320FFF7B8FD0720434908702E
:1058800014E04349D1E90C8132463B46404606F0DC
:1058900023FE08D264225A210420FFF7A6FD072028
:1058A0003A49087002E00720384908706BE039482F
:1058B00002F02FFF022817D137480078A0B9002343
:1058C0001A46C8211846FBF7B6FC3A4840683A49E0
:1058D00008603A4840683A4908603A4840683A499E
:1058E00008600820294908704DE0294832463B46A7
:1058F000D0E90C81404606F017FFCDE9060106F01D
:1059000029FCB0F1000A01DB504601E0CAF10000B9
:1059100014280ADA002211460520FFF766FD002050
:105920002A490870194908702BE01949D1E90A0180
:1059300022462B46CDE9060106F0F6FE80460022FF
:105940004FF0804306F0CAFC824606F003FC204973
:10595000086008460068322802DD3220086008E04E
:105960001B48006810F1320F03DA6FF0310018495C
:10597000086000231A46C8211548008800B2FBF7CA
:105980005AFC00E000BF00BF00BF7EE5100200200F
:1059900088030020F1890008D0010020F8010020D0
:1059A0000002002000806640F1D4C853FB2109406A
:1059B0000802002068020020180200207C0200205B
:1059C00014020020900200201C0200206800002029
:1059D0002002002010B54FF4A06000F079FA10BD4D
:1059E00000BF7047704770B505460C460021F84867
:1059F00002F063FAC82C01D9002070BD2246294666
:105A0000F44803F015FB2146F14802F06BFA01213E
:105A1000EF4802F052FA0120EFE700B58BB0012108
:105A2000084600F0D2FDEA48143802F079F9E84857
:105A300002F076F9E8480090E848019000200290D2
:105A4000C82003900020049080200590002006903C
:105A5000079008904FF44050099000200A90694642
:105A6000DB48143802F0FEF90121D948143802F05D
:105A700024FAD9480090D7480190102002900920BC
:105A8000039000200490802005900020069007904D
:105A900008904FF48050099000200A906946CC4845
:105AA00002F0E0F901224021CB48001F00F0FEFE89
:105AB00001228021C848001F00F0F8FE0BB000BD95
:105AC00008B510208DF8000000208DF8010001209D
:105AD0008DF802008DF80300684600F0FEF92620DC
