:020000040800F2
:1000000070220020515C0008B7020008B902000805
:10001000BD020008C1020008C5020008000000007F
:10002000000000000000000000000000C9020008FD
:10003000CB020008000000008B890008BF84000884
:100040006B5C00086B5C00086B5C00086B5C000874
:100050006B5C00086B5C00086B5C00086B5C000864
:100060006B5C00086B5C00086B5C00086B5C000854
:100070006B5C0008FD5B00086B5C00086B5C0008B3
:10008000B55900086B5C00086B5C00086B5C0008ED
:100090006B5C00086B5C00086B5C00086B5C000824
:1000A0006B5C00086B5C00086B5C00086B5C000814
:1000B0006B5C00086B5C00086B5C00086B5C000804
:1000C0006B5C00086B5C00086B5C00086B5C0008F4
:1000D0006B5C00086B5C000855590008B95B0008B0
:1000E0006B5C00086B5C00086B5C00086B5C0008D4
:1000F0006B5C00086B5C00086B5C00086B5C0008C4
:100100006B5C00086B5C00086B5C00086B5C0008B3
:100110006B5C00086B5C0008F10900086B5C000870
:100120006B5C00086B5C00086B5C00086B5C000893
:1001300000F002F800F0B0F80AA090E8000C824449
:100140008344AAF10107DA4501D100F0A5F8AFF226
:10015000090EBAE80F0013F0010F18BFFB1A43F0A5
:1001600001031847D0CF0000F0CF00000A444FF041
:10017000000C10F8013B13F0070408BF10F8014B06
:100180001D1108BF10F8015B641E05D010F8016B4B
:10019000641E01F8016BF9D113F0080F1EBF10F8AF
:1001A000014BAD1C0C1B09D16D1E58BF01F801CBD2
:1001B000FAD505E014F8016B01F8016B6D1EF9D555
:1001C0009142D6D37047000000230024002500266A
:1001D000103A28BF78C1FBD8520728BF30C148BFAA
:1001E0000B6070476E2908F0FA86702909F0798251
:1001F00066290CF0968565290CF0938567290CF02B
:1002000090856129AFF3008003681B0A28BF41F085
:100210008001692908F09084642908F08D8475298B
:1002200008F08A846F2909F00782782909F045824D
:10023000E92909F0A181E42909F09E81F52909F055
:100240009B81EF2909F00482F82909F044820368B0
:10025000DB0928BF41F08001632909F0108173296F
:1002600009F01581E32909F03383F32909F0388374
:10027000002070471FB509F093FA04000020002108
:100280000BF096FB401C6060002000210BF07AFB15
:10029000E0601FBD10B510BD09F0DAFB1146FFF795
:1002A000E9FF08F0EBFA09F001FC03B4FFF7F2FFF5
:1002B00003BC05F075FA704700BFFEE700BFFEE71C
:1002C00000BFFEE700BFFEE7704770470CB5002097
:1002D000019000906C48006840F480306A490860E2
:1002E00000BF6948006800F4003000900198401C8D
:1002F0000190009818B90198B0F5A06FF1D162484B
:10030000006800F4003010B10120009001E00020EE
:1003100000900098012843D15C48006840F010002C
:100320005A4908600846006820F003000860084643
:10033000006840F002000860534840685249486035
:100340000846406848600846406840F4806048605D
:100350000846406820F47C1048600846406840F435
:10036000E81048600846006840F08070086000BFF0
:100370004548006800F000700028F9D04248406805
:1003800020F00300404948600846406840F0020001
:10039000486000BF3C48406800F00C000828F9D1D4
:1003A0000CBD10B5FFF792FF10BD10B536480068C0
:1003B00040F001003449086008464068344908406C
:1003C0003149486008460068324908402E490860B3
:1003D0000846006820F4802008600846406820F441
:1003E000FE0048604FF41F008860FFF7DAFF4FF00F
:1003F00000602949086010BD10B5002100200022CE
:10040000214B5B6803F00C0121B1042906D00829B7
:1004100028D107E0214B224C236027E01F4B204CC2
:10042000236023E0184B5B6803F47010164B5B6885
:1004300003F48032022303EB904022B9194B43436B
:10044000174C23600DE0104B5B6803F4003323B1BD
:10045000144B4343124C236003E0104B4343104CB6
:10046000236003E00D4B0E4C236000BF00BF064B22
:100470005B68C3F303130C4CE15C094B1B68CB4076
:10048000074C236010BD0000001002400020024015
:100490000000FFF8FFFFF6FE08ED00E000127A0012
:1004A0000000002000093D000400002030B589B0A4
:1004B00005460C460121480305F074FF0121112077
:1004C00005F070FF4FF47070ADF8200018208DF823
:1004D000230003208DF8220008A9FA4805F0A6FCA5
:1004E000ADF81850ADF814400020ADF81A00ADF882
:1004F000160005A9F44806F091FA7020ADF8040042
:100500000120ADF806000020ADF80A00ADF80C009F
:1005100001A9ED4806F0BFFA01A9EB4806F0FDFA83
:1005200001A9E94806F046FB01A9E74806F08DFB62
:100530000121E54806F0DAFD0821E34806F0FAFE5D
:100540000821E14806F0FFFE0821DF4806F008FF19
:100550000821DD4806F00DFF0121DB4806F0BAFE58
:100560000121D94806F0B6FD0021D74807F04AF826
:100570000021D54807F048F80021D34807F046F895
:100580000021D14807F044F809B030BD30B589B03A
:1005900005460C460121042005F011FF0121092028
:1005A00005F000FF4FF47070ADF8200018208DF8B2
:1005B000230003208DF8220008A9C44805F036FC6A
:1005C000ADF81850ADF814400020ADF81A00ADF8A1
:1005D000160005A9BE4806F021FA7020ADF8040007
:1005E0000120ADF806000020ADF80A00ADF80C00BF
:1005F00001A9B74806F04FFA01A9B54806F08DFAEF
:1006000001A9B34806F0D6FA01A9B14806F01DFBCE
:100610000121AF4806F06AFD0821AD4806F08AFEC8
:100620000821AB4806F08FFE0821A94806F098FE85
:100630000821A74806F09DFE0121A54806F04AFEC4
:100640000121A34806F046FD0021A14806F0DAFF8B
:1006500000219F4806F0D8FF00219D4806F0D6FFF4
:1006600000219B4806F0D4FF09B030BD00B587B02B
:100670000121084605F096FE0121C80205F092FE10
:100680000121042005F08EFE4FF44070ADF81800F3
:1006900048208DF81B0003208DF81A0006A98D480C
:1006A00005F0C4FB012211028A4805F070FC01220A
:1006B0005102884805F06BFC44F62060ADF810004C
:1006C0000020ADF80C00ADF81200ADF80E0003A943
:1006D000814806F0A3F90A231A4603217E4806F052
:1006E000ACFD684606F0D9FC0820ADF80800694664
:1006F000794806F026FC0121774806F0B1FF012277
:100700001146754806F001FD002073492431088028
:100710000121714806F0DEFC07B000BD00B587B0CE
:1007200001216E4805F053FC0121084605F03AFE10
:100730000121084605F043FE0121042005F032FEA8
:100740000121082005F02EFE0121654805F03FFC3F
:100750004FF40040ADF8180004208DF81B00032072
:100760008DF81A0006A95B4805F060FB0122D10351
:10077000584805F00CFC0820ADF8180004208DF84E
:100780001B0003208DF81A0006A9504805F04EFB07
:10079000012208214D4805F0FAFB4FF0804006F099
:1007A00069F803A94FF0804006F038F944F620605C
:1007B000ADF810000020ADF80C00ADF81200ADF857
:1007C0000E0003A94FF0804006F028F900231A46D6
:1007D00003214FF0804006F030FD684606F05DFCD6
:1007E0000620ADF8080069464FF0804006F0A9FBEE
:1007F0000121880706F034FF01221146900706F018
:1008000084FC00204FF0804188840121880706F095
:1008100061FC07B000BD00B587B00121084605F0B6
:10082000C1FD0121022005F0CAFD0121042005F0CF
:10083000B9FDC020ADF8180048208DF81B0003203A
:100840008DF81A0006A9234805F0F0FA012240218C
:10085000204805F09CFB012280211E4805F097FBF3
:1008600044F62060ADF810000020ADF80C00ADF8A3
:100870001200ADF80E0003A91A4806F0CFF80A23BB
:100880001A460321174806F0D8FC684606F005FC16
:100890000820ADF808006946124806F052FB012115
:1008A000104806F0DDFE012211460E4806F02DFC30
:1008B00000200C492431088001210A4806F00AFC76
:1008C00007B000BD0010014000340140000C0140A1
:1008D0000008004000080140002C014000023000E8
:1008E000000318000004004000B587B0012108464D
:1008F00005F058FD0121082005F061FD01210420CB
:1009000005F050FD0320ADF8180048208DF81B00BD
:1009100003208DF81A0006A9474805F087FA01223E
:100920001146454805F033FB01220221424805F0FB
:100930002EFB44F62060ADF810000020ADF80C004E
:10094000ADF81200ADF80E0003A93C4806F066F8B9
:100950000A231A460321394806F06FFC684606F060
:100960009CFB0820ADF808006946344806F0E9FA17
:100970000121324806F074FE012211462F4806F08C
:10098000C4FB00202D492431088001212B4806F0AA
:10099000A1FB07B000BD7FB505460C460121102024
:1009A00005F00DFDADF80850ADF804400020ADF89D
:1009B0000A00ADF8060001A9214806F02FF801222F
:1009C00011461F4806F0A1FB36208DF800000020DC
:1009D0008DF8010003208DF8020001208DF803003E
:1009E000684605F05AF90121154806F073FB7FBDF2
:1009F00010B50121124806F036FE40B111480068DA
:100A0000401C1049086001210D4806F03DFE10BD54
:100A100010B5FFF72BFEFFF781FEFFF7FCFE1D214F
:100A200040F2AF40FFF7B2FDFFF75EFF1D2140F23D
:100A3000AF40FFF73BFD10BD00080140000C004037
:100A400000100040140000202DE9F0470446002C5F
:100A500008DBB4F5FA7F01DD4FF4FA740120FD499B
:100A6000087008E06442B4F5FA7F01DD4FF4FA74CF
:100A70000020F849087020B2F649C88120460BF0E2
:100A800073FF8246F4490BF0CFFF81460BF0C0FDA7
:100A900007460022F14B0AF0D3FF05460BF0E4F9BC
:100AA000EC494860BDE8F0872DE9F0470446002C8A
:100AB00008DBB4F5FA7F01DD4FF4FA740120E84950
:100AC000087008E06442B4F5FA7F01DD4FF4FA746F
:100AD0000020E349087020B2E149C88120460BF0AC
:100AE00043FF8246DC490BF09FFF81460BF090FDEF
:100AF00007460022D94B0AF0A3FF05460BF0B4F9D4
:100B0000D7494860BDE8F0872DE9F0470446002C3E
:100B100008DBB4F5FA7F01DD4FF4FA740120D14906
:100B2000087008E06442B4F5FA7F01DD4FF4FA740E
:100B30000020CC49087020B2CA49C88120460BF079
:100B400013FF8246C4490BF06FFF81460BF060FD36
:100B500007460022C14B0AF073FF05460BF084F9EB
:100B6000C0494860BDE8F0872DE9F0470446002CF5
:100B700008DBB4F5FA7F01DD4FF4FA740120BA49BD
:100B8000087008E06442B4F5FA7F01DD4FF4FA74AE
:100B90000020B549087020B2B349C88120460BF047
:100BA000E3FE8246AC490BF03FFF81460BF030FD7F
:100BB00007460022A94B0AF043FF05460BF054F903
:100BC000A9494860BDE8F08770B504460D465DB19F
:100BD0004FF49661A54806F019FDC4F5966081B200
:100BE000A24806F015FD0AE0C4F5966081B29F4860
:100BF00006F00CFD4FF496619C4806F009FD70BDAF
:100C000070B504460D465DB14FF49661974806F005
:100C1000F9FCC4F5966081B2944806F0F5FC0AE050
:100C2000C4F5966081B2914806F0ECFC4FF49661F1
:100C30008E4806F0E9FC70BD70B504460D465DB106
:100C40004FF496618A4806F0E1FCC4F5966081B2E3
:100C5000874806F0DDFC0AE0C4F5966081B284485E
:100C600006F0D4FC4FF49661814806F0D1FC70BDCB
:100C700070B504460D465DB14FF496617C4806F0B0
:100C8000C1FCC4F5966081B2794806F0BDFC0AE06B
:100C9000C4F5966081B2764806F0B4FC4FF49661D4
:100CA000734806F0B1FC70BD6A48806810F5966F15
:100CB00002DA70486749886066488068B0F5966FC8
:100CC00003DD4FF49660634988606548806810F5DD
:100CD000966F02DA67486249886061488068B0F5BB
:100CE000966F03DD4FF496605D4988605D488068CB
:100CF00010F5966F02DA5F485A4988605948806853
:100D0000B0F5966F03DD4FF49660564988605648FB
:100D1000806810F5966F02DA564853498860524849
:100D20008068B0F5966F03DD4FF496604E49886099
:100D300070472DE9F04705460C46601B0BF014FE8A
:100D40004D4908610A46116950680BF06DFE8046F6
:100D5000494A516910690BF06FFF814646480168A6
:100D600048460BF061FE074641460BF07DFC064607
:100D70004148816930460BF077FC3F49886108465D
:100D8000006948610CB9002088613B4988693B498A
:100D90000BF016FF03D239483749886108E036491D
:100DA000886900210BF00CFE02D2002032498861D4
:100DB000314988690BF0BCFDBDE8F0870146002988
:100DC00001DA002000E0084670472DE9F0470546AB
:100DD0000C46601B0BF0C8FD294908610A461169E1
:100DE00050680BF021FE8046254A516910690BF0CE
:100DF00023FF81462248016848460BF015FE07464E
:100E000041460BF031FC06461D48816930460BF027
:100E10002BFC1B4988610846006948610CB9002019
:100E200088611749886915490BF0CAFE03D2134837
:100E30001349886108E01249886900210BF0C0FD60
:100E400002D200200E4988610D4988690BF070FDBF
:100E5000BDE8F0874002002037BEEF3D0000E03FD4
:100E600054020020680200207C020020000800409C
:100E70000034014050FBFFFFF802002000009644C0
:100E8000DC0200202DE9F04705460C46601B0BF004
:100E90006BFDFE4908610A46116950680BF0C4FDFC
:100EA0008046FA4A516910690BF0C6FE8146F74840
:100EB000016848460BF0B8FD074641460BF0D4FBED
:100EC0000646F248816930460BF0CEFBEF49886157
:100ED0000846006948610CB900208861EB498869BF
:100EE000EB490BF06DFE03D2E948E849886108E060
:100EF000E649886900210BF063FD02D20020E34936
:100F00008861E24988690BF013FDBDE8F0872DE99F
:100F1000F04705460C46601B0BF026FDDD490861D5
:100F20000A46116950680BF07FFD8046D94A516925
:100F300010690BF081FE8146D648016848460BF0E7
:100F400073FD074641460BF08FFB0646D148816989
:100F500030460BF089FBCF4988610846006948613B
:100F60000CB900208861CB498869C9490BF028FE7B
:100F700003D2C748C749886108E0C649886900218B
:100F80000BF01EFD02D20020C2498861C149886968
:100F90000BF0CEFCBDE8F08770B50025BE48007CA4
:100FA00000F0010058B9BD48C08948BBBC48C089A1
:100FB00030BBBC48C08918BBBB48C08900BB0021FE
:100FC000BA4806F01FFB0021B84806F01DFB0021BF
:100FD000B64806F01BFB0021B44806F019FB0021BF
:100FE000B34806F00FFB0021B14806F00DFB0021CD
:100FF000AF4806F00BFB0021AD4806F009FB70BDC1
:10100000AC48B0F90440A54A5168002C01DB2246E7
:1010100000E062421046FFF77AFF0646FFF7CEFE79
:101020009E498860A348B0F900409D4A5168002C51
:1010300001DB224600E062421046FFF723FF06462E
:10104000FFF7BCFE964988609A48B0F90840954A77
:101050005168002C01DB224600E062421046FFF797
:10106000B4FE0646FFF7AAFE8E4988609148B0F9A3
:1010700002400A465168002C01DB224600E0624231
:101080001046FFF756FE0646FFF798FE8649886031
:10109000FFF70AFE814A11789068FFF7E9FD804A60
:1010A00011789068FFF7C8FD7E4A11789068FFF7C5
:1010B000A7FD7D4A11789068FFF786FD00BF9EE787
:1010C0007D48744908607D4848607B486F490860E6
:1010D0007A48486078487A49086078484860764895
:1010E000784908607548486070472DE9F047044624
:1010F0000D46281B0BF038FC734908600846016850
:10110000724800680BF0B0FA7049086070480168D6
:101110006D4800680BF090FD80466E4801684046BF
:101120000BF082FC0646694801686B4800680BF0CA
:101130007BFC804664480168684800680BF074FCDA
:10114000814641460BF090FA074631460BF08CFA87
:10115000634908605C4800685D4908606048006851
:101160000BF0E6FBBDE8F0872DE9F04104460021D5
:1011700020680BF025FC03D2206880F0004020603E
:10118000002160680BF01CFC03D2606880F0004016
:1011900060600021A0680BF013FC03D2A06880F00F
:1011A0000040A0600021E0680BF00AFC03D2E06878
:1011B00080F00040E0602069E0612169206A0BF066
:1011C00053FA20620021E0680BF07EFB13D0E16847
:1011D000206A0BF0F5FC02D2E06820620BE0E068C8
:1011E00080F000452846216A0BF0EAFC03D2E06853
:1011F00080F000402062A16920690BF01DFD606253
:101200002069A061616AA0680BF00EFC0646216AA5
:1012100060680BF009FC0746E16920680BF004FCEC
:10122000804639460BF020FA054631460BF01CFA91
:101230006061BDE8F0812DE9F04F93B004460D46A2
:1012400016469946604204B27042642190FBF1F761
:1012500038460AF066FE234A03C20022224B214987
:1012600003C90AF0C5FECDE9100148460AF059FE4F
:10127000CDE908010AF010FB82468B4628460AF0A9
:1012800050FE074652465B4630E00000C002002098
:1012900000009644A402002090020020400200209A
:1012A00054020020680200207C020020003401402B
:1012B00000080040A00300200000F0420000404071
:1012C000DC020020F802002038000020400000204E
:1012D0004400002034000020300000202C000020BA
:1012E0003C00002060000020007070400AF080FE8A
:1012F000CDE90C0148460AF014FECDE9080109F0D9
:10130000A1FD0746884620460AF00BFE82463A4673
:1013100043460AF06DFECDE90A01DDE90C230AF02F
:101320008FFBCDE90E01DDE910230AF089FB974A16
:1013300003C20022964B974903C90AF059FECDE932
:10134000100148460AF0EDFDCDE9000109F07AFDF3
:1013500082468B46904891490AF09EFA07465246CB
:101360005B460AF045FECDE9040148460AF0D9FD86
:1013700082460AF091FA074688468748874909F06D
:1013800061FD81F000413A464346CDE900010AF093
:101390002FFECDE90201DDE904230BF04FF8CDE982
:1013A000080128460AF0BDFDCDE90601DDE9082364
:1013B0000AF01EFECDE90C0148460AF0B2FDCDE967
:1013C00000010AF069FA07468846734874490AF032
:1013D00063FA82463A4643460AF00AFECDE9040122
:1013E00048460AF09EFDCDE9000109F02BFD0746B5
:1013F00088466948694909F025FD81F00041824627
:101400003A4643460AF0F4FDCDE90201DDE9042342
:101410000AF016FBCDE9080120460AF082FDCDE96D
:101420000601DDE908230AF0E3FDCDE90A01DDE963
:101430000C230AF005FBCDE90E01DDE910230AF0CB
:10144000FFFA584A03C20022514B524903C90AF01D
:10145000CFFDCDE9100148460AF063FDCDE900015A
:1014600009F0F0FC82468B464B484D4909F0EAFCF6
:10147000074652465B460AF0BBFDCDE904014846EB
:101480000AF04FFD07460AF007FA82468B464248AB
:1014900043490AF001FA81F0004152465B46CDE92A
:1014A00000010AF0A5FDCDE90201DDE904230AF0FF
:1014B000C7FACDE9080128460AF033FDCDE9060157
:1014C000DDE908230AF094FDCDE90C0148460AF055
:1014D00028FDCDE900010AF0DFF982468B462E484F
:1014E0002F4909F0AFFC074652465B460AF080FDE3
:1014F000CDE9040148460AF014FDCDE9000109F0E8
:10150000A1FC07468846244825490AF0C5F981F020
:10151000004182463A4643460AF06AFDCDE902019F
:10152000DDE904230AF08CFACDE9080120460AF02F
:10153000F8FCCDE90601DDE908230AF059FDCDE903
:101540000A01DDE90C230AF07BFACDE90E01DDE9A1
:1015500010230AF075FA144A03C20C4903C90AF0B1
:1015600083FC0746FFF770FA0E4903C90AF07CFCBA
:101570000746FFF799FA0C4903C90AF075FC0746BC
:10158000FFF7C2FA13B0BDE8F08F0000480000205A
:101590000070704060000020A138DB3752C1F03F7E
:1015A00052C1E03F500000205800002070B50025D7
:1015B00000244DF6ED60F7490880F7488078887080
:1015C000F5480079C870F4488088000A0871F2482C
:1015D000807A4871F0488079887100BF06E0EF4852
:1015E000015DE01DEB4A1154601CC4B2EA488079E9
:1015F000A042F4DC002405E0E648005D284405B282
:10160000601CC4B2E4488078801EA042F4DCE2484A
:101610008078801EDF4A1554C5F30721DE488078A4
:10162000401E1154DC488178104604F0BCF870BDAF
:101630002DE9FC5F57E1DA48007820BB1D21D0205E
:1016400001F04EFC1F21D02001F04AFC2121D020C6
:1016500001F046FC3221A62001F055FC3421A620E1
:1016600001F051FC3621A62001F04DFC00211A208A
:1016700001F049FC02211A2001F045FC04211A2046
:1016800001F041FC2AE11D21D02001F029FC00B22B
:1016900000900BF069F901900AF0BAFF8246C14A46
:1016A000C14B0AF0A5FC80468946C049486A0AF049
:1016B000AFFF064642464B460AF0C2F904460AF01E
:1016C0008DF9BA4948621F21D02001F009FC00B20F
:1016D00000900BF049F901900AF09AFF8046B14A58
:1016E000B14B0AF085FC04460D46B049886A0AF001
:1016F0008FFF064622462B460AF0A2F982460AF0E0
:101700006DF9AA4988622121D02001F0E9FB00B2DD
:1017100000900BF029F901900AF07AFF0646A14AE1
:10172000A14B0AF065FC04460D46A049C86A0AF0C0
:101730006FFF804622462B460AF082F982460AF065
:101740004DF99A49C8623221A62001F0DCFB00B2B3
:1017500000900BF009F901900AF05AFF8046914A77
:10176000914B0AF045FC04460D469049086B0AF07F
:101770004FFF064622462B460AF062F982460AF0DF
:101780002DF98A4908633421A62001F0BCFB0FFA29
:1017900080FB58460BF0E8F882460AF039FF804695
:1017A000804A814B0AF024FC04460D467F49486B71
:1017B0000AF02EFF064622462B460AF041F9CDE9F3
:1017C00000010AF00BF9794948633621A62001F09F
:1017D0009AFB0FFA80FB58460BF0C6F882460AF0D7
:1017E00017FF80466F4A704B0AF002FC04460D4614
:1017F0006E49886B0AF00CFF064622462B460AF01B
:101800001FF9CDE900010AF0E9F868498863002171
:101810001A2001F078FB00B200900BF0A5F80190BF
:101820000AF0F6FE80465F4A5F4B0AF0E1FB044691
:101830000D465E49C86B0AF0EBFE064622462B4673
:101840000AF0FEF882460AF0C9F85849C863022136
:101850001A2001F058FB0FFA80FB58460BF084F871
:1018600082460AF0D5FE06464E4A4F4B0AF0C0FBB0
:1018700004460D464D49086C0AF0CAFE80462246D1
:101880002B460AF0DDF8CDE900010AF0A7F8474938
:10189000086404211A2001F036FB0FFA80FB584639
:1018A0000BF062F882460AF0B3FE80463D4A3E4B9A
:1018B0000AF09EFB04460D463C49486C0AF0A8FE1F
:1018C000064622462B460AF0BBF8CDE900010AF095
:1018D00085F836494864052006F04BFF304800780B
:1018E000401C2F4908702E4800786528FFF6A3AEEB
:1018F000BDE8FC9F70B5054600242D480078401CCB
:101900002B490870FFF794FE29480078062875D205
:10191000DFE800F0DB031F5275974DF6ED601D49BF
:101920000880232088700020C870F02008710020F3
:1019300048711A2088711F484088184908801D483E
:10194000808848801B48C08888801A480089C880E1
:10195000BCE01D21D02001F0C3FA00B20F4908817C
:101960001F21D02001F0BCFA00B20C49488121218E
:10197000D02001F0B5FA00B20849888108460089F4
:101980000A49088005484089488004488089888041
:101990009CE00000700700201803002024030020B2
:1019A0006C0000207B14AE47E17A843FD403002012
:1019B0006F000020A00300203221A62001F0A3FA2E
:1019C00000B2FE49C8813421A62001F09CFA00B281
:1019D000FA4908823621A62001F095FA00B2F749AB
:1019E00048820846C089F649C880F448018AF4480C
:1019F0000181F248418AF248418167E065E00021B7
:101A00001A2001F080FA00B2EC49888202211A20E3
:101A100001F079FA00B2E949C88204211A2001F0E4
:101A200072FA00B2E54908830846808AE449888151
:101A3000E248C18AE248C181E048018BE048018266
:101A400044E00020DF4908700DE0DC48DD490978FA
:101A5000415CDC480078C01DDB4A1154D94800784D
:101A6000401CD8490870D8488079D64909788842FE
:101A7000EBDC0020D34908700AE0D348D14909784B
:101A8000405C204404B2CF480078401CCD49087027
:101A9000CD488078801ECB4909788842EDDCCA4861
:101AA0008078801EC84A1454C4F3072110468078F9
:101AB000401E11541DB11046817803F074FE02F0EF
:101AC000C8FA0020C149087000E000BF00BF70BD27
:101AD00010B50022BE48B0F90000BE4B98427DD13F
:101AE000BB488078BC4B9870B948C078B84B1B791C
:101AF00000EB0320B84B9880B54840799872B44801
:101B0000807998711846807909283BD2DFE800F087
:101B10003A050A3A163A223A2E00AD48C079AF4B40
:101B2000188030E0002106E0C81DA94B185CAB4BC3
:101B30005854481CC1B20229F6DB24E0002106E01B
:101B4000C81DA34B185CA54B5854481CC1B20429AE
:101B5000F6DB18E0002106E0C81D9D4B185C9F4B8A
:101B60005854481CC1B20629F6DB0CE0002106E0FF
:101B7000C81D974B185C994B5854481CC1B2082992
:101B8000F6DB00E000BF00BF93488078801E904BDA
:101B90001B5C91488078401E8D4C205C03EB00203C
:101BA00000B28D4B1881002105E08948405C10444B
:101BB00082B2481CC1B288488078801E8842F4DC1A
:101BC0008548B0F90800904204D10120824B18707A
:101BD00010BD03E00020804B1870F9E70020F7E704
:101BE0002DE9F047FFF774FF08B9BDE8F0877A48A0
:101BF0008088092877D007DC76D2DFE800F01E2243
:101C0000277A8B8F90949F00B0F5004F6DD008DC41
:101C10000A286BD00B286AD00C2869D00D2863D114
:101C20004CE16FF400410844002870D001286FD0C7
:101C300002286ED00328F2D1BCE143205F4908801E
:101C400003E240F207105D490880FEE16449B1F902
:101C50000C10642201FB02F00AF063F90646614AA7
:101C6000614B09F0A9FF04460AF0FEF800B253499F
:101C700008805E49B1F90C10642201FB02F00AF001
:101C800050F90646574A584B09F096FF04460AF0A9
:101C9000EBF800B2494948805549B1F90C1064226B
:101CA00001FB02F00AF03DF906464E4A4E4B09F0A0
:101CB00083FF04460AF0D8F800B2404988804D49B5
:101CC000B1F90C10642201FB02F00AF02AF9064671
:101CD000444A454B09F070FF04460AF0C5F800B2CB
:101CE0003649C880B1E1D9E0AEE1FBE0D7E0DBE006
:101CF000DFE03B488089314908803C488089488042
:101D00003B48808988803B488089C8809DE13AE1D2
:101D10004EE14EE138202949088096E195E10B20FB
:101D20002649088091E13448808824490880324857
:101D3000C088488030480089888086E126488079BC
:101D4000062804D00C2818D012287DD161E01D216E
:101D5000D02001F0C5F800B2184908801F21D0201A
:101D600001F0BEF800B2154948802121D02001F0D1
:101D7000B7F800B2114988808EE01D21D02001F013
:101D8000AFF800B20D4908801F21D02001F0A8F85B
:101D900000B20A4948802121D02001F0A1F800B208
:101DA000064988803221A62001F09AF800B2034942
:101DB000C8803421A62001F093F81FE024030020FE
:101DC000D40300206E000020700700206F00002068
:101DD000D4070020EDDEFFFF18030020420300209F
:101DE00068020020EC3EB61B934F6A407C02002044
:101DF0004002002054020020A003002000B2FE494F
:101E000008813621A62001F06BF800B2FA4948811A
:101E100042E01D21D02001F063F800B2F6490880AD
:101E20001F21D02001F05CF800B2F3494880212145
:101E3000D02001F055F800B2EF4988803221A62069
:101E400001F04EF800B200E025E0EB49C8803421F3
:101E5000A62001F045F800B2E74908813621A62006
:101E600001F03EF800B2E449488100211A2001F057
:101E70004AF800B2E049888102211A2001F043F8B3
:101E800000B2DD49C88104211A2001F03CF800B2FB
:101E9000D949088200E000BF00BFD6E0D5E0D748AE
:101EA000008AD5490880D0E04FF48070D24908807C
:101EB000CBE0D248807CD0490870C6E04320CE49B0
:101EC000088040F207104880382088800B20C880A6
:101ED0004FF480700881C948807C88720120C8490D
:101EE0004870B2E0C748B0F90000642190FBF1F9F6
:101EF00048460AF016F80746C34AC44B0AF078F879
:101F0000054609F0B1FF0446FEF7FEFDBD48B0F9F5
:101F10000200642190FBF1F948460AF002F80746F6
:101F2000B94ABA4B0AF064F8054609F09DFF044629
:101F3000FEF71AFEB348B0F90400642190FBF1F9F2
:101F4000484609F0EEFF0746AF4AB04B0AF050F89A
:101F5000054609F089FF0446FEF776FDA948B0F969
:101F60000600642190FBF1F9484609F0DAFF0746C4
:101F7000A54AA64B0AF03CF8054609F075FF044651
:101F8000FEF792FD61E09F49B1F90000FEF7BCFD4C
:101F90009C49B1F90200FEF7E7FD9A49B1F9040046
:101FA000FEF752FD9749B1F90600FEF77DFD4CE0C2
:101FB0004BE04AE09348B0F900009249B1F90210B1
:101FC00008439049B1F90410084368B101209049D1
:101FD00008708C4BB3F90420B3F90210B3F9000078
:101FE0000023FFF728F911E08948007870B100203C
:101FF0008849087048708870C87000231A461946CE
:102000001846FFF718F90020814908707D48B0F99B
:1020100006000D2806D00E2808D00F280AD0102858
:1020200010D10BE001207B4908700BE001207949B9
:10203000487007E001207749887003E00120754966
:10204000C87000BF00BF00E0CFE500BF6C48807AD9
:1020500008B1FFF7ABFA00BFC7E570B504460D46FF
:10206000002213462046294609F086FF03D285F058
:102070000041204670BD20462946FBE72DE9F04788
:102080006548D0E90C6165480CC830460AF0D6F9BD
:102090008046FFF7E2FF04460022614B09F06CFF27
:1020A00016D25D48D0E90A615E480CC830460AF095
:1020B000C5F90446FFF7D1FF80460022584B09F0CE
:1020C0005BFF05D258480078401C5749087005E06E
:1020D0000020514981F8380053490870524800786F
:1020E000142806DD01204C4981F8380000204E49B3
:1020F00008704948D0E90C10484AC2E90010464827
:10210000D0E90A10474AC2E90010BDE8F0872DE97E
:10211000FF5F9CB032ACF0CC22462B46DDE91C01BF
:102120000AF08CF900224FF08043CDE9120109F04A
:102130005FFF8046894632463B46DDE91E010AF0D4
:102140007DF900224FF08043CDE9120109F050FFE4
:1021500082468B4600224FF08043DDE92A0108F0D9
:10216000BFFE00224FF08043CDE91201DDE93601C8
:1021700008F0B6FE00224FF08043CDE90E01304654
:10218000394608F0ADFE00224FF08043CDE90A0148
:10219000DDE91E0108F0A4FE00224FF08043CDE9E6
:1021A00006012046294608F09BFE00224FF080439E
:1021B000CDE90201DDE91C0108F092FECDE9000144
:1021C000DDE902230AF03AF9CDE90401DDE906234D
:1021D00009F036FCCDE90801DDE90A230AF02EF901
:1021E000CDE90C01DDE90E2309F02AFCCDE910014F
:1021F000DDE912231AE000002403002090020020F1
:102200001803002042030020EC3EB61B934F6A40A7
:102210007000002068000020600300208000002083
:102220000000244078000020880000200AF006F911
:10223000CDE91A0122462B46DDE92C010AF0FEF811
:1022400000224FF08043CDE9120109F0D1FECDE923
:10225000180132463B46DDE92E010AF0EFF8002274
:102260004FF08043CDE9120109F0C2FECDE916011D
:1022700000224FF08043DDE9300108F031FE0022FA
:102280004FF08043CDE91201DDE9360108F028FE68
:1022900000224FF08043CDE90E013046394608F068
:1022A0001FFE00224FF08043CDE90A01DDE92E0137
:1022B00008F016FE00224FF08043CDE906012046CB
:1022C000294608F00DFE00224FF08043CDE90201BF
:1022D000DDE92C0108F004FECDE90001DDE902236F
:1022E0000AF0ACF8CDE90401DDE9062309F0A8FB0A
:1022F000CDE90801DDE90A230AF0A0F8CDE90C01D7
:10230000DDE90E2309F09CFBCDE91001DDE9122384
:102310000AF094F8CDE9140150465946DDE9182336
:1023200009F066FECDE90C0140464946DDE9162379
:1023300009F05EFECDE90A01DDE90C230AF07EF822
:10234000CDE9100150465946DDE9142309F050FE4D
:10235000CDE90C01DDE91623DDE91A0109F048FE9B
:10236000CDE90A01DDE90C230AF068F8CDE90E0198
:10237000DDE9102309F020FC0022B44BCDE9120165
:1023800009F01AFCB24AC2E90A0150465946DDE991
:10239000182309F02DFECDE90C0140464946DDE940
:1023A000162309F025FECDE90A01DDE90C230AF028
:1023B00045F8CDE91001DDE91823DDE91A0109F03E
:1023C00017FECDE90C0140464946DDE9142309F02A
:1023D0000FFECDE90A01DDE90C230AF02FF8CDE963
:1023E0000E01DDE9102309F0E7FB0022974BCDE950
:1023F000120109F0E1FB964AC2E90C01FFF73EFE2B
:1024000020B0BDE8F09F2DE9F0479CB04FF0000AE6
:10241000D146002400BF11E18E4810F80A006D2853
:1024200079D18C490AF10100085C7228F8D10AF1CF
:102430000200085C2028F3D10AF10300085C302870
:10244000EED10AF10400085C3728E9D14FF0000909
:1024500021E07F48006800017D4908600AF106001C
:1024600048447C490C5C302C05DB392C03DCA4F19E
:102470003000C4B206E0612C04DB662C02DCA4F15F
:102480005700C4B27248006820447149086009F1DD
:10249000010000F0FF09B9F1080FDADB4FF0000985
:1024A00021E06B4840680001694948600AF10F006B
:1024B000484468490C5C302C05DB392C03DCA4F162
:1024C0003000C4B206E0612C04DB662C02DCA4F10F
:1024D0005700C4B25E48406820445D49486009F135
:1024E000010000F0FF09B9F1080FDADB4FF0000935
:1024F00022E0574880680001554988600AF11800B9
:10250000484454490C5C302C06DB392C04DCA4F123
:102510003000C4B207E08DE0612C04DB662C02DCE5
:10252000A4F15700C4B24A488068204448498860F2
:1025300009F1010000F0FF09B9F1080FD9DB4FF0F4
:10254000000921E04248C06800014149C8600AF121
:10255000210048443F490C5C302C05DB392C03DC5E
:10256000A4F13000C4B206E0612C04DB662C02DC6E
:10257000A4F15700C4B23648C06820443449C8604A
:1025800009F1010000F0FF09B9F1080FDADB304969
:10259000886809F0DDFC05460E462D49486A09F0B9
:1025A000D7FC074688462A49086A09F0D1FCCDE9DC
:1025B0001A012749486809F0CBFCCDE918012449E4
:1025C000C86909F0C5FCCDE916012149886909F0FF
:1025D000BFFCCDE914011E49086809F0B9FCCDE93A
:1025E00012011B49486909F0B3FCCDE910011849F3
:1025F000086909F0ADFCCDE90A78CDE90C56CDE9C2
:102600000E01DDE91A01CDE90801DDE91801CDE986
:102610000601DDE91601CDE90401DDE91401CDE98A
:102620000201DDE91201CDE900010EA80FC8FFF794
:102630006EFD07E00AF1010000F0FF0ABAF1C80FD1
:10264000FFF6EAAE00BF1CB0BDE8F08700002440F2
:10265000600300203808002010B5E84A128812B242
:10266000E74B5A811A46116AB2F90A30B2F91420BE
:1026700040F27124624303EB4210421A12B2E04B63
:102680001A8013E0DE4A928A521E12B2DC4B9A8202
:102690001A46B2F90A30B2F9142040F271246243AA
:1026A00003EB4210421A12B2D54B1A80D44AB2F947
:1026B000002042F210739A42E4DC13E0D04A928A7E
:1026C000521C12B2CE4B9A821A46B2F90A30B2F9B3
:1026D000142040F27124624303EB4210421A12B2FA
:1026E000C74B1A80C64AB2F90020C64B9A42E5DBB6
:1026F000C34A106210BD10B54FF08042928C12B2E6
:10270000BF4B9A811A46516AB2F90C30B2F91620C1
:1027100040F27124624303EB4210421A12B2B84BEA
:102720005A8013E0B64AD28A521E12B2B44BDA82F1
:102730001A46B2F90C30B2F9162040F27124624305
:1027400003EB4210421A12B2AD4B5A80AC4AB2F9B6
:10275000022042F210739A42E4DC13E0A84AD28AC3
:10276000521C12B2A64BDA821A46B2F90C30B2F9F8
:10277000162040F27124624303EB4210421A12B257
:102780009F4B5A809E4AB2F902209E4B9A42E5DB4B
:102790009B4A506210BD10B59B4A128812B2984BEA
:1027A000DA811A46916AB2F90E30B2F9182040F275
:1027B0007124624303EB4210421A12B2904B9A808A
:1027C00013E08F4A128B521E12B28D4B1A831A4697
:1027D000B2F90E30B2F9182040F27124624303EBD3
:1027E0004210421A12B2864B9A80854AB2F90420EE
:1027F00042F210739A42E4DC13E0814A128B521CBD
:1028000012B27F4B1A831A46B2F90E30B2F9182071
:1028100040F27124624303EB4210421A12B2784B29
:102820009A80774AB2F90420764B9A42E5DB744AE3
:10283000906210BD10B5754A128812B2704B1A82A0
:102840001A46D16AB2F91030B2F91A2040F2712456
:10285000624303EB4210421A12B2694BDA8013E072
:10286000674A528B521E12B2654B5A831A46B2F90E
:102870001030B2F91A2040F27124624303EB421087
:10288000421A12B25E4BDA805D4AB2F9062042F279
:1028900010739A42E4DC13E0594A528B521C12B274
:1028A000574B5A831A46B2F91030B2F91A2040F247
:1028B0007124624303EB4210421A12B2504BDA8089
:1028C0004F4AB2F906204F4B9A42E5DB4C4AD062A0
:1028D00010BD10B54E4A128812B2494B5A821A46A0
:1028E000116BB2F91230B2F91C2040F2712462432C
:1028F00003EB4210421A12B2414B1A8113E0404AD4
:10290000928B521E12B23E4B9A831A46B2F9123083
:10291000B2F91C2040F27124624303EB4210421AC8
:1029200012B2374B1A81364AB2F9082042F21073BC
:102930009A42E4DC13E0324A928B521C12B2304BC2
:102940009A831A46B2F91230B2F91C2040F271246F
:10295000624303EB4210421A12B2294B1A81284AF1
:10296000B2F90820274B9A42E5DB254A106310BDD7
:1029700070B5FFF771FEFFF7BEFEFFF70CFFFFF724
:10298000A8FF1F49B1F9040009F0EEFF05462149EF
:1029900009F0D8FE044609F0CBFF00B21E49888139
:1029A0001749B1F9000009F0DFFF0546194909F0A0
:1029B000C9FE044609F0BCFF00B2184988811049DD
:1029C000B1F9080009F0D0FF0546124909F0BAFE36
:1029D000044609F0ADFF00B2114988810849B1F9F8
:1029E000020009F0C1FF05460A4909F0ABFE0446A2
:1029F00009F09EFF00B20B49888170BD242C014074
:102A0000A0030020F0D8FFFF240400402408004069
:102A1000240C004037BEEF3D40020020540200204D
:102A2000680200207C02002008B50121082003F084
:102A3000B9FC2020ADF8000003208DF8020014201E
:102A40008DF803006946FE4803F0F0F90121FD48C6
:102A500003F0BDFA1020ADF8000003208DF802004D
:102A600014208DF803006946F54803F0DFF908BD2E
:102A7000002100BF48E000BF00BF00BF00BF00BF93
:102A800000BF00BF00BF00BF00BF00BF00BF00BF4E
:102A900000BF00BF00BF00BF00BF00BF00BF00BF3E
:102AA00000BF00BF00BF00BF00BF00BF00BF00BF2E
:102AB00000BF00BF00BF00BF00BF00BF00BF00BF1E
:102AC00000BF00BF00BF00BF00BF00BF00BF00BF0E
:102AD00000BF00BF00BF00BF00BF00BF00BF00BFFE
:102AE00000BF00BF00BF00BF00BF00BF00BF00BFEE
:102AF00000BF00BF00BF00BF00BF00BF00BF00BFDE
:102B000000BF00BF00BF491C8142B4D3704700B56D
:102B10002020CB4910310860102008600220FFF708
:102B2000A7FFC7480830006808B9012000E000206E
:102B300000F0200008B1002000BD2020C049143161
:102B400008600220FFF794FFBD480830006800F0DD
:102B5000200008B10020EFE72020B94914310860B7
:102B60000220FFF785FF0120E6E700B51020B449F9
:102B7000143108600220FFF77BFF2020B049143198
:102B800008600220FFF774FF1020AD491031086083
:102B90000220FFF76DFF2020A949103108600220B4
:102BA000FFF766FF00BD00B51020A549143108608D
:102BB0000220FFF75DFF2020A149143108600220A8
:102BC000FFF756FF10209E49103108600220FFF7E2
:102BD0004FFF10209A49143108600220FFF748FF88
:102BE00000BD00B510209649143108600220FFF79F
:102BF0003FFF20209249103108600220FFF738FF84
:102C000010208F49103108600220FFF731FF10209B
:102C10008B49143108600220FFF72AFF00BD00B580
:102C200010208749143108600220FFF721FF20207F
:102C30008349103108600220FFF71AFF10208049F5
:102C4000103108600220FFF713FF7D48083000684C
:102C500000F0200040B110207949143108600220B2
:102C6000FFF706FF002000BD1020754914310860F1
:102C70000220FFF7FDFE0120F5E710B5034608240A
:102C80001EE010206E49143108600220FFF7F0FEAC
:102C900003F0800020B1202069491031086003E072
:102CA00020206749143108605806030E0220FFF700
:102CB000DFFE10206249103108600220FFF7D8FEC5
:102CC0002000A4F10101CCB2DBD110205C49143109
:102CD000086010BD10B50824002320205849103189
:102CE000086017E05806030E10205549143108609B
:102CF0000220FFF7BDFE102051491031086002206C
:102D0000FFF7B6FE4E480830006800F0200008B11A
:102D100043F001032000A4F10101CCB2E2D1102064
:102D2000474914310860184610BD70B506460C4678
:102D30001546FFF7ECFE08B9002070BD3046FFF7DE
:102D40009CFFFFF76CFF18B9FFF70FFF0020F4E7B7
:102D50002046FFF792FFFFF762FF2846FFF78DFF3F
:102D6000FFF75DFFFFF701FF0120E6E770B50446BE
:102D70000D46FFF7CCFE08B9002070BD2046FFF7D6
:102D80007CFFFFF74CFF18B9FFF7EFFE0020F4E7D8
:102D90002846FFF772FFFFF742FFFFF7B8FE611CFE
:102DA000C8B2FFF76AFFFFF73AFFFFF793FF064647
:102DB000FFF717FFFFF7D9FE3046DEE7FCB5054603
:102DC0000E461746FFF7A3FEA620FFF756FFFFF7B4
:102DD00026FF3220FFF751FFFFF721FFFFF797FE95
:102DE000A720FFF74AFFFFF71AFF002410E0052C89
:102DF00006D1FFF76FFF0DF80400FFF7F2FE05E0C4
:102E0000FFF768FF0DF80400FFF7CDFE601CC4B2A9
:102E1000062CECDBFFF7A9FE9DF800009DF80110E1
:102E200000EB012000B228809DF802009DF80310FD
:102E300000EB012000B230809DF8040004E00000A7
:102E4000000C0140000230009DF8051000EB01204D
:102E500000B23880FCBD10B5FFF7E6FD01220B2162
:102E60001A20FFF762FF402220211A20FFF75DFFA2
:102E7000012221211A20FFF758FF0D2209211A20D3
:102E8000FFF753FF0B223121A620FFF74EFF1A2236
:102E90002C21A620FFF749FF08222D21A620FFF7AD
:102EA00044FF80222E21A620FFF73FFF80223E21F3
:102EB000D020FFF73AFF07221521D020FFF735FF7A
:102EC0001E221621D020FFF730FF00221721D0202C
:102ED000FFF72BFF00223E21D020FFF726FF10BD79
:102EE0002DE9F04105460C4621462846FFF73EFFF6
:102EF0000646601CC1B22846FFF738FF074607EBBD
:102F00000620BDE8F0812DE9F04105460C4621463A
:102F10002846FFF72BFF0746601CC1B22846FFF783
:102F200025FF064607EB0620BDE8F08100B587B017
:102F300001214FF4047003F035FA4FF4004003F020
:102F400095F90420ADF8040000208DF8070001A9D0
:102F5000494802F06BFF494804F09AFB00200290B8
:102F60008DF80C008DF80D004FF4602004900020C7
:102F7000059001208DF8180002A9404804F0AFFB2D
:102F800001213E4804F0D7FB3C4804F0F6FB00BFAB
:102F90003A4804F0F7FB0028FAD1384804F0FCFB6B
:102FA00000BF364804F0FDFB0028FAD107B000BD91
:102FB00010B50446072301222146304804F027FCBF
:102FC00001212E4804F0F7FB00BF02212B4804F03A
:102FD00063FD0028F9D0294804F080FC10BD2DE9DC
:102FE000F04107460C460025002608E03846FFF76A
:102FF000DFFF0544052005F0BCFB701CC6B2A642ED
:10300000F4DBB5FBF4F080B2BDE8F0812DE9F047C8
:103010000C20FFF7CDFF1A490968084418490860D9
:1030200018480078401C17490870084600780528A1
:103030001FD1134800680521B0FBF1F0104908606A
:103040000846006808F084FF06464FF066320E4BD3
:1030500008F0CEFF044600220C4B08F0ADFD804680
:1030600008F032FF0A4988740020054908600549C4
:103070000870BDE8F0870000001001400024014006
:103080008C0000209000002066660A400000B040DE
:10309000900200200020F6490882704770B5002594
:1030A00000244DF6ED60F34908800B2088700A205B
:1030B000C8700020087148710220887100BF06E0C6
:1030C000ED48015DE01DEB4A1154601CC4B2022CB6
:1030D000F6DB002405E0E748005D284405B2601CEB
:1030E000C4B2E4488078801EA042F4DCE1488078D5
:1030F000801EE04A1554C5F3072110468078401E13
:1031000011541046817802F04EFB70BD10B5DB48BB
:103110000078401CD9490870D948007828B10020AF
:10312000D8490870D649087010E0D64800780228BF
:1031300007DDCF48007C20F00100401CCC4908741A
:1031400004E0D0480078401CCE490870CE48B0F961
:103150000E00CD49B1F90C10401A142809DCCA48F8
:10316000B0F90E00C849B1F90C10401A10F1140F53
:1031700005DAC6480078401CC449087011E0C3480D
:10318000007832280ADDBA48007C20F00200801C5A
:10319000B74908740020BD49087002E00020BB490F
:1031A0000870BB48B0F90E00B949B1F90C10401ACB
:1031B000142809DCB648B0F90E00B549B1F90C1075
:1031C000401A10F1140F05DAB2480078401CB149DA
:1031D000087011E0AF48007832280ADDA448007C6E
:1031E00020F00400001DA24908740020A9490870BD
:1031F00002E00020A7490870A748B0F90E00A649D0
:10320000B1F90C10401A142809DCA348B0F90E00DB
:10321000A149B1F90C10401A10F1140F05DA9F48BA
:103220000078401C9D49087011E09C4800783228C5
:103230000ADD8F48007C20F0080008308C490874B3
:1032400000209649087002E00020944908709448D4
:10325000B0F90E009249B1F90C10401A142809DC9B
:103260008F48B0F90E008E49B1F90C10401A10F1D8
:10327000140F05DA8B480078401C8A49087011E069
:103280008848007832280ADD7948007C20F0100058
:1032900010307749087400208249087002E000204D
:1032A000804908708048B0F900007F49B1F91210D8
:1032B000884213D17C48B0F90210B0F91400814261
:1032C0000CD17948B0F90410B0F91600814205D14B
:1032D00076480078401C7549087011E07348007802
:1032E00032280ADD6248007C20F02000203060494E
:1032F000087400206D49087002E000206B490870D6
:1033000000206B4908700EE067486949097830F879
:1033100011101230664A127820F8121064480078B2
:10332000401C63490870624800780328ECDB5E4863
:10333000B0F906005C49B1F91810884213D15A4817
:10334000B0F90810B0F91A0081420CD15648B0F912
:103350000A10B0F91C00814205D156480078401C83
:103360005449087011E05348007832280ADD40487B
:10337000007C20F0400040303D49087400204D4959
:10338000087002E000204B4908700020484908708E
:103390000FE04548801D4649097830F81110123079
:1033A000434A127820F8121041480078401C4049E6
:1033B00008703F4800780328EBDB3B48B0F90C006D
:1033C0003949B1F91E10884213D13748B0F90E10AF
:1033D000B0F9200081420CD13348B0F91010B0F997
:1033E0002200814205D134480078401C32490870DF
:1033F00011E03048007832280ADD00202E4908709C
:103400001B48007C20F0800080301949087402E0DD
:103410000020294908700020254908700FE0224843
:103420000C302349097830F811101230204A1278F4
:1034300020F812101E480078401C1D4908701C48D6
:1034400000780328EBDB0A48008A78B10B48007843
:103450000A280BDD0020094908700548008A064942
:103460000880FFF71BFE00200149088210BD000004
:10347000900200207007002024030020920000200A
:103480001803002093000020680200209400002010
:103490007C020020950000204002002096000020C1
:1034A0005402002097000020D40300209800002040
:1034B00091000020990000209A0000202DE9F041A1
:1034C00005460C46FE480168204609F0B5FB074654
:1034D000FC480168384609F0A7FA0646FA48016830
:1034E000304609F0C1F8F8490860F8484168F848E2
:1034F000006809F0A1FB0646F4488168304609F0EF
:103500009BFBF4490860F148C06880F000404860C7
:10351000EE48C06880F000408860EF480068C860EE
:103520000868E849096809F07FFA0646E748016833
:10353000304609F099F8E5490860E6494868E149EC
:10354000096809F071FA0646E0484168304609F01A
:103550008BF8DE494860DF498868DA49096809F074
:1035600063FA0646D9488168304609F07DF8D749A4
:103570008860D849C868D349096809F055FA0646F1
:10358000D248C168304609F06FF8D049C860CE48CB
:103590000168284609F050FBD0490860D0480078FF
:1035A00009F0FAF90646C9480168304609F03CFAC4
:1035B000CC490860CA48007809F0EEF90646C348CD
:1035C0008168304609F030FAC7490860C44800787D
:1035D00009F0E2F90746C3480168384609F024FAC1
:1035E0000646C2480168304609F03EF8C049086006
:1035F00008460168BB48006809F0A4F8BD490860A6
:10360000BB480168B848006809F09CF8BA490860EE
:10361000B4480068B9490860B148007809F0BCF9BD
:103620000646AA484168304609F0FEF9B4490860E8
:10363000B2480168AF48006809F0F6F90646A348A9
:103640000168304609F0EDFAA0490860AC4801680D
:10365000A848006809F0E8F906469C4841683046E9
:1036600009F0DFFA99494860A4480168A248006857
:1036700009F0DAF9064695488168304609F0D1FA32
:10368000924988609E4801689B48006809F0CCF91F
:1036900006468E48C168304609F0C3FA8B49C860B7
:1036A0008E4801689348006809F0BEF906469548BF
:1036B0000168304608F0D8FF9249086087480168E1
:1036C0008D48006809F0B0F906467D48016830462B
:1036D00008F0CAFF7A49086008460168204609F0E8
:1036E000ABFA89490860BDE8F0812DE9F041054653
:1036F0000C4673480168204609F09EFA0746714857
:103700000168384609F090F906466F48016830466E
:1037100008F0AAFF6C4908606C4841686C48006872
:1037200009F08AFA064669488168304609F084FA49
:10373000684908606548C06880F000404860634898
:10374000C06880F00040886063480068C86008680E
:103750005C49096809F068F906465C48016830462A
:1037600008F082FF594908605A4948685549096874
:1037700009F05AF9064655484168304608F074FF8A
:1037800052494860534988684E49096809F04CF924
:1037900006464E488168304608F066FF4B4988600F
:1037A0004C49C8684749096809F03EF90646474848
:1037B000C168304608F058FF4449C8604248016873
:1037C000284609F039FA454908604548007809F06B
:1037D000E3F806463D480168304609F025F94149BD
:1037E00008603F48007809F0D7F8064637488168F6
:1037F000304609F019F93C4908603948007809F069
:10380000CBF8074637480168384609F00DF90646F7
:1038100036480168304608F027FF354908600846F9
:1038200001683048006808F08DFF32490860304870
:1038300001682D48006808F085FF2F490860294875
:1038400000682E4908602648007809F0A5F8064669
:103850001E484168304609F0E7F8294908602748C2
:1038600001682448006809F0DFF806461748016837
:10387000304609F0D6F915490860214801681D480D
:10388000006809F0D1F8064610484168304609F052
:10389000C8F90E494860194801681748006809F0DE
:1038A000C3F8064609488168304609F0BAF9074965
:1038B0008860134801681048006809F0B5F825E0F1
:1038C000EC000020E4000020D000002010010020C7
:1038D000D800002024040020DC000020F00000209C
:1038E000E8000020F4000020F8000020E0000020A4
:1038F000FC0000200001002004010020080100203D
:103900000C010020D4000020AC0000200646FE4838
:10391000C168304609F085F9FB49C860FB48016879
:10392000FB48006809F080F80646FA48016830460E
:1039300008F09AFEF7490860F4480168F648006804
:1039400009F072F80646F5480168304608F08CFE2A
:10395000F249086008460168204609F06DF9F0490F
:103960000860BDE8F0812DE9F04105460C46EB48C2
:103970000168204609F060F90746EA4801683846C0
:1039800009F052F80646E8480168304608F06CFE37
:10399000E5490860DC484168E448006809F04CF9F2
:1039A0000646D9488168304609F046F9E049086082
:1039B000D548C06880F000404860D348C06880F0B7
:1039C00000408860DB480068C8600868D54909681D
:1039D00009F02AF80646CC480168304608F044FE53
:1039E000C9490860D2494868CE49096809F01CF8FD
:1039F0000646C5484168304608F036FEC249486070
:103A0000CB498868C749096809F00EF80646BE48E0
:103A10008168304608F028FEBB498860C449C86800
:103A2000C049096809F000F80646B748C168304641
:103A300008F01AFEB449C860BB480168284609F07E
:103A4000FBF8B2490860BC48007808F0A5FF0646BC
:103A5000AD480168304608F0E7FFB8490860B6484D
:103A6000007808F099FF0646A7488168304608F0BC
:103A7000DBFFB3490860B048007808F08DFF0746C7
:103A8000AE480168384608F0CFFF0646AD480168E9
:103A9000304608F0E9FDAC49086008460168A748CF
:103AA000006808F04FFE9A490860A7480168A448DA
:103AB000006808F047FE98490860A0480068A349DC
:103AC00008609D48007808F067FF06468E48416808
:103AD000304608F0A9FF9E4908609C4801688C4860
:103AE000006808F0A1FF064687480168304609F0E3
:103AF00098F885490860964801688548006808F08C
:103B000093FF064680484168304609F08AF87E49AE
:103B100048608E4801688048006808F085FF0646C6
:103B200079488168304609F07CF877498860884890
:103B300001687948006808F077FF06467248C16856
:103B4000304609F06EF87049C860704801687048E6
:103B5000006808F069FF064673480168304608F0BF
:103B600083FD71490860694801686B48006808F086
:103B70005BFF064669480168304608F075FD6749F5
:103B8000086008460168204609F056F87149086047
:103B9000BDE8F0812DE9FF5F6F49B1F9060008F03B
:103BA000E3FE6E4908606C49B1F9080008F0DCFEDC
:103BB0006B4908606849B1F90A0008F0D5FE694907
:103BC00008606549B1F9000008F0CEFE614908605F
:103BD0006149B1F9020008F0C7FE514908605E4929
:103BE000B1F9040008F0C0FE5F4908605F495B4816
:103BF000006808F0E5FE07D24FF08D415748006895
:103C000008F0A0FD04460FE059495448006809F047
:103C100013F806464FF08D4108F094FD05464FF02D
:103C20007E5108F0FEFF044650494D48006808F0F8
:103C3000C7FE07D24FF08D414948006808F082FD69
:103C400082460FE04A494648006808F0F5FF0646FC
:103C50004FF08D4108F076FD05464FF07E5108F09B
:103C6000E0FF824641493F48006808F0A9FE07D2BC
:103C70004FF08D413B48006808F064FD81460AE042
:103C80003B493848006808F0D7FF05464FF08D41A2
:103C900008F058FD81464946504608F053FD8346DA
:103CA00008F0B6FCCDE9000106F0FCFE0546002256
:103CB000304B08F09DF9304A304BCDE9020107F056
:103CC0007BFF074607F08AFE2D49086049462046DB
:103CD00008F038FD834608F09BFC074606F0E2FE3C
:103CE0000022244BCDE9000108F082F9224A234B3F
:103CF000CDE9020107F060FF054607F06FFE21499C
:103D00000860214650463FE010010020F0000020EE
:103D100000010020D000002004010020EC00002061
:103D2000AC000020E4000020CC000020D8000020DF
:103D300024040020DC000020E8000020F400002023
:103D4000F8000020E0000020FC0000200801002016
:103D50000C010020A8000020D40300209C000020BB
:103D6000A0000020A4000020B000002000F8FF46C2
:103D700000004047008066401F85EB51B81E094097
:103D8000C0000020C400002008F0DCFC834608F0DE
:103D90003FFC074606F086FE0022FE4BCDE90001FF
:103DA00008F026F90546FC4AFC4B07F005FFCDE973
:103DB000020107F013FEFA490860FA49FA48006860
:103DC00008F0FEFD03D2F9480068F8490860F5499B
:103DD000F548006808F0F4FE05D2F448006880F069
:103DE0000040F2490860EF49F148006808F0E8FD3A
:103DF00003D2F0480068EF490860EA49EC480068DF
:103E000008F0DEFE05D2EB48006880F00040E9498A
:103E10000860E449E848006808F0D2FD03D2E048B1
:103E20000068DF490860DF49E348006808F0C8FE21
:103E300005D2DB48006880F00040D94908604FF0A7
:103E40008E41DE48006808F0BBFD10D2DB480068F8
:103E500008F0DEFB07464FF06632D94B07F0ACFEA8
:103E600081F00041054607F0B9FDD44908604FF0E4
:103E70008E41D248006808F0A3FE12D2CF480168F4
:103E8000D04808F0D9FE834608F0C2FB07464FF041
:103E90006632CB4B07F090FE054607F09FFDC74901
:103EA00008604FF08E41C848006808F089FD10D2C4
:103EB000C548006808F0ACFB07464FF06632C04BBF
:103EC00007F07AFE81F00041054607F087FDBE4904
:103ED00008604FF08E41BC48006808F071FE12D2B5
:103EE000B9480168B74808F0A7FE834608F090FB80
:103EF00005464FF06632B24B07F05EFE074607F00C
:103F00006DFDB14908604FF08E41B048006808F07F
:103F100057FD10D2AD48006808F07AFB05464FF017
:103F20006632A74B07F048FE81F00041074607F0D4
:103F300055FDA64908604FF08E41A448006808F07E
:103F40003FFE12D2A14801689E4808F075FE8346E4
:103F500008F05EFB07464FF06632994B07F02CFEE7
:103F6000054607F03BFD994908609448016891486F
:103F70000068FFF7F8FC944801688C480068FFF778
:103F8000B4FB9248016886480068FFF797FABDE8DD
:103F9000FF9F2DE9F04704460D468D4801684FF01C
:103FA0007E5008F049FE0746894801684FF07E5070
:103FB00008F042FE804687480168204608F03CFE33
:103FC0008146414608F030FD0646394608F02CFD92
:103FD00081490860814801687F48006808F024FD35
:103FE00006467F480168304608F03EFB7C49086081
:103FF00078480168204608F01FFE81467448016831
:104000004FF07E5008F018FE82464FF0804108F0D5
:104010000BFD8046494608F007FD074670480168D9
:10402000384608F021FB0646294608F01DFB6D497D
:1040300008606A4801686B48006808F0F5FC0646AD
:1040400064480168304608F00FFB62490860BDE82B
:10405000F0872DE9F84F6448C088644908806248B9
:1040600000896349088060484089624908805E4849
:1040700090F84800A8B95C49B1F9000008F074FC58
:1040800059494862B1F9020008F06EFC564988624D
:10409000B1F9040008F068FC5349C862012081F8B6
:1040A00048005149B1F9000008F05EFC05464E4851
:1040B000416A284608F0C0FD044608F039FC00B209
:1040C0004D4908804849B1F9020008F04DFC054609
:1040D0004548816A284608F0AFFD044608F028FCF0
:1040E00000B2464908804049B1F9040008F03CFCA0
:1040F00005463D48C16A284608F09EFD044608F082
:1041000017FC00B23E4908803848B0F9000007F0BB
:1041100008FF06463B4A3C4B07F04EFD044607F0BD
:104120005DFC3A4908603248B0F9000007F0F9FE3A
:104130000646344A344B07F03FFD044607F04EFC78
:10414000334908602B48B0F9000007F0EAFE064644
:104150002C4A2D4B07F030FD044607F03FFC2D495B
:104160000860084601682948006808F0EBFA0090EA
:1041700008F04EFA804606F095FC82460022054B78
:1041800007F036FF0646244A244B07F015FD044687
:1041900046E00000008066401F85EB51B81E0940D4
:1041A000C800002000F8FF469C000020C40000204A
:1041B000A0000020C0000020A4000020A8000020D3
:1041C0006666304000FF7F47AC000020B000002052
:1041D00020010020340100202401002030010020B3
:1041E0002C01002028010020D403002038010020E9
:1041F0003A0100203C0100203E0100204001002047
:1042000042010020FCA9F1D24D6230405C01002047
:10421000600100206401002038E92F54FB2109408F
:1042200007F0DCFBFE490860FE480168FE480068B4
:1042300008F088FA009008F0EBF9824606F032FCAC
:1042400080460022F94B07F0D3FE0646F84AF94BA8
:1042500007F0B2FC044607F0C1FBF7490860F248DA
:104260000168F648006808F06DFA009008F0D0F98F
:10427000824606F017FC80460022EC4B07F0B8FEA1
:104280000646EB4AEB4B07F097FC044607F0A6FB0B
:10429000EB490860EB48B0F9000007F042FE064623
:1042A0000022E94B07F088FC044607F097FBE7493A
:1042B0000860E748B0F9000007F033FE0646002228
:1042C000E14B07F079FC044607F088FBE149086000
:1042D000E148B0F9000007F024FE06460022DA4B60
:1042E00007F06AFC044607F079FBDC4908600846E1
:1042F000006808F01DFB061E01DB314600E071423C
:10430000084607F00EFE0446D54AD64B07F034FEA9
:1043100002D20020D149086004F0F0F9D2490860C7
:104320000021CA48006808F087FC0646CF4908F01B
:104330007BFB0546CE4908F005FA0446CD480168E6
:10434000204608F091F9CB4908600021C148006877
:1043500008F072FC0646C54908F066FB0546C449EC
:1043600008F0F0F90446C4480168204608F07CF9DA
:10437000C1490860BC490968C04A1268881A08F037
:104380000BFB07460021B548006808F055FC804645
:10439000394608F049FB06464FF0804108F044FBDF
:1043A0000546B34908F0CEF90446B54801682046F1
:1043B00008F05AF9B24908600021B148006808F0D5
:1043C000FFFA03D2AF48AE49086008E0AE49AC48F6
:1043D000006808F0F5FB02D20020A9490860A8484F
:1043E0000068AA49C864A0480068A4490860BDE8FC
:1043F000F88F0FB597B0179808F00AF9A44AA54BA3
:10440000CDE90C0108F01AF8CDE90E0107F0E6FA43
:104410001790189808F0FCF89F4AA04BCDE90C01C2
:1044200008F00CF8CDE90E0107F0D8FA18901998A9
:1044300008F0EEF89A4A9B4BCDE90C0107F0FEFF1D
:10444000CDE90E0107F0CAFA19901D99084608F047
:10445000EBFA0A901C99084608F0E6FA08901A99B7
:10446000084608F0E1FA0790089908F0FDF809906D
:104470000A9908F0F9F80B9008F0CAF8CDE90C0198
:1044800007F05AFACDE90E0107F0A8FA169016992E
:104490001A9808F057F91A9016991C9808F052F9D2
:1044A0001C9016991D9808F04DF91D907E480168E2
:1044B0007E48006808F0B8FA0E907D4801687D4893
:1044C000006808F0B1FA0D900E9908F0B5FB4FF0B6
:1044D00080410F9008F0A8FA15907548016872485D
:1044E000006808F0A1FA0E90724801686F480068F1
:1044F00008F09AFA0D900E9908F0B6F84FF0804146
:104500000F9008F091FA149069480168006808F06B
:104510008BFA0F9064480168006808F085FA0D90E6
:1045200064480168006808F07FFA0B905F480168F2
:10453000006808F079FA0A900B9908F07DFB0C905E
:104540000D9908F079FB0E900F9908F08DF81390F3
:1045500014991D9808F068FA0F9013991C9808F0A8
:1045600063FA0E900F9908F067FB129013991A984E
:1045700008F05AFA0F9015991D9808F055FA0E9008
:104580000F9908F059FB119015991C9808F04CFAF6
:104590000F9014991A9808F047FA0E900F9908F0A6
:1045A0004BFB10904449129808F03EFA0F90434894
:1045B00001680F9808F058F8404908603E49119882
:1045C00008F032FA0F903E4801680F9808F04CF856
:1045D0003B4908603849109808F026FA0F9039488E
:1045E00001680F9808F040F8364908604FF08040A5
:1045F000129908F019FA0E90179908F035F80F90F3
:104600002E4801680F9808F02FF817904FF080405F
:10461000119908F009FA0E90189908F025F853E05E
:1046200074010020640100206001002000806640C9
:1046300038E92F54FB210940780100205C0100205B
:104640007C0100203E01002000C02C4050010020D1
:1046500040010020540100204201002058010020A8
:104660009A9999999999B93FB00100200000A04109
:1046700000007A44680100206C010020B401002091
:10468000700100200080B3430000B443D403002035
:10469000EE7C3F355EFA05C05396218E7571E7BFFB
:1046A00064CDC82077710740880100208001002078
:1046B0008C010020840100206F12833A90010020B9
:1046C00094010020980100200F90A74801680F98DE
:1046D00007F0CAFF18904FF08040109908F0A4F935
:1046E0000E90199907F0C0FF0F90A04801680F982D
:1046F00007F0BAFF19909E481999006808F094F9DC
:104700000D909C481899006808F08EF90B909A4813
:10471000006880F000400990179908F085F90A9028
:104720000B9908F089FA0C900D9908F085FA9349D5
:104730000E9008F079F90F90914801680F9807F0F2
:1047400093FF8F4908608A481899006808F06CF94F
:104750000D9088481999006808F066F90B90884810
:104760000168179808F060F90A900B9907F07CFF30
:104770000C900D9908F060FA80490E9008F054F9F9
:104780000F907D4801680F9807F06EFF7A49086026
:1047900077480168179808F047F90D9076481999FD
:1047A000006808F041F90B9075481899006808F006
:1047B0003BF90A900B9908F03FFA0C900D9907F01D
:1047C00053FF6E490E9008F02FF90F906948016869
:1047D0000F9807F049FF6749086008460168179875
:1047E00008F022F90D9064481899006808F01CF947
:1047F0000B9063481999006808F016F90A900B9914
:1048000007F032FF0C900D9908F016FA5B490E90F4
:1048100008F00AF90F90564801680F9807F024FF36
:104820005349086008460168006808F0FDF80A90DE
:1048300050480168006808F0F7F808904E48016891
:10484000006808F0F1F806904D480168006808F02B
:10485000EBF80590069907F007FF0790089907F015
:1048600003FF09900A9907F0FFFE0B9007F0D0FEB6
:10487000CDE90C0107F060F8CDE90E0107F0AEF8C4
:1048800016903F481699006807F05CFF3C490860A5
:1048900039481699006807F055FF374908603548D0
:1048A0001699006807F04EFF3249086030481699A3
:1048B000006807F047FF2E49086008460168006855
:1048C00008F0B2F806902B480168006808F0ACF8D0
:1048D000049029480168006808F0A6F8029028486A
:1048E0000168006808F0A0F80190029907F0BCFE8A
:1048F0000390049908F0A0F90590069908F09CF936
:10490000079007F085FECDE90A01194801681C48A7
:10491000006808F089F80590164801681648006894
:1049200008F082F80490059907F09EFE4FF0804150
:10493000069008F079F8079007F06AFECDE90801C3
:10494000DDE90A2306F0BEF94FF066320D4BCDE9E2
:104950000C0107F04DFBCDE90E0107F03FF80A49C5
:1049600008601BB000BD00009401002098010020E9
:104970008C01002088010020840100206F12833AFE
:104980008001002066A64C409C01002010B500204C
:10499000FE49486008602321FC48083004F017FAFB
:1049A0002321FA48943004F012FA2321F84804F045
:1049B0000EFA10BD70B506460C461546F348406821
:1049C00023281CDAF1480068F0494968884201D17F
:1049D000FFF7DCFFED484168083040F821600838F7
:1049E0004168943040F8214094384168E84840F8E4
:1049F0002150E6484068401CE44948601BE0E34819
:104A00004068232817D10020E049486008464168E3
:104A1000083040F8216008384168943040F821405F
:104A200094384168DA4840F82150D8484068401C22
:104A3000D649486070BD00BFFCE7D4480068232811
:104A400002D10020D1490860D04801684068401C6C
:104A5000814201D100207047CC4801680068401CA9
:104A6000CA4A106002F1080010F82100F3E710B5FF
:104A70000024C648047808E0C448083050F82410E0
:104A8000C4A004F023F8601CC4B2C0484068A0422F
:104A9000F2DC10BDBD480068BC494968884201D1BC
:104AA000012070470020FCE72DE9F04105460C4647
:104AB0005A2C02DDA4F10A0084B2B748007820B174
:104AC000012810D0022875D19AE0B448C06CB449CE
:104AD000086000232A4619461846FCF7ACFB012063
:104AE000AD49087093E0002D44DDAC49C86CAC4979
:104AF000096808F065F81DD2204607F04DFF07460B
:104B0000A648C16CA74808F097F88046A4480168F9
:104B1000404607F0A9FD0646394608F051F809D28B
:104B200000231A4619461846FCF785FB02209A49CD
:104B3000087064E09949C86C9949096807F040FF1A
:104B40005DD2204607F028FF06469448C16C944881
:104B5000006808F071F80746314608F031F84ED287
:104B600000231A4619461846FCF765FB02208A49BD
:104B7000087044E08949C86C8949096808F020F840
:104B800019D2204607F008FF06468449C86C8449BC
:104B9000096808F051F80746314608F011F80AD2C2
:104BA00000231A4619461846FCF745FB02207A49AD
:104BB000087024E02AE07949C86C7949096807F04F
:104BC000FFFE1CD2204607F0E7FE07467349C86C7B
:104BD000744907F049FD804671480168404608F075
:104BE0002BF80646394607F0EBFF08D200231A4699
:104BF00019461846FCF71FFB02206749087006E0BB
:104C00000020694908706449087000E000BF00BFD7
:104C1000BDE8F0812DE9FC5F0446894663480078D1
:104C200020B1012820D002287ED192E200231A462A
:104C300021B21846FCF7FFFA5848C06C5C4908607E
:104C400003F05CFD5B4908605B4840685B490860B5
:104C50005B4840685B4908605B4840685B490860A6
:104C60000120524908707BE2002C7DDD4B49C86C65
:104C70004F49096807F0A4FF77D24849C86C4C49EE
:104C8000096807F0D9FF0546514907F099FF6DD231
:104C90004248C16C434807F0CFFF054644480168CD
:104CA000284607F0E1FC4B4908600846006807F019
:104CB000AFFC494A494BCDE9000107F099F9054697
:104CC0000E463F49486807F02CF907462A46334606
:104CD00007F0B4FB824607F0C7F839494860394805
:104CE000006807F01EF982463B4A3D4B07F080F909
:104CF000074688463249486807F013F905463A46A0
:104D0000434607F039F90DD22E48006807F009F93B
:104D10000746314A324B07F06BF9054607F0A4F815
:104D2000274948602B4800E019E2006807F070FC52
:104D30000546294A294B07F05BF907468846224970
:104D4000486807F0EEF882463A46434606F078FE99
:104D5000CDE9000107F088F81B4948601B4800684E
:104D600007F0DFF8824602E050E0D5E04FE04FF078
:104D700033321C4B07F03CF905460E461249486891
:104D800007F0CFF807462A4633462DE034040020CA
:104D90005405002025640A00BB010020D403002034
:104DA000BC0100200000B443B8010020C001002075
:104DB000C4010020DC01002040020020D0010020BE
:104DC00054020020CC01002068020020D401002001
:104DD00000004843C80100209A9999999999B93FD0
:104DE0009999E93F3333F33F07F000FA0ED2FD48BB
:104DF000006807F096F807464FF03332FA4B07F099
:104E0000F7F8054607F030F8F84948608BE1F849B3
:104E1000C86CF849096807F00FFFF74908600846B1
:104E2000006807F0F5FB8246F44AF54B07F0E0F81E
:104E300005460E46F349486807F073F807462A46C8
:104E4000334606F0FDFDCDE9000107F00DF8ED4910
:104E50004860ED48006807F064F805464FF03332CB
:104E6000E14B07F0C5F807468846E649486807F071
:104E700058F882463A46434607F0B8F90ED2E2485F
:104E8000006807F04EF807464FF03332D64B07F074
:104E9000AFF8054606F0E8FFDA494860D6480068F2
:104EA00007F0B6FB8246D54AD54B07F0A1F8054678
:104EB0000E46CE49486807F034F807462A4633467E
:104EC00007F0BCFACDE9000106F0CEFFC749486003
:104ED000C448006807F025F80546C84ACB4B07F0E0
:104EE00087F882468B46C149486807F01AF807469A
:104EF00052465B4607F040F888D2BA48006807F08F
:104F000010F80746BD4AC14B07F072F8054606F097
:104F1000ABFFB649486006E1B549C86CB5490968B8
:104F200007F04EFDF7D2B249C86CB249096807F0E4
:104F300083FE0546B64907F043FD70D2AD480168CF
:104F4000B44807F079FE0546A948C16C284607F029
:104F50008BFBA9490860AC48006806F0E2FF0746F1
:104F60004FF03332A04B07F043F805460E46A549F3
:104F7000486806F0D6FF82462A46334607F036F9DF
:104F80000ED2A148006806F0CCFF07464FF033323E
:104F9000954B07F02DF8054606F066FF99494860E5
:104FA0009548006807F034FB0546944A944B07F097
:104FB0001FF882468B468D49486806F0B2FF0746C7
:104FC00052465B4607F03AFACDE9000106F04CFF85
:104FD000864948608348006806F0A3FF8246874AF6
:104FE0008A4B07F005F8074688468049486806F06E
:104FF00098FF05463A46434606F0BEFF8BD27948F5
:10500000006806F08EFF07467C4A804B06F0F0FFF2
:10501000054606F029FF7549486084E0FFE77448BB
:10502000C16C7448006807F007FE734908600846C1
:10503000006807F0EDFA8246704A714B06F0D8FF1F
:1050400005460E466F49486806F06BFF07462A463C
:10505000334607F0F3F9CDE9000106F005FF694991
:1050600048606948006806F05CFF8246634A674B07
:1050700006F0BEFF05460E466249486806F051FF3D
:1050800007462A46334606F077FF0DD25E48006891
:1050900006F047FF0746594A5C4B06F0A9FF054654
:1050A00006F0E2FE574948605348006807F0B0FA3E
:1050B0000546524A524B06F09BFF074688464B492D
:1050C000486806F02EFF82463A46434606F0B8FC92
:1050D000CDE9000106F0C8FE444948604148006837
:1050E00006F01FFF05464FF033323F4B06F080FFBE
:1050F000074688463D49486806F013FF82463A460F
:10510000434607F073F80ED23648006806F009FFF0
:1051100007464FF03332344B06F06AFF054606F07F
:10512000A3FE3249486003F0E9FA3B4908600846AB
:1051300000683A490968401AB9EB400F08D20023C9
:105140001A4619461846FCF776F8022034490870CA
:1051500006E00020334908703149087000E000BFC4
:1051600000BFBDE8FC9F10B5214890F8480000B989
:1051700010BD2C48007898B92B480078401C2A496B
:10518000087008460078642809DDFFF756FC2749B7
:105190000870012023490870002023490870E7E7C0
:1051A00022480078062877D2DFE800F0030B464754
:1051B0005F7700201B49087002211D4802F062FE43
:1051C0007CE01C4A1268521E1A4B943353F822108A
:1051D000184A1268521E8C3353F82200FFF71AFD4A
:1051E0006CE00000D40100203333F33F680200205C
:1051F000D4030020C4010020C80100209A99999985
:105200009999B93F54020020CC0100209999E93FB7
:10521000000048C30000B443D8010020DC01002096
:10522000C0010020B8010020BA010020B90100200F
:10523000B18700083404002040E0F84A1268521E8A
:10524000F74B53F82240002C01DB224600E062427B
:10525000524250B2F14A1268521EF14B8C3B33F865
:10526000222091B2FFF720FC28E0EC4A1268521E7F
:10527000EB4B53F82240002C01DB224600E0624257
:1052800050B2E64A1268521EE54B8C3B33F822209E
:1052900091B2FFF709FC11E00FE00020E14908702E
:1052A000FFF774FB00231A4619461846FBF7C3FFA5
:1052B0000221DD4802F0E6FD00E000BF00BF00BFB4
:1052C00056E770B504460D461646D74803F001F977
:1052D000022805D1FFF75AFB0121D34802F0D2FD85
:1052E000324629462046FFF765FB70BD2DE9F04F99
:1052F00089B004460D4616461F46CC48007878B95A
:105300000020CB4908700021CA4A11605160CA4A86
:1053100011605160C94A1060506009B0BDE8F08F5B
:10532000C3480078082879D2DFE800F0041A24BFC7
:10533000FDF7F6F5C24890F8380080B10020C0496A
:1053400081F83800D1E90C01BB4A03C2BC48D0E95E
:105350000A10B84AC2E900100120B54908700AE2F3
:10536000C82240F6B8310120FFF7ABFF0220B04958
:10537000087000E2AC4803F0ACF8022879D1A948E3
:1053800000780028FAD1AE4890F83800002870D094
:105390000020AB4981F838000846D0E90A81A548C9
:1053A0000CC8404607F04AF8CDE90001A448D0E90E
:1053B0000C81A1480CC8404607F040F88246DDE960
:1053C000002306F0F9FBCDE9020105F06BFB00229A
:1053D0009C4BCDE9040106F00BFE9B4A9B4BCDE9AB
:1053E000060106F0E9FB954A03C2002213469349E1
:1053F00003C906F0FBFE2AD89148D0E90A818D48FE
:105400000CC8404606F0F2FE11D88C4903C906F0DC
:105410002BFDB0F1000802DB404602E0AAE1C8F132
:105420000000014664220420FFF74BFF39E0834867
:105430000CC80020834907F001F8804606F014FDEF
:105440008246642251460320FFF73BFF29E07C4857
:10545000D0E90A8177480CC8404606F0C7FE11D84B
:10546000764903C906F000FDB0F1000802DB4046B2
:1054700002E019E0C8F10000014664220320FFF7B2
:1054800020FF0EE06D480CC800206E4906F0D8FAE7
:10549000804606F0E9FC8246642251460420FFF76C
:1054A00010FF03206249087065E16549D1E90C01EC
:1054B000614A03C26248D0E90A105E4AC2E900109C
:1054C0005F48D0E90A8342462046294606F08EFE10
:1054D00009D2C82247F230510120FFF7F2FE042022
:1054E000534908701EE05649D1E90A8342462046D6
:1054F000294606F041FD12D26422B4210420FFF7B0
:10550000E0FEC82247F230510120FFF7DAFE042006
:105510004749087006E00DE1D8E022E003E00420EE
:105520004349087027E14648D0E90A8342462046AD
:10553000294606F091FECDE9060106F095FCB0F192
:10554000000A01DB504601E0CAF10000142807DA26
:10555000002211460520FFF7B4FE052034490870EB
:1055600009E1314802F0B5FF022871D12D480078D9
:105570000028FAD1324890F83800002868D000207E
:105580002F4981F838000846D0E90A8129480CC81B
:10559000404606F053FF82468B462948D0E90C81ED
:1055A00025480CC8404606F049FF52465B46CDE907
:1055B000000106F001FBCDE9020105F073FA0022BB
:1055C000204BCDE9040106F013FD1F4A1F4BCDE926
:1055D000060106F0F1FA194A03C2002213461749E0
:1055E00003C906F003FE44D81549D1E90A811148E0
:1055F0000CC8404606F0FAFD2BD8104903C906F046
:1056000033FCB0F1000801DB404601E0C8F10000C6
:10561000014664220420FFF754FE53E034040020C6
:1056200054050020B8010020B18700086800002060
:10563000F8010020E0010020E8010020F001002036
:105640006003002000806640F1D4C853FB2109406C
:105650003BE04A480CC80020494906F0EFFE80466E
:1056600006F002FC8246642251460320FFF729FE21
:1056700028E04449D1E90A8143480CC8404606F075
:10568000B5FD10D83D4903C906F0EEFBB0F10008A6
:1056900001DB404601E0C8F100000146642203201E
:1056A000FFF70FFE0EE035480CC80020344906F025
:1056B000C7F9804606F0D8FB824664225146042092
:1056C000FFF7FFFD06203149087054E02D483246AF
:1056D0003B46D0E90C81404606F04EFC0ED26422D7
:1056E0005A210320FFF7EDFDC82247F23051012077
:1056F000FFF7E7FD0720254908701AE021483246E8
:105700003B46D0E90C81404606F070FD0ED2642283
:105710005A210420FFF7D5FDC82247F2305101205D
:10572000FFF7CFFD07201949087002E0072017494D
:10573000087020E01349D1E90C8132463B464046CF
:1057400006F07CFECDE9060106F08EFBB0F1000A02
:1057500001DB504601E0CAF10000142809DA0022FA
:1057600011460520FFF7ADFD0020094908700749E3
:10577000087000E000BF00BF00BFCEE5F0010020D0
:105780000080664060030020E0010020F801002056
:105790006800002010B54FF4A06000F079FA10BD49
:1057A00000BF7047704770B505460C460021F848A9
:1057B00002F063FAC82C01D9002070BD22462946A8
:1057C000F44803F0BFFA2146F14802F06BFA0121D8
:1057D000EF4802F052FA0120EFE700B58BB001214B
:1057E000084600F0D2FDEA48143802F079F9E8489A
:1057F00002F076F9E8480090E84801900020029015
:10580000C82003900020049080200590002006907E
:10581000079008904FF44050099000200A90694684
:10582000DB48143802F0FEF90121D948143802F09F
:1058300024FAD9480090D7480190102002900920FE
:10584000039000200490802005900020069007908F
:1058500008904FF48050099000200A906946CC4887
:1058600002F0E0F901224021CB48001F00F0FEFECB
:1058700001228021C848001F00F0F8FE0BB000BDD7
:1058800008B510208DF8000000208DF801000120DF
:105890008DF802008DF80300684600F0FEF926201E
:1058A0008DF8000000208DF8010002208DF8020024
:1058B00001208DF80300684600F0EFF908BD10B52F
:1058C00086B004460121480400F079FD012105203D
:1058D00000F068FD0420ADF8140018208DF81700C2
:1058E00003208DF8160005A9AD4800F09FFA0820A6
:1058F000ADF8140004208DF8170005A9A84800F0A1
:1059000095FA01940020ADF80800ADF80A00ADF852
:105910000C00ADF810000C20ADF80E0001A99E4857
:10592000001F00F0E6FDFFF7ABFFFFF756FF012277
:1059300040F224419848001F00F073FE0121964870
:10594000001F00F062FE40219348001F00F045FF59
:1059500006B010BD70B502F044FE40F224418E48FE
:10596000001F00F043FF10B38B48001F0088C4B233
:1059700089480088C4B200218548143802F07DF9B6
:105980008348143802F090F905462A468349854831
:1059900003F0D8F9FCF724F9C8217D48143802F047
:1059A00081F901217A48143802F067F900BF02F04A
:1059B00027FE70BD10B502F014FE4FF4001002F087
:1059C00077F918B14FF4001002F0A5F902F018FEB3
:1059D00010BD70B505460C4600216D48643802F0D4
:1059E0004CF9C82C01D9002070BD224629466E48CA
:1059F00003F0A8F921466648643802F053F9012102
:105A00006348643802F039F90120EDE700B58BB046
:105A10000121084600F0B9FC5D48643802F060F8E6
:105A20005B48503802F05CF8604800906048019094
:105A300000200290C8200390002004908020059050
:105A400000200690079008904FF4405009900020E5
:105A50000A9069464E48503802F0E4F801214C485B
:105A6000503802F00AF9514800904F480190102038
:105A700002900920039000200490802005900020CF
:105A80000690079008904FF48050099000200A90EB
:105A900069463F48643802F0C5F801224021434876
:105AA000001F00F0E3FD012280214048001F00F0AC
:105AB000DDFD0BB000BD08B50D208DF80000002005
:105AC0008DF8010001208DF802008DF80300684672
:105AD00000F0E3F827208DF8000000208DF8010089
