:020000040800F2
:10000000C02200208D5A0008B7020008B90200087B
:10001000BD020008C1020008C5020008000000007F
:10002000000000000000000000000000C9020008FD
:10003000CB0200080000000073880008FB82000863
:10004000A75A0008A75A0008A75A0008A75A00088C
:10005000A75A0008A75A0008A75A0008A75A00087C
:10006000A75A0008A75A0008A75A0008A75A00086C
:10007000A75A0008395A0008A75A0008A75A0008CA
:10008000F1570008A75A0008A75A0008A75A000805
:10009000A75A0008A75A0008A75A0008A75A00083C
:1000A000A75A0008A75A0008A75A0008A75A00082C
:1000B000A75A0008A75A0008A75A0008A75A00081C
:1000C000A75A0008A75A0008A75A0008A75A00080C
:1000D000A75A0008A75A000891570008F5590008C8
:1000E000A75A0008A75A0008A75A0008A75A0008EC
:1000F000A75A0008A75A0008A75A0008A75A0008DC
:10010000A75A0008A75A0008A75A0008A75A0008CB
:10011000A75A0008A75A0008D9090008A75A0008DA
:10012000A75A0008A75A0008A75A0008A75A0008AB
:1001300000F002F800F0B0F80AA090E8000C824449
:100140008344AAF10107DA4501D100F0A5F8AFF226
:10015000090EBAE80F0013F0010F18BFFB1A43F0A5
:100160000103184738CD000058CD00000A444FF075
:10017000000C10F8013B13F0070408BF10F8014B06
:100180001D1108BF10F8015B641E05D010F8016B4B
:10019000641E01F8016BF9D113F0080F1EBF10F8AF
:1001A000014BAD1C0C1B09D16D1E58BF01F801CBD2
:1001B000FAD505E014F8016B01F8016B6D1EF9D555
:1001C0009142D6D37047000000230024002500266A
:1001D000103A28BF78C1FBD8520728BF30C148BFAA
:1001E0000B6070476E2908F06E86702909F0ED816A
:1001F00066290CF04A8465290CF0478467290CF0C5
:1002000044846129AFF3008003681B0A28BF41F0D2
:100210008001692908F00484642908F001847529A3
:1002200008F0FE836F2909F07B81782909F0B981F4
:10023000E92909F01581E42909F01281F52909F06D
:100240000F81EF2909F07881F82909F0B881036856
:10025000DB0928BF41F08001632909F084807329FC
:1002600009F08980E32909F0A782F32909F0AC821B
:10027000002070471FB509F007FA04000020002194
:100280000BF04AFA401C6060002000210BF02EFAAF
:10029000E0601FBD10B510BD09F04EFB1146FFF721
:1002A000E9FF08F042FA09F075FB03B4FFF7F2FF2B
:1002B00003BC05F093F9704700BFFEE700BFFEE7FF
:1002C00000BFFEE700BFFEE7704770470CB5002097
:1002D000019000906C48006840F480306A490860E2
:1002E00000BF6948006800F4003000900198401C8D
:1002F0000190009818B90198B0F5A06FF1D162484B
:10030000006800F4003010B10120009001E00020EE
:1003100000900098012843D15C48006840F010002C
:100320005A4908600846006820F003000860084643
:10033000006840F002000860534840685249486035
:100340000846406848600846406840F4806048605D
:100350000846406820F47C1048600846406840F435
:10036000E81048600846006840F08070086000BFF0
:100370004548006800F000700028F9D04248406805
:1003800020F00300404948600846406840F0020001
:10039000486000BF3C48406800F00C000828F9D1D4
:1003A0000CBD10B5FFF792FF10BD10B536480068C0
:1003B00040F001003449086008464068344908406C
:1003C0003149486008460068324908402E490860B3
:1003D0000846006820F4802008600846406820F441
:1003E000FE0048604FF41F008860FFF7DAFF4FF00F
:1003F00000602949086010BD10B5002100200022CE
:10040000214B5B6803F00C0121B1042906D00829B7
:1004100028D107E0214B224C236027E01F4B204CC2
:10042000236023E0184B5B6803F47010164B5B6885
:1004300003F48032022303EB904022B9194B43436B
:10044000174C23600DE0104B5B6803F4003323B1BD
:10045000144B4343124C236003E0104B4343104CB6
:10046000236003E00D4B0E4C236000BF00BF064B22
:100470005B68C3F303130C4CE15C094B1B68CB4076
:10048000074C236010BD0000001002400020024015
:100490000000FFF8FFFFF6FE08ED00E000127A0012
:1004A0000000002000093D000400002030B589B0A4
:1004B00005460C460121480305F092FE012111205A
:1004C00005F08EFE4FF47070ADF8200018208DF806
:1004D000230003208DF8220008A9FE4805F0C4FB84
:1004E000ADF81850ADF814400020ADF81A00ADF882
:1004F000160005A9F84806F0AFF97020ADF8040021
:100500000120ADF806000020ADF80A00ADF80C009F
:1005100001A9F14806F0DDF901A9EF4806F01BFA40
:1005200001A9ED4806F064FA01A9EB4806F0ABFA20
:100530000121E94806F0F8FC0821E74806F018FE1A
:100540000821E54806F01DFE0821E34806F026FED6
:100550000821E14806F02BFE0121DF4806F0D8FD16
:100560000121DD4806F0D4FC0021DB4806F068FFDD
:100570000021D94806F066FF0021D74806F064FF45
:100580000021D54806F062FF09B030BD30B589B012
:1005900005460C460121042005F02FFE012109200B
:1005A00005F01EFE4FF47070ADF8200018208DF895
:1005B000230003208DF8220008A9C84805F054FB49
:1005C000ADF81850ADF814400020ADF81A00ADF8A1
:1005D000160005A9C24806F03FF97020ADF80400E6
:1005E0000120ADF806000020ADF80A00ADF80C00BF
:1005F00001A9BB4806F06DF901A9B94806F0ABF9AD
:1006000001A9B74806F0F4F901A9B54806F03BFA8C
:100610000121B34806F088FC0821B14806F0A8FD86
:100620000821AF4806F0ADFD0821AD4806F0B6FD43
:100630000821AB4806F0BBFD0121A94806F068FD82
:100640000121A74806F064FC0021A54806F0F8FE49
:100650000021A34806F0F6FE0021A14806F0F4FEB2
:1006600000219F4806F0F2FE09B030BD00B587B00A
:100670000121084605F0B4FD0121C80205F0B0FDD6
:100680000121042005F0ACFD4FF44070ADF81800D6
:1006900048208DF81B0003208DF81A0006A9914808
:1006A00005F0E2FA01224FF440718E4805F08DFB0F
:1006B00044F62060ADF810000020ADF80C00ADF855
:1006C0001200ADF80E0003A9874806F0C5F80A230A
:1006D0001A460321844806F0CEFC684606F0FBFB70
:1006E0000820ADF8080069467F4806F048FB012164
:1006F0007D4806F0D3FE012211467B4806F023FC1C
:1007000000207949243108800121774806F000FC57
:1007100007B000BD00B587B00121744805F075FB36
:100720000121084605F05CFD0121084605F065FD44
:100730000121042005F054FD0121082005F050FDA1
:1007400001216B4805F061FB4FF40040ADF8180043
:1007500004208DF81B0003208DF81A0006A96148BB
:1007600005F082FA0122D1035E4805F02EFB082035
:10077000ADF8180004208DF81B0003208DF81A0036
:1007800006A9564805F070FA01220821534805F0E1
:100790001CFB4FF0804005F08BFF03A94FF0804019
:1007A00006F05AF844F62060ADF810000020ADF8CD
:1007B0000C00ADF81200ADF80E0003A94FF0804018
:1007C00006F04AF800231A4603214FF0804006F055
:1007D00052FC684606F07FFB0620ADF8080069462B
:1007E0004FF0804006F0CBFA0121880706F056FE54
:1007F00001221146900706F0A6FB00204FF0804131
:1008000088840121880706F083FB07B000BD00B58E
:1008100087B00121084605F0E3FC0121022005F024
:10082000ECFC0121042005F0DBFCC020ADF8180031
:1008300048208DF81B0003208DF81A0006A92948CE
:1008400005F012FA0122C021264805F0BEFA44F64E
:100850002060ADF810000020ADF80C00ADF81200DB
:10086000ADF80E0003A9234805F0F6FF0A231A4647
:100870000321204806F0FFFB684606F02CFB082009
:10088000ADF8080069461B4806F079FA01211948BD
:1008900006F004FE01221146164806F054FB002023
:1008A0001449243108800121124806F031FB07B0B9
:1008B00000BD00B587B00121084605F091FC01217B
:1008C000082005F09AFC0121042005F089FC032092
:1008D00012E000000010014000340140000C014013
:1008E0000008004000080140002C014000023000D8
:1008F0000003180000040040ADF8180048208DF8EF
:100900001B0003208DF81A0006A9454805F0ACF934
:1009100001220321424805F058FA44F62060ADF860
:1009200010000020ADF80C00ADF81200ADF80E007C
:1009300003A93C4805F090FF0A231A4603213948D1
:1009400006F099FB684606F0C6FA0820ADF80800E4
:100950006946344806F013FA0121324806F09EFD3C
:10096000012211462F4806F0EEFA00202D492431CD
:10097000088001212B4806F0CBFA07B000BD7FB5F7
:1009800005460C460121102005F037FCADF8085053
:10099000ADF804400020ADF80A00ADF8060001A94A
:1009A000214805F059FF012211461F4806F0CBFAF5
:1009B00036208DF8000000208DF8010003208DF80E
:1009C000020001208DF80300684605F084F801213B
:1009D000154806F09DFA7FBD10B50121124806F0BA
:1009E00060FD40B111480068401C104908600121B9
:1009F0000D4806F067FD10BD10B5FFF737FEFFF795
:100A000089FEFFF704FF1D2140F2AF40FFF7BEFD56
:100A1000FFF74FFF1D2140F2AF40FFF747FD10BD2C
:100A200000080140000C00400010004014000020AD
:100A30002DE9F0470446002C08DBB4F5FA7F01DD10
:100A40004FF4FA740120FD49087008E06442B4F5DF
:100A5000FA7F01DD4FF4FA740020F849087020B2E3
:100A6000F649C88120460BF033FE8246F4490BF06C
:100A70008FFE81460BF080FC07460022F14B0AF006
:100A800093FE05460BF0A4F8EC494860BDE8F087FA
:100A90002DE9F0470446002C08DBB4F5FA7F01DDB0
:100AA0004FF4FA740120E849087008E06442B4F594
:100AB000FA7F01DD4FF4FA740020E349087020B298
:100AC000E149C88120460BF003FE8246DC490BF069
:100AD0005FFE81460BF050FC07460022D94B0AF01E
:100AE00063FE05460BF074F8D7494860BDE8F0870F
:100AF0002DE9F0470446002C08DBB4F5FA7F01DD50
:100B00004FF4FA740120D149087008E06442B4F54A
:100B1000FA7F01DD4FF4FA740020CC49087020B24E
:100B2000CA49C88120460BF0D3FD8246C4490BF068
:100B30002FFE81460BF020FC07460022C14B0AF035
:100B400033FE05460BF044F8C0494860BDE8F08725
:100B50002DE9F0470446002C08DBB4F5FA7F01DDEF
:100B60004FF4FA740120BA49087008E06442B4F501
:100B7000FA7F01DD4FF4FA740020B549087020B205
:100B8000B349C88120460BF0A3FD8246AC490BF067
:100B9000FFFD81460BF0F0FB07460022A94B0AF04F
:100BA00003FE05460BF014F8A9494860BDE8F0873C
:100BB00070B504460D465DB14FF49661A54806F048
:100BC00043FCC4F5966081B2A24806F03FFC0AE0FF
:100BD000C4F5966081B29F4806F036FC4FF49661EA
:100BE0009C4806F033FC70BD70B504460D465DB1FF
:100BF0004FF49661974806F023FCC4F5966081B2E5
:100C0000944806F01FFC0AE0C4F5966081B2914852
:100C100006F016FC4FF496618E4806F013FC70BD8A
:100C200070B504460D465DB14FF496618A4806F0F2
:100C30000BFCC4F5966081B2874806F007FC0AE019
:100C4000C4F5966081B2844806F0FEFB4FF49661CD
:100C5000814806F0FBFB70BD70B504460D465DB1E2
:100C60004FF496617C4806F0EBFBC4F5966081B2C8
:100C7000794806F0E7FB0AE0C4F5966081B2764851
:100C800006F0DEFB4FF49661734806F0DBFB70BDA7
:100C90006A48806810F5966F02DA70486749886084
:100CA00066488068B0F5966F03DD4FF4966063493F
:100CB00088606548806810F5966F02DA6748624977
:100CC000886061488068B0F5966F03DD4FF49660E8
:100CD0005D4988605D48806810F5966F02DA5F486C
:100CE0005A49886059488068B0F5966F03DD4FF423
:100CF0009660564988605648806810F5966F02DA0B
:100D000056485349886052488068B0F5966F03DDB5
:100D10004FF496604E49886070472DE9F0470546CC
:100D20000C46601B0BF0D4FC4D4908610A46116962
:100D300050680BF02DFD8046494A516910690BF04F
:100D40002FFE81464648016848460BF021FD0746C4
:100D500041460BF03DFB06464148816930460BF0A9
:100D600037FB3F4988610846006948610CB900209B
:100D700088613B4988693B490BF0D6FD03D239486D
:100D80003749886108E03649886900210BF0CCFCBE
:100D900002D2002032498861314988690BF07CFC1D
:100DA000BDE8F0870146002901DA002000E008468E
:100DB00070472DE9F04705460C46601B0BF088FC98
:100DC000294908610A46116950680BF0E1FC804628
:100DD000254A516910690BF0E3FD814622480168FC
:100DE00048460BF0D5FC074641460BF0F1FA0646A3
:100DF0001D48816930460BF0EBFA1B4988610846B3
:100E0000006948610CB90020886117498869154953
:100E10000BF08AFD03D213481349886108E0124998
:100E2000886900210BF080FC02D200200E49886105
:100E30000D4988690BF030FCBDE8F08730020020D6
:100E400037BEEF3D0000E03F440200205802002082
:100E50006C020020000800400034014050FBFFFFFE
:100E6000E802002000009644CC0200202DE9F04763
:100E700005460C46601B0BF02BFCFE4908610A4638
:100E8000116950680BF084FC8046FA4A5169106978
:100E90000BF086FD8146F748016848460BF078FC68
:100EA000074641460BF094FA0646F24881693046FF
:100EB0000BF08EFAEF4988610846006948610CB969
:100EC00000208861EB498869EB490BF02DFD03D2C6
:100ED000E948E849886108E0E649886900210BF0A3
:100EE00023FC02D20020E3498861E24988690BF0C3
:100EF000D3FBBDE8F0872DE9F04705460C46601BA3
:100F00000BF0E6FBDD4908610A46116950680BF0F9
:100F10003FFC8046D94A516910690BF041FD81467A
:100F2000D648016848460BF033FC074641460BF0B3
:100F30004FFA0646D148816930460BF049FACF494D
:100F400088610846006948610CB900208861CB4976
:100F50008869C9490BF0E8FC03D2C748C7498861D2
:100F600008E0C649886900210BF0DEFB02D20020B0
:100F7000C2498861C14988690BF08EFBBDE8F087E2
:100F800070B50025BE48007C00F0010058B9BD488E
:100F9000C08948BBBC48C08930BBBC48C08918BBAD
:100FA000BB48C08900BB0021BA4806F049FA0021BD
:100FB000B84806F047FA0021B64806F045FA002185
:100FC000B44806F043FA0021B34806F039FA00218C
:100FD000B14806F037FA0021AF4806F035FA002193
:100FE000AD4806F033FA70BDAC48B0F90440A54AEC
:100FF0005168002C01DB224600E062421046FFF7F8
:101000007AFF0646FFF7CEFE9E498860A348B0F9F6
:1010100000409D4A5168002C01DB224600E06242FC
:101020001046FFF723FF0646FFF7BCFE964988608F
:101030009A48B0F90840954A5168002C01DB2246D5
:1010400000E062421046FFF7B4FE0646FFF7AAFE34
:101050008E4988609148B0F902400A465168002CD8
:1010600001DB224600E062421046FFF756FE0646CC
:10107000FFF798FE86498860FFF70AFE814A1178DB
:101080009068FFF7E9FD804A11789068FFF7C8FD86
:101090007E4A11789068FFF7A7FD7D4A1178906825
:1010A000FFF786FD00BF9EE77D48744908607D48D4
:1010B00048607B486F4908607A48486078487A49B8
:1010C0000860784848607648784908607548486004
:1010D00070472DE9F04704460D46281B0BF0F8FA3F
:1010E0007349086008460168724800680BF070F99F
:1010F00070490860704801686D4800680BF050FC4A
:1011000080466E48016840460BF042FB064669483F
:1011100001686B4800680BF03BFB8046644801683F
:10112000684800680BF034FB814641460BF050F9EB
:10113000074631460BF04CF9634908605C4800688B
:101140005D490860604800680BF0A6FABDE8F087CA
:101150002DE9F0410446002120680BF0E5FA03D2A6
:10116000206880F000402060002160680BF0DCFA0D
:1011700003D2606880F0004060600021A0680BF03E
:10118000D3FA03D2A06880F00040A0600021E0689C
:101190000BF0CAFA03D2E06880F00040E0602069FA
:1011A000E0612169206A0BF013F920620021E068F8
:1011B0000BF03EFA13D0E168206A0BF0B5FB02D2C7
:1011C000E06820620BE0E06880F000452846216A74
:1011D0000BF0AAFB03D2E06880F000402062A16916
:1011E00020690BF0DDFB60622069A061616AA06884
:1011F0000BF0CEFA0646216A60680BF0C9FA074682
:10120000E16920680BF0C4FA804639460BF0E0F83B
:10121000054631460BF0DCF86061BDE8F0812DE950
:10122000F04F93B004460D4616469946604204B20C
:101230007042642190FBF1F738460AF026FD234AFC
:1012400003C20022224B214903C90AF085FDCDE9E2
:10125000100148460AF019FDCDE908010AF0D0F95D
:1012600082468B4628460AF010FD074652465B46EA
:1012700030E00000B00200200000964494020020FC
:10128000800200203002002044020020580200208A
:101290006C0200200034014000080040F0030020F0
:1012A0000000F04200004040CC020020E802002094
:1012B00038000020400000204400002034000020BE
:1012C000300000202C0000203C00002060000020A6
:1012D000007070400AF040FDCDE90C0148460AF06C
:1012E000D4FCCDE9080109F061FC07468846204698
:1012F0000AF0CBFC82463A4643460AF02DFDCDE982
:101300000A01DDE90C230AF04FFACDE90E01DDE90F
:1013100010230AF049FA974A03C20022964B9749D4
:1013200003C90AF019FDCDE9100148460AF0ADFCE9
:10133000CDE9000109F03AFC82468B46904891497C
:101340000AF05EF9074652465B460AF005FDCDE914
:10135000040148460AF099FC82460AF051F9074612
:1013600088468748874909F021FC81F000413A46C8
:101370004346CDE900010AF0EFFCCDE90201DDE9C9
:1013800004230AF00FFFCDE9080128460AF07DFC8E
:10139000CDE90601DDE908230AF0DEFCCDE90C0108
:1013A00048460AF072FCCDE900010AF029F9074627
:1013B0008846734874490AF023F982463A46434600
:1013C0000AF0CAFCCDE9040148460AF05EFCCDE90A
:1013D000000109F0EBFB074688466948694909F0B6
:1013E000E5FB81F0004182463A4643460AF0B4FCF0
:1013F000CDE90201DDE904230AF0D6F9CDE90801BF
:1014000020460AF042FCCDE90601DDE908230AF096
:10141000A3FCCDE90A01DDE90C230AF0C5F9CDE909
:101420000E01DDE910230AF0BFF9584A03C2002279
:10143000514B524903C90AF08FFCCDE910014846CF
:101440000AF023FCCDE9000109F0B0FB82468B468F
:101450004B484D4909F0AAFB074652465B460AF045
:101460007BFCCDE9040148460AF00FFC07460AF070
:10147000C7F882468B46424843490AF0C1F881F0DA
:10148000004152465B46CDE900010AF065FCCDE91A
:101490000201DDE904230AF087F9CDE908012846B5
:1014A0000AF0F3FBCDE90601DDE908230AF054FC5C
:1014B000CDE90C0148460AF0E8FBCDE900010AF04D
:1014C0009FF882468B462E482F4909F06FFB07464E
:1014D00052465B460AF040FCCDE9040148460AF05A
:1014E000D4FBCDE9000109F061FB0746884624489A
:1014F00025490AF085F881F0004182463A46434684
:101500000AF02AFCCDE90201DDE904230AF04CF9D6
:10151000CDE9080120460AF0B8FBCDE90601DDE976
:1015200008230AF019FCCDE90A01DDE90C230AF0D1
:101530003BF9CDE90E01DDE910230AF035F9144A33
:1015400003C20C4903C90AF043FB0746FFF770FAD0
:101550000E4903C90AF03CFB0746FFF799FA0C490C
:1015600003C90AF035FB0746FFF7C2FA13B0BDE81E
:10157000F08F0000480000200070704060000020E4
:10158000A138DB3752C1F03F52C1E03F500000208C
:101590005800002070B5002500244DF6ED60FD498F
:1015A0000880FD48C0788870FB48807AC870FA4887
:1015B00000790871F8488088000A4871F6488079F7
:1015C000887100BF06E0F548015DE01DF14A115445
:1015D000601CC4B2F0488079A042F4DC002405E02D
:1015E000EC48005D284405B2601CC4B2EA48C078EB
:1015F000801EA042F4DCE848C078801EE54A1554FD
:10160000C5F30721E448C078401E1154E248C17870
:10161000104603F0E6FF70BD2DE9FC5F57E1E0489E
:10162000007820BB1D21D02001F02CFD1F21D020EF
:1016300001F028FD2121D02001F024FD3221A62037
:1016400001F033FD3421A62001F02FFD3621A62024
:1016500001F02BFD00211A2001F027FD02211A20A4
:1016600001F023FD04211A2001F01FFD2AE11D21B4
:10167000D02001F007FD00B200900BF029F8019096
:101680000AF07AFE8246C74AC74B0AF065FB8046DD
:101690008946C649486A0AF06FFE064642464B46EE
:1016A0000AF082F804460AF04DF8C04948621F214A
:1016B000D02001F0E7FC00B200900BF009F8019097
:1016C0000AF05AFE8046B74AB74B0AF045FB04467B
:1016D0000D46B649886A0AF04FFE064622462B465A
:1016E0000AF062F882460AF02DF8B049886221219A
:1016F000D02001F0C7FC00B200900AF0E9FF019091
:101700000AF03AFE0646A74AA74B0AF025FB044614
:101710000D46A649C86A0AF02FFE804622462B468F
:101720000AF042F882460AF00DF8A049C862322158
:10173000A62001F0BAFC00B200900AF0C9FF0190A7
:101740000AF01AFE8046974A974B0AF005FB0446BA
:101750000D469649086B0AF00FFE064622462B46B8
:101760000AF022F8824609F0EDFF9049086334211F
:10177000A62001F09AFC0FFA80FB58460AF0A8FF59
:1017800082460AF0F9FD8046864A874B0AF0E4FA61
:1017900004460D468549486B0AF0EEFD0646224692
:1017A0002B460AF001F8CDE9000109F0CBFF7F4993
:1017B00048633621A62001F078FC0FFA80FB5846DA
:1017C0000AF086FF82460AF0D7FD8046754A764BBE
:1017D0000AF0C2FA04460D467449886B0AF0CCFD43
:1017E000064622462B4609F0DFFFCDE9000109F04D
:1017F000A9FF6E49886300211A2001F056FC00B24F
:1018000000900AF065FF01900AF0B6FD8046654A37
:10181000654B0AF0A1FA04460D466449C86B0AF00C
:10182000ABFD064622462B4609F0BEFF824609F074
:1018300089FF5E49C86302211A2001F036FC0FFAC5
:1018400080FB58460AF044FF82460AF095FD0646A2
:10185000544A554B0AF080FA04460D465349086C29
:101860000AF08AFD804622462B4609F09DFFCDE90D
:10187000000109F067FF4D49086404211A2001F0B6
:1018800014FC0FFA80FB58460AF022FF82460AF049
:1018900073FD8046434A444B0AF05EFA04460D4607
:1018A0004249486C0AF068FD064622462B4609F07C
:1018B0007BFFCDE9000109F045FF3C494864052064
:1018C00006F075FE36480078401C354908703448EB
:1018D00000786528FFF6A3AEBDE8FC9F70B505460D
:1018E000002433480078401C31490870FFF794FE0B
:1018F0002F48007806284CD2DFE800F0F6032B666C
:1019000088AA4DF6ED60234908802E2088700220B9
:10191000C8700720087180204871252088712548EB
:1019200040881E4908802348808848802148C08814
:10193000888020480089C8801F48808908811F4806
:10194000808948811E48808988811E488089C88195
:10195000CBE01D21D02001F095FB00B20F49088299
:101960001F21D02001F08EFB00B20C4948822121BA
:10197000D02001F087FB00B2084988820846008A1F
:101980000A4908800548408A48800448808A88803F
:10199000ABE0A9E0C00700200803002014030020EA
:1019A000680000207B14AE47E17A843F24040020C5
:1019B0006B000020F00300203002002044020020D1
:1019C000580200206C0200203221A62001F06DFB9D
:1019D00000B2FC49C8823421A62001F066FB00B2A7
:1019E000F84908833621A62001F05FFB00B2F549D3
:1019F00048830846C08AF449C880F248018BF248FF
:101A00000181F048418BF04841816EE000211A20AD
:101A100001F04BFB00B2EB49888302211A2001F050
:101A200044FB00B2E749C88304211A2001F03DFBC2
:101A300000B2E44908840846808BE3498881E14884
:101A4000C18BE148C181DF48018CDF4801824CE055
:101A5000DE48008ADB494884DC48807C81F8240029
:101A60000020DB4908700DE0D648D9490978415C6F
:101A7000D7480078C01DD74A1154D5480078401C7B
:101A8000D3490870D3488079D14909788842EBDC82
:101A90000020CF4908700AE0CE48CD490978405C63
:101AA000204404B2CA480078401CC9490870C9489B
:101AB0008078801EC64909788842EDDCC548807868
:101AC000801EC44A1454C4F3072110468078401E77
:101AD00011541DB11046817803F083FD02F0B8FB6C
:101AE0000020BD49087000E000BF00BF70BD10B508
:101AF0000022BA48B0F90000B94B984270D1B748FB
:101B00008078B84BD870B548C07898721846807AFB
:101B1000022801D0002010BDB0480079AF4B5B799E
:101B200000EB0320AF4B9880AC4880799871184641
:101B300080790A2855D2DFE800F005060B541723F8
:101B40002F543B474EE0A548C079A74B188049E089
:101B5000002106E0C81DA14B185CA34B5854481C3B
:101B6000C1B20229F6DB3DE0002106E0C81D9B4B17
:101B7000185C9D4B5854481CC1B20429F6DB31E077
:101B8000002106E0C81D954B185C974B5854481C23
:101B9000C1B20529F6DB25E0002106E0C81D8F4B08
:101BA000185C914B5854481CC1B20629F6DB19E069
:101BB000002106E0C81D894B185C8B4B5854481C0B
:101BC000C1B20829F6DB0DE0002106E0C81D834BF9
:101BD000185C854B5854481CC1B20929F6DB01E05A
:101BE0002AE000BF00BF7F48C078801E7B4B1B5C93
:101BF0007C48C078401E794C205C03EB002000B28A
:101C0000784B1881002105E07448405C104482B292
:101C1000481CC1B27348C078801E8842F4DC714809
:101C2000B0F90800904203D101206E4B187072E7A2
:101C300000206C4B18706EE700206CE72DE9F05F18
:101C40000024A346A146A2466849B1F90E10A1F1AD
:101C500080000AF01AF807460022654B0AF07CF86B
:101C6000054609F0B5FF0FFA80F96049B1F90C108B
:101C7000C1F17F000AF009F8074600225C4B0AF028
:101C80006BF8054609F0A4FF0FFA80FA5748408A1E
:101C9000803804B20023224651464846FFF7BFFA77
:101CA000BDE8F09F2DE9F047FFF721FF08B9BDE837
:101CB000F0874C4880880B287ED008DC7DD2DFE896
:101CC00000F024282C31A9B7BBBCC0CBFD0048F2E2
:101CD0000202811A904271D010DC0E286FD004DC11
:101CE0000C286DD00D2868D157E1B0F5004F68D0B1
:101CF0006FF4004108440028F5D16BE10629DDD2DC
:101D0000DFE801F05BFAF9F8F7F602202D490870D8
:101D100026E243202B49088022E240F2071029499D
:101D200008801DE23349B1F90C10642201FB02F076
:101D300009F0ABFF0646304A304B09F0F1FD04468E
:101D400009F046FF00B21F4908802D49B1F90C1077
:101D5000642201FB02F009F098FF0646264A274B51
:101D600009F0DEFD044609F033FF00B21549488052
:101D70002449B1F90C10642201FB02F009F085FF3F
:101D800006461D4A1D4B09F0CBFD044609F020FF15
:101D900000B20C4988801C49B1F90C10642201FB87
:101DA00002F009F072FF0646134A144B09F0B8FD21
:101DB000044609F00DFF29E0E5E0D0E15BE1F1E048
:101DC000E6E003E114030020240400208002002048
:101DD0006A000020C00700206B00002024080020BB
:101DE000EDDEFFFF08030020500300208C030020DD
:101DF0000000044058020020EC3EB61B934F6A409E
:101E00006C020020300200204402002000B2FE4993
:101E1000C880A5E1FD488089FB490880FC4880898D
:101E20004880FC4880898880FB488089C88097E189
:101E30003820F549088093E192E10B20F2490880AF
:101E40008EE1F6488088F0490880F448C0884880D0
:101E5000F2480089888083E1F1488079062804D01F
:101E60000C2818D012287CD147E01D21D02001F089
:101E700009F900B2E44908801F21D02001F002F9DD
:101E800000B2E14948802121D02001F0FBF800B2E6
:101E9000DD49888074E01D21D02001F0F3F800B204
:101EA000D94908801F21D02001F0ECF800B2D649B2
:101EB00048802121D02001F0E5F800E062E000B286
:101EC000D14988803221A62001F0DCF800B2CE4949
:101ED000C8803421A62001F0D5F800B2CA49088193
:101EE0003621A62001F0CEF800B2C749488147E06C
:101EF00031E1E2E0D6E0D4E0D2E01D21D02001F0D3
:101F0000C1F800B2C04908801F21D02001F0BAF802
:101F100000B2BD4948802121D02001F0B3F800B2C1
:101F2000B94988803221A62001F0ACF800B2B64948
:101F3000C8803421A62001F0A5F800B2B24908817A
:101F40003621A62001F09EF800B2AF494881002159
:101F50001A2001F0AAF800B2AB49888102211A20A8
:101F600000E00CE001F0A1F800B2A749C88104210B
:101F70001A2001F09AF800B2A349088200E000BFDD
:101F800000BFEDE0ECE0A748008A9F490880E7E049
:101F90004FF480709C490880E2E0A248807C9A4916
:101FA0000870DDE043209849088040F2071048801F
:101FB000382088800B20C8804FF4807008819948B1
:101FC000807C8872012096494870C9E000209449BD
:101FD0008870C5E09448B0F90000642190FBF1F9E5
:101FE000484609F052FE0746904A914B09F0B4FE6C
:101FF000054609F0EDFD0446FEF77AFD8A48B0F982
:102000000200642190FBF1F9484609F03EFE0746C4
:10201000864A874B09F0A0FE054609F0D9FD044623
:10202000FEF796FD8048B0F90400642190FBF1F9B9
:10203000484609F02AFE07467C4A7D4B09F08CFE93
:10204000054609F0C5FD0446FEF7F2FC7648B0F9F6
:102050000600642190FBF1F9484609F016FE074698
:10206000724A734B09F078FE054609F0B1FD04464B
:10207000FEF70EFD74E06C49B1F90000FEF738FD83
:102080006949B1F90200FEF763FD6749B1F904003F
:10209000FEF7CEFC6449B1F90600FEF7F9FC5FE0FB
:1020A0005EE05DE0604BB3F90420B3F90210B3F9D0
:1020B00000000023FFF7B3F852E05B4800885D4959
:1020C000888159484088C881574880880882564886
:1020D000C08848825448007A401F0C2837D2DFE875
:1020E00000F0060A0E12161A1E22262A2E3201208F
:1020F000504908702BE001204E49487027E001202C
:102100004C49887023E001204A49C8701FE0012033
:10211000484908711BE001204649487117E0012039
:102120004449887113E001204249C8710FE0012041
:10213000404908720BE001203E49487207E0012047
:102140003C49887203E001203A49C87200BF00BFD1
:10215000FFF774FD04E001203149887000E0A6E536
:1021600000BFFFF717FA00BFA1E570B504460D46A2
:10217000002213462046294609F0B2FD03D285F01D
:102180000041204670BD20462946FBE72DE9F04777
:102190002948D0E90C6129480CC830460AF002F8F9
:1021A0008046FFF7E2FF04460022254B09F098FD28
:1021B0005DD22149D1E90A6122480CC8304609F0B4
:1021C000F1FF0446FFF7D1FF804600221C4B09F0C7
:1021D00087FD4CD218481C4A1C4BD0E90A61304696
:1021E00009F0BAFD04461A480CC8204609F0DCFA8A
:1021F000174A03C21048144A144BD0E90C61304608
:1022000009F0AAFD044625E014030020580200202E
:102210006C0200203002002044020020F003002065
:10222000080300208002002050030020EC3EB61B73
:10223000934F6A408C030020A00300207800002008
:1022400000002440700000209A9999999999A93F1B
:1022500080000020FD480CC8204609F0A5FAFB4A82
:1022600003C2FB480078401CF94908700CE00021CB
:10227000F84A11605160F54A116051600020F6493A
:1022800081F83800F2490870F1480078142810DD10
:10229000F048D0E90010F04AC2E91010EB4903C938
:1022A000C2E912010120114681F838000020E849F6
:1022B0000870E948D0E90C10E84AC2E90010E64984
:1022C000D1E90A01E64A03C2BDE8F0872DE9FF5FC4
:1022D0009CB032ACF0CC22462B46DDE91C0109F063
:1022E00061FF00224FF08043CDE9120109F034FD77
:1022F0008046894632463B46DDE91E0109F052FF21
:1023000000224FF08043CDE9120109F025FD8246FD
:102310008B4600224FF08043DDE92A0108F094FC4F
:1023200000224FF08043CDE91201DDE9360108F0CB
:102330008BFC00224FF08043CDE90E013046394638
:1023400008F082FC00224FF08043CDE90A01DDE96C
:102350001E0108F079FC00224FF08043CDE9060110
:102360002046294608F070FC00224FF08043CDE95A
:102370000201DDE91C0108F067FCCDE90001DDE99F
:10238000022309F00FFFCDE90401DDE9062309F07E
:102390000BFACDE90801DDE90A2309F003FFCDE9D5
:1023A0000C01DDE90E2309F0FFF9CDE91001DDE9AB
:1023B000122309F0F7FECDE91A0122462B46DDE98A
:1023C0002C0109F0EFFE00224FF08043CDE912010D
:1023D00009F0C2FCCDE9180132463B46DDE92E0189
:1023E00009F0E0FE00224FF08043CDE9120109F030
:1023F000B3FCCDE9160100224FF08043DDE9300146
:1024000008F022FC00224FF08043CDE91201DDE903
:10241000360108F019FC00224FF08043CDE90E018F
:102420003046394608F010FC00224FF08043CDE9D9
:102430000A01DDE92E0108F007FC00224FF080437D
:10244000CDE906012046294608F0FEFB00224FF0A8
:102450008043CDE90201DDE92C0108F0F5FBCDE96F
:102460000001DDE9022309F09DFECDE90401DDE96B
:10247000062309F099F9CDE90801DDE90A2309F0FD
:1024800091FECDE90C01DDE90E2309F08DF9CDE9CE
:102490001001DDE9122309F085FECDE91401504653
:1024A0005946DDE9182309F057FCCDE90C014046F7
:1024B0004946DDE9162309F04FFCCDE90A01DDE9C3
:1024C0000C2309F06FFECDE9100150465946DDE9B5
:1024D000142309F041FCCDE90C01DDE91623DDE907
:1024E0001A0109F039FCCDE90A01DDE90C2309F0F4
:1024F00059FECDE90E01DDE9102309F011FA0022A1
:10250000584BCDE9120109F00BFA534AC2E90A010E
:1025100050465946DDE9182309F01EFCCDE90C01AF
:1025200040464946DDE9162309F016FCCDE90A01CB
:10253000DDE90C2309F036FECDE91001DDE91823B1
:10254000DDE91A0109F008FCCDE90C0140464946D5
:10255000DDE9142309F000FCCDE90A01DDE90C23D3
:1025600009F020FECDE90E01DDE9102309F0D8F9CC
:1025700000223C4BCDE9120109F0D2F9364AC2E9FA
:102580000C01FFF703FE20B0BDE8F09F2DE9F047F6
:102590009CB04FF0000AD146002400BF21E1324830
:1025A00010F80A006D2877D12F490AF10100085C64
:1025B0007228F8D10AF10200085C2028F3D10AF150
:1025C0000300085C3028EED10AF10400085C3728CB
:1025D000E9D14FF0000921E01F48006800011E49C1
:1025E00008600AF1060048441F490C5C302C05DBEA
:1025F000392C03DCA4F13000C4B206E0612C04DB0A
:10260000662C02DCA4F15700C4B2134800682044D1
:102610001149086009F1010000F0FF09B9F1080F44
:10262000DADB4FF0000931E00B48406800010A494D
:1026300048600AF10F0048440B490C5C302C15DB54
:10264000392C13DCA4F13000C4B216E0880000205D
:102650009000002080000020A003002078000020CF
:10266000700000200000244088080020612C04DB5A
:10267000662C02DCA4F15700C4B25E4840682044D6
:102680005C49486009F1010000F0FF09B9F1080F49
:10269000CADB4FF0000922E09FE056488068000145
:1026A000544988600AF11800484453490C5C302CA6
:1026B00005DB392C03DCA4F13000C4B206E0612C48
:1026C00004DB662C02DCA4F15700C4B249488068E0
:1026D00020444849886009F1010000F0FF09B9F180
:1026E000080FDADB4FF0000921E04248C068000122
:1026F0004049C8600AF1210048443F490C5C302C35
:1027000005DB392C03DCA4F13000C4B206E0612CF7
:1027100004DB662C02DCA4F15700C4B23548C06863
:1027200020443449C86009F1010000F0FF09B9F103
:10273000080FDADB2F49886809F0BEFA05460E4615
:102740002C49486A09F0B8FA074688462949086AB8
:1027500009F0B2FACDE91A012649486809F0ACFA45
:10276000CDE918012349C86909F0A6FACDE9160197
:102770002049886909F0A0FACDE914011D490868CB
:1027800009F09AFACDE912011A49486909F094FA58
:10279000CDE910011749086909F08EFACDE90A78E8
:1027A000CDE90C56CDE90E01DDE91A01CDE90801AC
:1027B000DDE91801CDE90601DDE91601CDE90401E5
:1027C000DDE91401CDE90201DDE91201CDE90001E5
:1027D0000EA80FC8FFF77AFD07E00AF1010000F02C
:1027E000FF0ABAF1C80FFFF6DAAE00BF1CB0BDE8B1
:1027F000F0870000A00300208808002010B5E84AF8
:10280000128812B2E74B5A811A46116AB2F90A309D
:10281000B2F9142040F27124624303EB4210421AD1
:1028200012B2E04B1A8013E0DE4A928A521E12B2B4
:10283000DC4B9A821A46B2F90A30B2F9142040F2FF
:102840007124624303EB4210421A12B2D54B1A8034
:10285000D44AB2F9002042F210739A42E4DC13E049
:10286000D04A928A521C12B2CE4B9A821A46B2F9C0
:102870000A30B2F9142040F27124624303EB421093
:10288000421A12B2C74B1A80C64AB2F90020C64B90
:102890009A42E5DBC34A106210BD10B54FF080428A
:1028A000928C12B2BF4B9A811A46516AB2F90C301F
:1028B000B2F9162040F27124624303EB4210421A2F
:1028C00012B2B84B5A8013E0B64AD28A521E12B2E4
:1028D000B44BDA821A46B2F90C30B2F9162040F243
:1028E0007124624303EB4210421A12B2AD4B5A807C
:1028F000AC4AB2F9022042F210739A42E4DC13E0CF
:10290000A84AD28A521C12B2A64BDA821A46B2F9EF
:102910000C30B2F9162040F27124624303EB4210EE
:10292000421A12B29F4B5A809E4AB2F902209E4B25
:102930009A42E5DB9B4A506210BD10B59B4A128853
:1029400012B2984BDA811A46916AB2F90E30B2F996
:10295000182040F27124624303EB4210421A12B273
:10296000904B9A8013E08F4A128B521E12B28D4BFD
:102970001A831A46B2F90E30B2F9182040F27124C7
:10298000624303EB4210421A12B2864B9A80854A88
:10299000B2F9042042F210739A42E4DC13E0814A57
:1029A000128B521C12B27F4B1A831A46B2F90E30A8
:1029B000B2F9182040F27124624303EB4210421A2C
:1029C00012B2784B9A80774AB2F90420764B9A4239
:1029D000E5DB744A906210BD10B5754A128812B2D8
:1029E000704B1A821A46D16AB2F91030B2F91A2025
:1029F00040F27124624303EB4210421A12B2694B57
:102A0000DA8013E0674A528B521E12B2654B5A832A
:102A10001A46B2F91030B2F91A2040F2712462431A
:102A200003EB4210421A12B25E4BDA805D4AB2F9F1
:102A3000062042F210739A42E4DC13E0594A528BAA
:102A4000521C12B2574B5A831A46B2F91030B2F9DF
:102A50001A2040F27124624303EB4210421A12B270
:102A6000504BDA804F4AB2F906204F4B9A42E5DBD1
:102A70004C4AD06210BD10B54E4A128812B2494B72
:102A80005A821A46116BB2F91230B2F91C2040F288
:102A90007124624303EB4210421A12B2414B1A8175
:102AA00013E0404A928B521E12B23E4B9A831A4652
:102AB000B2F91230B2F91C2040F27124624303EBE8
:102AC0004210421A12B2374B1A81364AB2F9082024
:102AD00042F210739A42E4DC13E0324A928B521CA9
:102AE00012B2304B9A831A46B2F91230B2F91C2056
:102AF00040F27124624303EB4210421A12B2294B96
:102B00001A81284AB2F90820274B9A42E5DB254A68
:102B1000106310BD70B5FFF771FEFFF7BEFEFFF743
:102B20000CFFFFF7A8FF1F49B1F9040009F0D0FD21
:102B30000546214909F0BAFC044609F0ADFD00B292
:102B40001E4988811749B1F9000009F0C1FD054609
:102B5000194909F0ABFC044609F09EFD00B2184982
:102B600088811049B1F9080009F0B2FD0546124903
:102B700009F09CFC044609F08FFD00B211498881E0
:102B80000849B1F9020009F0A3FD05460A4909F018
:102B90008DFC044609F080FD00B20B49888170BDB0
:102BA000242C0140F0030020F0D8FFFF2404004053
:102BB00024080040240C004037BEEF3D30020020C6
:102BC00044020020580200206C02002008B50121B8
:102BD000082003F005FB2020ADF8000003208DF84D
:102BE000020014208DF803006946FE4803F03CF80B
:102BF0000121FD4803F009F91020ADF80000032081
:102C00008DF8020014208DF803006946F54803F0A2
:102C10002BF808BD002100BF48E000BF00BF00BF87
:102C200000BF00BF00BF00BF00BF00BF00BF00BFAC
:102C300000BF00BF00BF00BF00BF00BF00BF00BF9C
:102C400000BF00BF00BF00BF00BF00BF00BF00BF8C
:102C500000BF00BF00BF00BF00BF00BF00BF00BF7C
:102C600000BF00BF00BF00BF00BF00BF00BF00BF6C
:102C700000BF00BF00BF00BF00BF00BF00BF00BF5C
:102C800000BF00BF00BF00BF00BF00BF00BF00BF4C
:102C900000BF00BF00BF00BF00BF00BF00BF00BF3C
:102CA00000BF00BF00BF00BF00BF491C8142B4D3BA
:102CB000704700B52020CB49103108601020086013
:102CC0000220FFF7A7FFC7480830006808B90120B5
:102CD00000E0002000F0200008B1002000BD20200E
:102CE000C049143108600220FFF794FFBD48083046
:102CF000006800F0200008B10020EFE72020B9496B
:102D0000143108600220FFF785FF0120E6E700B5D7
:102D10001020B449143108600220FFF77BFF202007
:102D2000B049143108600220FFF774FF1020AD494C
:102D3000103108600220FFF76DFF2020A9491031F3
:102D400008600220FFF766FF00BD00B51020A5490E
:102D5000143108600220FFF75DFF2020A1491431E3
:102D600008600220FFF756FF10209E4910310860CE
:102D70000220FFF74FFF10209A491431086002200B
:102D8000FFF748FF00BD00B51020964914310860D8
:102D90000220FFF73FFF20209249103108600220F7
:102DA000FFF738FF10208F49103108600220FFF72D
:102DB00031FF10208B49143108600220FFF72AFFF1
:102DC00000BD00B510208749143108600220FFF7CC
:102DD00021FF20208349103108600220FFF71AFFED
:102DE00010208049103108600220FFF713FF7D4852
:102DF0000830006800F0200040B1102079491431FB
:102E000008600220FFF706FF002000BD1020754972
:102E1000143108600220FFF7FDFE0120F5E710B530
:102E2000034608241EE010206E4914310860022079
:102E3000FFF7F0FE03F0800020B120206949103137
:102E4000086003E020206749143108605806030E2B
:102E50000220FFF7DFFE10206249103108600220D7
:102E6000FFF7D8FE2000A4F10101CCB2DBD1102085
:102E70005C491431086010BD10B5082400232020DF
:102E800058491031086017E05806030E10205549C4
:102E9000143108600220FFF7BDFE102051491031A7
:102EA00008600220FFF7B6FE4E480830006800F0C8
:102EB000200008B143F001032000A4F10101CCB2CD
:102EC000E2D11020474914310860184610BD70B592
:102ED00006460C461546FFF7ECFE08B9002070BD0B
:102EE0003046FFF79CFFFFF76CFF18B9FFF70FFFA5
:102EF0000020F4E72046FFF792FFFFF762FF284625
:102F0000FFF78DFFFFF75DFFFFF701FF0120E6E709
:102F100070B504460D46FFF7CCFE08B9002070BD21
:102F20002046FFF77CFFFFF74CFF18B9FFF7EFFED5
:102F30000020F4E72846FFF772FFFFF742FFFFF794
:102F4000B8FE611CC8B2FFF76AFFFFF73AFFFFF750
:102F500093FF0646FFF717FFFFF7D9FE3046DEE77F
:102F6000FCB505460E461746FFF7A3FEA620FFF761
:102F700056FFFFF726FF3220FFF751FFFFF721FF33
:102F8000FFF797FEA720FFF74AFFFFF71AFF00247D
:102F900010E0052C06D1FFF76FFF0DF80400FFF7D6
:102FA000F2FE05E0FFF768FF0DF80400FFF7CDFE25
:102FB000601CC4B2062CECDBFFF7A9FE9DF80000F4
:102FC0009DF8011000EB012000B228809DF802005E
:102FD0009DF8031000EB012000B230809DF8040042
:102FE00004E00000000C0140000230009DF80510D4
:102FF00000EB012000B23880FCBD10B5FFF7E6FD04
:1030000001220B211A20FFF762FF402220211A2003
:10301000FFF75DFF012221211A20FFF758FF0D2243
:1030200009211A20FFF753FF0B223121A620FFF7B9
:103030004EFF1A222C21A620FFF749FF08222D213E
:10304000A620FFF744FF80222E21A620FFF73FFF96
:1030500080223E21D020FFF73AFF07221521D02001
:10306000FFF735FF1E221621D020FFF730FF002288
:103070001721D020FFF72BFF00223E21D020FFF7A1
:1030800026FF10BD2DE9F04105460C462146284695
:10309000FFF73EFF0646601CC1B22846FFF738FF27
:1030A000074607EB0620BDE8F0812DE9F041054613
:1030B0000C4621462846FFF72BFF0746601CC1B28D
:1030C0002846FFF725FF064607EB0620BDE8F081FE
:1030D00000B587B001214FF4047003F081F84FF47C
:1030E000004002F0E1FF0420ADF8040000208DF85C
:1030F000070001A9494802F0B7FD494804F0E6F984
:10310000002002908DF80C008DF80D004FF4602027
:1031100004900020059001208DF8180002A9404875
:1031200004F0FBF901213E4804F023FA3C4804F086
:1031300042FA00BF3A4804F043FA0028FAD138486E
:1031400004F048FA00BF364804F049FA0028FAD1E2
:1031500007B000BD10B504460723012221463048C0
:1031600004F073FA01212E4804F043FA00BF022153
:103170002B4804F0AFFB0028F9D0294804F0CCFA22
:1031800010BD2DE9F04107460C460025002608E059
:103190003846FFF7DFFF0544052005F008FA701CEC
:1031A000C6B2A642F4DBB5FBF4F080B2BDE8F08114
:1031B0002DE9F0470C20FFF7CDFF1A4909680844B4
:1031C0001849086018480078401C174908700846DC
:1031D000007805281FD1134800680521B0FBF1F0E5
:1031E000104908600846006808F066FD06464FF082
:1031F00066320E4B08F0B0FD044600220C4B08F07E
:103200008FFB804608F014FD0A49887400200549A8
:10321000086005490870BDE8F08700000010014013
:1032200000240140940000209800002066660A40B7
:103230000000B040800200200020F849088270475A
:1032400070B5002500244DF6ED60F54908800B208F
:1032500088700220C8700B2008710020487102207D
:10326000887100BF06E0EF48015DE01DEC4A115493
:10327000601CC4B2022CF6DB002405E0E848005DC7
:10328000284405B2601CC4B2E5488078801EA04284
:10329000F4DCE3488078801EE14A1554C5F3072129
:1032A00010468078401E11541046817802F099F93A
:1032B00070BD10B5DC480078401CDB490870DB4865
:1032C000007828B10020DA490870D849087010E069
:1032D000D7480078022807DDD048007C20F00100A4
:1032E000401CCE49087404E0D1480078401CD04905
:1032F0000870D048B0F90E00CE49B1F90C10401A50
:10330000142809DCCB48B0F90E00CA49B1F90C10F9
:10331000401A10F1140F05DAC7480078401CC6495E
:10332000087011E0C448007832280ADDBB48007CF0
:1033300020F00200801CB94908740020BE490870C2
:1033400002E00020BC490870BC48B0F90E00BB493F
:10335000B1F90C10401A142809DCB848B0F90E0075
:10336000B649B1F90C10401A10F1140F05DAB4483F
:103370000078401CB249087011E0B148007832284A
:103380000ADDA648007C20F00400001DA349087453
:103390000020AB49087002E00020A9490870A94844
:1033A000B0F90E00A749B1F90C10401A142809DC35
:1033B000A448B0F90E00A349B1F90C10401A10F15D
:1033C000140F05DAA0480078401C9F49087011E0EE
:1033D0009D48007832280ADD9048007C20F00800E3
:1033E00008308E49087400209749087002E00020D8
:1033F000954908709548B0F90E009449B1F90C1040
:10340000401A142809DC9148B0F90E008F49B1F92F
:103410000C10401A10F1140F05DA8D480078401C8A
:103420008B49087011E08A48007832280ADD7B4811
:10343000007C20F010001030784908740020844986
:10344000087002E00020824908708248B0F900004C
:103450008049B1F91210884213D17E48B0F90210A8
:10346000B0F9140081420CD17A48B0F90410B0F9D7
:103470001600814205D178480078401C76490870D2
:1034800011E07548007832280ADD6448007C20F09D
:10349000200020306149087400206F49087002E064
:1034A00000206D49087000206C4908700EE06948E2
:1034B0006A49097830F811101230684A127820F8F9
:1034C000121066480078401C644908706348007810
:1034D0000328ECDB5F48B0F906005E49B1F918102B
:1034E000884213D15B48B0F90810B0F91A00814244
:1034F0000CD15848B0F90A10B0F91C00814205D12E
:1035000057480078401C5649087011E0544800782C
:1035100032280ADD4148007C20F0400040303F491D
:10352000087400204E49087002E000204C490870E1
:1035300000204A4908700FE04648801D4749097835
:1035400030F811101230454A127820F81210434812
:103550000078401C41490870404800780328EBDBA4
:103560003C48B0F90C003B49B1F91E10884213D118
:103570003848B0F90E10B0F9200081420CD135481E
:10358000B0F91010B0F92200814205D13548007819
:10359000401C3449087011E03148007832280ADDB7
:1035A0000020304908701D48007C20F080008030E9
:1035B0001A49087402E000202A49087000202749AF
:1035C00008700FE023480C302449097830F81110B6
:1035D0001230224A127820F8121020480078401C3D
:1035E0001E4908701D4800780328EBDB0B48008A51
:1035F00090B10D4800780A280EDD0C48807858B943
:103600000020094908700548008A06490880FFF72C
:1036100017FE00200149088210BD00008002002032
:10362000C0070020140300209A0000200803002097
:103630009B000020580200209C0000206C0200200B
:103640009D000020300200209E0000204402002047
:103650009F00002024040020A000002099000020EA
:10366000A1000020A20000202DE9F04105460C46F3
:10367000FE480168204609F093F90746FC480168B6
:10368000384609F085F80646FA480168304608F0E1
:103690009FFEF8490860F8484168F848006809F05A
:1036A0007FF90646F4488168304609F079F9F44913
:1036B0000860F148C06880F000404860EE48C0688B
:1036C00080F000408860EF480068C8600868E849FA
:1036D000096809F05DF80646E7480168304608F0D9
:1036E00077FEE5490860E6494868E149096809F05C
:1036F0004FF80646E0484168304608F069FEDE496A
:103700004860DF498868DA49096809F041F80646E7
:10371000D9488168304608F05BFED7498860D849AF
:10372000C868D349096809F033F80646D248C16829
:10373000304608F04DFED049C860CE4801682846A2
:1037400009F02EF9D0490860D048007808F0D8FF79
:103750000646C9480168304609F01AF8CC490860A5
:10376000CA48007808F0CCFF0646C3488168304656
:1037700009F00EF8C7490860C448007808F0C0FF97
:103780000746C3480168384609F002F80646C248B1
:103790000168304608F01CFEC04908600846016810
:1037A000BB48006808F082FEBD490860BB4801685C
:1037B000B848006808F07AFEBA490860B448006862
:1037C000B9490860B148007808F09AFF0646AA484F
:1037D0004168304608F0DCFFB4490860B24801682F
:1037E000AF48006808F0D4FF0646A3480168304699
:1037F00009F0CBF8A0490860AC480168A848006807
:1038000008F0C6FF06469C484168304609F0BDF8FE
:1038100099494860A4480168A248006808F0B8FFC8
:10382000064695488168304609F0AFF892498860AD
:103830009E4801689B48006808F0AAFF06468E482B
:10384000C168304609F0A1F88B49C8608E4801680C
:103850009348006808F09CFF06469548016830468A
:1038600008F0B6FD92490860874801688D480068F5
:1038700008F08EFF06467D480168304608F0A8FD36
:103880007A49086008460168204609F089F88949A4
:103890000860BDE8F0812DE9F04105460C4673480B
:1038A0000168204609F07CF80746714801683846EF
:1038B00008F06EFF06466F480168304608F088FD44
:1038C0006C4908606C4841686C48006809F068F809
:1038D000064669488168304609F062F86849086020
:1038E0006548C06880F0004048606348C06880F068
:1038F0000040886063480068C86008685C490968DF
:1039000008F046FF06465C480168304608F060FD56
:10391000594908605A4948685549096808F038FF0C
:10392000064655484168304608F052FD5249486005
:10393000534988684E49096808F02AFF06464E48F0
:103940008168304608F044FD4B4988604C49C8689E
:103950004749096808F01CFF06464748C1683046D9
:1039600008F036FD4449C86042480168284609F01D
:1039700017F8454908604548007808F0C1FE06463A
:103980003D480168304608F003FF414908603F4860
:10399000007808F0B5FE064637488168304608F0E2
:1039A000F7FE3C4908603948007808F0A9FE074650
:1039B00037480168384608F0EBFE0646364801688D
:1039C000304608F005FD3549086008460168304872
:1039D000006808F06BFD32490860304801682D48E6
:1039E000006808F063FD2F490860294800682E49E7
:1039F00008602648007808F083FE06461E484168A5
:103A0000304608F0C5FE2949086027480168244867
:103A1000006808F0BDFE064617480168304608F009
:103A2000B4FF15490860214801681D48006808F086
:103A3000AFFE064610484168304608F0A6FF0E4922
:103A40004860194801681748006808F0A1FE06465A
:103A500009488168304608F098FF07498860134894
:103A600001681048006808F093FE25E0F40000208B
:103A7000EC000020D800002018010020E000002009
:103A800074040020E4000020F8000020F000002072
:103A9000FC00002000010020E800002004010020BC
:103AA000080100200C01002010010020140100205A
:103AB000DC000020B40000200646FE48C168304605
:103AC00008F063FFFB49C860FB480168FB480068D9
:103AD00008F05EFE0646FA480168304608F078FCB9
:103AE000F7490860F4480168F648006808F050FE9D
:103AF0000646F5480168304608F06AFCF24908605D
:103B000008460168204608F04BFFF0490860BDE810
:103B1000F0812DE9F04105460C46EB48016820464E
:103B200008F03EFF0746EA480168384608F030FED4
:103B30000646E8480168304608F04AFCE549086056
:103B4000DC484168E448006808F02AFF0646D94886
:103B50008168304608F024FFE0490860D548C06815
:103B600080F000404860D348C06880F00040886022
:103B7000DB480068C8600868D549096808F008FE95
:103B80000646CC480168304608F022FCC949086066
:103B9000D2494868CE49096808F0FAFD0646C5488A
:103BA0004168304608F014FCC2494860CB49886837
:103BB000C749096808F0ECFD0646BE4881683046F2
:103BC00008F006FCBB498860C449C868C049096858
:103BD00008F0DEFD0646B748C168304608F0F8FB3D
:103BE000B449C860BB480168284608F0D9FEB2490C
:103BF0000860BC48007808F083FD0646AD480168BF
:103C0000304608F0C5FDB8490860B648007808F0AD
:103C100077FD0646A7488168304608F0B9FDB349EC
:103C20000860B048007808F06BFD0746AE480168B0
:103C3000384608F0ADFD0646AD480168304608F04C
:103C4000C7FBAC49086008460168A748006808F04F
:103C50002DFC9A490860A7480168A448006808F04C
:103C600025FC98490860A0480068A34908609D4861
:103C7000007808F045FD06468E484168304608F059
:103C800087FD9E4908609C4801688C48006808F0E0
:103C90007FFD064687480168304608F076FE854974
:103CA0000860964801688548006808F071FD06467E
:103CB00080484168304608F068FE7E4948608E487A
:103CC00001688048006808F063FD0646794881680D
:103CD000304608F05AFE774988608848016879487C
:103CE000006808F055FD06467248C168304608F085
:103CF0004CFE7049C860704801687048006808F060
:103D000047FD064673480168304608F061FB71497B
:103D10000860694801686B48006808F039FD06468C
:103D200069480168304608F053FB67490860084657
:103D30000168204608F034FE71490860BDE8F08152
:103D40002DE9FF5F6F49B1F9060008F0C1FC6E492B
:103D500008606C49B1F9080008F0BAFC6B490860CA
:103D60006849B1F90A0008F0B3FC6949086065497F
:103D7000B1F9000008F0ACFC614908606149B1F993
:103D8000020008F0A5FC514908605E49B1F9040041
:103D900008F09EFC5F4908605F495B48006808F0D6
:103DA000C3FC07D24FF08D415748006808F07EFBF6
:103DB00004460FE059495448006808F0F1FD0646F2
:103DC0004FF08D4108F072FB05464FF07E5108F030
:103DD000DCFD044650494D48006808F0A5FC07D2B8
:103DE0004FF08D414948006808F060FB82460FE0C3
:103DF0004A494648006808F0D3FD06464FF08D4119
:103E000008F054FB05464FF07E5108F0BEFD824697
:103E100041493F48006808F087FC07D24FF08D41C8
:103E20003B48006808F042FB81460AE03B493848BD
:103E3000006808F0B5FD05464FF08D4108F036FBEF
:103E400081464946504608F031FB834608F094FA13
:103E5000CDE9000106F09AFD05460022304B07F03F
:103E60007BFF304A304BCDE9020107F059FD074690
:103E700007F068FC2D4908604946204608F016FB0B
:103E8000834608F079FA074606F080FD0022244BAD
:103E9000CDE9000107F060FF224A234BCDE9020182
:103EA00007F03EFD054607F04DFC2149086021461C
:103EB00050463FE018010020F800002008010020D3
:103EC000D80000200C010020F4000020B4000020E5
:103ED000EC000020D4000020E0000020740400204A
:103EE000E4000020F0000020FC0000200001002081
:103EF000E80000200401002010010020140100202F
:103F0000B000002024040020A4000020A80000200D
:103F1000AC000020B800002000F8FF460000404739
:103F2000008066401F85EB51B81E0940C800002084
:103F3000CC00002008F0BAFA834608F01DFA0746C4
:103F400006F024FD0022FE4BCDE9000107F004FF3E
:103F50000546FC4AFC4B07F0E3FCCDE9020107F003
:103F6000F1FBFA490860FA49FA48006808F0DCFBFE
:103F700003D2F9480068F8490860F549F548006837
:103F800008F0D2FC05D2F448006880F00040F24905
:103F90000860EF49F148006808F0C6FB03D2F0481A
:103FA0000068EF490860EA49EC48006808F0BCFC8A
:103FB00005D2EB48006880F00040E9490860E44918
:103FC000E848006808F0B0FB03D2E0480068DF4929
:103FD0000860DF49E348006808F0A6FC05D2DB482A
:103FE000006880F00040D94908604FF08E41DE48FB
:103FF000006808F099FB10D2DB48006808F0BCF9B3
:1040000007464FF06632D94B07F08AFC81F0004139
:10401000054607F097FBD44908604FF08E41D2481F
:10402000006808F081FC12D2CF480168D04808F03F
:10403000B7FC834608F0A0F907464FF06632CB4B39
:1040400007F06EFC054607F07DFBC74908604FF09E
:104050008E41C848006808F067FB10D2C548006868
:1040600008F08AF907464FF06632C04B07F058FC5B
:1040700081F00041054607F065FBBE4908604FF03E
:104080008E41BC48006808F04FFC12D2B948016864
:10409000B74808F085FC834608F06EF905464FF0F6
:1040A0006632B24B07F03CFC074607F04BFBB149C8
:1040B00008604FF08E41B048006808F035FB10D220
:1040C000AD48006808F058F905464FF06632A74B36
:1040D00007F026FC81F00041074607F033FBA649B4
:1040E00008604FF08E41A448006808F01DFC12D211
:1040F000A14801689E4808F053FC834608F03CF94B
:1041000007464FF06632994B07F00AFC054607F068
:1041100019FB994908609448016891480068FFF7C5
:10412000F8FC944801688C480068FFF7B4FB92489B
:10413000016886480068FFF797FABDE8FF9F2DE900
:10414000F05F05460E4614468C4801684FF07E50DD
:1041500008F026FC8046894801684FF07E5008F040
:104160001FFC814686480168284608F019FC8246F3
:10417000494608F00DFB0746414608F009FB814916
:10418000086021467F48006808F002FB07467E4829
:104190000168384608F01CF97B49086078480168D6
:1041A000284608F0FDFB8246744801684FF07E50B7
:1041B00008F0F6FB83464FF0804108F0E9FA8146AB
:1041C000514608F0E5FA80466F480168404608F01D
:1041D000FFF80746314608F0FBF86C4908602146B5
:1041E0006A48006808F0D4FA07466548016838460E
:1041F00008F0EEF862490860BDE8F09F2DE9F05F35
:1042000006460C4615462946204608F0C1FA834664
:104210005F480168584608F0DBF880465D48016851
:104220004FF07E5008F0BCFB8246414608F0B0FAE1
:10423000074658480168304608F0AAFA81463946D0
:1042400008F0C6F85249086008460068BDE8F09FCB
:104250002DE9F84F5048C088504908804E480089E1
:104260004F4908804C4840894E4908804A4890F898
:104270004800A8B94849B1F9000008F029FA4649B0
:104280004862B1F9020008F023FA43498862B1F9A3
:10429000040008F01DFA4049C862012081F8480076
:1042A0003D49B1F9000008F013FA05463A48416A61
:1042B000284608F075FB044608F0EEF900B23A49CA
:1042C00008803549B1F9020008F002FA0546324883
:1042D000816A284608F064FB044608F0DDF900B264
:1042E000324908802C49B1F9040008F0F1F905467B
:1042F0002948C16A284608F053FB044608F0CCF967
:1043000000B22B4908802548B0F9000007F0BDFC39
:104310000646284A284B07F003FB044607F012FA2A
:10432000264908601E48B0F9000007F0AEFC0646BA
:10433000204A214B07F0F4FA044607F003FA3FE065
:10434000008066401F85EB51B81E0940D000002058
:1043500000F8FF46A4000020CC000020A8000020A8
:10436000C8000020AC000020B0000020666630408D
:1043700000FF7F47B4000020B80000202801002083
:10438000380100202C0100203401002030010020E1
:104390008401002088010020240400203C0100202A
:1043A0003E01002040010020420100204401002085
:1043B00046010020FCA9F1D24D623040600100208E
:1043C000724908607248B0F9000007F05EFC0646CA
:1043D000704A714B07F0A4FA044607F0B3F96F492D
:1043E0000860084601686E48006808F05FF80090B1
:1043F00007F0C2FF804606F0C9FA82460022694BE8
:1044000007F0AAFC0646684A684B07F089FA04469A
:1044100007F098F966490860604801685B480068E1
:1044200008F044F8009007F0A7FF824606F0AEFAC5
:10443000804600225B4B07F08FFC06465A4A5B4BD6
:1044400007F06EFA044607F07DF95A4908604F48B4
:1044500001685348006808F029F8009007F08CFFC5
:10446000824606F093FA804600224E4B07F074FC19
:1044700006464D4A4D4B07F053FA044607F062F9E1
:104480004D4908604D48B0F9000007F0FEFB0646B4
:1044900000224B4B07F044FA044607F053F9494910
:1044A00008604948B0F9000007F0EFFB064600221B
:1044B000434B07F035FA044607F044F943490860D6
:1044C0004348B0F9000007F0E0FB064600223C4BF1
:1044D00007F026FA044607F035F93E490860084619
:1044E000006808F0D9F8061E01DB314600E0714291
:1044F000084607F0CAFB0446374A384B07F0F0FB82
:1045000002D200203349086004F016F834490860EC
:104510000968344A1268881A08F0F2F80746002140
:104520002C48006808F03CFA8046394608F030F91B
:1045300006464FF0804108F02BF905462A4907F05E
:10454000B5FF044629480168204607F041FF274986
:10455000086000212548006808F0E6F803D22448E6
:104560002249086008E023492048006808F0DCF987
:1045700002D200201D4908601C4800681E49C8641A
:104580001748006817490860BDE8F88F64010020EB
:1045900040010020FCA9F1D24D62304068010020AA
:1045A000600100200080664038E92F54FB2109405B
:1045B000780100207C0100208001002042010020C1
:1045C00000C02C405401002044010020580100206C
:1045D000460100205C0100209A9999999999B93F68
:1045E0008C0100209001002000007A44740100201A
:1045F0000080B3430000B4432404002010B5002021
:10460000FE49486008602321FC48083004F053FB51
:104610002321FA48943004F04EFB2321F84804F09B
:104620004AFB10BD70B506460C461546F348406877
:1046300023281CDAF1480068F0494968884201D112
:10464000FFF7DCFFED484168083040F8216008388A
:104650004168943040F8214094384168E84840F877
:104660002150E6484068401CE44948601BE0E348AC
:104670004068232817D10020E04948600846416877
:10468000083040F8216008384168943040F82140F3
:1046900094384168DA4840F82150D8480068401CF6
:1046A000D649086070BD00BFFCE7D44800682328E5
:1046B00002D10020D1490860D04801684068401C00
:1046C000814201D100207047CC4801680068401C3D
:1046D000CA4A106002F1080010F82100F3E710B593
:1046E0000024C648047808E0C448083050F8241074
:1046F000C4A004F05FF9601CC4B2C0484068A04286
:10470000F2DC10BDBD480068BC494968884201D14F
:10471000012070470020FCE72DE9F04105460C46DA
:104720005A2C02DDA4F10A0084B2B748007820B107
:10473000012810D0022875D19AE0B448C06CB44961
:10474000086000232A4619461846FCF768FD012038
:10475000AD49087093E0002D44DDAC49C86CAC490C
:10476000096808F0E1F81DD2204607F0C9FF0746A6
:10477000A648C16CA74808F013F98046A448016810
:10478000404607F025FE0646394608F0CDF809D226
:1047900000231A4619461846FCF741FD02209A49A3
:1047A000087064E09949C86C9949096807F0BCFF32
:1047B0005DD2204607F0A4FF06469448C16C944899
:1047C000006808F0EDF80746314608F0ADF84ED223
:1047D00000231A4619461846FCF721FD02208A4993
:1047E000087044E08949C86C8949096808F09CF858
:1047F00019D2204607F084FF06468449C86C8449D4
:10480000096808F0CDF80746314608F08DF80AD25D
:1048100000231A4619461846FCF701FD02207A4982
:10482000087024E02AE07949C86C7949096807F0E2
:104830007BFF1CD2204607F063FF07467349C86C14
:10484000744907F0C5FD804671480168404608F08C
:10485000A7F80646394608F067F808D200231A463A
:1048600019461846FCF7DBFC02206749087006E091
:104870000020694908706449087000E000BF00BF6B
:10488000BDE8F08103B589B06448007820B1012803
:1048900021D002287ED11AE300231A46099801B2DA
:1048A0001846FCF7BCFC5948C06C5D49086003F031
:1048B00043FE5C4908605C4840685C4908605C48AD
:1048C00040685C4908605C4840685C4908600120B9
:1048D0005249087002E3099800287DDD4B48C06CFE
:1048E00007904F480168079808F01EF875D24748AE
:1048F000C06C06904A480168069808F051F8504983
:10490000079008F011F869D24048C06C0146069043
:10491000404808F045F8079041480168079807F0BB
:1049200057FD484908600846006807F025FD464ADB
:10493000464BCDE9000107F00FFACDE904013C48F0
:104940004068019007F0A1F9CDE90201DDE90423F7
:1049500007F028FCCDE9060107F03AF93449486030
:104960003448006807F091F9374A394BCDE9020124
:1049700007F0F2F9CDE906012D484068039007F0F1
:1049800084F9CDE90401DDE9062307F0A9F911D284
:10499000284800E0A1E2006807F077F92A4A2C4B8A
:1049A000CDE9040107F0D8F9CDE9060107F010F9C7
:1049B0001F4948602348006807F0DEFC224A234B69
:1049C000CDE9000107F0C8F9CDE904011A484068B3
:1049D000019007F05AF902E064E0FBE063E0CDE902
:1049E0000201DDE9042306F0DFFECDE9060107F050
:1049F000EFF811494860114800682BE0840400205A
:104A0000A405002025640A009B0100202404002046
:104A10009C0100200000B44398010020A001002068
:104A2000A4010020BC01002030020020B0010020C1
:104A300044020020AC01002058020020B4010020F4
:104A400000004843A80100209A9999999999B93F83
:104A50009999E93F07F019F94FF03332FE4BCDE950
:104A6000020107F079F9CDE90601FC48406803909E
:104A700007F00BF9CDE90401DDE9062307F06AFA36
:104A800010D2F748006807F000F94FF03332F24BCC
:104A9000CDE9040107F060F9CDE9060107F098F8C7
:104AA000EE494860FCE1EF48C06C0790EE480168B1
:104AB000079807F075FFED4908600846006807F0A1
:104AC0005BFCEB4AEB4BCDE9000107F045F9CDE982
:104AD0000401E9484068019007F0D7F8CDE90201E8
:104AE000DDE9042306F060FECDE9060107F070F869
:104AF000E1494860E148006807F0C7F84FF03332F9
:104B0000D54BCDE9020107F027F9CDE90601DA48D6
:104B10004068039007F0B9F8CDE90401DDE9062308
:104B200007F018FA10D2D548006807F0AEF84FF039
:104B30003332C94BCDE9040107F00EF9CDE9060186
:104B400007F046F8CC494860C848006807F014FCF4
:104B5000C74AC84BCDE9000107F0FEF8CDE90401D2
:104B6000BE484068019007F090F8CDE90201DDE908
:104B7000042307F017FBCDE9060107F029F8B74930
:104B80004860B748006807F080F8B94ABC4BCDE9E7
:104B9000020107F0E1F8CDE90601B0484068039052
:104BA00007F073F8CDE90401DDE9062307F098F872
:104BB0000FD2AB48006807F068F8AD4AB04BCDE9BA
:104BC000040107F0C9F8CDE9060107F001F8A3498F
:104BD000486065E1A348C06C0790A3480168079846
:104BE00007F0A2FDF5D29F48C06C06909E48016870
:104BF000069807F0D5FEA349079007F095FD7DD2F2
:104C000099480168A04807F0CBFE07909548C06C12
:104C100001460690079807F0DBFB944908600846B8
:104C2000006807F0A9FB924A924BCDE9000107F01A
:104C300093F8CDE9040190484068019007F025F809
:104C4000CDE90201DDE9042306F0AEFDCDE9060160
:104C500006F0BEFF884948608848006807F015F8EC
:104C60004FF033327C4BCDE9020107F075F8CDE906
:104C7000060181484068039007F007F8CDE9040178
:104C8000DDE9062307F066F910D27C48006806F0DB
:104C9000FCFF4FF03332704BCDE9040107F05CF8B4
:104CA000CDE9060106F094FF734948606F4800683B
:104CB00007F062FB6E4A6F4BCDE9000107F04CF83C
:104CC000CDE9040165484068019006F0DEFFCDE9BA
:104CD0000201DDE9042307F065FACDE9060106F0DB
:104CE00077FF5E4948605E48006806F0CEFF604A84
:104CF000634BCDE9020107F02FF800E01EE0CDE99B
:104D0000060156484068039006F0BFFFCDE9040154
:104D1000DDE9062306F0E4FF0FD25148006806F0F3
:104D2000B4FF534A564BCDE9040107F015F8CDE91D
:104D3000060106F04DFF49494860B1E04948C06CA2
:104D4000014607904848006807F02AFE4749086076
:104D50000846006807F010FB454A464BCDE90001C4
:104D600006F0FAFFCDE9040143484068019006F0DF
:104D70008CFFCDE90201DDE9042307F013FACDE948
:104D8000060106F025FF3C4948603C48006806F0F3
:104D90007CFF374A3A4BCDE9020106F0DDFFCDE951
:104DA000060135484068039006F06FFFCDE9040125
:104DB000DDE9062306F094FF0FD23048006806F0C4
:104DC00064FF2B4A2E4BCDE9040106F0C5FFCDE967
:104DD000060106F0FDFE284948602448006807F0F7
:104DE000CBFA234A234BCDE9000106F0B5FFCDE90C
:104DF00004011A484068019006F047FFCDE902011E
:104E0000DDE9042306F0D0FCCDE9060106F0E0FE62
:104E1000124948601248006806F037FF4FF03332FD
:104E20000D4BCDE9020106F097FFCDE906010B48D5
:104E30004068039006F029FFCDE90401DDE906236F
:104E400007F088F82CD20648006806F01EFF4FF0E5
:104E50003332014B1AE000003333F33F5802002095
:104E6000B401002024040020A4010020A801002097
:104E70009A9999999999B93F44020020AC01002070
:104E80009999E93F000048C30000B443CDE904010B
:104E900006F062FFCDE9060106F09AFEFC49486083
:104EA00003F04AFBFB49086008460068FA490968B4
:104EB000401A0A99B1EB400F08D200231A4619464E
:104EC0001846FCF7ACF90220F449087006E000200F
:104ED000F3490870F149087000E000BF00BF0BB053
:104EE00000BD10B5EF4890F8480000B910BDEC487F
:104EF000007898B9EC480078401CEB4908700846E7
:104F00000078642809DDFFF7D0FBE849087001202C
:104F1000E34908700020E4490870E7E7E3480078B7
:104F200006285CD2DFE800F0030B1B1C344B00208A
:104F3000DB4908700221DE4802F0C2FE50E0DD4A83
:104F40001268521EDB4B943353F82210D94A126870
:104F5000521E8C3353F82200FFF794FC40E03FE0F0
:104F6000D44A1268521ED44B53F82240002C01DB65
:104F7000224600E06242524250B2CE4A1268521EAD
:104F8000CD4B8C3B33F8222091B2FFF7C5FB27E0D5
:104F9000C84A1268521EC84B53F82240002C01DB4D
:104FA000224600E0624250B2C24A1268521EC24B10
:104FB0008C3B33F8222091B2FFF7AEFB10E00020CB
:104FC000B7490870FFF71AFB00231A46194618461E
:104FD000FCF725F90221B64802F072FE00E000BF9E
:104FE00000BF00BF82E770B504460D461646B048C4
:104FF00003F08DF9022805D1FFF700FB0121AC4831
:1050000002F05EFE324629462046FFF70BFB70BDDC
:105010002DE9F04F89B004460D4616461F46DDE9DE
:10502000120106F005FEA5490861DDE9140106F04C
:10503000FFFDA2494861DDE9160106F0F9FD9F492F
:105040008861DDE9180106F0F3FD9C49C861DDE9DE
:105050001A0106F0EDFD99490862DDE91C0106F030
:10506000E7FD964948629648007A78B9002095494C
:1050700008700021944A11605160944A1160516097
:10508000934A1060506009B0BDE8F08F8D480078F9
:1050900009287BD2DFE800F0051D27C1FBFAF9F8EB
:1050A000F700864890F8380090B10020834981F8D5
:1050B00038000846D0E90C10844AC2E900107F4845
:1050C000D0E90A10804AC2E9001001207D49087029
:1050D00057E2C82240F6B8310120FFF784FF0220D2
:1050E000784908704DE2724803F011F9022878D12E
:1050F0006B4800780028FAD1704890F838000028F2
:105100006FD000206D4981F83800D1E90A816E48DE
:105110000CC8404607F046F8CDE902016749D1E9DD
:105120000C816A480CC8404607F03CF8CDE9000104
:10513000DDE9022306F0F4FB824605F027FC00229D
:10514000644BCDE9040106F007FE634A634BCDE9E9
:10515000060106F0E5FB5E4A03C2002213465C49E5
:1051600003C906F0F7FE2AD85448D0E90A81564808
:105170000CC8404606F0EEFE11D8554903C906F0AA
:1051800027FDB0F1000802DB404602E0F8E1C8F17B
:105190000000014664220420FFF725FF39E04C4857
:1051A0000CC800204B4906F0FDFF804606F010FDBC
:1051B0008246642251460320FFF715FF29E03F484D
:1051C000D0E90A8140480CC8404606F0C3FE11D819
:1051D0003F4903C906F0FCFCB0F1000802DB404681
:1051E00002E019E0C8F10000014664220320FFF745
:1051F000FAFE0EE036480CC80020364906F0D4FA14
:10520000804606F0E5FC8246642251460420FFF702
:10521000EAFE03202B490870B3E12848D0E90C10BE
:105220002A4AC2E900102549D1E90A01264A03C2E7
:105230002248D0E90A8342462046294606F08AFEE3
:1052400009D2C82247F230510120FFF7CCFE0420DA
:105250001C49087047E01949D1E90A8342462046B3
:10526000294606F03DFD3BD26422B4210420FFF71D
:10527000BAFEC82247F230510120FFF7B4FE0420E5
:10528000104908702FE02EE10FE1E6E04AE02BE044
:1052900058020020B8010020BC010020A00100201D
:1052A00098010020240400209A0100209901002088
:1052B000ED85000884040020A4050020A003002040
:1052C0008C030020D8010020C0010020C80100206C
:1052D000D001002000806640F1D4C853FB21094072
:1052E0000420A94908704CE1A849D1E90A83424643
:1052F0002046294606F064FECDE9060106F068FC6A
:10530000B0F1000A01DB504601E0CAF100001428A8
:1053100007DA002211460520FFF765FE05209A49AD
:1053200008702EE19A4802F0F2FF022879D19948DC
:1053300000780028FAD1954890F83800002870D0FD
:105340000020924981F838000846D0E90A81924845
:105350000CC8404606F026FF82468B468B49D1E9B1
:105360000C818E480CC8404606F01CFF52465B4636
:10537000CDE9000106F0D4FACDE9020105F006FB03
:105380000022874BCDE9040106F0E6FC854A864BF6
:10539000CDE9060106F0C4FA844A03C2002213468E
:1053A000824903C906F0D6FD29D87849D1E90A8196
:1053B00079480CC8404606F0CDFD10D87B4903C99A
:1053C00006F006FCB0F1000801DB404601E0C8F140
:1053D0000000014664220420FFF705FE39E073480F
:1053E0000CC800206E4906F0DDFE804606F0F0FB9A
:1053F0008246642251460320FFF7F5FD29E0634908
:10540000D1E90A8164480CC8404606F0A3FD11D8D2
:10541000664903C906F0DCFBB0F1000802DB404638
:1054200002E019E0C8F10000014664220320FFF702
:10543000DAFD0EE05D480CC80020594906F0B4F9C9
:10544000804606F0C5FB8246642251460420FFF7E1
:10545000CAFD06204C49087093E04C4832463B4652
:10546000D0E90C81404606F03BFC08D264225A2168
:105470000320FFF7B8FD07204349087014E04349B3
:10548000D1E90C8132463B46404606F063FD08D226
:1054900064225A210420FFF7A6FD07203A4908702C
:1054A00002E00720384908706BE0394802F02FFF0E
:1054B000022817D137480078A0B900231A46C8211E
:1054C0001846FBF7ACFE3A4840683A4908603A484B
:1054D00040683A4908603A4840683A4908600820FC
:1054E000294908704DE0294832463B46D0E90C81F5
:1054F000404606F057FECDE9060106F069FBB0F123
:10550000000A01DB504601E0CAF1000014280ADA63
:10551000002211460520FFF766FD00202A49087287
:10552000194908702BE01949D1E90A0122462B4696
:10553000CDE9060106F036FE804600224FF080439A
:1055400006F00AFC824606F043FB20490860084644
:105550000068322802DD3220086008E01B4800683D
:1055600010F1320F03DA6FF03100184908600023A0
:105570001A46C8211548008800B2FBF750FE00E02B
:1055800000BF00BF00BF7EE5D8010020A0030020BF
:10559000ED85000898010020C0010020C80100200E
:1055A00000806640F1D4C853FB210940D00100209F
:1055B00030020020E001002044020020DC01002035
:1055C00058020020E40100208C030020E8010020A4
:1055D00010B54FF4A06000F079FA10BD00BF70471D
:1055E000704770B505460C460021F84802F063FA92
:1055F000C82C01D9002070BD22462946F44803F08A
:1056000015FB2146F14802F06BFA0121EF4802F048
:1056100052FA0120EFE700B58BB00121084600F0F7
:10562000D2FDEA48143802F079F9E84802F076F938
:10563000E8480090E848019000200290C8200390BC
:10564000002004908020059000200690079008908C
:105650004FF44050099000200A906946DB48143806
:1056600002F0FEF90121D948143802F024FAD94891
:105670000090D7480190102002900920039000204C
:1056800004908020059000200690079008904FF429
:105690008050099000200A906946CC4802F0E0F959
:1056A00001224021CB48001F00F0FEFE0122802194
:1056B000C848001F00F0F8FE0BB000BD08B5102070
:1056C0008DF8000000208DF8010001208DF8020007
:1056D0008DF80300684600F0FEF926208DF80000E2
:1056E00000208DF8010002208DF8020001208DF8C5
:1056F0000300684600F0EFF908BD10B586B0044617
:105700000121480400F079FD0121052000F068FD29
:105710000420ADF8140018208DF8170003208DF830
:10572000160005A9AD4800F09FFA0820ADF8140056
:1057300004208DF8170005A9A84800F095FA0194F7
:105740000020ADF80800ADF80A00ADF80C00ADF887
:1057500010000C20ADF80E0001A99E48001F00F0BB
:10576000E6FDFFF7ABFFFFF756FF012240F22441B1
:105770009848001F00F073FE01219648001F00F0BA
:1057800062FE40219348001F00F045FF06B010BDA7
:1057900070B502F044FE40F224418E48001F00F034
:1057A00043FF10B38B48001F0088C4B289480088AB
:1057B000C4B200218548143802F07DF983481438BA
:1057C00002F090F905462A468349854803F02EFAEF
:1057D000FCF768FAC8217D48143802F081F90121EC
:1057E0007A48143802F067F900BF02F027FE70BD56
:1057F00010B502F014FE4FF4001002F077F918B162
:105800004FF4001002F0A5F902F018FE10BD70B5BB
:1058100005460C4600216D48643802F04CF9C82C4E
:1058200001D9002070BD224629466E4803F0FEF9DA
:1058300021466648643802F053F901216348643810
:1058400002F039F90120EDE700B58BB001210846DF
:1058500000F0B9FC5D48643802F060F85B485038ED
:1058600002F05CF8604800906048019000200290CF
:10587000C82003900020049080200590002006900E
:10588000079008904FF44050099000200A90694614
:105890004E48503802F0E4F801214C48503802F0EC
:1058A0000AF9514800904F480190102002900920B9
:1058B000039000200490802005900020069007901F
:1058C00008904FF48050099000200A9069463F48A4
:1058D000643802F0C5F8012240214348001F00F05F
:1058E000E3FD012280214048001F00F0DDFD0BB0E8
:1058F00000BD08B50D208DF8000000208DF80100D6
:1059000001208DF802008DF80300684600F0E3F8EE
:1059100027208DF8000000208DF8010002208DF86E
:10592000020001208DF80300684600F0D4F808BD9D
:1059300010B586B004460121880400F05EFC012108
:10594000092000F04DFC4FF48060ADF814001820E1
:105950008DF8170003208DF8160005A9244800F0E3
:1059600083F94FF40060ADF8140004208DF817009F
:1059700005A91F4800F078F901940020ADF808004F
:10598000ADF80A00ADF80C00ADF810000C20ADF831
:105990000E0001A91448001F00F0C9FCFFF7A9FF81
:1059A000FFF752FF012240F224410F48001F00F090
:1059B00056FD01210C48001F00F045FD40210A481A
:1059C000001F00F028FE06B010BD0000800002405D
:1059D000F806002004440040300600200008014082
:1059E00024080020500900200448004088080020B6
:1059F000000C014010B502F012FD40F22441204895
:105A000000F012FEA8B11E480088C4B21C48001D58
:105A10000088C4B200211B4802F04DF8FCF7B6FD27
:105A2000C821184802F05CF80121164802F043F83A
:105A300000BF02F003FD10BD10B502F0F0FC4FF402
:105A4000007002F053F818B14FF4007002F081F8C2
:105A500002F0F4FC10BD0FB438B505A800903C214D
:105A60000948009B049A02F08BFF04460020009036
:105A7000E1B20548FFF7CBFE38BC5DF814FB00002F
:105A80000048004030000240180A002009488047C2
:105A900009480047FEE7FEE7FEE7FEE7FEE7FEE710
:105AA000FEE7FEE7FEE7FEE704480549054A064B28
:105AB00070470000AB03000831010008C01C002043
:105AC000C0220020C01E0020C01E0020314901431A
:105AD000314A1160704770B5002100230F22C4784D
