:020000040800F2
:10000000F021002009510008B7020008B9020008D9
:10001000BD020008C1020008C5020008000000007F
:10002000000000000000000000000000C9020008FD
:10003000CB02000800000000437E0008777900082A
:1000400023510008235100082351000823510008C0
:1000500023510008235100082351000823510008B0
:1000600023510008235100082351000823510008A0
:1000700023510008B55000082351000823510008FF
:10008000714E000823510008235100082351000835
:100090002351000823510008235100082351000870
:1000A0002351000823510008235100082351000860
:1000B0002351000823510008235100082351000850
:1000C0002351000823510008235100082351000840
:1000D0002351000823510008114E000875500008F4
:1000E0002351000823510008235100082351000820
:1000F0002351000823510008235100082351000810
:1001000023510008235100082351000823510008FF
:100110002351000823510008F10900082351000869
:1001200023510008235100082351000823510008DF
:1001300000F002F800F0B0F80AA090E8000C824449
:100140008344AAF10107DA4501D100F0A5F8AFF226
:10015000090EBAE80F0013F0010F18BFFB1A43F0A5
:1001600001031847E0B9000000BA00000A444FF04C
:10017000000C10F8013B13F0070408BF10F8014B06
:100180001D1108BF10F8015B641E05D010F8016B4B
:10019000641E01F8016BF9D113F0080F1EBF10F8AF
:1001A000014BAD1C0C1B09D16D1E58BF01F801CBD2
:1001B000FAD505E014F8016B01F8016B6D1EF9D555
:1001C0009142D6D37047000000230024002500266A
:1001D000103A28BF78C1FBD8520728BF30C148BFAA
:1001E0000B6070476E2908F03081702908F0AF84E9
:1001F00066290BF0E28265290BF0DF8267290BF09C
:10020000DC826129AFF3008003681B0A28BF41F03C
:100210008001692907F0EC86642907F0E9867529D1
:1002200007F0E6866F2908F03D84782908F07B8482
:10023000E92908F0D783E42908F0D483F52908F0E8
:10024000D183EF2908F03A84F82908F07A8403680A
:10025000DB0928BF41F08001632908F04683732938
:1002600008F04B83E32908F06985F32908F06E85CF
:10027000002070471FB508F0C9FC040000200021D1
:100280000AF0E2F8401C6060002000210AF0C6F885
:10029000E0601FBD10B510BD08F010FE1146FFF75D
:1002A000E9FF07F04EFD08F037FE03B4FFF7F2FF59
:1002B00003BC04F0D3FC704700BFFEE700BFFEE7BD
:1002C00000BFFEE700BFFEE7704770470CB5002097
:1002D000019000906C48006840F480306A490860E2
:1002E00000BF6948006800F4003000900198401C8D
:1002F0000190009818B90198B0F5A06FF1D162484B
:10030000006800F4003010B10120009001E00020EE
:1003100000900098012843D15C48006840F010002C
:100320005A4908600846006820F003000860084643
:10033000006840F002000860534840685249486035
:100340000846406848600846406840F4806048605D
:100350000846406820F47C1048600846406840F435
:10036000E81048600846006840F08070086000BFF0
:100370004548006800F000700028F9D04248406805
:1003800020F00300404948600846406840F0020001
:10039000486000BF3C48406800F00C000828F9D1D4
:1003A0000CBD10B5FFF792FF10BD10B536480068C0
:1003B00040F001003449086008464068344908406C
:1003C0003149486008460068324908402E490860B3
:1003D0000846006820F4802008600846406820F441
:1003E000FE0048604FF41F008860FFF7DAFF4FF00F
:1003F00000602949086010BD10B5002100200022CE
:10040000214B5B6803F00C0121B1042906D00829B7
:1004100028D107E0214B224C236027E01F4B204CC2
:10042000236023E0184B5B6803F47010164B5B6885
:1004300003F48032022303EB904022B9194B43436B
:10044000174C23600DE0104B5B6803F4003323B1BD
:10045000144B4343124C236003E0104B4343104CB6
:10046000236003E00D4B0E4C236000BF00BF064B22
:100470005B68C3F303130C4CE15C094B1B68CB4076
:10048000074C236010BD0000001002400020024015
:100490000000FFF8FFFFF6FE08ED00E000127A0012
:1004A0000000002000093D000400002030B589B0A4
:1004B00005460C460121480305F0D0F90121112021
:1004C00005F0CCF94FF47070ADF8200018208DF8CD
:1004D000230003208DF8220008A9FA4804F002FF47
:1004E000ADF81850ADF814400020ADF81A00ADF882
:1004F000160005A9F44805F0EDFC7020ADF80400E5
:100500000120ADF806000020ADF80A00ADF80C009F
:1005100001A9ED4805F01BFD01A9EB4805F059FDC7
:1005200001A9E94805F0A2FD01A9E74805F0E9FDA8
:100530000121E54806F036F80821E34806F056F9AF
:100540000821E14806F05BF90821DF4806F064F96C
:100550000821DD4806F069F90121DB4806F016F9AB
:100560000121D94806F012F80021D74806F0A6FA72
:100570000021D54806F0A4FA0021D34806F0A2FADB
:100580000021D14806F0A0FA09B030BD30B589B0DD
:1005900005460C460121042005F06DF901210920D2
:1005A00005F05CF94FF47070ADF8200018208DF85C
:1005B000230003208DF8220008A9C44804F092FE0D
:1005C000ADF81850ADF814400020ADF81A00ADF8A1
:1005D000160005A9BE4805F07DFC7020ADF80400AA
:1005E0000120ADF806000020ADF80A00ADF80C00BF
:1005F00001A9B74805F0ABFC01A9B54805F0E9FC35
:1006000001A9B34805F032FD01A9B14805F079FD13
:100610000121AF4805F0C6FF0821AD4806F0E6F815
:100620000821AB4806F0EBF80821A94806F0F4F8D9
:100630000821A74806F0F9F80121A54806F0A6F818
:100640000121A34805F0A2FF0021A14806F036FAD7
:1006500000219F4806F034FA00219D4806F032FA46
:1006600000219B4806F030FA09B030BD00B587B0D4
:100670000121084605F0F2F80121C80205F0EEF864
:100680000121042005F0EAF84FF44070ADF818009D
:1006900048208DF81B0003208DF81A0006A98D480C
:1006A00004F020FE012211028A4804F0CCFE01224F
:1006B0005102884804F0C7FE44F62060ADF81000EF
:1006C0000020ADF80C00ADF81200ADF80E0003A943
:1006D000814805F0FFFB0A231A4603217E4806F0F5
:1006E00008F8684605F035FF0820ADF808006946AF
:1006F000794805F082FE0121774806F00DFA0122C3
:100700001146754805F05DFF0020734924310880CB
:100710000121714805F03AFF07B000BD00B587B070
:1007200001216E4804F0AFFE0121084605F096F85D
:100730000121084605F09FF80121042005F08EF8FC
:100740000121082005F08AF80121654804F09BFE8C
:100750004FF40040ADF8180004208DF81B00032072
:100760008DF81A0006A95B4804F0BCFD0122D103F4
:10077000584804F068FE0820ADF8180004208DF8F1
:100780001B0003208DF81A0006A9504804F0AAFDAA
:10079000012208214D4804F056FE4FF0804005F03C
:1007A000C5FA03A94FF0804005F094FB44F62060A1
:1007B000ADF810000020ADF80C00ADF81200ADF857
:1007C0000E0003A94FF0804005F084FB00231A4679
:1007D00003214FF0804005F08CFF684605F0B9FE1C
:1007E0000620ADF8080069464FF0804005F005FE90
:1007F0000121880706F090F901221146900705F0C3
:10080000E0FE00204FF0804188840121880705F038
:10081000BDFE07B000BD00B587B00121084605F058
:100820001DF80121022005F026F80121042005F021
:1008300015F8C020ADF8180048208DF81B000320E3
:100840008DF81A0006A9234804F04CFD012240212E
:10085000204804F0F8FD012280211E4804F0F3FD39
:1008600044F62060ADF810000020ADF80C00ADF8A3
:100870001200ADF80E0003A91A4805F02BFB0A235D
:100880001A460321174805F034FF684605F061FE5B
:100890000820ADF808006946124805F0AEFD0121B8
:1008A000104806F039F9012211460E4805F089FE7C
:1008B00000200C492431088001210A4805F066FE19
:1008C00007B000BD0010014000340140000C0140A1
:1008D0000008004000080140002C014000023000E8
:1008E000000318000004004000B587B0012108464D
:1008F00004F0B4FF0121082004F0BDFF0121042011
:1009000004F0ACFF0320ADF8180048208DF81B0060
:1009100003208DF81A0006A9474804F0E3FC0122E1
:100920001146454804F08FFD01220221424804F09F
:100930008AFD44F62060ADF810000020ADF80C00F0
:10094000ADF81200ADF80E0003A93C4805F0C2FA5C
:100950000A231A460321394805F0CBFE684605F004
:10096000F8FD0820ADF808006946344805F045FD5B
:100970000121324806F0D0F8012211462F4805F037
:1009800020FE00202D492431088001212B4805F04C
:10099000FDFD07B000BD7FB505460C4601211020C6
:1009A00004F069FFADF80850ADF804400020ADF840
:1009B0000A00ADF8060001A9214805F08BFA0122D2
:1009C00011461F4805F0FDFD36208DF8000000207F
:1009D0008DF8010003208DF8020001208DF803003E
:1009E000684604F0B6FB0121154805F0CFFD7FBD38
:1009F00010B50121124806F092F840B11148006884
:100A0000401C1049086001210D4806F099F810BDFE
:100A100010B5FFF72BFEFFF781FEFFF7FCFE1D214F
:100A200040F2AF40FFF7B2FDFFF75EFF1D2140F23D
:100A3000AF40FFF73BFD10BD00080140000C004037
:100A400000100040140000202DE9F0470446002C5F
:100A500008DBB4F5FA7F01DD4FF4FA740120FD499B
:100A6000087008E06442B4F5FA7F01DD4FF4FA74CF
:100A70000020F849087020B2F649C88120460AF0E3
:100A8000BFFC8246F4490AF01BFD81460AF00CFBCC
:100A900007460022F14B09F01FFD054609F030FF23
:100AA000EC494860BDE8F0872DE9F0470446002C8A
:100AB00008DBB4F5FA7F01DD4FF4FA740120E84950
:100AC000087008E06442B4F5FA7F01DD4FF4FA746F
:100AD0000020E349087020B2E149C88120460AF0AD
:100AE0008FFC8246DC490AF0EBFC81460AF0DCFA16
:100AF00007460022D94B09F0EFFC054609F000FF3C
:100B0000D7494860BDE8F0872DE9F0470446002C3E
:100B100008DBB4F5FA7F01DD4FF4FA740120D14906
:100B2000087008E06442B4F5FA7F01DD4FF4FA740E
:100B30000020CC49087020B2CA49C88120460AF07A
:100B40005FFC8246C4490AF0BBFC81460AF0ACFA5D
:100B500007460022C14B09F0BFFC054609F0D0FE54
:100B6000C0494860BDE8F0872DE9F0470446002CF5
:100B700008DBB4F5FA7F01DD4FF4FA740120BA49BD
:100B8000087008E06442B4F5FA7F01DD4FF4FA74AE
:100B90000020B549087020B2B349C88120460AF048
:100BA0002FFC8246AC490AF08BFC81460AF07CFAA5
:100BB00007460022A94B09F08FFC054609F0A0FE6C
:100BC000A9494860BDE8F08770B504460D465DB19F
:100BD0004FF49661A54805F075FFC4F5966081B2A3
:100BE000A24805F071FF0AE0C4F5966081B29F4803
:100BF00005F068FF4FF496619C4805F065FF70BDF5
:100C000070B504460D465DB14FF49661974805F006
:100C100055FFC4F5966081B2944805F051FF0AE093
:100C2000C4F5966081B2914805F048FF4FF4966193
:100C30008E4805F045FF70BD70B504460D465DB1A8
:100C40004FF496618A4805F03DFFC4F5966081B285
:100C5000874805F039FF0AE0C4F5966081B2844800
:100C600005F030FF4FF49661814805F02DFF70BD0F
:100C700070B504460D465DB14FF496617C4805F0B1
:100C80001DFFC4F5966081B2794805F019FF0AE0AE
:100C9000C4F5966081B2764805F010FF4FF4966176
:100CA000734805F00DFF70BD6A48806810F5966FB7
:100CB00002DA70486749886066488068B0F5966FC8
:100CC00003DD4FF49660634988606548806810F5DD
:100CD000966F02DA67486249886061488068B0F5BB
:100CE000966F03DD4FF496605D4988605D488068CB
:100CF00010F5966F02DA5F485A4988605948806853
:100D0000B0F5966F03DD4FF49660564988605648FB
:100D1000806810F5966F02DA564853498860524849
:100D20008068B0F5966F03DD4FF496604E49886099
:100D300070472DE9F04705460C46601B0AF060FB42
:100D40004D4908610A46116950680AF0B9FB8046AE
:100D5000494A516910690AF0BBFC8146464801685E
:100D600048460AF0ADFB074641460AF0C9F9064677
:100D70004148816930460AF0C3F93F498861084615
:100D8000006948610CB9002088613B4988693B498A
:100D90000AF062FC03D239483749886108E03649D5
:100DA000886900210AF058FB02D20020324988618C
:100DB000314988690AF008FBBDE8F087014600293F
:100DC00001DA002000E0084670472DE9F0470546AB
:100DD0000C46601B0AF014FB294908610A46116998
:100DE00050680AF06DFB8046254A516910690AF087
:100DF0006FFC81462248016848460AF061FB0746BD
:100E000041460AF07DF906461D48816930460AF0E0
:100E100077F91B4988610846006948610CB90020D0
:100E200088611749886915490AF016FC03D21348EE
:100E30001349886108E01249886900210AF00CFB17
:100E400002D200200E4988610D4988690AF0BCFA77
:100E5000BDE8F0870402002037BEEF3D0000E03F10
:100E6000180200202C020020400200200008004050
:100E70000034014050FBFFFFBC02002000009644FC
:100E8000A00200202DE9F04705460C46601B0AF041
:100E9000B7FAFE4908610A46116950680AF010FB6A
:100EA0008046FA4A516910690AF012FC8146F748F7
:100EB000016848460AF004FB074641460AF020F95B
:100EC0000646F248816930460AF01AF9EF4988610E
:100ED0000846006948610CB900208861EB498869BF
:100EE000EB490AF0B9FB03D2E948E849886108E018
:100EF000E649886900210AF0AFFA02D20020E349EE
:100F00008861E24988690AF05FFABDE8F0872DE957
:100F1000F04705460C46601B0AF072FADD4908618D
:100F20000A46116950680AF0CBFA8046D94A5169DD
:100F300010690AF0CDFB8146D648016848460AF0A0
:100F4000BFFA074641460AF0DBF80646D1488169F8
:100F500030460AF0D5F8CF498861084600694861F3
:100F60000CB900208861CB498869C9490AF074FB33
:100F700003D2C748C749886108E0C649886900218B
:100F80000AF06AFA02D20020C2498861C149886920
:100F90000AF01AFABDE8F08770B50025BE48007C5B
:100FA00000F0010058B9BD48C08948BBBC48C089A1
:100FB00030BBBC48C08918BBBB48C08900BB0021FE
:100FC000BA4805F07BFD0021B84805F079FD002105
:100FD000B64805F077FD0021B44805F075FD002105
:100FE000B34805F06BFD0021B14805F069FD002113
:100FF000AF4805F067FD0021AD4805F065FD70BD07
:10100000AC48B0F90440A54A5168002C01DB2246E7
:1010100000E062421046FFF77AFF0646FFF7CEFE79
:101020009E498860A348B0F900409D4A5168002C51
:1010300001DB224600E062421046FFF723FF06462E
:10104000FFF7BCFE964988609A48B0F90840954A77
:101050005168002C01DB224600E062421046FFF797
:10106000B4FE0646FFF7AAFE8E4988609148B0F9A3
:1010700002400A465168002C01DB224600E0624231
:101080001046FFF756FE0646FFF798FE8649886031
:10109000FFF70AFE814A11789068FFF7E9FD804A60
:1010A00011789068FFF7C8FD7E4A11789068FFF7C5
:1010B000A7FD7D4A11789068FFF786FD00BF9EE787
:1010C0007D48744908607D4848607B486F490860E6
:1010D0007A48486078487A49086078484860764895
:1010E000784908607548486070472DE9F047044624
:1010F0000D46281B0AF084F9734908600846016808
:101100007248006809F0FCFF704908607048016887
:101110006D4800680AF0DCFA80466E480168404677
:101120000AF0CEF90646694801686B4800680AF083
:10113000C7F9804664480168684800680AF0C0F949
:101140008146414609F0DCFF0746314609F0D8FFE9
:10115000634908605C4800685D4908606048006851
:101160000AF032F9BDE8F0872DE9F041044600218C
:1011700020680AF071F903D2206880F000402060F6
:10118000002160680AF068F903D2606880F00040CE
:1011900060600021A0680AF05FF903D2A06880F0C7
:1011A0000040A0600021E0680AF056F903D2E06830
:1011B00080F00040E0602069E0612169206A09F068
:1011C0009FFF20620021E0680AF0CAF813D0E168AE
:1011D000206A0AF041FA02D2E06820620BE0E0687F
:1011E00080F000452846216A0AF036FA03D2E0680A
:1011F00080F000402062A16920690AF069FA60620B
:101200002069A061616AA0680AF05AF90646216A5D
:1012100060680AF055F90746E16920680AF050F95C
:101220008046394609F06CFF0546314609F068FFF3
:101230006061BDE8F0812DE9F04F93B004460D46A2
:1012400016469946604204B27042642190FBF1F761
:10125000384609F0B2FB234A03C20022224B21493F
:1012600003C909F011FCCDE91001484609F0A5FBBE
:10127000CDE9080109F05CF882468B46284609F062
:101280009CFB074652465B4630E00000840200208B
:10129000000096446802002054020020040200204E
:1012A000180200202C0200204002002000340140DF
:1012B00000080040200300200000F04200004040F1
:1012C000A0020020BC0200203800002040000020C6
:1012D0004400002034000020300000202C000020BA
:1012E0003C000020600000200070704009F0CCFB42
:1012F000CDE90C01484609F060FBCDE9080108F092
:10130000C9FF07468846204609F057FB82463A4601
:10131000434609F0B9FBCDE90A01DDE90C2309F0E8
:10132000DBF8CDE90E01DDE9102309F0D5F8974A85
:1013300003C20022964B974903C909F0A5FBCDE9EA
:101340001001484609F039FBCDE9000108F0A2FF81
:1013500082468B469048914908F0EAFF074652467C
:101360005B4609F091FBCDE90401484609F025FBF5
:10137000824608F0DDFF074688468748874908F01F
:1013800089FF81F000413A464346CDE9000109F06A
:101390007BFBCDE90201DDE9042309F09BFDCDE9EA
:1013A0000801284609F009FBCDE90601DDE908231B
:1013B00009F06AFBCDE90C01484609F0FEFACDE9D7
:1013C000000108F0B5FF074688467348744908F0E5
:1013D000AFFF82463A46434609F056FBCDE9040189
:1013E000484609F0EAFACDE9000108F053FF074644
:1013F00088466948694908F04DFF81F000418246FE
:101400003A46434609F040FBCDE90201DDE90423F9
:1014100009F062F8CDE90801204609F0CEFACDE9DD
:101420000601DDE9082309F02FFBCDE90A01DDE91A
:101430000C2309F051F8CDE90E01DDE9102309F084
:101440004BF8584A03C20022514B524903C909F0D4
:101450001BFBCDE91001484609F0AFFACDE90001C8
:1014600008F018FF82468B464B484D4908F012FFA2
:10147000074652465B4609F007FBCDE904014846A2
:1014800009F09BFA074608F053FF82468B46424814
:10149000434908F04DFF81F0004152465B46CDE9DB
:1014A000000109F0F1FACDE90201DDE9042309F0B8
:1014B00013F8CDE90801284609F07FFACDE90601C5
:1014C000DDE9082309F0E0FACDE90C01484609F00E
:1014D00074FACDE9000108F02BFF82468B462E48B6
:1014E0002F4908F0D7FE074652465B4609F0CCFA72
:1014F000CDE90401484609F060FACDE9000108F0A1
:10150000C9FE074688462448254908F011FF81F0A6
:10151000004182463A46434609F0B6FACDE9020157
:10152000DDE9042308F0D8FFCDE90801204609F0E1
:1015300044FACDE90601DDE9082309F0A5FACDE971
:101540000A01DDE90C2308F0C7FFCDE90E01DDE952
:10155000102308F0C1FF144A03C20C4903C909F063
:10156000CFF90746FFF770FA0E4903C909F0C8F929
:101570000746FFF799FA0C4903C909F0C1F9074674
:10158000FFF7C2FA13B0BDE8F08F0000480000205A
:101590000070704060000020A138DB3752C1F03F7E
:1015A00052C1E03F500000205800002070B50025D7
:1015B00000244DF6ED60F7490880F7488078887080
:1015C000F5480079C870F4488088000A0871F2482C
:1015D000807A4871F0488079887100BF06E0EF4852
:1015E000015DE01DEB4A1154601CC4B2EA488079E9
:1015F000A042F4DC002405E0E648005D284405B282
:10160000601CC4B2E4488078801EA042F4DCE2484A
:101610008078801EDF4A1554C5F30721DE488078A4
:10162000401E1154DC488178104603F01AFB70BD4F
:101630002DE9FC5F57E1DA48007820BB1D21D0205E
:1016400001F01CF91F21D02001F018F92121D02030
:1016500001F014F93221A62001F023F93421A6204B
:1016600001F01FF93621A62001F01BF900211A20F4
:1016700001F017F902211A2001F013F904211A20B0
:1016800001F00FF92AE11D21D02001F0F7F800B296
:10169000009009F0B5FE019009F006FD8246C14AAE
:1016A000C14B09F0F1F980468946C049486A09F002
:1016B000FBFC064642464B4608F00EFF044608F087
:1016C000D9FEBA4948621F21D02001F0D7F800B2F4
:1016D000009009F095FE019009F0E6FC8046B14AC1
:1016E000B14B09F0D1F904460D46B049886A09F0BA
:1016F000DBFC064622462B4608F0EEFE824608F04A
:10170000B9FEAA4988622121D02001F0B7F800B2C1
:10171000009009F075FE019009F0C6FC0646A14A4A
:10172000A14B09F0B1F904460D46A049C86A09F079
:10173000BBFC804622462B4608F0CEFE824608F0CF
:1017400099FE9A49C8623221A62001F0AAF800B297
:10175000009009F055FE019009F0A6FC8046914AE0
:10176000914B09F091F904460D469049086B09F038
:101770009BFC064622462B4608F0AEFE824608F049
:1017800079FE8A4908633421A62001F08AF80FFA0D
:1017900080FB584609F034FE824609F085FC8046FD
:1017A000804A814B09F070F904460D467F49486B29
:1017B00009F07AFC064622462B4608F08DFECDE95C
:1017C000000108F057FE794948633621A62001F050
:1017D00068F80FFA80FB584609F012FE824609F0BD
:1017E00063FC80466F4A704B09F04EF904460D4683
:1017F0006E49886B09F058FC064622462B4608F0D5
:101800006BFECDE9000108F035FE684988630021D0
:101810001A2001F046F800B2009009F0F1FD0190A5
:1018200009F042FC80465F4A5F4B09F02DF90446FF
:101830000D465E49C86B09F037FC064622462B462A
:1018400008F04AFE824608F015FE5849C863022196
:101850001A2001F026F80FFA80FB584609F0D0FD57
:10186000824609F021FC06464E4A4F4B09F00CF91E
:1018700004460D464D49086C09F016FC8046224688
:101880002B4608F029FECDE9000108F0F3FD474999
:10189000086404211A2001F004F80FFA80FB58466E
:1018A00009F0AEFD824609F0FFFB80463D4A3E4B03
:1018B00009F0EAF804460D463C49486C09F0F4FB8F
:1018C000064622462B4608F007FECDE9000108F047
:1018D000D1FD36494864052006F0A7F93048007864
:1018E000401C2F4908702E4800786528FFF6A3AEEB
:1018F000BDE8FC9F70B5054600242D480078401CCB
:101900002B490870FFF794FE29480078062875D205
:10191000DFE800F0DB031F5275974DF6ED601D49BF
:101920000880232088700020C870F02008710020F3
:1019300048711A2088711F484088184908801D483E
:10194000808848801B48C08888801A480089C880E1
:10195000BCE01D21D02000F091FF00B20F490881AA
:101960001F21D02000F08AFF00B20C4948812121BC
:10197000D02000F083FF00B2084988810846008922
:101980000A49088005484089488004488089888041
:101990009CE00000F0060020D8020020E4020020B5
:1019A000680000207B14AE47E17A843F5403002096
:1019B0006B000020200300203221A62000F071FFE0
:1019C00000B2FE49C8813421A62000F06AFF00B2AF
:1019D000FA4908823621A62000F063FF00B2F749D9
:1019E00048820846C089F649C880F448018AF4480C
:1019F0000181F248418AF248418167E065E00021B7
:101A00001A2000F04EFF00B2EC49888202211A2011
:101A100000F047FF00B2E949C88204211A2000F013
:101A200040FF00B2E54908830846808AE44988817E
:101A3000E248C18AE248C181E048018BE048018266
:101A400044E00020DF4908700DE0DC48DD490978FA
:101A5000415CDC480078C01DDB4A1154D94800784D
:101A6000401CD8490870D8488079D64909788842FE
:101A7000EBDC0020D34908700AE0D348D14909784B
:101A8000405C204404B2CF480078401CCD49087027
:101A9000CD488078801ECB4909788842EDDCCA4861
:101AA0008078801EC84A1454C4F3072110468078F9
:101AB000401E11541DB11046817803F0D2F801F098
:101AC00096FF0020C149087000E000BF00BF70BD54
:101AD00010B50022BE48B0F90000BE4B98427DD13F
:101AE000BB488078BC4B9870B948C078B84B1B791C
:101AF00000EB0320B84B9880B54840799872B44801
:101B0000807998711846807909283BD2DFE800F087
:101B10003A050A3A163A223A2E00AD48C079AF4B40
:101B2000188030E0002106E0C81DA94B185CAB4BC3
:101B30005854481CC1B20229F6DB24E0002106E01B
:101B4000C81DA34B185CA54B5854481CC1B20429AE
:101B5000F6DB18E0002106E0C81D9D4B185C9F4B8A
:101B60005854481CC1B20629F6DB0CE0002106E0FF
:101B7000C81D974B185C994B5854481CC1B2082992
:101B8000F6DB00E000BF00BF93488078801E904BDA
:101B90001B5C91488078401E8D4C205C03EB00203C
:101BA00000B28D4B1881002105E08948405C10444B
:101BB00082B2481CC1B288488078801E8842F4DC1A
:101BC0008548B0F90800904204D10120824B18707A
:101BD00010BD03E00020804B1870F9E70020F7E704
:101BE0002DE9F047FFF774FF08B9BDE8F0877A48A0
:101BF0008088092877D007DC76D2DFE800F01E2243
:101C0000277A8B8F90949F00B0F5004F6DD008DC41
:101C10000A286BD00B286AD00C2869D00D2863D114
:101C20004CE16FF400410844002870D001286FD0C7
:101C300002286ED00328F2D1BCE143205F4908801E
:101C4000C4E140F207105D490880BFE16449B1F981
:101C50000C10642201FB02F008F0AFFE0646614A58
:101C6000614B08F0F5FC044608F04AFE00B2534907
:101C700008805E49B1F90C10642201FB02F008F003
:101C80009CFE0646574A584B08F0E2FC044608F012
:101C900037FE00B2494948805549B1F90C10642219
:101CA00001FB02F008F089FE06464E4A4E4B08F052
:101CB000CFFC044608F024FE00B2404988804D491C
:101CC000B1F90C10642201FB02F008F076FE064622
:101CD000444A454B08F0BCFC044608F011FE00B233
:101CE0003649C88072E1D9E06FE1FBE0D7E0DBE084
:101CF000DFE03B488089314908803C488089488042
:101D00003B48808988803B488089C8805EE13AE111
:101D10004EE14EE138202949088057E156E10B2079
:101D20002649088052E13448808824490880324896
:101D3000C088488030480089888047E126488079FB
:101D4000062804D00C2818D012287DD161E01D216E
:101D5000D02000F093FD00B2184908801F21D02048
:101D600000F08CFD00B2154948802121D02000F000
:101D700085FD00B2114988808EE01D21D02000F041
:101D80007DFD00B20D4908801F21D02000F076FDB6
:101D900000B20A4948802121D02000F06FFD00B236
:101DA000064988803221A62000F068FD00B2034970
:101DB000C8803421A62000F061FD1FE0E40200206D
:101DC000540300206A000020F00600206B00002071
:101DD00054070020EDDEFFFFD802002002030020A0
:101DE0002C020020EC3EB61B934F6A4040020020BC
:101DF00004020020180200202003002000B27749CE
:101E000008813621A62000F039FD00B273494881CF
:101E100042E01D21D02000F031FD00B26F49088062
:101E20001F21D02000F02AFD00B26C4948802121FA
:101E3000D02000F023FD00B2684988803221A6201E
:101E400000F01CFD00B200E025E06449C8803421A8
:101E5000A62000F013FD00B2604908813621A620BB
:101E600000F00CFD00B25D49488100211A2000F00D
:101E700018FD00B25949888102211A2000F011FD95
:101E800000B25649C88104211A2000F00AFD00B2B0
:101E90005249088200E000BF00BF97E096E050483A
:101EA000008A4E49088091E04FF480704B490880C9
:101EB0008CE04B48807C4949087087E043204749C3
:101EC000088040F207104880382088800B20C880A6
:101ED0004FF4807008814248807C8872012041491B
:101EE000487073E04048B0F90000642190FBF1F9BC
:101EF000484608F062FD07463C4A3D4B08F0C4FDE9
:101F0000054608F0FDFC0446FEF7FEFD3648B0F934
:101F10000200642190FBF1F9484608F04EFD0746A7
:101F2000324A334B08F0B0FD054608F0E9FC0446A0
:101F3000FEF71AFE2C48B0F90400642190FBF1F979
:101F4000484608F03AFD0746284A294B08F09CFD10
:101F5000054608F0D5FC0446FEF776FD2248B0F9A8
:101F60000600642190FBF1F9484608F026FD07467B
:101F70001E4A1F4B08F088FD054608F0C1FC0446C8
:101F8000FEF792FD22E01849B1F90000FEF7BCFD12
:101F90001549B1F90200FEF7E7FD1349B1F9040054
:101FA000FEF752FD1049B1F90600FEF77DFD0DE088
:101FB0000CE00BE00C4BB3F90420B3F90210B3F9B9
:101FC00000000023FFF737F900E00EE600BF0548E8
:101FD000807A08B1FFF7EAFA00BF06E6E4020020C3
:101FE00054020020D802002002030020EC3EB61B61
:101FF000934F6A4010B5E84A128812B2E74B5A81F3
:102000001A46116AB2F90A30B2F9142040F271246A
:10201000624303EB4210421A12B2E04B1A8013E003
:10202000DE4A928A521E12B2DC4B9A821A46B2F9EA
:102030000A30B2F9142040F27124624303EB4210DB
:10204000421A12B2D54B1A80D44AB2F9002042F299
:1020500010739A42E4DC13E0D04A928A521C12B206
:10206000CE4B9A821A46B2F90A30B2F9142040F2E5
:102070007124624303EB4210421A12B2C74B1A801A
:10208000C64AB2F90020C64B9A42E5DBC34A106249
:1020900010BD10B54FF08042928C12B2BF4B9A81A6
:1020A0001A46516AB2F90C30B2F9162040F2712486
:1020B000624303EB4210421A12B2B84B5A8013E04B
:1020C000B64AD28A521E12B2B44BDA821A46B2F91A
:1020D0000C30B2F9162040F27124624303EB421037
:1020E000421A12B2AD4B5A80AC4AB2F9022042F207
:1020F00010739A42E4DC13E0A84AD28A521C12B24E
:10210000A64BDA821A46B2F90C30B2F9162040F228
:102110007124624303EB4210421A12B29F4B5A8061
:102120009E4AB2F902209E4B9A42E5DB9B4A5062DE
:1021300010BD10B59B4A128812B2984BDA811A462C
:10214000916AB2F90E30B2F9182040F2712462435C
:1021500003EB4210421A12B2904B9A8013E08F4A5E
:10216000128B521E12B28D4B1A831A46B2F90E30E0
:10217000B2F9182040F27124624303EB4210421A74
:1021800012B2864B9A80854AB2F9042042F210734B
:102190009A42E4DC13E0814A128B521C12B27F4B4C
:1021A0001A831A46B2F90E30B2F9182040F271249F
:1021B000624303EB4210421A12B2784B9A80774A7C
:1021C000B2F90420764B9A42E5DB744A906210BD66
:1021D00010B5754A128812B2704B1A821A46D16A2B
:1021E000B2F91030B2F91A2040F27124624303EBC5
:1021F0004210421A12B2694BDA8013E0674A528BDE
:10220000521E12B2654B5A831A46B2F91030B2F917
:102210001A2040F27124624303EB4210421A12B2B8
:102220005E4BDA805D4AB2F9062042F210739A42A0
:10223000E4DC13E0594A528B521C12B2574B5A83BA
:102240001A46B2F91030B2F91A2040F271246243F2
:1022500003EB4210421A12B2504BDA804F4AB2F9E5
:1022600006204F4B9A42E5DB4C4AD06210BD10B5B8
:102270004E4A128812B2494B5A821A46116BB2F971
:102280001230B2F91C2040F27124624303EB421079
:10229000421A12B2414B1A8113E0404A928B521EED
:1022A00012B23E4B9A831A46B2F91230B2F91C2090
:1022B00040F27124624303EB4210421A12B2374BD0
:1022C0001A81364AB2F9082042F210739A42E4DCCD
:1022D00013E0324A928B521C12B2304B9A831A4648
:1022E000B2F91230B2F91C2040F27124624303EBC0
:1022F0004210421A12B2294B1A81284AB2F9082018
:10230000274B9A42E5DB254A106310BD70B5FFF7F5
:1023100071FEFFF7BEFEFFF70CFFFFF7A8FF1F4996
:10232000B1F9040009F06CF80546214908F056FFA0
:10233000044609F049F800B21E4988811749B1F9ED
:10234000000009F05DF80546194908F047FF04460A
:1023500009F03AF800B2184988811049B1F908002B
:1023600009F04EF80546124908F038FF044609F016
:102370002BF800B2114988810849B1F9020009F02F
:102380003FF805460A4908F029FF044609F01CF801
:1023900000B20B49888170BD242C0140200300202D
:1023A000F0D8FFFF2404004024080040240C004023
:1023B00037BEEF3D04020020180200202C0200204E
:1023C0004002002008B50121082003F047FA202030
:1023D000ADF8000003208DF8020014208DF80300F2
:1023E0006946FE4802F07EFF0121FD4803F04BF8EC
:1023F0001020ADF8000003208DF8020014208DF8A5
:1024000003006946F54802F06DFF08BD002100BFDA
:1024100048E000BF00BF00BF00BF00BF00BF00BF5B
:1024200000BF00BF00BF00BF00BF00BF00BF00BFB4
:1024300000BF00BF00BF00BF00BF00BF00BF00BFA4
:1024400000BF00BF00BF00BF00BF00BF00BF00BF94
:1024500000BF00BF00BF00BF00BF00BF00BF00BF84
:1024600000BF00BF00BF00BF00BF00BF00BF00BF74
:1024700000BF00BF00BF00BF00BF00BF00BF00BF64
:1024800000BF00BF00BF00BF00BF00BF00BF00BF54
:1024900000BF00BF00BF00BF00BF00BF00BF00BF44
:1024A00000BF491C8142B4D3704700B52020CB49FE
:1024B00010310860102008600220FFF7A7FFC7480E
:1024C0000830006808B9012000E0002000F020007A
:1024D00008B1002000BD2020C0491431086002204E
:1024E000FFF794FFBD480830006800F0200008B1F5
:1024F0000020EFE72020B949143108600220FFF7DF
:1025000085FF0120E6E700B51020B44914310860CA
:102510000220FFF77BFF2020B04914310860022021
:10252000FFF774FF1020AD49103108600220FFF75B
:102530006DFF2020A949103108600220FFF766FFD7
:1025400000BD00B51020A549143108600220FFF736
:102550005DFF2020A149143108600220FFF756FFDB
:1025600010209E49103108600220FFF74FFF102015
:102570009A49143108600220FFF748FF00BD00B5FA
:1025800010209649143108600220FFF73FFF2020F9
:102590009249103108600220FFF738FF10208F4960
:1025A000103108600220FFF731FF10208B491431F1
:1025B00008600220FFF72AFF00BD00B51020874900
:1025C000143108600220FFF721FF202083491031D9
:1025D00008600220FFF71AFF1020804910310860C0
:1025E0000220FFF713FF7D480830006800F020004C
:1025F00040B110207949143108600220FFF706FF2E
:10260000002000BD10207549143108600220FFF73A
:10261000FDFE0120F5E710B5034608241EE010205A
:102620006E49143108600220FFF7F0FE03F08000CD
:1026300020B1202069491031086003E0202067495B
:10264000143108605806030E0220FFF7DFFE102049
:102650006249103108600220FFF7D8FE2000A4F183
:102660000101CCB2DBD110205C491431086010BDEF
:1026700010B508240023202058491031086017E0C5
:102680005806030E10205549143108600220FFF748
:10269000BDFE10205149103108600220FFF7B6FE40
:1026A0004E480830006800F0200008B143F00103F4
:1026B0002000A4F10101CCB2E2D11020474914312D
:1026C0000860184610BD70B506460C461546FFF763
:1026D000ECFE08B9002070BD3046FFF79CFFFFF705
:1026E0006CFF18B9FFF70FFF0020F4E72046FFF753
:1026F00092FFFFF762FF2846FFF78DFFFFF75DFFB0
:10270000FFF701FF0120E6E770B504460D46FFF72D
:10271000CCFE08B9002070BD2046FFF77CFFFFF714
:102720004CFF18B9FFF7EFFE0020F4E72846FFF74B
:1027300072FFFFF742FFFFF7B8FE611CC8B2FFF758
:102740006AFFFFF73AFFFFF793FF0646FFF717FF11
:10275000FFF7D9FE3046DEE7FCB505460E461746C4
:10276000FFF7A3FEA620FFF756FFFFF726FF322054
:10277000FFF751FFFFF721FFFFF797FEA720FFF7B5
:102780004AFFFFF71AFF002410E0052C06D1FFF7DF
:102790006FFF0DF80400FFF7F2FE05E0FFF768FF9A
:1027A0000DF80400FFF7CDFE601CC4B2062CECDB74
:1027B000FFF7A9FE9DF800009DF8011000EB012035
:1027C00000B228809DF802009DF8031000EB012064
:1027D00000B230809DF8040004E00000000C0140CD
:1027E000000230009DF8051000EB012000B2388097
:1027F000FCBD10B5FFF7E6FD01220B211A20FFF703
:1028000062FF402220211A20FFF75DFF01222121D3
:102810001A20FFF758FF0D2209211A20FFF753FF56
:102820000B223121A620FFF74EFF1A222C21A620D1
:10283000FFF749FF08222D21A620FFF744FF802241
:102840002E21A620FFF73FFF80223E21D020FFF758
:102850003AFF07221521D020FFF735FF1E2216214F
:10286000D020FFF730FF00221721D020FFF72BFFE9
:1028700000223E21D020FFF726FF10BD2DE9F041B8
:1028800005460C4621462846FFF73EFF0646601CDB
:10289000C1B22846FFF738FF074607EB0620BDE820
:1028A000F0812DE9F04105460C4621462846FFF708
:1028B0002BFF0746601CC1B22846FFF725FF0646DE
:1028C00007EB0620BDE8F08100B587B001214FF489
:1028D000047002F0C3FF4FF4004002F023FF042015
:1028E000ADF8040000208DF8070001A9494802F066
:1028F000F9FC494804F028F9002002908DF80C00FA
:102900008DF80D004FF46020049000200590012008
:102910008DF8180002A9404804F03DF901213E4815
:1029200004F065F93C4804F084F900BF3A4804F02B
:1029300085F90028FAD1384804F08AF900BF3648F2
:1029400004F08BF90028FAD107B000BD10B5044699
:10295000072301222146304804F0B5F901212E4811
:1029600004F085F900BF02212B4804F0F1FA002899
:10297000F9D0294804F00EFA10BD2DE9F0410746C0
:102980000C460025002608E03846FFF7DFFF054427
:10299000052005F04AF9701CC6B2A642F4DBB5FB6F
:1029A000F4F080B2BDE8F0812DE9F0470C20FFF78C
:1029B000CDFF1A490968084418490860184800788A
:1029C000401C174908700846007805281FD1134895
:1029D00000680521B0FBF1F0104908600846006866
:1029E00008F002F806464FF066320E4B08F04CF83D
:1029F000044600220C4B07F02BFE804607F0B0FF88
:102A00000A49887400200549086005490870BDE836
:102A1000F087000000100140002401406C000020FD
:102A20007000002066660A400000B040540200209A
:102A30000020F6490882704770B5002500244DF645
:102A4000ED60F34908800B2088700A20C8700020D0
:102A5000087148710220887100BF06E0ED48015DF1
:102A6000E01DEB4A1154601CC4B2022CF6DB0024BA
:102A700005E0E748005D284405B2601CC4B2E448A4
:102A80008078801EA042F4DCE1488078801EE04A15
:102A90001554C5F3072110468078401E1154104686
:102AA000817802F0DEF870BD10B5DB480078401C7C
:102AB000D9490870D948007828B10020D849087051
:102AC000D649087010E0D6480078022807DDCF48C4
:102AD000007C20F00100401CCC49087404E0D04880
:102AE0000078401CCE490870CE48B0F90E00CD49A0
:102AF000B1F90C10401A142809DCCA48B0F90E00CC
:102B0000C849B1F90C10401A10F1140F05DAC64883
:102B10000078401CC449087011E0C348007832288E
:102B20000ADDBA48007C20F00200801CB749087416
:102B30000020BD49087002E00020BB490870BB4876
:102B4000B0F90E00B949B1F90C10401A142809DC8B
:102B5000B648B0F90E00B549B1F90C10401A10F1A1
:102B6000140F05DAB2480078401CB149087011E032
:102B7000AF48007832280ADDA448007C20F0040029
:102B8000001DA24908740020A949087002E0002035
:102B9000A7490870A748B0F90E00A649B1F90C1072
:102BA000401A142809DCA348B0F90E00A149B1F974
:102BB0000C10401A10F1140F05DA9F480078401CE1
:102BC0009D49087011E09C48007832280ADD8F4842
:102BD000007C20F0080008308C49087400209649D9
:102BE000087002E00020944908709448B0F90E0083
:102BF0009249B1F90C10401A142809DC8F48B0F939
:102C00000E008E49B1F90C10401A10F1140F05DABC
:102C10008B480078401C8A49087011E08848007889
:102C200032280ADD7948007C20F010001030774906
:102C3000087400208249087002E000208049087072
:102C40008048B0F900007F49B1F91210884213D1D1
:102C50007C48B0F90210B0F9140081420CD17948D7
:102C6000B0F90410B0F91600814205D17648007819
:102C7000401C7549087011E07348007832280ADD5D
:102C80006248007C20F02000203060490874002059
:102C90006D49087002E000206B49087000206B4904
:102CA00008700EE067486949097830F81110123051
:102CB000664A127820F8121064480078401C634974
:102CC0000870624800780328ECDB5E48B0F9060023
:102CD0005C49B1F91810884213D15A48B0F908106C
:102CE000B0F91A0081420CD15648B0F90A10B0F977
:102CF0001C00814205D156480078401C5449087098
:102D000011E05348007832280ADD4048007C20F06A
:102D1000400040303D49087400204D49087002E0F1
:102D200000204B4908700020484908700FE04548D2
:102D3000801D4649097830F811101230434A127844
:102D400020F8121041480078401C404908703F4864
:102D500000780328EBDB3B48B0F90C003949B1F9A6
:102D60001E10884213D13748B0F90E10B0F9200078
:102D700081420CD13348B0F91010B0F922008142E1
:102D800005D134480078401C3249087011E03048C1
:102D9000007832280ADD00202E4908701B48007C8C
:102DA00020F0800080301949087402E00020294991
:102DB00008700020254908700FE022480C30234994
:102DC000097830F811101230204A127820F81210C9
:102DD0001E480078401C1D4908701C4800780328D4
:102DE000EBDB0A48008A78B10B4800780A280BDD33
:102DF0000020094908700548008A06490880FFF745
:102E00001BFE00200149088210BD00005402002072
:102E1000F0060020E402002072000020D80200200A
:102E2000730000202C0200207400002040020020CB
:102E30007500002004020020760000201802002007
:102E4000770000205403002078000020710000204B
:102E5000790000207A0000202DE9F04105460C465B
:102E6000FE480168204608F033FC0746FC4801682C
:102E7000384608F025FB0646FA480168304608F057
:102E80003FF9F8490860F8484168F848006808F0D8
:102E90001FFC0646F4488168304608F019FCF449E6
:102EA0000860F148C06880F000404860EE48C068A3
:102EB00080F000408860EF480068C8600868E84912
:102EC000096808F0FDFA0646E7480168304608F050
:102ED00017F9E5490860E6494868E149096808F0DA
:102EE000EFFA0646E0484168304608F009F9DE4945
:102EF0004860DF498868DA49096808F0E1FA06465F
:102F0000D9488168304608F0FBF8D7498860D8492D
:102F1000C868D349096808F0D3FA0646D248C168A0
:102F2000304608F0EDF8D049C860CE480168284620
:102F300008F0CEFBD0490860D048007808F078FA55
:102F40000646C9480168304608F0BAFACC4908601C
:102F5000CA48007808F06CFA0646C34881683046D3
:102F600008F0AEFAC7490860C448007808F060FA73
:102F70000746C3480168384608F0A2FA0646C24828
:102F80000168304608F0BCF8C0490860084601688E
:102F9000BB48006808F022F9BD490860BB480168D9
:102FA000B848006808F01AF9BA490860B4480068DF
:102FB000B9490860B148007808F03AFA0646AA48CC
:102FC0004168304608F07CFAB4490860B2480168AC
:102FD000AF48006808F074FA0646A3480168304616
:102FE00008F06BFBA0490860AC480168A84800687D
:102FF00008F066FA06469C484168304608F05DFBDA
:1030000099494860A4480168A248006808F058FA45
:10301000064695488168304608F04FFB9249886023
:103020009E4801689B48006808F04AFA06468E48A8
:10303000C168304608F041FB8B49C8608E48016882
:103040009348006808F03CFA064695480168304607
:1030500008F056F892490860874801688D48006872
:1030600008F02EFA06467D480168304608F048F818
:103070007A49086008460168204608F029FB89491A
:103080000860BDE8F0812DE9F04105460C46734823
:103090000168204608F01CFB074671480168384665
:1030A00008F00EFA06466F480168304608F028F826
:1030B0006C4908606C4841686C48006808F008FB7F
:1030C000064669488168304608F002FB6849086096
:1030D0006548C06880F0004048606348C06880F080
:1030E0000040886063480068C86008685C490968F7
:1030F00008F0E6F906465C480168304608F000F83A
:10310000594908605A4948685549096808F0D8F98A
:10311000064655484168304607F0F2FF524948607C
:10312000534988684E49096808F0CAF906464E486E
:103130008168304607F0E4FF4B4988604C49C86815
:103140004749096808F0BCF906464748C168304657
:1031500007F0D6FF4449C86042480168284608F095
:10316000B7FA454908604548007808F061F9064615
:103170003D480168304608F0A3F9414908603F48DE
:10318000007808F055F9064637488168304608F05F
:1031900097F93C4908603948007808F049F9074632
:1031A00037480168384608F08BF90646364801680A
:1031B000304607F0A5FF35490860084601683048E9
:1031C000006808F00BF832490860304801682D4863
:1031D000006808F003F82F490860294800682E4964
:1031E00008602648007808F023F906461E48416822
:1031F000304608F065F929490860274801682448E5
:10320000006808F05DF9064617480168304608F086
:1032100054FA15490860214801681D48006808F003
:103220004FF9064610484168304608F046FA0E4904
:103230004860194801681748006808F041F90646D7
:1032400009488168304608F038FA07498860134811
:1032500001681048006808F033F925E0CC00002030
:10326000C4000020B0000020F0000020B8000020C2
:10327000A4030020BC000020D0000020C8000020D3
:10328000D4000020D8000020C0000020DC00002076
:10329000E0000020E4000020E8000020EC00002016
:1032A000B40000208C0000200646FE48C16830466D
:1032B00008F003FAFB49C860FB480168FB48006856
:1032C00008F0FEF80646FA480168304607F018FF95
:1032D000F7490860F4480168F648006808F0F0F81B
:1032E0000646F5480168304607F00AFFF2490860D3
:1032F00008460168204608F0EBF9F0490860BDE88F
:10330000F0812DE9F04105460C46EB480168204666
:1033100008F0DEF90746EA480168384608F0D0F8B8
:103320000646E8480168304607F0EAFEE5490860CD
:10333000DC484168E448006808F0CAF90646D94804
:103340008168304608F0C4F9E0490860D548C06893
:1033500080F000404860D348C06880F0004088603A
:10336000DB480068C8600868D549096808F0A8F813
:103370000646CC480168304607F0C2FEC9490860DD
:10338000D2494868CE49096808F09AF80646C54807
:103390004168304607F0B4FEC2494860CB498868AE
:1033A000C749096808F08CF80646BE48816830466F
:1033B00007F0A6FEBB498860C449C868C0490968CF
:1033C00008F07EF80646B748C168304607F098FE18
:1033D000B449C860BB480168284608F079F9B24989
:1033E0000860BC48007808F023F80646AD4801683C
:1033F000304608F065F8B8490860B648007808F02B
:1034000017F80646A7488168304608F059F8B349CE
:103410000860B048007808F00BF80746AE4801682D
:10342000384608F04DF80646AD480168304607F0CA
:1034300067FEAC49086008460168A748006807F0C5
:10344000CDFE9A490860A7480168A448006807F0C3
:10345000C5FE98490860A0480068A34908609D48D7
:10346000007807F0E5FF06468E484168304608F0D0
:1034700027F89E4908609C4801688C48006808F05D
:103480001FF8064687480168304608F016F9854956
:103490000860964801688548006808F011F80646FB
:1034A00080484168304608F008F97E4948608E48F7
:1034B00001688048006808F003F80646794881688A
:1034C000304608F0FAF877498860884801687948FA
:1034D000006807F0F5FF06467248C168304608F0FC
:1034E000ECF87049C860704801687048006807F0DF
:1034F000E7FF064673480168304607F001FE714950
:103500000860694801686B48006807F0D9FF064603
:1035100069480168304607F0F3FD674908600846CE
:103520000168204608F0D4F871490860BDE8F081D0
:103530002DE9FF5F6F49B1F9060007F061FF6E49A1
:1035400008606C49B1F9080007F05AFF6B49086040
:103550006849B1F90A0007F053FF694908606549F5
:10356000B1F9000007F04CFF614908606149B1F909
:10357000020007F045FF514908605E49B1F90400B7
:1035800007F03EFF5F4908605F495B48006807F04D
:1035900063FF07D24FF08D415748006807F01EFEC9
:1035A00004460FE059495448006808F091F806466F
:1035B0004FF08D4107F012FE05464FF07E5108F0A6
:1035C0007CF8044650494D48006807F045FF07D293
:1035D0004FF08D414948006807F000FE82460FE039
:1035E0004A494648006808F073F806464FF08D4196
:1035F00007F0F4FD05464FF07E5108F05EF8824674
:1036000041493F48006807F027FF07D24FF08D413E
:103610003B48006807F0E2FD81460AE03B49384834
:10362000006808F055F805464FF08D4107F0D6FDCB
:1036300081464946504607F0D1FD834607F034FDE8
:10364000CDE9000106F056FC05460022304B07F09C
:103650001BFA304A304BCDE9020106F0F9FF07466C
:1036600006F008FF2D4908604946204607F0B6FDE0
:10367000834607F019FD074606F03CFC0022244B68
:10368000CDE9000107F000FA224A234BCDE90201FF
:1036900006F0DEFF054606F0EDFE214908602146F2
:1036A00050463FE0F0000020D0000020E000002065
:1036B000B0000020E4000020CC0000208C0000209E
:1036C000C4000020AC000020B8000020A4030020AB
:1036D000BC000020C8000020D4000020D80000203A
:1036E000C0000020DC000020E8000020EC000020EA
:1036F00088000020540300207C000020800000206F
:10370000840000209000002000F8FF4600004047A1
:10371000008066401F85EB51B81E0940A0000020C4
:10372000A400002007F05AFD834607F0BDFC0746C1
:1037300006F0E0FB0022FE4BCDE9000107F0A4F902
:103740000546FC4AFC4B06F083FFCDE9020106F07A
:1037500091FEFA490860FA49FA48006807F07CFED1
:1037600003D2F9480068F8490860F549F54800684F
:1037700007F072FF05D2F448006880F00040F2497B
:103780000860EF49F148006807F066FE03D2F04890
:103790000068EF490860EA49EC48006807F05CFF00
:1037A00005D2EB48006880F00040E9490860E44930
:1037B000E848006807F050FE03D2E0480068DF499F
:1037C0000860DF49E348006807F046FF05D2DB48A0
:1037D000006880F00040D94908604FF08E41DE4813
:1037E000006807F039FE10D2DB48006807F05CFC87
:1037F00007464FF06632D94B06F02AFF81F00041B0
:10380000054606F037FED44908604FF08E41D24895
:10381000006807F021FF12D2CF480168D04807F0B6
:1038200057FF834607F040FC07464FF06632CB4B0C
:1038300006F00EFF054606F01DFEC74908604FF072
:103840008E41C848006807F007FE10D2C5480068DE
:1038500007F02AFC07464FF06632C04B06F0F8FE30
:1038600081F00041054606F005FEBE4908604FF0B4
:103870008E41BC48006807F0EFFE12D2B9480168DB
:10388000B74807F025FF834607F00EFC05464FF0CA
:103890006632B24B06F0DCFE074606F0EBFDB1499E
:1038A00008604FF08E41B048006807F0D5FD10D297
:1038B000AD48006807F0F8FB05464FF06632A74BAD
:1038C00006F0C6FE81F00041074606F0D3FDA6498A
:1038D00008604FF08E41A448006807F0BDFE12D288
:1038E000A14801689E4807F0F3FE834607F0DCFB21
:1038F00007464FF06632994B06F0AAFE054606F0E1
:10390000B9FD994908609448016891480068FFF73B
:10391000F8FC944801688C480068FFF7B4FB9248B3
:10392000016886480068FFF797FABDE8FF9F2DE918
:10393000F04704460D468D4801684FF07E5007F071
:10394000C7FE0746894801684FF07E5007F0C0FE69
:10395000804687480168204607F0BAFE8146414606
:1039600007F0AEFD0646394607F0AAFD814908601A
:10397000814801687F48006807F0A2FD06467F483D
:103980000168304607F0BCFB7C4908607848016854
:10399000204607F09DFE8146744801684FF07E5036
:1039A00007F096FE82464FF0804107F089FD804681
:1039B000494607F085FD074670480168384607F01C
:1039C0009FFB0646294607F09BFB6D4908606A4845
:1039D00001686B48006807F073FD0646644801689B
:1039E000304607F08DFB62490860BDE8F0872DE99D
:1039F000F84F6448C0886449088062480089634978
:103A0000088060484089624908805E4890F8480014
:103A1000A8B95C49B1F9000007F0F2FC59494862C5
:103A2000B1F9020007F0ECFC56498862B1F90400D4
:103A300007F0E6FC5349C862012081F8480051496B
:103A4000B1F9000007F0DCFC05464E48416A284603
:103A500007F03EFE044607F0B7FC00B24D4908806F
:103A60004849B1F9020007F0CBFC05464548816A98
:103A7000284607F02DFE044607F0A6FC00B2464992
:103A800008804049B1F9040007F0BAFC05463D48FA
:103A9000C16A284607F01CFE044607F095FC00B2F8
:103AA0003E4908803848B0F9000006F086FF064617
:103AB0003B4A3C4B06F0CCFD044606F0DBFC3A49A1
:103AC00008603248B0F9000006F077FF0646344A35
:103AD000344B06F0BDFD044606F0CCFC33490860CB
:103AE0002B48B0F9000006F068FF06462C4A2D4B23
:103AF00006F0AEFD044606F0BDFC2D490860084600
:103B000001682948006807F069FB009007F0CCFACB
:103B1000804606F0EFF982460022054B06F0B4FF1E
:103B20000646244A244B06F093FD044646E0000076
:103B3000008066401F85EB51B81E0940A800002098
:103B400000F8FF467C000020A40000208000002038
:103B5000A00000208400002088000020666630401D
:103B600000FF7F478C000020900000200001002013
:103B70001401002004010020100100200C0100208D
:103B80000801002054030020180100201A01002021
:103B90001C0100201E010020200100202201002025
:103BA000FCA9F1D24D6230403C01002040010020D0
:103BB0004401002038E92F54FB21094006F05AFC4B
:103BC000FE490860FE480168FE48006807F006FBF1
:103BD000009007F069FA824606F08CF980460022D0
:103BE000F94B06F051FF0646F84AF94B06F030FD56
:103BF000044606F03FFCF7490860F2480168F648C1
:103C0000006807F0EBFA009007F04EFA824606F0E3
:103C100071F980460022EC4B06F036FF0646EB4A6F
:103C2000EB4B06F015FD044606F024FCEB4908605A
:103C3000EB48B0F9000006F0C0FE06460022E94B52
:103C400006F006FD044606F015FCE7490860E74863
:103C5000B0F9000006F0B1FE06460022E14B06F086
:103C6000F7FC044606F006FCE1490860E148B0F9BB
:103C7000000006F0A2FE06460022DA4B06F0E8FC41
:103C8000044606F0F7FBDC4908600846006807F0C8
:103C90009BFB061E01DB314600E07142084606F040
:103CA0008CFE0446D54AD64B06F0B2FE02D2002066
:103CB000D149086003F07EFFD24908600021CA485C
:103CC000006807F005FD0646CF4907F0F9FB0546F9
:103CD000CE4907F083FA0446CD480168204607F034
:103CE0000FFACB4908600021C148006807F0F0FCDA
:103CF0000646C54907F0E4FB0546C44907F06EFADD
:103D00000446C4480168204607F0FAF9C149086032
:103D1000BC490968C04A1268881A07F089FB07463F
:103D20000021B548006807F0D3FC8046394607F00B
:103D3000C7FB06464FF0804107F0C2FB0546B3497A
:103D400007F04CFA0446B5480168204607F0D8F958
:103D5000B24908600021B148006807F07DFB03D23A
:103D6000AF48AE49086008E0AE49AC48006807F0CB
:103D700073FC02D20020A9490860A8480068AA493B
:103D8000C864A0480068A4490860BDE8F88F0FB572
:103D900097B0179807F088F9A44AA54BCDE90C0114
:103DA00007F098F8CDE90E0106F064FB179018981B
:103DB00007F07AF99F4AA04BCDE90C0107F08AF889
:103DC000CDE90E0106F056FB1890199807F06CF932
:103DD0009A4A9B4BCDE90C0107F07CF8CDE90E0126
:103DE00006F048FB19901D99084607F069FB0A90F8
:103DF0001C99084607F064FB08901A99084607F0DA
:103E00005FFB0790089907F07BF909900A9907F082
:103E100077F90B9007F048F9CDE90C0106F0D8FAD4
:103E2000CDE90E0106F026FB169016991A9807F0B8
:103E3000D5F91A9016991C9807F0D0F91C9016998C
:103E40001D9807F0CBF91D907E4801687E480068F8
:103E500007F036FB0E907D4801687D48006807F04A
:103E60002FFB0D900E9907F033FC4FF080410F901F
:103E700007F026FB1590754801687248006807F046
:103E80001FFB0E90724801686F48006807F018FB2E
:103E90000D900E9907F034F94FF080410F9007F024
:103EA0000FFB149069480168006807F009FB0F9048
:103EB00064480168006807F003FB0D9064480168DE
:103EC000006807F0FDFA0B905F480168006807F092
:103ED000F7FA0A900B9907F0FBFB0C900D9907F08D
:103EE000F7FB0E900F9907F00BF9139014991D989A
:103EF00007F0E6FA0F9013991C9807F0E1FA0E907C
:103F00000F9907F0E5FB129013991A9807F0D8FA69
:103F10000F9015991D9807F0D3FA0E900F9907F09E
:103F2000D7FB119015991C9807F0CAFA0F901499B5
:103F30001A9807F0C5FA0E900F9907F0C9FB109078
:103F40004449129807F0BCFA0F90434801680F9853
:103F500007F0D6F8404908603E49119807F0B0FADA
:103F60000F903E4801680F9807F0CAF83B49086077
:103F70003849109807F0A4FA0F90394801680F9853
:103F800007F0BEF8364908604FF08040129907F0FC
:103F900097FA0E90179907F0B3F80F902E48016822
:103FA0000F9807F0ADF817904FF08040119907F087
:103FB00087FA0E90189907F0A3F853E054010020F7
:103FC00044010020400100200080664038E92F5461
:103FD000FB210940580100203C0100205C01002029
:103FE0001E01002000C02C403001002020010020D4
:103FF0003401002022010020380100209A9999996B
:104000009999B93F900100200000A04100007A4436
:10401000480100204C0100209401002050010020A4
:104020000080B3430000B44354030020EE7C3F35CE
:104030005EFA05C05396218E7571E7BF64CDC82026
:104040007771074068010020600100206C010020AA
:10405000640100206F12833A700100207401002077
:10406000780100200F90A74801680F9807F048F8E2
:1040700018904FF08040109907F022FA0E9019998D
:1040800007F03EF80F90A04801680F9807F038F845
:1040900019909E481999006807F012FA0D909C48F3
:1040A0001899006807F00CFA0B909A48006880F0A5
:1040B00000400990179907F003FA0A900B9907F04E
:1040C00007FB0C900D9907F003FB93490E9007F046
:1040D000F7F90F90914801680F9807F011F88F4990
:1040E00008608A481899006807F0EAF90D90884836
:1040F0001999006807F0E4F90B908848016817984F
:1041000007F0DEF90A900B9906F0FAFF0C900D9972
:1041100007F0DEFA80490E9007F0D2F90F907D4843
:1041200001680F9806F0ECFF7A490860774801684B
:10413000179807F0C5F90D9076481999006807F0AF
:10414000BFF90B9075481899006807F0B9F90A9003
:104150000B9907F0BDFA0C900D9906F0D1FF6E494E
:104160000E9007F0ADF90F90694801680F9806F0BE
:10417000C7FF6749086008460168179807F0A0F96B
:104180000D9064481899006807F09AF90B906348FD
:104190001999006807F094F90A900B9906F0B0FF9E
:1041A0000C900D9907F094FA5B490E9007F088F98E
:1041B0000F90564801680F9806F0A2FF5349086017
:1041C00008460168006807F07BF90A9050480168CA
:1041D000006807F075F908904E480168006807F01C
:1041E0006FF906904D480168006807F069F905907D
:1041F000069906F085FF0790089906F081FF09905F
:104200000A9906F07DFF0B9006F04EFFCDE90C01F8
:1042100006F0DEF8CDE90E0106F02CF916903F48C5
:104220001699006806F0DAFF3C490860394816998B
:10423000006806F0D3FF37490860354816990068D2
:1042400006F0CCFF3249086030481699006806F045
:10425000C5FF2E49086008460168006807F030F97C
:1042600006902B480168006807F02AF90490294855
:104270000168006807F024F9029028480168006886
:1042800007F01EF90190029906F03AFF0390049995
:1042900007F01EFA0590069907F01AFA079006F043
:1042A00003FFCDE90A01194801681C48006807F0BE
:1042B00007F90590164801681648006807F000F9EC
:1042C0000490059906F01CFF4FF08041069007F01E
:1042D000F7F8079006F0E8FECDE90801DDE90A23CA
:1042E00005F018FF4FF066320D4BCDE90C0106F0DA
:1042F000CBFBCDE90E0106F0BDF80A4908601BB002
:1043000000BD000074010020780100206C01002035
:1043100068010020640100206F12833A60010020D0
:1043200066A64C407C0100200020FE4948600860E1
:10433000704710B503460C46FA48406823281DDA3A
:10434000F8480068F7494968884201D1FFF7ECFF57
:10435000F4484168083040F821300838416894300A
:1043600040F821409438416800F5907040F82120D1
:10437000EC484068401CEB4948601CE0E948406854
:10438000232818D10020E7494860084641680830D2
:1043900040F8213008384168943040F82140943882
:1043A000416800F5907040F82120DE484068401CCC
:1043B000DC49486010BD00BFFCE7DA4800682328EC
:1043C00002D10020D7490860D64801684068401CE7
:1043D000814201D100207047D24801680068401C2A
:1043E000D04A106002F1080010F82100F3E710B580
:1043F0000024CC48047808E0CA48083050F824105B
:10440000C9A003F0BFFD601CC4B2C6484068A0420A
:10441000F2DC10BDC3480068C2494968884201D136
:10442000012070470020FCE72DE9F04104460D46CD
:10443000A5F10A0085B2BD48007820B1012810D04E
:10444000022875D19AE0BA48C06CBA4908600023C6
:10445000224619461846FCF7EEFE0120B3490870C3
:1044600093E0002C44DDB249C86CB249096807F0FA
:10447000F3F81DD2284606F0DBFF0746AC48C16CB6
:10448000AD4807F025F98046AA480168404606F085
:1044900037FE0646394607F0DFF809D200231A46F0
:1044A00019461846FCF7C7FE0220A049087064E0D0
:1044B0009F49C86C9F49096806F0CEFF5DD2284627
:1044C00006F0B6FF06469A48C16C9A48006807F0A5
:1044D000FFF80746314607F0BFF84ED200231A46D0
:1044E00019461846FCF7A7FE02209049087044E0E0
:1044F0008F49C86C8F49096807F0AEF819D2284671
:1045000006F096FF06468A49C86C8A49096807F092
:10451000DFF80746314607F09FF80AD200231A4613
:1045200019461846FCF787FE02208049087024E0EF
:104530002AE07F49C86C7F49096806F08DFF1CD2CC
:10454000284606F075FF07467949C86C7A4906F097
:10455000D7FD804677480168404607F0B9F806461F
:10456000394607F079F808D200231A46194618464A
:10457000FCF761FE02206D49087006E000206F49DB
:1045800008706A49087000E000BF00BFBDE8F08114
:104590002DE9FC5F044689466948007820B101286E
:1045A00020D002287ED190E200231A4621B218467C
:1045B000FCF741FE5E48C06C6249086003F0FAFAFD
:1045C0006149086061484068614908606148406825
:1045D00061490860614840686149086001205849A4
:1045E000087079E2002C7DDD5149C86C5549096895
:1045F00007F032F877D24E49C86C5249096807F083
:1046000067F80546574907F027F86DD24848C16C4E
:10461000494807F05DF805464A480168284606F013
:104620006FFD514908600846006806F03DFD4F4A9D
:104630004F4BCDE9000106F027FA05460E464549E5
:10464000486806F0BAF907462A46334606F042FCA7
:10465000824606F055F93F4948603F48006806F039
:10466000ACF98246414A434B06F00EFA07468846AB
:104670003849486806F0A1F905463A46434606F02F
:10468000C7F90DD23448006806F097F90746374A53
:10469000384B06F0F9F9054606F032F92D49486025
:1046A000314800E017E2006806F0FEFC05462F4A9C
:1046B0002F4B06F0E9F9074688462849486806F076
:1046C0007CF982463A46434605F006FFCDE90001F3
:1046D00006F016F9214948602148006806F06DF996
:1046E000824602E04EE0D3E04DE04FF03332224B01
:1046F00006F0CAF905460E461849486806F05DF905
:1047000007462A46334606F0BDFA3BD214480068F5
:1047100006F053F907464FF03332174B06F0B4F961
:1047200005462BE0B403002025640A009B0100200D
:10473000540300209C0100200000B4439801002095
:10474000A0010020A4010020BC01002004020020E0
:10475000B001002018020020AC0100202C02002033
:10476000B401002000004843A80100209A999999BB
:104770009999B93F9999E93F3333F33F06F0C0F86F
:10478000FA4948608BE1FA49C86CFA49096806F0B1
:104790009FFFF94908600846006806F085FC8246DC
:1047A000F64AF74B06F070F905460E46F54948689B
:1047B00006F003F907462A46334605F08DFECDE99B
:1047C000000106F09DF8EF494860EF48006806F0E8
:1047D000F4F805464FF03332EC4B06F055F9074636
:1047E0008846E849486806F0E8F882463A46434673
:1047F00006F048FA0ED2E448006806F0DEF80746F4
:104800004FF03332E14B06F03FF9054606F078F8F9
:10481000DC494860D848006806F046FC8246D74A22
:10482000D74B06F031F905460E46D049486806F0E8
:10483000C4F807462A46334606F04CFBCDE9000192
:1048400006F05EF8C9494860D148006806F0B5F83E
:104850000546CA4ACF4B06F017F982468B46C34934
:10486000486806F0AAF8074652465B4606F0D0F8BC
:1048700088D2C748006806F0A0F80746BF4AC54B73
:1048800006F002F9054606F03BF8B849486006E133
:10489000B749C86CB749096806F0DEFDF7D2B449DC
:1048A000C86CB449096806F013FF0546BA4906F01A
:1048B000D3FD70D2AF480168B84806F009FF05463D
:1048C000AB48C16C284606F01BFCAB490860AE48FB
:1048D000006806F072F807464FF03332AB4B06F033
:1048E000D3F805460E46A749486806F066F88246A2
:1048F0002A46334606F0C6F90ED2A348006806F0F1
:104900005CF807464FF03332A04B06F0BDF8054681
:1049100005F0F6FF9B4948609748006806F0C4FB25
:104920000546964A964B06F0AFF882468B468F496D
:10493000486806F042F8074652465B4606F0CAFA57
:10494000CDE9000105F0DCFF884948609048006827
:1049500006F033F88246894A8E4B06F095F80746F2
:1049600088468249486806F028F805463A46434694
:1049700006F04EF88BD28648006806F01EF807460F
:104980007E4A844B06F080F8054605F0B9FF77496A
:10499000486084E0FFE77648C16C7648006806F01E
:1049A00097FE754908600846006806F07DFB824660
:1049B000724A734B06F068F805460E46714948681E
:1049C00005F0FBFF07462A46334606F083FACDE999
:1049D000000105F095FF6B4948606B48006805F0E1
:1049E000ECFF8246654A6B4B06F04EF805460E46D4
:1049F0006449486805F0E1FF07462A46334606F059
:104A000007F80DD26048006805F0D7FF07465B4AFB
:104A1000604B06F039F8054605F072FF59494860C9
:104A20005548006806F040FB0546544A544B06F0D2
:104A30002BF8074688464D49486805F0BEFF824678
:104A40003A46434605F048FDCDE9000105F058FF20
:104A5000464948604E48006805F0AFFF05464FF0F4
:104A600033324A4B06F010F8074688463F494868FB
:104A700005F0A3FF82463A46434606F003F90ED2FC
:104A80004348006805F099FF07464FF033323F4B2B
:104A900005F0FAFF054605F033FF3449486003F09E
:104AA00089F83F490860084600683E490968401A8D
:104AB000B9EB400F08D200231A4619461846FCF7F6
:104AC000BAFB02203849087006E000203749087018
:104AD0003549087000E000BF00BFBDE8FC9F10B57D
:104AE000234890F8480000B910BD3048007898B9C4
:104AF0002F480078401C2E4908700846007864282A
:104B000009DDFFF75AFC2B4908700120274908707E
:104B1000002027490870E7E726480078062878D261
:104B2000DFE800F0030818195E760221224802F03F
:104B300005FC6FE0214A1268521E204B943353F853
:104B400022101E4A1268521E8C3353F82200FFF7BF
:104B50001FFD5FE05EE0194A1268521E184B53F8C1
:104B60002240002C2EDB22462DE000002C020020EB
:104B700054030020A4010020A80100209A999999CB
:104B80009999B93F18020020AC0100203333F33F5C
:104B9000B40100209999E93F000048C30000B443E4
:104BA000B8010020BC010020A001002098010020D5
:104BB0009A01002099010020697C0008B4030020BC
:104BC000D40400206242524250B21E4A1268521E61
:104BD0001C4B943333F8222091B2FFF725FC19E0E7
:104BE000184A1268521E184B53F82240002C01DB61
:104BF000224600E0624250B2124A1268521E124B24
:104C00008C3B33F8222091B2FFF70EFC02E000E06B
:104C100000E000BF00BF00BF66E770B504460D4668
:104C200016460A4802F0B1FE022805D1FFF77CFBC8
:104C30000121064802F082FB324629462046FFF752
:104C400078FB70BDB4030020D4040020697C000808
:104C500010B54FF4A06000F077FA10BD00BF7047A8
:104C6000704770B505460C460021F84802F061FA1D
:104C7000C82C01D9002070BD22462946F44803F013
:104C8000BDFA2146F14802F069FA0121EF4802F02D
:104C900050FA0120EFE700B58BB00121084600F083
:104CA000D0FDEA48143802F077F9E84802F074F9C8
:104CB000E8480090E848019000200290C820039046
:104CC0000020049080200590002006900790089016
:104CD0004FF44050099000200A906946DB48143890
:104CE00002F0FCF90121D948143802F022FAD9481F
:104CF0000090D748019010200290092003900020D6
:104D000004908020059000200690079008904FF4B2
:104D10008050099000200A906946CC4802F0DEF9E4
:104D200001224021CB48001F00F0FCFE012280211F
:104D3000C848001F00F0F6FE0BB000BD08B51020FB
:104D40008DF8000000208DF8010001208DF8020090
:104D50008DF80300684600F0FCF926208DF800006D
:104D600000208DF8010002208DF8020001208DF84E
:104D70000300684600F0EDF908BD10B586B00446A2
:104D80000121480400F077FD0121052000F066FDB7
:104D90000420ADF8140018208DF8170003208DF8BA
:104DA000160005A9AD4800F09DFA0820ADF81400E2
:104DB00004208DF8170005A9A84800F093FA019483
:104DC0000020ADF80800ADF80A00ADF80C00ADF811
:104DD00010000C20ADF80E0001A99E48001F00F045
:104DE000E4FDFFF7ABFFFFF756FF012240F224413D
:104DF0009848001F00F071FE01219648001F00F046
:104E000060FE40219348001F00F043FF06B010BD34
:104E100070B502F042FE40F224418E48001F00F0BF
:104E200041FF10B38B48001F0088C4B28948008836
:104E3000C4B200218548143802F07BF98348143845
:104E400002F08EF905462A468349854803F0D6F9D3
:104E5000FCF7C6FEC8217D48143802F07FF9012115
:104E60007A48143802F065F900BF02F025FE70BDE3
:104E700010B502F012FE4FF4001002F075F918B1EF
:104E80004FF4001002F0A3F902F016FE10BD70B549
:104E900005460C4600216D48643802F04AF9C82CDA
:104EA00001D9002070BD224629466E4803F0A6F9BC
:104EB00021466648643802F051F90121634864389C
:104EC00002F037F90120EDE700B58BB0012108466B
:104ED00000F0B7FC5D48643802F05EF85B4850387B
:104EE00002F05AF86048009060480190002002905B
:104EF000C820039000200490802005900020069098
:104F0000079008904FF44050099000200A9069469D
:104F10004E48503802F0E2F801214C48503802F077
:104F200008F9514800904F48019010200290092044
:104F300003900020049080200590002006900790A8
:104F400008904FF48050099000200A9069463F482D
:104F5000643802F0C3F8012240214348001F00F0EA
:104F6000E1FD012280214048001F00F0DBFD0BB075
:104F700000BD08B50D208DF8000000208DF801005F
:104F800001208DF802008DF80300684600F0E1F87A
:104F900027208DF8000000208DF8010002208DF8F8
:104FA000020001208DF80300684600F0D2F808BD29
:104FB00010B586B004460121880400F05CFC012194
:104FC000092000F04BFC4FF48060ADF8140018206D
:104FD0008DF8170003208DF8160005A9244800F06D
:104FE00081F94FF40060ADF8140004208DF817002B
:104FF00005A91F4800F076F901940020ADF80800DB
:10500000ADF80A00ADF80C00ADF810000C20ADF8BA
:105010000E0001A91448001F00F0C7FCFFF7A9FF0C
:10502000FFF752FF012240F224410F48001F00F019
:1050300054FD01210C48001F00F043FD40210A48A7
:10504000001F00F026FE06B010BD000080000240E8
:1050500028060020044400406005002000080140AC
:10506000540700208008002004480040B8070020B2
:10507000000C014010B502F010FD40F224411F4821
:1050800000F010FE98B11D480088C4B21B48001DF6
:105090000088C4B200211A4802F04BF8C821184811
:1050A00002F05CF80121164802F043F800BF02F05C
:1050B00003FD10BD10B502F0F0FC4FF4007002F0DB
:1050C00053F818B14FF4007002F081F802F0F4FCCC
:1050D00010BD0FB438B505A800903C210948009BCD
:1050E000049A02F035FF044600200090E1B2054822
:1050F000FFF7CDFE38BC5DF814FB0000004800400F
:10510000300002404809002009488047094800470C
:10511000FEE7FEE7FEE7FEE7FEE7FEE7FEE7FEE767
:10512000FEE7FEE704480549054A064B70470000C4
:10513000AB03000831010008F01B0020F021002023
:10514000F01D0020F01D002031490143314A11605B
:10515000704770B5002100230F22C47804B32D4C92
:10516000246804F4E064C4F5E064210AC1F1040396
:10517000CA40447804FA03F18478144021430901B9
:10518000254C0678A155047804F01F050124AC4095
:1051900005786D11AD0005F1E025C5F8004109E085
:1051A000047804F01F050124AC401C4D06787611EC
:1051B00045F8264070BD1A4A0A400243154B1B1F92
:1051C0001A60704739B1134A121D12680243114B1D
:1051D0001B1D1A6006E00F4A121D126882430D4B18
:1051E0001B1D1A607047042808D14FF0E02109699F
:1051F00041F004014FF0E022116107E04FF0E0219F
:10520000096921F004014FF0E022116170470000AC
:105210000000FA050CED00E000E400E080E100E0B1
:1052200080FFFF1F10B50446CC48844208D10121FD
:10523000042000F02DFB0021042000F029FB46E0B3
:10524000C748844208D10121082000F021FB002139
:10525000082000F01DFB3AE0C248844208D1012139
:10526000102000F015FB0021102000F011FB2EE0B3
:10527000BD48844208D10121202000F009FB002113
:10528000202000F005FB22E0B848844208D101212B
:10529000402000F0FDFA0021402000F0F9FA16E06D
:1052A000B348844208D10121802000F0F1FA0021A6
:1052B000802000F0EDFA0AE0AE48844207D10121D7
:1052C000801500F0E5FA0021A01500F0E1FA10BD0C
:1052D00010B50121084600F0DBFA0021012000F0A2
:1052E000D7FA10BD2DE9F041024600250026002026
:1052F00000230024002791F803C00CF00F0591F85B
:1053000003C00CF0100CBCF1000F03D091F802C0E8
:105310004CEA050591F800C0BCF1000F31D01468CB
:1053200000202BE04FF0010C0CFA00F3B1F800C0A4
:105330000CEA03069E4220D183004FF00F0C0CFABA
:1053400003F7BC4305FA03FC4CEA040491F803C0DC
:10535000BCF1280F06D14FF0010C0CFA00FCC2F88A
:1053600014C00AE091F803C0BCF1480F05D14FF01A
:10537000010C0CFA00FCC2F810C0401C0828D1D364
:105380001460B1F800C0BCF1FF0F34DD5468002098
:105390002EE000F1080C4FF0010808FA0CF3B1F808
:1053A00000C00CEA03069E4221D183004FF00F0C8F
:1053B0000CFA03F7BC4305FA03FC4CEA040491F829
:1053C00003C0BCF1280F05D100F1080C08FA0CF855
:1053D000C2F8148091F803C0BCF1480F07D100F166
:1053E000080C4FF0010808FA0CF8C2F81080401CB5
:1053F0000828CED35460BDE8F0814FF6FF710180DC
:10540000022181700421C170704702460020936818
:105410000B400BB1012000E0002070470146886876
:1054200080B2704702460020D3680B400BB10120C8
:1054300000E0002070470146C86880B270470161F3
:105440007047416170470AB1016100E041617047F6
:10545000C16070474FF480320A438261816182618A
:1054600082698269704702460020434B18684FF6F4
:105470008073184040EA021008433F4B18607047A1
:105480003E49C8617047F0B50A4600230024002158
:10549000002500F00046B6F1004F02D1364EF1690A
:1054A00001E0354E7168C0F3034583B200F4401645
:1054B000B6F5401F08D121F070612F4E766826F0B6
:1054C00070662D4F7E6012E000F48016B6F5801FE6
:1054D00006D1032606FA05F4A14341F0706106E007
:1054E000460D360103FA06F6B14341F0706122B170
:1054F000460D360103FA06F6314300F00046B6F1D8
:10550000004F02D11C4EF16101E01B4E7160F0BDF5
:1055100030B500228B071C0F0F2303FA04F2164B41
:1055200008338C1053F824309343134C08348D10F7
:1055300044F8253023468C1053F824308C07240F70
:1055400000FA04F423430C4C08348D1044F8253041
:1055500030BD0A49DC310860704700000008014096
:10556000000C0140001001400014014000180140EF
:10557000001C0140002001400000014000002042CA
:10558000DF48006840F00100DD49086008464068D7
:10559000DC490840DA49486008460068DA490840B2
:1055A000D74908600846006820F480200860084653
:1055B000406820F4FE0048604FF41F008860704788
:1055C000CF49096821F48031CD4A1160114609683C
:1055D00021F480211160B0F5803F03D0B0F5802F19
:1055E0000ED106E0C649096841F48031C44A116011
:1055F00007E0C349096841F4A021C14A116000E0F5
:1056000000BF00BF704710B50146002200230020F4
:105610004A11012A02D1BA4C236806E0022A02D1BB
:10562000B74C236A01E0B64C636A01F01F02012403
:1056300094401C400CB1012000E0002010BD38B5A2
:10564000002000900024002500BF3120FFF7DBFF81
:1056500005460098401C00900098B0F5A06F01D05E
:10566000002DF2D03120FFF7CEFF08B1012400E079
:105670000024204638BD01460020A14A106820F0D1
:10568000F80040EAC10010607047A0490860704708
:10569000024600209A4B586820F47C1042EA01032D
:1056A0001843974B58607047984908667047014601
:1056B0000020934A506820F0030008435060704770
:1056C0008F48406800F00C007047014600208C4A6B
:1056D000506820F0F00008435060704701460020F9
:1056E000874A506820F4E0600843506070470146E4
:1056F0000020834A506820F4605040EAC1005060A6
:10570000704729B17E4A527A02437D4B5A7204E0B7
:105710007B4A527A82437A4B5A7270477B49D8311E
:105720000860704701460020754A506820F44040E8
:105730000843506070470021714A20321170704A4E
:1057400082F82010012802D004280AD104E00121A7
:105750006B4A2032117005E00521694A2032117030
:1057600000E000BF00BF70476949086070476449A6
:10577000096A0143624A1162704765494439086009
:10578000704730B500210022002400235C4D6D6875
:1057900005F00C0121B1042905D0082923D105E029
:1057A0005C4D056022E05B4D05601FE0544D6D6867
:1057B00005F47012524D6D6805F48034022505EB36
:1057C00092421CB9544D554305600BE04C4D6D6839
:1057D00005F400351DB1504D5543056002E04D4DB7
:1057E0005543056002E04B4D056000BF00BF444DCE
:1057F0006D6805F0F0010909484D6B5C0568DD40F6
:1058000045603F4D6D6805F4E061090A434D6B5CEE
:105810004568DD4085603A4D6D6805F46051C90A00
:105820003E4D6B5C4568DD40C560354D6D6805F4E7
:105830004041890B3A4D6B5CC568B5FBF3F50561DA
:1058400030BD29B12E4A526902432D4B5A6104E002
:105850002B4A526982432A4B5A61704729B1284A20
:1058600092690243264B9A6104E0254A9269824379
:10587000234B9A61704729B1214AD2690243204BD8
:10588000DA6104E01E4AD26982431D4BDA61704737
:1058900029B11B4AD2680243194BDA6004E0184A66
:1058A000D2688243164BDA60704729B1144A1269F4
:1058B0000243134B1A6104E0114A12698243104BF0
:1058C0001A61704712494039086070470F49C8642F
:1058D00070470B49C87170470948406A40F08070B2
:1058E00007494862704701460020054A92680A400D
:1058F0000AB1012000E0002070470149887270471A
:10590000001002400000FFF8FFFFF6FE00004242D8
:105910008004424200127A0000093D00C4010020C8
:10592000D401002010B50446FB48844209D101216E
:105930008803FFF7ADFF00214FF48040FFF7A8FF79
:1059400032E0F648844209D101214804FFF7ADFF57
:1059500000214FF40030FFF7A8FF25E0F048844213
:1059600009D101218804FFF7A0FF00214FF4802016
:10597000FFF79BFF18E0EB48844209D10121C804DE
:10598000FFF793FF00214FF40020FFF78EFF0BE09D
:10599000E548844208D101210805FFF786FF002170
:1059A0004FF48010FFF781FF10BD2DE9F04786B05E
:1059B00005460E460024A24600BFA1460027B08936
:1059C00000B100BF2F462C8A4CF6FF700440F088CF
:1059D00004432C82AC894EF6F3100440B088318920
:1059E0000843718908430443AC81AC8A4FF6FF40F9
:1059F0000440B0890443AC8201A8FFF7C2FEC64848
:105A0000874202D1DDF810A001E0DDF80CA0A889E2
:105A100000F4004040B10AEBCA0000EB0A10316804
:105A20004900B0FBF1F807E00AEBCA0000EB0A10EE
:105A300031688900B0FBF1F86420B8FBF0F0040194
:105A40002009642101FB1089A88900F4004040B1BD
:105A5000322000EBC900B0FBF1F000F00700044376
:105A600008E0322000EB09106421B0FBF1F000F0F7
:105A70000F0004432C8106B0BDE8F0874FF41651A7
:105A8000016000218180C18001810C2141810021C0
:105A90008181704710B502460020108A4FF2FF0343
:105AA00018400B884C8823438C882343CC8823439D
:105AB0001843108210BD0021018041808180C18087
:105AC000704721B1828942F40052828104E08289C8
:105AD0004DF6FF731A4082817047F0B503460024EB
